:020000040800F2
:100000000000272049100008B9110008BB110008A2
:10001000BD110008BF110008C111000899100008A7
:10002000000000000000000000000000C3110008F4
:10003000C511000800000000C7110008C911000820
:1000400099100008991000089910000899100008EC
:1000500099100008991000089910000899100008DC
:100060009910000899100008991000084D14000814
:100070005B14000869140008771400088514000850
:1000800093140008A1140008AF140008BD14000860
:10009000CD140008DD140008ED140008FD1400085C
:1000A0000D1500081D1500082D15000899100008F1
:1000B000991000089910000899100008991000087C
:1000C000991000089910000899100008991000086C
:1000D000991000089910000899100008991000085C
:1000E000991000089910000899100008991000084C
:1000F000991000089910000899100008991000083C
:10010000991000089910000899100008991000082B
:10011000991000089910000899100008991000081B
:10012000991000089910000899100008991000080B
:1001300099100008991000089910000899100008FB
:1001400099100008991000089910000899100008EB
:1001500099100008991000089910000899100008DB
:1001600099100008119700089910000899100008CC
:1001700099100008991000089910000899100008BB
:1001800099100008991000089910000899100008AB
:10019000991000089910000899100008991000089B
:1001A000991000089910000899100008991000088B
:1001B000991000089910000899100008991000087B
:1001C000991000089910000899100008991000086B
:1001D000991000089910000899100008991000085B
:1001E000991000089910000899100008991000084B
:1001F000991000089910000899100008991000083B
:10020000991000089910000899100008991000082A
:10021000991000089910000899100008991000081A
:10022000991000089910000899100008991000080A
:1002300099100008991000089910000899100008FA
:10024000991000089910000899100008000000009B
:08025000991000089910000844
:1002580010B5054C237833B9044B13B10448AFF3F8
:1002680000800123237010BD3C1100200000000015
:100278005426010808B5034B1BB103490348AFF3E3
:10028800008008BD0000000040110020542601082D
:1002980010F8012B11F8013B012A28BF9A42F7D028
:1002A800D01A7047034613F8012B002AFBD1181AFD
:1002B8000138704781F0004102E000BF83F000433D
:1002C80030B54FEA41044FEA430594EA050F08BFE9
:1002D80090EA020F1FBF54EA000C55EA020C7FEAAD
:1002E800645C7FEA655C00F0E2804FEA5454D4EB2A
:1002F8005555B8BF6D420CDD2C4480EA020281EAF4
:10030800030382EA000083EA010180EA020281EA2B
:100318000303362D88BF30BD11F0004F4FEA01317D
:100328004FF4801C4CEA113102D0404261EB41018C
:1003380013F0004F4FEA03334CEA133302D0524212
:1003480063EB430394EA050F00F0A780A4F10104CE
:10035800D5F1200E0DDB02FA0EFC22FA05F2801808
:1003680041F1000103FA0EF2801843FA05F35941EE
:100378000EE0A5F120050EF1200E012A03FA0EFC6D
:1003880028BF4CF0020C43FA05F3C01851EBE37197
:1003980001F0004507D54FF0000EDCF1000C7EEBB4
:1003A80000006EEB0101B1F5801F1BD3B1F5001FF2
:1003B8000CD349085FEA30004FEA3C0C04F1010411
:1003C8004FEA445212F5800F80F09A80BCF1004F3A
:1003D80008BF5FEA500C50F1000041EB045141EABC
:1003E800050130BD5FEA4C0C404141EB0101013C85
:1003F80028BFB1F5801FE9D291F0000F04BF014674
:100408000020B1FA81F308BF2033A3F10B03B3F145
:1004180020020CDA0C3208DD02F1140CC2F10C02D5
:1004280001FA0CF021FA02F10CE002F11402D8BF33
:10043800C2F1200C01FA02F120FA0CFCDCBF41EAFF
:100448000C019040E41AA2BF01EB0451294330BDCE
:100458006FEA04041F3C1CDA0C340EDC04F11404AB
:10046800C4F1200220FA04F001FA02F340EA030082
:1004780021FA04F345EA030130BDC4F10C04C4F1C8
:10048800200220FA02F001FA04F340EA03002946A8
:1004980030BD21FA04F0294630BD94F0000F83F4F2
:1004A800801306BF81F480110134013D4EE77FEAD5
:1004B800645C18BF7FEA655C29D094EA050F08BF21
:1004C80090EA020F05D054EA000C04BF1946104602
:1004D80030BD91EA030F1EBF0021002030BD5FEA46
:1004E800545C05D14000494128BF41F0004130BD6E
:1004F80014F580043CBF01F5801130BD01F00045C2
:1005080045F0FE4141F470014FF0000030BD7FEA34
:10051800645C1ABF194610467FEA655C1CBF0B462F
:10052800024650EA013406BF52EA033591EA030F46
:1005380041F4002130BD00BF90F0000F04BF00213E
:10054800704730B54FF4806404F132044FF0000571
:100558004FF0000150E700BF90F0000F04BF0021EA
:10056800704730B54FF4806404F1320410F0004550
:1005780048BF40424FF000013EE700BF42004FEA4B
:10058800E2014FEA31014FEA02701FBF12F07F43C8
:1005980093F07F4F81F06051704732F07F4208BF7F
:1005A800704793F07F4F04BF41F40021704730B586
:1005B8004FF4607401F0004521F000411CE700BFD2
:1005C80050EA010208BF704730B54FF000050AE055
:1005D80050EA010208BF704730B511F0004502D556
:1005E800404261EB41014FF4806404F132045FEA58
:1005F800915C3FF4D8AE4FF003025FEADC0C18BF01
:1006080003325FEADC0C18BF033202EBDC02C2F1F2
:10061800200300FA03FC20FA02F001FA03FE40EA84
:100628000E0021FA02F11444BDE600BF70B54FF088
:10063800FF0C4CF4E06C1CEA11541DBF1CEA135566
:1006480094EA0C0F95EA0C0F00F0DEF82C4481EACE
:10065800030621EA4C5123EA4C5350EA013518BFEE
:1006680052EA033541F4801143F4801338D0A0FBDB
:1006780002CE4FF00005E1FB02E506F00042E0FB88
:1006880003E54FF00006E1FB03569CF0000F18BF8E
:100698004EF0010EA4F1FF04B6F5007F64F5407436
:1006A80004D25FEA4E0E6D4146EB060642EAC621C9
:1006B80041EA55514FEAC52040EA5E504FEACE2E36
:1006C800B4F1FD0C88BFBCF5E06F1ED8BEF1004F39
:1006D80008BF5FEA500E50F1000041EB045170BDB5
:1006E80006F0004646EA010140EA020081EA0301F9
:1006F800B4EB5C04C2BFD4EB0C0541EA045170BDF5
:1007080041F480114FF0000E013C00F3AB8014F16E
:10071800360FDEBF002001F0004170BDC4F10004B7
:10072800203C35DA0C341BDC04F11404C4F1200538
:1007380000FA05F320FA04F001FA05F240EA020093
:1007480001F0004221F0004110EBD37021FA04F6C9
:1007580042EB06015EEA430E08BF20EAD37070BD83
:10076800C4F10C04C4F1200500FA04F320FA05F0E2
:1007780001FA04F240EA020001F0004110EBD370E4
:1007880041F100015EEA430E08BF20EAD37070BD54
:10079800C4F1200500FA05F24EEA020E20FA04F32D
:1007A80001FA05F243EA020321FA04F001F00041DC
:1007B80021FA04F220EA020000EBD3705EEA430E4D
:1007C80008BF20EAD37070BD94F0000F0FD101F07C
:1007D8000046400041EB010111F4801F08BF013CB5
:1007E800F7D041EA060195F0000F18BF704703F0F3
:1007F8000046520043EB030313F4801F08BF013D7A
:10080800F7D043EA0603704794EA0C0F0CEA135535
:1008180018BF95EA0C0F0CD050EA410618BF52EAEF
:100828004306D1D181EA030101F000414FF00000F5
:1008380070BD50EA410606BF1046194652EA430603
:1008480019D094EA0C0F02D150EA013613D195EA77
:100858000C0F05D152EA03361CBF104619460AD1BF
:1008680081EA030101F0004141F0FE4141F47001C9
:100878004FF0000070BD41F0FE4141F4780170BDB9
:1008880070B54FF0FF0C4CF4E06C1CEA11541DBF1E
:100898001CEA135594EA0C0F95EA0C0F00F0A7F820
:1008A800A4EB050481EA030E52EA03354FEA01314D
:1008B80000F088804FEA03334FF0805545EA131360
:1008C80043EA12634FEA022245EA111545EA106528
:1008D8004FEA00260EF000419D4208BF964244F1BF
:1008E800FD0404F5407402D25B084FEA3202B61ADE
:1008F80065EB03055B084FEA32024FF480104FF4B2
:10090800002CB6EB020E75EB030E22BFB61A754625
:1009180040EA0C005B084FEA3202B6EB020E75EBB8
:10092800030E22BFB61A754640EA5C005B084FEA20
:100938003202B6EB020E75EB030E22BFB61A7546ED
:1009480040EA9C005B084FEA3202B6EB020E75EBF8
:10095800030E22BFB61A754640EADC0055EA060EB9
:1009680018D04FEA051545EA16754FEA06164FEAFC
:10097800C30343EA52734FEAC2025FEA1C1CC0D1A8
:1009880011F4801F0BD141EA00014FF000004FF035
:10099800004CB6E711F4801F04BF01430020B4F1F6
:1009A800FD0C88BFBCF5E06F3FF6AFAEB5EB030CAE
:1009B80004BFB6EB020C5FEA500C50F1000041EBAB
:1009C800045170BD0EF0004E4EEA113114EB5C0478
:1009D800C2BFD4EB0C0541EA045170BD41F480114B
:1009E8004FF0000E013C90E645EA060E8DE60CEA53
:1009F800135594EA0C0F08BF95EA0C0F3FF43BAF70
:100A080094EA0C0F0AD150EA01347FF434AF95EA26
:100A18000C0F7FF425AF104619462CE795EA0C0F0A
:100A280006D152EA03353FF4FDAE1046194622E7D7
:100A380050EA410618BF52EA43067FF4C5AE50EAB1
:100A480041047FF40DAF52EA43057FF4EBAE12E7A1
:100A58004FF0FF3C06E000BF4FF0010C02E000BF82
:100A68004FF0010C4DF804CD4FEA410C7FEA6C5C65
:100A78004FEA430C18BF7FEA6C5C1BD001B050EA08
:100A8800410C0CBF52EA430C91EA030F02BF90EAF3
:100A9800020F0020704710F1000F91EA030F58BFB2
:100AA800994208BF90422CBFD8176FEAE37040F014
:100AB800010070474FEA410C7FEA6C5C02D150EAB2
:100AC800013C07D14FEA430C7FEA6C5CD6D152EA6D
:100AD800033CD3D05DF8040B704700BF8446104632
:100AE80062468C461946634600E000BF01B5FFF731
:100AF800B7FF002848BF10F1000F01BD4DF808ED01
:100B0800FFF7F4FF0CBF012000205DF808FB00BFD1
:100B18004DF808EDFFF7EAFF34BF012000205DF82B
:100B280008FB00BF4DF808EDFFF7E0FF94BF012078
:100B380000205DF808FB00BF4DF808EDFFF7CEFF79
:100B480094BF012000205DF808FB00BF4DF808EDB8
:100B5800FFF7C4FF34BF012000205DF808FB00BF89
:100B68004FEA410C7FEA6C5C02D150EA013C0AD1A1
:100B78004FEA430C7FEA6C5C02D152EA033C02D193
:100B88004FF0000070474FF0010070474FEA4102F4
:100B980012F5001215D211D56FF47873B3EB6252C7
:100BA80012D94FEAC12343F0004343EA505311F0EE
:100BB800004F23FA02F018BF404270474FF0000080
:100BC800704750EA013005D111F0004008BF6FF0BE
:100BD800004070474FF00000704700BF4A0011D234
:100BE80012F5001211D20DD56FF47873B3EB62527F
:100BF8000ED44FEAC12343F0004343EA505323FA8B
:100C080002F070474FF00000704750EA013002D1FF
:100C18004FF0FF3070474FF0000070474FEA410235
:100C2800B2F1E04324BFB3F5001CDCF1FE5C0DD942
:100C380001F0004C4FEAC0024CEA5070B2F1004F8C
:100C480040EB830008BF20F00100704711F0804F8F
:100C580021D113F13872BCBF01F00040704741F454
:100C680080114FEA5252C2F11802C2F1200C10FA58
:100C78000CF320FA02F018BF40F001004FEAC1233C
:100C88004FEAD32303FA0CFC40EA0C0023FA02F3E0
:100C98004FEA4303CCE77FEA625307D150EA0133B6
:100CA8001EBF4FF0FE4040F44000704701F0004086
:100CB80040F0FE4040F40000704700BF53B94AB905
:100CC800002908BF00281CBF4FF0FF314FF0FF304C
:100CD80000F0B4B9ADF1080C6DE904CE00F03CF8B1
:100CE800DDF804E0DDE9022304B0704738B50022DE
:100CF800002304460D46FFF70BFF28B92046294676
:100D0800BDE8384000F00AB8204605F1004100F07F
:100D180005F8404261EB410138BD00BFD0B5002263
:100D28000B4B06460F46FFF781FCFFF757FF0446BB
:100D3800FFF702FC0022074BFFF778FC02460B4640
:100D480030463946FFF7BAFAFFF748FF2146D0BDCB
:100D58000000F03D0000F0412DE9F04F099D0C46E0
:100D6800002B4DD18A420F4684469646B2FA82F34A
:100D780060D94BB102FA03FEC3F120029F4000FA8A
:100D880003FC20FA02F217434FEA1E461FFA8EF4BC
:100D98004FEA1C42B7FBF6F106FB117701FB04F0A2
:100DA80042EA0742904208D91EEB020201F1FF37DE
:100DB80002D2904200F22D813946121A1FFA8CFC99
:100DC800B2FBF6F006FB102200FB04F44CEA024CDE
:100DD800644508D91EEB0C0C00F1FF3202D26445C1
:100DE80000F21A81104640EA0140ACEB040C0021E5
:100DF80025B12CFA03F30022C5E90032BDE8F08FD3
:100E08008B4205D90DB1C5E9000100210846F5E777
:100E1800B3FA83F100294DD1A342C0F0F280904289
:100E280080F0EF80064623460846002DE6D0C5E947
:100E38000063E3E7002B40F0A2808A1A4FEA1E47BE
:100E48001FFA8EF60121B2FBF7F407FB14204FEAD4
:100E58001C4242EA004206FB04F090420FD91EEB06
:100E6800020204F1FF382CBF4FF001094FF00009CE
:100E7800904203D9B9F1000F00F0C8804446121A15
:100E88001FFA8CFCB2FBF7F007FB102200FB06F6FA
:100E98004CEA024C664508D91EEB0C0C00F1FF32F7
:100EA80002D2664500F2BB801046ACEB060C40EA65
:100EB80004409DE7C1F120068B4004FA01FE22FAA6
:100EC80006F720FA06FCF4408A401F434EEA0C035A
:100ED80000FA01FE4FEA17484FEA13491FFA87FC48
:100EE800B4FBF8F008FB104449EA044400FB0CF991
:100EF800A1450ED93C1900F1FF3A2CBF4FF0010B68
:100F08004FF0000BA14503D9BBF1000F00F093800F
:100F18005046A4EB09041FFA83F9B4FBF8F308FB65
:100F2800134403FB0CFC49EA0444A44506D93C19C4
:100F380003F1FF3801D2A4457AD8434643EA00407A
:100F4800A4EB0C04A0FB02984445CC46434602D3CC
:100F580006D1CE4504D20138B9EB020C68EB070381
:100F68005DB1BEEB0C0264EB030404FA06F622FA48
:100F780001F3CC401E43C5E9006400213EE702FAB4
:100F880003FEC3F1200104FA03F200FA03FCCC408B
:100F98004FEA1E4720FA01F11FFA8EF6B4FBF7F06C
:100FA8000A4307FB1044110C41EA044100FB06F414
:100FB8008C420ED91EEB010100F1FF382CBF4FF017
:100FC80001094FF000098C4202D9B9F1000F2CD069
:100FD8004046091B92B2B1FBF7F407FB141142EA31
:100FE800014204FB06F1914207D91EEB020204F10B
:100FF800FF3801D2914215D84446521A44EA0041BA
:1010080021E7861A64EB030301200EE7023C7244D1
:1010180035E702397244D0E6F4440238E3E6F44492
:10102800023842E7023C7244E7E702387144D0E7ED
:10103800023B3C4482E702383C446AE7704700BF01
:101048000D48854600F01EF90C480D490D4A00234D
:1010580002E0D458C4500433C4188C42F9D30A4A65
:101068000A4C002301E013600432A242FBD30CF0C7
:10107800A9FA08F091F9FEE70000272000000020F7
:10108800E4080020D43401083C110020ECAD002015
:10109800FEE708B54FF4E131002000F093FB002093
:1010A80001F0FEF808BD10B500F012F8044604E09F
:1010B80000F00EF8044600F0F5FD00F009F8031BF7
:1010C800B3F5FA7FF4D2F6E708B501F0D7FD08BD0D
:1010D80008B501F0CDFD08BD72B6FEE708B503F00E
:1010E80099FC03F0B3FC022003F056FC00B908BDDC
:1010F800FFF7F2FF00B59FB06022002106A80CF0B0
:10110800C9F9002300930193029303930493059371
:101118004FF4403003F0E8FB48BB012306934FF43B
:10112800803207920221149103221592002217920D
:1011380016930A201890082019901A911B930C23D3
:101148001C931D9206A803F043FF90B91F23009338
:10115800032301930023029303930493059304212B
:10116800684603F09BFD30B91FB05DF804FBFFF73C
:10117800B3FFFFF7B1FFFFF7AFFF08B501F042FD7E
:10118800FFF7ACFFFFF7B6FF012008BD82B0074BA1
:10119800D3F8942042F00402C3F89420D3F8943092
:1011A80003F004030193019B02B07047000C024650
:1011B800FEE7FEE7FEE7FEE7FEE770477047704789
:1011C80008B501F049FD08BD0120704708B50CF0CD
:1011D800F3F9162303604FF0FF3008BD08B54FF050
:1011E800FF31FFF7F3FFFEE770B50C461646002502
:1011F80006E0AFF30080214601F8010B01350C46EB
:10120800B542F6DB304670BD70B50C461646002573
:1012180004E014F8010BAFF300800135B542F8DBA8
:10122800304670BD4FF0FF3070474FF400534B60AD
:1012380000207047012070470020704710B5034612
:101248000C4A0D490D48006840B10C480068034439
:10125800521A934206D8094A136010BD0748084C31
:101268000460F2E70CF0A8F90C2303604FF0FF309C
:10127800F3E700BF000027200004000058110020F9
:10128800F0AD00200E48D0F8883043F47003C0F861
:1012980088300C4B01221A600022DA611A625A6205
:1012A800196821F0A85121F4102119609A6219686F
:1012B80021F4802119601A654FF00063836070473C
:1012C80000ED00E0000C0246012801D9002070471B
:1012D80010B5074B020103EB0014A188985802F0DF
:1012E80081FC237B984201D0002010BD0120FCE73F
:1012F8001027010830B589B00023039304930593A0
:1013080006930793244AD2F88C1041F00401C2F8DE
:101318008C10D2F88C1001F0040101910199D2F8D7
:101328008C1041F02001C2F88C10D2F88C2002F009
:1013380020020292029A08E0184A002102F83310AB
:1013480002EBC302518051700133012BF4DD144BC1
:101358000493002416E0134B220103EB041569687B
:101368000391A968059103A9985802F0ABFAB5F959
:101378000E5000220521284601F0FCFC284601F009
:1013880009FD0134012CE6DD0749084800F04CFD51
:10139800012009B030BD00BF000C02465C110020DE
:1013A8000000311010270108C9130008D0260108D1
:1013B800012801D90020704708B5FFF785FF08BD4F
:1013C80070B504460388012B05D000252388012B1E
:1013D80007D025B370BD43691449002098470546D6
:1013E800F4E76369124900209847064680B9F0E798
:1013F800E0B2FFF7DDFF01460E4800F077FA01344E
:10140800012CF5DD3220FFF75FFE0B4800F06EFA85
:1014180000F0FEFC08B10024F2E73546D9E707489A
:1014280000F064FA064800F061FAD3E7D82601080C
:10143800E0260108E8260108EC260108F026010844
:101448000027010808B5012002F0D6FB00F06AFE6B
:1014580008BD08B5022002F0CFFB00F063FE08BD0E
:1014680008B5042002F0C8FB00F05CFE08BD08B512
:10147800082002F0C1FB00F055FE08BD08B5102099
:1014880002F0BAFB00F04EFE08BD08B5202002F0BD
:10149800B3FB00F047FE08BD08B5402002F0ACFBE6
:1014A80000F040FE08BD08B5802002F0A5FB00F062
:1014B80039FE08BD08B54FF4807002F09DFB00F0BE
:1014C80031FE08BD08B54FF4007002F095FB00F03E
:1014D80029FE08BD08B54FF4806002F08DFB00F0CE
:1014E80021FE08BD08B54FF4006002F085FB00F04E
:1014F80019FE08BD08B54FF4805002F07DFB00F0DE
:1015080011FE08BD08B54FF4005002F075FB00F05D
:1015180009FE08BD08B54FF4804002F06DFB00F0ED
:1015280001FE08BD08B54FF4004002F065FB00F06D
:10153800F9FD08BD08B508F07DFC014B187008BD21
:101548006C11002008B508F0B1FC08BD08B508F01A
:101558008DFC08BD08B508F091FC08BD08B508F079
:10156800C3FC08BD08B508F09BFC08BD08B508F029
:10157800F1FC08BD002380F8F23380F8F1333F22F4
:1015880080F8F02380F8B033704738B5054690F8F6
:10159800964104EB441004EB40002844432205F52F
:1015A8006C7100F5CC700CF03DF895F89731072B6D
:1015B80002D8013385F8973185F8954101346342A3
:1015C80004F0070403F0070358BF5C4285F896410E
:1015D800012385F8943138BD002303E08CF80020FE
:1015E80001339BB20F2B0BD800EB030CC25C3AB152
:1015F800A2F16101C9B21929F0D8203AD2B2EDE7B7
:10160800102B00D07047013B0022C254FAE70000BB
:10161800064BB3F87836984205D2044BD3F87C369B
:1016280053F8200070470020704700BF7011002059
:1016380008B50346094AB2F8782690420AD2084605
:10164800064AD2F87C2652F82310FEF721FE18B17C
:10165800002000E0002008BD0120FCE770110020F8
:1016680008B5084BB3F87836984202D39FED060ABE
:1016780008BD044BD3F87C36002153F820000BF04A
:10168800BBFCF5E7701100200000000008B5084B0E
:10169800B3F87836984201D3002008BD044BD3F83C
:1016A8007C360022114653F820000BF077FDF4E752
:1016B8007011002010B504460449007801F00AF8BA
:1016C8000349207801F006F810BD00BF3027010853
:1016D8003427010838B590F8973143B304460D46CE
:1016E80090F8F12322BB94F8F22332BB012D29D0C4
:1016F80094F99511013194F8973191FBF3F203FBBA
:10170800121184F89511C9B201EB411301EB4301A1
:101718002144432201F5CC7104F56C700BF082FF73
:1017280094F8F23384F8F133002384F8943138BD07
:101738000F49007800F0CEFFD5E70E49207800F079
:10174800C9FFD3E794F894311BB194F9963184F822
:10175800953194F9951194F897311944013991FB11
:10176800F3F203FB121184F89511C9B2CCE700BF5C
:101778003C2701084427010870B582B006460024BA
:10178800A0F8124100F58A75C0F8144101AA0C4965
:1017980000F56C700BF0C0FE234609E05C1CA4B297
:1017A80045F8230001AA064900200BF0B5FE2346A0
:1017B8000028F3D1A6F8123103B1012002B070BDA0
:1017C8004C2701080A4B18701B7A1BB1084B5B6841
:1017D8008B4200D011B9064B187A704710B5044CEB
:1017E800616000F047FE2072014B187A10BD00BFFF
:1017F80070110020014B1878704700BF701100204D
:1018080038B5234B5B7A03B938BD054690F8F12308
:101818002049C07A00F05EFF95F8F2231E49E87A65
:1018280000F058FF95F8F0231C49E87A00F052FFC1
:1018380005F56C721A49E87A00F04CFF95F9952184
:101848001849E87A00F046FF95F896211649E87A93
:1018580000F040FF95F897211449E87A00F03AFF24
:1018680000240CE004EB441304EB430303F5CC73AE
:101878002B4422460E49E87A00F02CFF013495F8F3
:101888009731A342EEDC0B49E87A00F023FFBBE76F
:1018980070110020542701086427010874270108E3
:1018A8008427010894270108A4270108B427010800
:1018B800C4270108B02A010808B5024B187800F0BF
:1018C8008FFE08BD7011002008B5024B187800F093
:1018D800ABFE08BD7011002008B50A460146024B50
:1018E800187800F0CDFE08BD701100200FB410B5B7
:1018F80082B004AB53F8042B0193084C4FF4807169
:1019080020460BF0B9FD0246214614F8110C00F0F0
:10191800B7FE02B0BDE8104004B070478111002046
:1019280038B50546FFF728FF08B9002038BD184824
:10193800FFF7DCFFD5F81401FFF74EFE0123AB7269
:101948000024B5F8F433A3421EDD04EB84018900BA
:1019580001F57E712944D5F81401FEF799FC08B108
:101968000134EEE7B5F81231013BA5F8783605F5F4
:101978008C73C5F87C3604EB840405EB8404D4F836
:10198800083405F5CF6098470023AB72CDE700BF58
:10199800D42B010830B585B004468DF80710037CB8
:1019A800ABB9CBB21B2B30D01CD8082B4BD00D2B8E
:1019B80040F0848090F8F2330BBB002384F8F233B4
:1019C80084F8F13384F8B0332046FFF773FE237CA4
:1019D800013B032B00F2C880DFE813F0C400CC0001
:1019E800CF0056017F2B69D190F8F1C390F8F2E34C
:1019F800F445ECD2AEEB0C05EDB2012212E0FFF794
:101A0800C4FD2046FFF78CFFD7E701230374DEE708
:101A18000CEB0203591E234493F8B003631883F8B0
:101A2800B00301329542F3DC0EF1FF3E5FFA8EFE01
:101A380084F8F2E3A64400238EF8B0339449207862
:101A480000F048FEC3E790F8F2335BB390F8F10377
:101A580040B3834209D094F8F2C3604522D2ACEB7C
:101A6800000E5FFA8EFE002211E0013BDBB284F823
:101A7800F2332344002283F8B023ECE78318591E7D
:101A8800234493F8B053631883F8B0530132964552
:101A9800F4DC0CF1FF33DBB284F8F2332344002288
:101AA80083F8B02394F8F133002B90D0013B84F8ED
:101AB800F1337849207800F00DFE88E794F8F23386
:101AC800591C94F8F023914281DA94F8F123934257
:101AD80016D094F8F1C394F8F2038445BFF477AFB5
:101AE800A0EB0C05EDB20022954224DD831A591EA5
:101AF800214491F8B013234483F8B0130132F3E77B
:101B080001220DF10701207800F0BAFD94F8F123C5
:101B1800A3189DF8071083F8B01394F8F233013333
:101B2800DBB284F8F233013284F8F1232344002233
:101B380083F8B023CDE79DF8072004EB0C0383F866
:101B4800B0230130C0B284F8F2030CF1010C84F820
:101B5800F1C32044002380F8B0334F49207800F0C7
:101B6800B9FD34E7022323742046FFF749FE00201D
:101B780005B030BD03232374F6E7002323749DF8D2
:101B88000730442B26D09DF80730432B37D09DF8DB
:101B98000730412B4AD09DF80730422B50D09DF892
:101BA8000730312B56D09DF80730342BDCD194F810
:101BB800F13394F8F223934258D394F8F12394F82C
:101BC800F2339A4259D894F8F23384F8F133042363
:101BD8002374C9E794F8F123002AD4D0013A84F891
:101BE800F1231B228DF808205B228DF809208DF83F
:101BF8000A30032202A9207800F042FDC3E794F8D6
:101C0800F12394F8F2138A42C1D2013284F8F12305
:101C18001B228DF808205B228DF809208DF80A30E8
:101C2800032202A9207800F02BFDB0E7012120460D
:101C3800FFF750FD04F56C71207800F04BFDAAE722
:101C480000212046FFF746FD04F56C71207800F06E
:101C580041FDA4E794F8F1231049207800F03AFDFB
:101C6800002384F8F133042323749CE7D21A92B238
:101C78000B49207800F02EFD9FE7D21A92B207494F
:101C8800207800F027FD9EE7002323746CE700BF4F
:101C9800D4270108DC270108E42701083C270108AC
:101CA800F027010838B5094B1C7A0CB9204638BD15
:101CB800187800F095FC0028F8D0044D287800F03A
:101CC800B3FC01462846FFF765FEEFE770110020D8
:101CD80010B50F48FFF70AFE0E48FFF707FE00246D
:101CE8000CE004EB8403980000F57E700A4B18445E
:101CF800FFF7FCFD0648FFF7F9FD0134064BB3F882
:101D0800F433A342EDDC0548FFF7F0FD10BD00BF3A
:101D1800D42B0108F82701087011002018280108A1
:101D28002DE9F04383B00388446873B1012B12D8BE
:101D380010270022114620680BF030FA06462C487E
:101D4800FFF7D4FDB04600241BE02A48FFF7CEFD7C
:101D580003B0BDE8F0830022114660680BF01EFA5C
:101D68000746E6E731682448FFF7C0FD624204F001
:101D7800030302F0030258BF5342032B0BD004366F
:101D88000134BC42E4DA14F0030FEBD131461B48AE
:101D9800FFF7ACFDE6E71A48FFF7A8FD4FF000098A
:101DA80017E01848FFF7A2FD0135032D0DDC05F1FA
:101DB80008036B4413F8041CA1F12003DBB25E2B6B
:101DC800EFD81148FFF792FDEEE708F1040809F192
:101DD8000109B9F1030F04DCD8F80030019300259C
:101DE800E3E70A48FFF782FD0120FFF76DF9C6E730
:101DF8004C280108382801086028010854280108DF
:101E080068280108702801086C280108742801084E
:101E180008B5044B187800F0E3FB08B9012008BDA9
:101E28000020FCE7701100202DE9F041114BB3F8B8
:101E3800F4531F2D02D90020BDE8F0810E46AF00F3
:101E480005EB8504A40004F57E7498461C440146FD
:101E580020460BF0DFFB2F4408EB8707C7F8086420
:101E68002046FFF7B9FBB8F8F4330133A8F8F43388
:101E78000120E1E77011002008B513480023037220
:101E880043728372037480F8953180F8963180F834
:101E9800973180F894310D4BC0F880360C4BC0F860
:101EA80084360C4BC0F888360B4BC0F88C36FFF7DD
:101EB80061FB0A490A48FFF7B7FF0A490A48FFF7D2
:101EC800B3FF012008BD00BF70110020951600085F
:101ED800691600081916000839160008D91C0008E8
:101EE8007C280108291D00088428010870B584B0E1
:101EF80004460388012B0AD000252388012B13D020
:101F08002388012B18D0002D49D004B070BD436937
:101F180028490020984705460028EED0264B5968E6
:101F28002648FFF7E3FCE8E763692549002098475E
:101F38000028E5D00546E3E7636922490020984771
:101F480006460028DFD0204800F0FBFD0546014684
:101F58001E48FFF7CBFC00241DE0012201A91A4806
:101F680000F0C2FD21461A48FFF7C0FC9DF8041096
:101F78001848FFF7BBFC9DF80C209DF80D1016487B
:101F8800FFF7B4FC0299154AA2FB013292091448E2
:101F9800FFF7ACFC0134AC42DFD33546B3E7114858
:101FA800FFF7A4FC1048FFF7A1FC1048FFF79EFCC0
:101FB800ABE700BFD8260108C41C00208828010808
:101FC8009C280108A4280108B01C0020AC2801089E
:101FD800BC280108C4280108D4280108D34D621080
:101FE800E82801080029010810290108202901080A
:101FF80008B564230C220F490F4800F040FD0F4A32
:102008000223136000235360936313630AE003EB16
:1020180083029100094A0A44002111725172917693
:10202800D1760133012BF2D905490648FFF7FCFEAA
:10203800012008BD00180020B01C0020C41C00208E
:10204800F51E0008302901082DE9F04184B0334D10
:102058006B6801336B6000F0E1F9074600242C63DC
:10206800AC631EE004EB84022C4B03EB82030222D8
:102078001A7204EB8402294B03EB82031A7A5A7210
:102088001969791A59615B7E9E4227D146B1234A64
:10209800136B03F1180102EB41018C8001331363C8
:1020A80001341E4B1B68A34234D904EB84031B4D37
:1020B80005EB8305EF602B7E6B765FFA84F840466C
:1020C800FFF776F9064628762B7A002BD1D1687669
:1020D8002F610028C6D001222A72CAE70F4D04EBEF
:1020E800840005EB80000122C27607618DF8048028
:1020F8008DF80C608DF80D30029101A9084800F0A8
:10210800C9FCAB6B03F11C0205EB4202948001335E
:10211800AB63BBE704B0BDE8F08100BFC41C00207E
:10212800B01C002008B5FFF78FFF08BD2DE9F0416E
:1021380006460388012B0AD000273388012B23D0B9
:102148003388012B3ED0002F5AD0BDE8F081436977
:1021580030490020984707460028EED02E4C2188A9
:102168002E48FFF7C3FB61882D48FFF7BFFB2D48BA
:10217800FFF7BCFB2C4C21882C48FFF7B7FB618884
:102188002B48FFF7B3FBD8E773692A490020984723
:1021980080460028D4D0002506E01F4B98682146C9
:1021A8002844FFF799FB2544FFF732FE074638B16C
:1021B800194B5C88641BC3D0402CEED94024ECE753
:1021C8004746BDE773691C49002098470646002822
:1021D800B9D0002506E0144B986821462844FFF73B
:1021E8007BFB2544FFF714FE074638B10E4B5C888D
:1021F800641BA8D0402CEED94024ECE73746A2E770
:102208000E48FFF773FB0E48FFF770FB0D48FFF70A
:102218006DFB9AE7D82601081836002038290108EE
:102228004C290108B02A01080C3600206029010851
:1022380074290108882901089029010898290108AA
:10224800A4290108B029010810B50E4A00231380FB
:1022580053804FF400619180D3800B4991600B4A01
:10226800138053804FF480519180D380084B936042
:102278000124084B1C7008490848FFF7D5FD204683
:1022880010BD00BF183600200C2E00200C36002090
:102298000C1E00200A1E002035210008BC29010858
:1022A800003818BF0120014B187070470500002046
:1022B80010B5054B1870054B1960054C01232370A8
:1022C80000F0D8F8207010BD081E0020041E002061
:1022D800091E002030B583B004469446C3881344D1
:1022E800083382889A4205D20023C3800CF1080380
:1022F8009A4219D3E088009123880E4A0CF108010C
:10230800A56828440BF016F8238801332380E38856
:1023180082B21344E38063881844A188884205DCAC
:102328001A446280012002E0002000E0012003B08E
:1023380030BD00BFC02901080FB410B582B0164BDC
:102348001B7823B902B0BDE8104004B0704705AB54
:102358000193049A4FF4807110480BF08DF80446ED
:102368000F4B1B7813B10F4B1B7843B90E4B1B78DF
:1023780063B9224609490D48FFF7ACFFE2E7024678
:1023880006490B4B187800F07BF9EFE72246034922
:102398000848FFF79FFFECE70A1E0020041D0020F5
:1023A800091E002004000020050000200C36002033
:1023B800081E00201836002010B582B0134BD3F841
:1023C8009C2042F00102C3F89C20D3F89C3003F013
:1023D80001030193019B0E4C4FF0804323600D4B8A
:1023E8001B680D4AA2FB03239B0C013B4FF0FF32F5
:1023F800E260636000232361A360204605F074FD5A
:10240800204605F059FC012002B010BD000C024620
:10241800243600200000002083DE1B43014B1B688C
:10242800586A70472436002010B500230FE00D4C81
:1024380040F22C4203FB02F2A1180020A0544FF4F2
:1024480061424A60C1F82404C1F828040133012B11
:10245800EDDD0124044B1C7004490548FFF7E4FC3A
:10246800204610BDE4080020B837002031270008B6
:10247800C8290108012800F2AA80F0B583B00446F3
:1024880040F22C4300FB03F3524AD05C38B11346A8
:1024980040F22C4202FB04335B688B4204D02CB11F
:1024A800012C00F08A80002003B0F0BD494840F2BA
:1024B8002C4304FB03F3C5186960474E06EB04166A
:1024C800B268C5F81C2477681760D5F81C245160D9
:1024D800D5F81C1400228A60D5F81C14CA60D5F8F7
:1024E8001C140A61D5F81C140C274F61D5F81C146C
:1024F8008A61D5F81C14CA61D5F81C140A62D5F88B
:102508001C144A62D5F81C148A6203F108070744B0
:1025180003F581634FF480623946184400F0A6FA47
:102528002E4BD3F8882042F00102C3F88820D3F854
:10253800883003F001030193019BD5F81C0405F0D2
:1025480047FD337B4BB100231A461946D5F81C04C6
:1025580006F03CF958B10020A6E71E4B40F22C4289
:1025680002FB0433D3F81C0406F050F8F2E7194ACA
:1025780040F22C4304FB03F3D0180121D1544FF44B
:1025880080623946D0F81C0406F0F6F898B90120A4
:10259800104B40F22C4202FB0433D3F81024D3F83A
:1025A8001C14D1F880100968896C521AC3F80824E1
:1025B800C3F80C2478E70020EAE7064B40F22C42E7
:1025C80002FB04F41A195160012018556CE7002029
:1025D800704700BFE4080020782A0108000C024672
:1025E80010B5034618B1012818D0002010BD0D48B9
:1025F80040F22C4202FB03F3C218D2F81014D2F8AE
:102608001C44D4F880402468A46C091BC2F8081440
:1026180003F58163184400F094FAE7E7FEF796FFA4
:10262800E4E700BFE408002010B582B000238DF86D
:102638000730044678B101281BD0104B40F22C42D9
:1026480002FB0433D3F824240132C3F824249DF870
:10265800070002B010BD40F22C4300FB03F303F562
:10266800816301220DF107010448184400F03CFA87
:10267800E3E7FEF76FFF8DF80700DEE7E4080020C8
:1026880038B58C461446054668B1012819D0002093
:102698000F4B40F22C4202FB0533D3F828240244A6
:1026A800C3F8282438BD0A4840F22C4303FB050030
:1026B800642392B2D0F81C0405F0DAFE30B1002091
:1026C800E6E711466046FEF749FFE1E72046DFE707
:1026D800E40800200EB410B5C3B0044645AB53F867
:1026E800042B01934FF4807102A80AF0C5FE02463C
:1026F80002A92046FFF7C4FF43B0BDE8104003B06D
:102708007047000001280BD808B506D0054B40F2E9
:102718002C4202FB0033586808BDFEF723FFFBE795
:1027280000207047E4080020F0B583B00446038811
:10273800012B07D000252388022B1DD0002D63D044
:1027480003B0F0BD43693449002098470546002886
:10275800F1D000200DE0461C0301304AD758C0B222
:10276800FFF7D0FF03463A4631462D48FFF7BEF83B
:1027780030460128EFDDDEE763692A4900209847E3
:102788000028DBD0A3680120984700280BDDA36848
:102798000120984702280FDCA36801209847C4B29B
:1027A800013CE4B200E00024FFF724F8A04208D17D
:1027B8001D48FFF79BF8C3E70124F5E7FFF77CF80E
:1027C80078B92046FFF70CFF0028F7D02046FFF71E
:1027D8002BFF02468DF80700611C1448FFF786F8A6
:1027E800ECE7FFF771F88DF807007128A8D00122EF
:1027F8000DF107012046FFF743FF9DF80720611CF4
:102808000B48FFF773F8DCE70A48FFF76FF8022177
:102818000948FFF76BF893E7D8260108782A0108DA
:10282800D02901089C280108242A0108EC2901085C
:10283800082A0108382A0108442A010830B5D9B005
:1028480005460024539454945594569457946C22F6
:10285800214638A80AF01EFED822214602A80AF00E
:1028680019FE2A68444B9A4201D059B030BD012262
:102878000023CDE9022302A803F00EFA002868D14C
:102888003E4BD3F8A42042F48042C3F8A420D3F8E6
:10289800A42002F480420092009AD3F88C2042F0DF
:1028A8000202C3F88C20D3F88C3003F002030193A2
:1028B800019B4FF4C063539302235493002455940F
:1028C80056930723579353A92D4800F0FBFF212364
:1028D8003893182339933A943B943C944FF400234B
:1028E8003D933E943F9401234193429343944494EF
:1028F8004594499446944794224938A800F0A6FE86
:1029080050BB204A0021204800F0ABFE38BB1E48CF
:1029180000F033FF30BB1D481D4B03600023836369
:10292800C363036443648123836400F0F9FDE0B961
:102938001549164800F062FFD0B91448C5F8800060
:10294800C565102100F065FB00288ED0FEF7C4FB9A
:102958008BE7FEF7C1FB93E7FEF7BEFBD1E7FEF777
:10296800BBFBD4E7FEF7B8FBD5E7FEF7B5FBDFE71F
:10297800FEF7B2FBE1E700BF00380140000C024659
:102988000000024200370020E836002070360020A0
:102998005000024002680B4B9A4200D0704710B5B5
:1029A8000446094AD2F8A43023F48043C2F8A4307C
:1029B8004FF4C061054801F093F8D4F8800000F0A6
:1029C8006BFA10BD00380140000C024600000242BC
:1029D80010B5FFF751FAFFF737FCFFF7EDFCFFF7EB
:1029E80023FD002405E04FF4E131E0B2FFF742FD9A
:1029F8000134012CF7DD4FF4E1310020FFF758FCDA
:102A08001248FFF799FC12491248FFF795FC124942
:102A18001248FFF791FC02F083F8114981FB00315D
:102A2800C017C0EBA1410F48FFF786FC0E48FFF71F
:102A380083FCFEF75FFCFEF77DFD06F0B9FC042081
:102A480006F0C2FCFFF7D4FA012010BD982A01084D
:102A5800B42A0108C02A0108D82A0108E42A010872
:102A680083DE1B43FC2A0108B02A01080346002024
:102A7800186058609A600120D8601961704710B4D6
:102A88000024046044608360C260016101205DF835
:102A9800044B7047F0B500270CE00CEB030511F868
:102AA80003E006F805E00133C5689D42F5D82944DE
:102AB80004600137974213D205686B1C8468B3FB26
:102AC800F4F604FB16344368A3420BD00669002EC3
:102AD800EED00029ECD0C36803FB05FC0023E3E734
:102AE8000120F0BD0020FCE770B50C461646002515
:102AF80016E001EB0E0C1CF803C004F803C0013308
:102B0800C2689A42F5D8144443680268934216D0C2
:102B180001338268B3FBF2F102FB113343600135E4
:102B2800B5420AD201690029EED0002CECD04368E6
:102B3800C26802FB03FE0023E2E7012070BD00200B
:102B4800FCE782680368134441685B1AB3FBF2F040
:102B580002FB10307047000038B5274B1A78002A5E
:102B680047D005464FF0E0231C6914F004040DD04B
:102B7800224B1C684FF47A71B1FBF2F2B4FBF2F409
:102B8800204600F00BF950B3012033E000F054F96F
:102B980001280ED0022817D00028F1D1174B1C6845
:102BA800154A11784FF4FA52B2FBF1F2B4FBF2F481
:102BB800E6E7114B1B784FF47A72B2FBF3F24FF44D
:102BC800FA43B3FBF2F4DBE70B4B1B784FF47A7252
:102BD800B2FBF3F24FF40043B3FBF2F4D0E7002268
:102BE80029464FF0FF3000F0C5F8054B1D60002066
:102BF80000E0012038BD00BF0600002000000020D2
:102C08000800002010B5104A136843F4807313605D
:102C1800032000F09DF801F083FF0C4B1B6A03F0C2
:102C28000F030B4AD35CD8400A4B1860042000F00D
:102C3800C5F80F20FFF790FF10B10124204610BD02
:102C48000446FEF7A3FAF9E700200240000C02460A
:102C5800C026010800000020034B1B78034A1168B6
:102C68000B441360704700BF06000020BC370020EB
:102C7800014B1868704700BFBC37002038B50446C0
:102C8800FFF7F6FF0546B4F1FF3F02D0044B1B786F
:102C98001C44FFF7EDFF401BA042FAD338BD00BF2C
:102CA80006000020034A536F23F0010303435367D0
:102CB800704700BF00040046034A536F23F03C03EB
:102CC80003435367704700BF00040046002807DB32
:102CD80000F01F02400901239340024A42F82030C5
:102CE800704700BF00E100E0002808DB0901C9B215
:102CF80000F1604000F5614080F80013704700F073
:102D08000F000901C9B2014B1954704714ED00E0D6
:102D180000B500F00700C0F1070CBCF1040F28BF94
:102D28004FF0040C031D062B0FD9C31E4FF0FF3EB6
:102D38000EFA0CF021EA000199400EFA03FE22EA8D
:102D48000E0241EA02005DF804FB0023EEE70000F2
:102D5800074AD36823F4E0631B041B0C000200F449
:102D6800E060034343F0BF6343F40033D36070472C
:102D780000ED00E010B50446054BD868C0F302200A
:102D8800FFF7C6FF01462046FFF7AEFF10BD00BFA4
:102D980000ED00E008B5FFF799FF08BD0138B0F174
:102DA800807F09D24FF0E0235861002098611A69AA
:102DB80042F003021A61704701207047042838D88E
:102DC800DFE800F00A18283703004FF0E022136903
:102DD80043F00403136170474FF0E022136923F0B6
:102DE80004031361134AD2F8E03023F44003C2F815
:102DF800E03070474FF0E022136923F004031361B9
:102E08000C4AD2F8E03023F4400343F48003C2F8BC
:102E1800E03070474FF0E022136923F00403136198
:102E2800044AD2F8E03023F4400343F40003C2F824
:102E3800E0307047000C02464FF0E023186910F0AC
:102E480004000CD1084BD3F8E03003F44003B3F589
:102E5800800F06D0B3F5000F04D10220704704207C
:102E680070470120704700BF000C024630B4056867
:102E7800AC6C4FEA144C4FEA0C4C9BB24CEA03037F
:102E8800AB6403684FF4FE44DC600368D9640368EC
:102E98001A6530BC7047000070B50446FFF7E8FEBD
:102EA800002C75D00546236823F47F6626F00F06AC
:102EB8005A6942F006025A6123685A6912F0010FF2
:102EC8000BD0FFF7D5FE431B052BF5D91023A365BF
:102ED800032384F85430012059E000221A60236843
:102EE8005A6123681A6423685A6423689A642368B9
:102EF800DA6423681A652368DA672368254A9342E7
:102F08001ED002F1805293421AD002F170428032F0
:102F1800934215D002F18052934211D002F17042CF
:102F2800803293420CD002F18052934208D002F1D1
:102F380070428032934203D002F18052934203D10F
:102F480000225A6523689A6572682368C3F30B03E5
:102F5800503BC3F3C413012101FA03F322EA03032C
:102F6800736023684FF4FE42DA60002323666366C9
:102F7800A366E36623676367E36D0BB10023E3652C
:102F880000202065A06584F8540084F84C0070BDCA
:102F98000120FCE750060240002836D010B5044650
:102FA80090F84C00012832D0012084F84C0094F8A5
:102FB8005400C0B2012806D04023A365002384F83A
:102FC8004C30012010BD022084F854000020A06578
:102FD8002046FFF74BFF2268536943F4BA43536115
:102FE800636E23B12268536943F400735361236FFE
:102FF80023B12268536943F400535361226853692B
:1030080043F0010353610020DCE7012070470220F0
:10301800D8E7E8B1036823F47F6222F00F02C3F314
:103028000B03503BC3F3C4130120984011F0100F59
:1030380010D001F01101112905D0536823EA0003CB
:103048005360002070475368034353600020704763
:103058000120704700207047816BC36B19430368D8
:10306800674A934200F08D8002F18052934200F04B
:10307800888002F170428032934200F0828002F12F
:10308800805293427DD002F170428032934278D0D0
:1030980002F18052934274D002F17042803293421E
:1030A8006FD002F1805293426BD002F170428032AD
:1030B800934266D002F18052934262D002F170428C
:1030C800803293425DD002F18052934259D002F18E
:1030D80070428032934254D002F18052934250D0D1
:1030E80002F17042803293424BD002F180529342F7
:1030F80047D002F170428032934242D002F18052AE
:1031080093423ED002F170428032934239D002F1AC
:103118008052934235D002F170428032934230D0CF
:1031280002F1805293422CD002F1704280329342D5
:1031380027D002F18052934223D002F170428032AC
:1031480093421ED002F1805293421AD002F170428B
:103158008032934215D002F18052934211D002F18D
:103168007042803293420CD002F18052934208D0D0
:1031780002F170428032934203D002F180529342AE
:1031880001D1026C11435A6922F443020A435A617D
:103198000268002313640268416C516402689364F6
:1031A8000268D364026813650368164A93421ED006
:1031B80002F1805293421AD002F170428032934257
:1031C80015D002F18052934211D002F17042803240
:1031D80093420CD002F18052934208D002F170421F
:1031E8008032934203D002F18052934203D10022ED
:1031F8005A6503689A6503680022DA67704700BF5A
:10320800500002405006024010B44369C26913439B
:10321800C26B134302691343826913430B6002684C
:1032280012F0200F16D0C26A846B2243846A04F11C
:10323800FF3C4FEA0C5C0CF07C7C42EA0C02446ACE
:1032480004F1FF3C4FEA0C1C0CF47C7C42EA0C02B3
:1032580013430B60036B426822F4C0729205920D0F
:1032680013434B60C268B2F5806F66D0B2F5007F39
:103278006BD0436C4BB1026C1343826C120402F4A2
:103288007C1213434A6813434B60B0F868308B6074
:10329800026812F0020F20D0C26C02F1FF3C454ACE
:1032A80002EA0C4213438B60026D002A51DB8B60EB
:1032B800436D002B51DB8B6823F000538B60836DCB
:1032C800002B4FDB8B6823F080438B60C36D002B92
:1032D8004DDB8B6823F000438B60036ECB60436E3D
:1032E8000B61036813F0020F5DD0036D002B43DB05
:1032F800C3F30C034B61436D002B42DB4A692E4C30
:1033080004EA03431A434A61836D002B41DB9BB2F5
:103318008B61C36D002B40DB8A6942EA03428A61F4
:103328000023CB6103680B6213F0020F3ED043F415
:10333800E0630B625DF8044B7047026812F0200FDF
:1033480097D043F480634B6093E743F400734B607A
:103358008FE743F080538B60AAE78B6843F00053F4
:103368008B60ACE78B6843F080438B60AEE78B687B
:1033780043F000438B60B0E75B42C3F30C034B613F
:10338800B9E75B424A690C4C04EA03431A434A61B1
:10339800BAE75B429BB28B61BBE75B428A6942EA50
:1033A80003428A61BCE700234B61BBE743F4A06397
:1033B8000B62BFE70000FF070000FF1F844640EADA
:1033C8000103134330B183EA0C03B3F5803F0AD2FB
:1033D8000020704709B18C46F5E70AB19446F2E738
:1033E8004FF0000CEFE70120704768B190F82030EB
:1033F80019B191F82010994210D18AB192F8202081
:103408009A420FD10020704711B191F82030F0E7AF
:1034180012B192F82030EBE70023E9E70220704769
:103428000020704703207047036A13F0020F06D08C
:1034380009B1064B0B6042B107231360704709B10D
:10344800034B0B600AB1052313607047000001FEAF
:10345800000001F830B5844615680C46E1B14FF01C
:10346800000E7146734627E0BCF8020001EB0040ED
:1034780050F825008E464FF6FC7101400133DCF808
:10348800080098422AD9002BEED1DCF8001021F070
:1034980003010904090CF1E74FF0000E7146734669
:1034A800EDE7BCF8020001EB004050F825008E461D
:1034B8004FF6FC7101400133DCF8080098420DD941
:1034C8004FF6FC702040884208D0002BE9D1DCF888
:1034D800001021F003010904090CECE72CB124F0D9
:1034E80003042404240C8C4218D19360BCF80230E5
:1034F8004EEA03435360BCF8023041EA0341D1600D
:1035080051F8250058B120F003000004000CBCF865
:10351800023040EA03401061002000E0012030BD85
:1035280038B50446FFF7A4FB3CB3054622680023E0
:1035380084F84C30022384F85430536943F006036E
:10354800536123685B6913F0010F0BD0FFF790FB01
:10355800431B052BF5D91023A365032384F85430A6
:10356800012009E02046FFF777FDA36C23650020C2
:10357800A065012384F8543038BD0120FCE70028F9
:103588005ED010B582B00446416F00295AD090F839
:103598005430DBB20268526902F48032012B03D046
:1035A800022B46D1002A44D094F85430DBB2012BC8
:1035B80007D02268536943F001035361002002B029
:1035C80010BD94F84C30012B3ED0012384F84C30C8
:1035D800022384F854300B730023A365626F1361D0
:1035E8002268536943F4BA435361636E23B1226876
:1035F800536943F400735361236F23B122685369FD
:1036080043F400535361636F002201A91868FFF760
:103618000BFF636F22685B881B041360636F1B6872
:1036280023F003031B041B0C226801990B43D36787
:10363800BFE74023A365002384F84C300120BEE790
:10364800012070470120BAE70220B8E728B108B581
:1036580029B1FFF7D9FD002008BD012070470120DE
:10366800FAE7002800F08580F0B589B00D461446C9
:103678000646002A7FD04369012B0ED007683846DA
:10368800FFF79CFE68B9224629463846FFF7ADFE8B
:1036980060B104233361012006E0042303610120A3
:1036A80002E005233361012009B0F0BD0223337322
:1036B8000023336106AA07A92046FFF7B5FE336841
:1036C800DBB165B3069B019301AA29463046FFF793
:1036D800C1FE002849D1B368039A9A4231D0069BAB
:1036E80055F8232044F8232024F003042404240C50
:1036F800079A144345F823401BE065B1356024F070
:1037080003042404240C079B1C43069B45F8234010
:103718000223B36010E034600123B3600CE023F0AF
:1037280003031B041B0C079A1343069A44F8223020
:103738003460B3680133B360002030610123337310
:10374800B2E7736843B123F003031B041B0C079A09
:103758001343069A44F822304FF6FC732340079A25
:103768001343069A45F82230E3E706233361012024
:103778009AE701207047012096E7002839D030B534
:1037880089B00446006840B1636853B1984232D0AA
:1037980004232361012009B030BD022323610120E5
:1037A800F9E76369012B20D00223237300252561E3
:1037B80006AA07A9FFF738FE069B019301AA294626
:1037C8002046FFF747FE236823F003031B041B0C66
:1037D800079A1343049A069942F8213023686360D4
:1037E8002561012323732846D5E70423236101209B
:1037F800D1E7012070470020CDE70000844600286B
:103808005AD000295AD090F85430DAB290F854308F
:10381800DBB2022B37D0052A35D00B7BDBB2022B6B
:1038280039D00368264A934223D002F1805293424A
:103838001FD002F17042803293421AD002F18052B6
:10384800934216D002F170428032934211D002F1B5
:10385800805293420DD002F170428032934208D0D8
:1038680002F18052934204D00B681B6A13F0020FD6
:1038780014D1DCF85030812B14D04B68A3B1042349
:103888000B61012070474023CCF8583000238CF896
:103898004C300120704701200861704703230B61F9
:1038A800012070474B681BB1CCF87410002070479A
:1038B80004230B61012070470120704701207047E5
:1038C80050060240F0B504460023D9E0056825EA11
:1038D8000C054C6804F001049C402C4304607C4DAA
:1038E80055F8334005EBC3056D68EF08083754F801
:1038F800276005F0070C4FEA8C0C4FF00F0E0EFAFC
:103908000CFE26EA0E0E0B2606FA0CF646EA0E0602
:1039180044F8276027684FEA450C032606FA0CF698
:1039280027EA0607022606FA0CF63E43266021E03F
:10393800DE08083650F8265003F00707BF004FF09E
:103948000F0C0CFA07FC25EA0C0C0D6905F00F05A5
:10395800BD4045EA0C0540F8265026685F0003255F
:10396800BD4026EA05064D6805F00305BD40354310
:1039780025601D464E6806F1FF3CBCF1010F03D9D6
:10398800112E01D0122E1CD1A6684FEA450E4FF019
:10399800030C0CFA0EFC26EA0C0CCE6806FA0EF69E
:1039A80046EA0C06A66066684FF0010C0CFA05FCA6
:1039B80026EA0C0C4E68C6F30016AE4046EA0C0622
:1039C80066604E68032E0CD0E6686D004FF0030C5D
:1039D8000CFA05FC26EA0C0C8E68AE4046EA0C068A
:1039E800E6604D6815F0805F49D09E08394F18365B
:1039F80057F8265003F0030C4FEACC0C4FF00F0E8B
:103A08000EFA0CFE25EA0E0E334D05EA902505FA4E
:103A18000CF545EA0E0547F826503E686FEA020C99
:103A280026EA02074D6815F4801F01D042EA06070E
:103A3800284E376076680CEA06074D6815F4001FB3
:103A480001D042EA0607234E7760D6F884600CEA74
:103A580006074D6815F4003F01D042EA06071D4EDF
:103A6800C6F88470D6F880600CEA06054F6817F42B
:103A7800803F01D042EA0605164AC2F88050013359
:103A88000A6832FA03F521D04FF0010C0CFA03FC56
:103A98001CEA0202F3D0114DA8423FF417AF4D685B
:103AA800022D3FF445AF122D3FF442AF26684FEA8E
:103AB800430C032707FA0CF726EA070605F0030567
:103AC80005FA0CF5354325601D4653E7F0BD00BFE8
:103AD800182B0108002002467F7F2F0000000246B5
:103AE800F0B50446002234E03A4B53F8324003EB79
:103AF800C2035D68384F3B680126AE4023EA0603DF
:103B08003B6026686F000323BB401E4326604FEAD4
:103B1800D50C0CF1080C54F82C6005F00707BF0011
:103B28004FF00F0E0EFA07FE26EA0E0644F82C6038
:103B3800A66826EA0306A66066684FF0010C0CFA30
:103B480005F526EA05056560E56825EA0303E360EF
:103B5800013231FA02F33BD0012393400B40F7D0F6
:103B68001D4DA842C0D04FEA920E0EF118061B4D0B
:103B780055F8265002F00306F6000F27B74007EA6B
:103B8800050C174D05EA9025B540654501D0154649
:103B9800B7E7124DD5F8806026EA0306C5F88060BD
:103BA800D5F8846026EA0306C5F884602E6826EAFC
:103BB80003062E606E6826EA03036B600EF1180E8A
:103BC80055F82E3023EA070345F82E30154698E7B6
:103BD800F0BD00BF182B0108000002460020024675
:103BE8007F7F2F000369194201D001207047002010
:103BF800704770477047000010B50446094BDB68F2
:103C0800034204D1074B1B691C4205D110BD054B6B
:103C1800D860FFF7EEFFF5E7024B1C612046FFF77F
:103C2800E9FFF3E7002002462DE9F04383B0D0F81E
:103C3800008001EBC10300EB83039A6A5B6A9A4236
:103C480054D807460C469B1A01EBC10200EB8202CE
:103C5800D2699A4200D31A4602F103094FEA990938
:103C680015E006F103094FEA9909BB7904EBC4058D
:103C780007EB8505296A0093B3B2E2B2404605F026
:103C8800FEF82B6A33442B62AB6A3344AB6208EB11
:103C9800441303F510639B699BB24B4512D304EBA5
:103CA800C40307EB83039A6A5B6A9A420AD24BB150
:103CB8009B1A04EBC40207EB8202D6699E42D0D35A
:103CC8001E46CEE704EBC40307EB83077A6ABB6A98
:103CD8009A420FD804F00F040122A240D8F83438D1
:103CE80023EA0203C8F83438002000E0012003B0BA
:103CF800BDE8F0830020FAE730B583B000287AD019
:103D0800044690F89534ABB1032384F895342068C1
:103D180004F060FE237C8DF80030231D0ECB206854
:103D280004F0BCFD58B1022384F8953401252846D7
:103D380003B030BD80F8943407F070FAE4E700214E
:103D4800206805F0B8FA024608B9034617E00223CE
:103D580084F895340125EAE703EBC30104EB8101FC
:103D6800012048750B75CB8500200876C86108626C
:103D780003EBC30104EB810148620133DBB2207914
:103D88009842E9D816E002EBC20304EB8303002152
:103D980083F8551283F8542283F85812C3F85C123A
:103DA800C3F8601202EBC20304EB8303C3F8641286
:103DB8000132D2B29042E6D8237C8DF80030231D20
:103DC8000ECB206804F05CFE054658B900236374E6
:103DD800012384F89534237B012B08D0206805F053
:103DE80029FAA4E7022384F8953401259FE72046A1
:103DF80000F066FDF2E7012599E790F89434012B6D
:103E08000ED010B50446012380F89434006804F0FD
:103E1800DBFD206805F000FA002084F8940410BD4A
:103E28000220704770B504460D460068066C00EB2A
:103E3800411303F530639A68A179012911D03849F3
:103E48008E4256D03DB905EBC50304EB8303D3F886
:103E58006432002B5ED0E9B2204607F05DFA0020FC
:103E680070BD12F0080F09D02E498E42F7D912F40E
:103E7800004FF4D04FF400429A60F0E712F0200FA0
:103E880002D020229A60EAE712F0280FE7D12549EC
:103E98008E4206D912F4004F03D04FF400429A60C4
:103EA800DDE705EBC50204EB8202D2F874121B6948
:103EB800C3F31203CB1AC2F868327DB905EBC50209
:103EC80004EB8202D2F864226AB105EBC50204EB66
:103ED8008202D2F860121944C2F86012E9B2204690
:103EE80007F01AFABBE704F29C42012105F024FA14
:103EF800F4E712F4004F03D04FF400429A60AEE7A3
:103F080012F0200F01D020229A60E9B2204607F073
:103F180003FAA4E704F29C42002105F00DFA9AE79F
:103F28000A31544F0A30544F38B5044603681D6CA3
:103F380003EB4113D3F8081B0E4A954207D903F542
:103F4800306311F4004F02D04FF400429A602046CB
:103F580007F0DAF9074B9D4202D9A379012B01D06A
:103F6800002038BD04F29C420121206805F0E4F9E4
:103F7800F6E700BF0A30544F90F89434012B0CD068
:103F880010B50446012380F894344174006805F0A4
:103F980033F9002084F8940410BD0220704738B526
:103FA80005468C4611F0800F2BD101F00F0E0EEB59
:103FB800CE04A40004F514740444211D0EEBCE0EA7
:103FC80000EB8E0E00208EF855020CF00F0C81F8D5
:103FD80000C0C2F30A028A600B714A780AB1A1F8DC
:103FE8001AC0022B1CD095F89434012B1BD0012346
:103FF80085F89434286804F026FE002085F8940497
:1040080038BD01F00F0000EBC001890010312944D0
:10401800043100EBC00005EB800001244475D4E7AF
:1040280000234B71DFE70220EAE710B504460A4691
:1040380011F0800F20D101F00F0000EBC0039B00AE
:1040480003F514732344191D00EBC00004EB800032
:10405800002380F8553202F00F020A7094F8943465
:10406800012B18D0012384F89434206804F038FE1A
:10407800002084F8940410BD01F00F0000EBC00389
:104088009B0010332344191D00EBC00004EB800093
:1040980001234375DFE70220EDE710B5144601F070
:1040A8000F0C0CEBCC01890001F5147101440431AB
:1040B8000CEBCC0E00EB8E0ECEF86022CEF86432FC
:1040C8000023CEF868328EF855328EF854C28279C1
:1040D800012A04D0006804F0E9FE002010BDCEF8E3
:1040E8007042F7E701F00F0101EBC10100EB81001D
:1040F800D0F86802704710B5144601F00F0C0CEBAD
:10410800CC0189001031014404310CEBCC0E00EBDA
:104118008E0ECEF82020CEF824300023CEF828309A
:1041280001238EF815308EF814C082799A4204D093
:10413800006804F0BBFE002010BDCEF83040F7E761
:1041480038B501F00F050279AA4238D304460B4668
:1041580011F0800F1FD101EBC101890001F5147125
:104168000144043103EBC30300EB8303002283F80B
:10417800552201238B700D7094F89434012B20D0B4
:10418800012384F89434206804F0DBFF85B1002013
:1041980084F8940438BD05EBC50189001031014449
:1041A800043105EBC50300EB830301225A75E0E7F0
:1041B80004F29C42A179206805F0BEF8E7E70120E7
:1041C800E8E70220E6E701F00F0302799A4230D3CC
:1041D80010B5044611F0800F1ED103EBC30189000E
:1041E80001F514710144043103EBC30200EB8202B0
:1041F800002082F8550200228A700B7094F89434DB
:10420800012B18D0012384F89434206804F0C6FFE9
:10421800002084F8940410BD03EBC3018900103119
:104228000144043103EBC30200EB82020120507504
:10423800E1E7012070470220EDE708B511F0800F93
:104248000CD101F00F0101EBC101890001F51471D6
:1042580001440431006804F0B3FD08BD01F00F010A
:1042680001EBC1018900103101440431F2E72DE965
:10427800F04F83B004460568284605F018F810B1D9
:1042880003B0BDE8F08F0646206804F0E1FF00287F
:10429800F6D005F50067BB68C3F30D23C4F8D43422
:1042A800206804F0D5FF10F0020F04D0226853698B
:1042B80003F002035361206804F0CAFF10F0100FE6
:1042C80014D02268936923F010039361D5F82080F5
:1042D80008F00F09C8F34343022B69D0062B00F0FE
:1042E8008D802268936943F010039361206804F07D
:1042F800AFFF10F4002F40F09380206804F0A8FF6F
:1043080010F4802F40F0FC80206804F0A1FF002802
:10431800C0F27D81206804F09BFF10F4006F09D083
:10432800BB6813F0010F40F08A812268536903F4D7
:1043380000635361206804F08BFF10F0006F15D004
:104348002268536903F00063536194F8CC34002B5E
:1043580040F07981012184F8CC1423685B6DC3F3A4
:104368008303C4F8D034204600F0BDFA206804F076
:104378006FFF10F4805F40F06A81206804F068FFE6
:1043880010F4005F40F0B781206804F061FF10F07E
:10439800080F40F0C881206804F05AFF10F0800F21
:1043A80000F0DB81AB6923F08003AB610126C4E137
:1043B80047F6F07318EA030F93D04FEA181A4FEA3A
:1043C800C903019309EBC90B04EB8B0BC8F30A1261
:1043D800DBF86012284604F091FEDBF86032CAF37D
:1043E8000A0A5344CBF86032DBF86832019A4A442F
:1043F80004EB82025344C2F8683272E7082204F2DE
:104408009C41284604F07AFE09EBC90304EB8303B8
:10441800D3F86822C8F30A184244C3F8682260E750
:10442800206804F019FF8046B14635E005EB4913D2
:104438000122C3F8082B49462046FFF7F3FC3CE06D
:1044480005EB49130822C3F8082B49462046FFF715
:104458006BFD35E009EBC90304EB830393F857328E
:10446800012B41D005EB49130222C3F8082B1AF09F
:10447800200F04D005EB49132022C3F8082B1AF4A7
:10448800005F05D005EB49134FF40052C3F8082B21
:1044980009F101094FEA5808B8F1000F3FF42DAFB0
:1044A80018F0010FF4D05FFA89FB5946206804F030
:1044B800E3FE824610F0010FB8D11AF0080FBFD101
:1044C8001AF0100F04D005EB49131022C3F8082B7B
:1044D8001AF0020FCBD06B6913F0800FBAD07B684B
:1044E80043F480637B60B5E709EBC90304EB8303FE
:1044F800002283F857225946204606F061FFB1E7AB
:10450800206804F0B1FE8046B14625E059462046B1
:1045180006F00EFF1AF0080F04D005EB4913082225
:10452800C3F808291AF0100F04D005EB491310221C
:10453800C3F808291AF0400F04D005EB49134022AC
:10454800C3F808291AF0020F40D11AF0800F59D188
:1045580009F101094FEA5808B8F1000F3FF4D4AE49
:1045680018F0010FF4D05FFA89FB5946206804F06F
:104578008CFE824610F0010FCCD009F00F02012109
:1045880001FA02F27B6B23EA02037B6305EB491312
:10459800C3F80819A3798B42B8D109EBC90304EB16
:1045A80083031A6AD9690A441A62B9F1000FADD1B6
:1045B80009EBC90304EB83035B6A002BA6D104F261
:1045C8009C420121206804F0B7FE9FE7494628462F
:1045D80004F006FA09EBC90304EB8303DB7D012B26
:1045E80005D005EB49130222C3F80829ADE709EB0A
:1045F800C90304EB83030022DA755946204606F006
:10460800E5FEEEE749462046FFF70EFBA0E77B688C
:1046180023F001037B6094F8CC34012B08D02046AA
:1046280006F0C8FE2268536903F00043536171E63F
:10463800002184F8CC14204600F055F9F2E7204612
:1046480006F09CFE71E6204606F098FE8EE67B6832
:1046580023F001037B601021206804F0C1F91AE0FF
:1046680005EB46134FF67F31C3F80819D3F8002934
:1046780022F40012C3F80029C3F8081BD3F8002B52
:1046880022F40012C3F8002BD3F8002B42F000628A
:10469800C3F8002B01362379B342E1D8FB6943F014
:1046A8000113FB61E37BDBB1D7F8843043F00B03E4
:1046B800C7F884307B6C43F00B037B64D5F8003873
:1046C80023F4FE63C5F8003804F29C42A1792068FF
:1046D80004F032FE2268536903F4805353614CE6B8
:1046E8007B6943F4005343F02B037B613B6943F040
:1046F8000B033B61E2E7206804F00EFE206804F03B
:1047080091FAE071266800F04FFC0146E2793046E4
:1047180004F0E8F8204606F01CFE2268536903F40A
:104728000053536130E6204606F00DFE22685369B7
:1047380003F0080353612EE601362379B3420CD9FE
:1047480006EBC60304EB830393F85732012BF3D12E
:10475800F1B22046FFF771FDEEE7206804F078FD1E
:1047680010F4801F25D1206804F072FD10F4001F9A
:1047780058D0012326E001362379B3421BD905EB33
:104788004613D3F8002906EBC60304EB83031B7E0C
:10479800012BF0D1002AEEDA06EBC60304EB830303
:1047A8000122DA7566F07F01C9B22046FFF745FDA0
:1047B800E1E70126E0E72268536903F480135361B7
:1047C800D1E7013322799A4227D905EB4312D2F86F
:1047D800001B03EBC30204EB820292F85822012A61
:1047E800EFD10029EDDAD4F8D42482EA114212F08C
:1047F800010FE6D103EBC30204EB8202012182F828
:104808005712AA6942F08002AA616A6912F0800F01
:10481800D7D17B6843F400737B602268536903F443
:1048280000135361206804F013FD10F0804F10D17D
:10483800206804F00DFD10F0040F3FF421AD23684B
:104848005D6815F0040F0DD1226853682B4353603F
:1048580016E5204606F0C0FD2268536903F0804340
:104868005361E5E7204606F0BDFDEDE710B40468A6
:10487800606A31B940EA0240A06200205DF8044B4A
:1048880070478C46A36A00EB1340002308E003F14D
:10489800400104EB8101496800EB11400133DBB2B0
:1048A8000CF1FF318B42F2D340EA02400CF13F0198
:1048B80004EB81046060E0E70368596200207047F8
:1048C800034602680121C0F8D814002083F8CC04FC
:1048D800936943F000639361536D43F0805343F051
:1048E8000303536570477047244BDB6B03F4403375
:1048F800834219D0B0F5803F20D9204AD36823F4E9
:10490800E023034343F48023D3601D4B1B681D4AF7
:10491800A2FB03139B09322101FB03F3A2FB032330
:104928009B0901331A4611E0B0F5803F04D9134AB8
:10493800D36843F48023D360002070470F4AD368BC
:1049480023F4E0230343D360DFE7013A0B49C96846
:1049580011F4004F01D1002AF7D112B90320704792
:10496800013B064AD26B12F4004F01D1002BF7D15C
:104978000BB1002070470320704700BF00080246B3
:1049880000000020D34D6210024BD86B00F4403079
:10499800704700BF00080246174B1B68174AA2FB66
:1049A80003139B09322101FB03F3A2FB03239B0999
:1049B800013380B912498A6822F002028A6000E055
:1049C800013B0F4AD26B12F0020F01D0002BF7D136
:1049D80083B1002070470A498A6842F002028A605F
:1049E80000E0013B064AD26B12F0020FF0D1002B17
:1049F800F7D1EDE70320704700000020D34D621087
:104A080000080246024A136943F080531361704755
:104A180000080246024A136943F0005313617047C5
:104A28000008024608B5FFF7AFFFB0F5403F02D0D7
:104A3800B0F5003F06D1044AD36843F4C013D360ED
:104A4800002008BD0120FCE700080246024AD36A9C
:104A580043F00103D36270470008024630B583B0C3
:104A680004462D4BD3F8943013F0040F0FD0FFF702
:104A78008BFFB0F5403F20D0B0F5003F1DD0B4F11A
:104A8800805F2CD2B0F5803F40D0012025E0224D38
:104A9800D5F8943043F00403C5F89430D5F8943031
:104AA80003F004030193019BFFF76EFFD5F89430E0
:104AB80023F00403C5F89430DBE7B4F1805F23D218
:104AC8000120164A136823F00F0303431360136889
:104AD80003F00F0383421DD1002003B030BDB4F1B1
:104AE800005F05D9A0B9B4F1405FEAD80120E8E732
:104AF800B4F1805F01D00120E3E7B0F5803F01D039
:104B08000220DEE70120DCE70020DAE70320D8E70F
:104B18000020D6E70120E0E7000C02460020024012
:104B280010B4594AD369926A13F00C0310D002F0FA
:104B380003020C2B0AD0544AD26902F00C02042A50
:104B480020D0082B21D00020044610E0012AF2D101
:104B58004D4A926812F4000F0ED14B4AD2F8F42055
:104B6800C2F30332494951F822404BB100200C2BC3
:104B78000ED05DF8044B7047434A9268120FF1E774
:104B88002046F4E742480024F1E741480024EEE7D4
:104B98003D48816A01F00301836AC3F303230133AB
:104BA80007EE103A836AC3F3001C836BC3F3CC038C
:104BB8000CFB03F307EE903AF8EE677A02291ED051
:104BC800032946D006EE904AF8EE666AB8EE477AB0
:104BD80086EE876A2C4B5B6BC3F3080307EE103A2B
:104BE800B8EE477ADFED2B6A67EEA67A77EE277A7A
:104BF800B7EE007A77EE877A66EE276A19E0B8EEA4
:104C0800477A9FED256AC6EE076A1F4B5B6BC3F3B5
:104C1800080307EE103AB8EE477A9FED1E6A67EE72
:104C2800867A77EE277AB7EE007A77EE877A66EE9D
:104C3800A76A154B5B6BC3F30663013307EE903A23
:104C4800B8EE677AC6EE877AFCEEE77A17EE900A36
:104C58008FE7B8EE477A9FED106AC6EE076A0A4BEF
:104C68005B6BC3F3080307EE103AB8EE477A9FED83
:104C7800096A67EE867A77EE277AB7EE007A77EEDA
:104C8800877A66EEA76AD4E7000C02467826010800
:104C98000024F400000000390024744B002800F0C0
:104CA8007181F0B583B00D4604467F4B1B6803F055
:104CB8000F038B420BD27C4A136823F00F030B437C
:104CC8001360136803F00F038B4240F05D81236883
:104CD80013F0100F0CD06269744B5B6A03F0700319
:104CE8009A4205D971494B6A23F070031A434A6204
:104CF800236813F0080F0ED022696C4B1B6A1B093E
:104D080003F070039A4206D968490B6A23F4E063FA
:104D180043EA02130B62236813F0040F0CD0E26815
:104D2800624B1B6A03F070039A4205D95F490B6A0C
:104D380023F070031A430A62236813F0020F0CD0A1
:104D4800A2685A4B1B6A03F00F039A4205D95749C8
:104D58000B6A23F00F031A430A62236813F0010F4A
:104D680000F0A8806368032B0AD0022B61D0002BC7
:104D780066D14E4B1B6813F0040F26D10120FFE0CB
:104D88004A4BD3F8943013F0040F0ED1474BD3F8A5
:104D9800942042F00402C3F89420D3F8943003F02E
:104DA80004030193019B012700E00027FDF760FF42
:104DB80006463F4BDB6813F4802F26D18FBB3B4B55
:104DC8001B6813F0007F00F0E180384AD36923F0B4
:104DD800030361680B43D361FDF74AFF0646636826
:104DE800032B34D0022B41D0002B4ED02F4BDB6944
:104DF80003F00C03042B5DD0FDF73AFF801B41F252
:104E080088339842F2D90320BAE0294BDB6813F4BF
:104E1800804FD3D1FDF72CFF801B0228F5D9032042
:104E2800AEE0224AD2F8943023F00403C2F894305A
:104E3800C5E71E4B1B6813F4003FC6D101209FE055
:104E48001A4B1B6813F4806FBFD1012098E0174BF1
:104E5800DB6903F00C030C2B2CD0FDF709FF831B37
:104E680041F288329342F2D9032089E00F4BDB6983
:104E780003F00C03082B1DD0FDF7FAFE801B41F24E
:104E880088339842F2D903207AE0084BDB6913F0A3
:104E98000C0F0FD0FDF7ECFE801B41F288339842CF
:104EA800F3D903206CE000BF00200240000C02464A
:104EB80000080246236813F0020F0CD0A268354B95
:104EC8001B6A03F00F039A4205D232490B6A23F09A
:104ED8000F031A430A62304B1B6803F00F03AB42FF
:104EE8000AD92D4A136823F00F032B431360136864
:104EF80003F00F03AB424BD1236813F0040F0CD01F
:104F0800E268244B1B6A03F070039A4205D22149D8
:104F18000B6A23F070031A430A62236813F0080F20
:104F28000ED022691B4B1B6A1B0903F070039A42BF
:104F380006D218490B6A23F4E06343EA02130B62B2
:104F4800236813F0100F0CD06269124B5B6A03F0F0
:104F580070039A4205D20F494B6A23F070031A4333
:104F68004A62FFF7DDFD0B4B1B6A03F00F030B4A88
:104F7800D35CD8400A4B18600A4B1868FDF7ECFD63
:104F880003B0F0BD012070470120F9E70120F7E7E1
:104F98000120F5E7000C024600200240C026010867
:104FA800000000200800002008B5FFF7B9FD054BF8
:104FB8001B6A03F00F03044AD35CD840034B186004
:104FC80008BD00BF000C0246C026010800000020F2
:104FD800002800F02A85F0B585B004469C4BDD69B1
:104FE80005F00C059E6A06F00306036813F0100F1F
:104FF80000F09480EDB10C2D19D0E369002B00F07E
:105008001181934A136843F001031360FDF730FEE2
:1050180007468F4B1B6813F0040F40F0CD80FDF757
:1050280027FEC01B0228F4D9032000F001BD012E81
:10503800E3D1E369002B00F0FA84606A844B9B6833
:1050480013F4000F1CD0824B9B6803F07043984206
:1050580044D9E5B17E4A936843F4000393609368AA
:1050680023F07043616A0B439360636AB3F1404F66
:1050780014D3D36823F01F03216A0B43D36044E0A1
:10508800734BD3F8F4301B0403F07043DFE7FFF7EA
:10509800E5FC0028DED0012000F0CABC002B0BDBA9
:1050A800B3F1804F11D36A4AD36823F4F843216AD5
:1050B80043EA8123D36028E0654AD36823F47873F0
:1050C800216A43EA4113D3601FE0614AD36823F49D
:1050D8007823216A43EAC133D36016E05C4A9368B7
:1050E80043F400039360936823F07043616A0B43B1
:1050F8009360636AB3F1404F36D3D36823F01F033C
:10510800216A0B43D360002D4ED0FFF74DFF514B62
:105118001868FDF721FD002840F08A84236813F001
:10512800010F00F0A080082D00F099800C2D00F0F0
:1051380093806368B3F5803F00F0B680B3F5A02F85
:1051480000F0C880B3F5A81F00F0D280404B1A6861
:1051580022F480321A601A6822F480221A601A68CF
:1051680022F480121A60A4E0002B0BDBB3F1804F0D
:1051780011D3374AD36823F4F843216A43EA8123D9
:10518800D360C0E7324AD36823F47873216A43EACC
:105198004113D360B7E72E4AD36823F47823216AF2
:1051A80043EAC133D360AEE7606AFFF757FC0028D3
:1051B800ABD0012000F03CBC254A936843F40003BF
:1051C8009360936823F07043616A0B439360636A4A
:1051D800B3F1404F06D3D36823F01F03216A0B4372
:1051E800D3609BE7002B0BDBB3F1804F11D3184A38
:1051F800D36823F4F843216A43EA8123D3608DE717
:10520800134AD36823F47873216A43EA4113D360BD
:1052180084E70F4AD36823F47823216A43EAC13329
:10522800D3607BE70A4A136823F001031360FDF794
:105238001FFD0746064B1B6813F0040F3FF46EAFC3
:10524800FDF716FDC01B0228F4D90320F0E300BFC8
:10525800000C024608000020032E7FF46AAF636842
:10526800002B00F0E783236813F0020F6BD0042DA6
:105278005DD00C2D59D0E368002B00F0BF80AA4AFE
:10528800136843F480731360FDF7F2FC0546A64BE0
:105298001B6813F4806F40F0A880FDF7E9FC401B01
:1052A8000228F4D90320C3E39F4A136843F48033E8
:1052B8001360636853B3FDF7DBFC07469A4B1B6822
:1052C80013F4003FCFD1FDF7D3FCC01B6428F5D9F8
:1052D8000320ADE3944B1A6842F480221A601A68DE
:1052E80022F480121A601A6842F480321A60E0E7E9
:1052F8008D4B1A6842F480221A601A6842F48012B0
:105308001A601A6842F480321A60D2E7FDF7B0FCDE
:105318000746854B1B6813F4003FA4D0FDF7A8FC93
:10532800C01B6428F5D9032082E3022EA3D1E368C9
:10533800002B00F081837C4A136923F4F813216958
:1053480043EA01431361236813F0080F00F0AF80AC
:10535800754BD3F8943013F0040F63D1724BD3F824
:10536800942042F00402C3F89420D3F8943003F058
:1053780004030193019B01256C4B9B6A13F0010FF9
:1053880052D06369002B7AD0674BD3F8F030A1690B
:1053980003F08052914211D003F04062B2F1006FE5
:1053A80000F04C8313F0806F52D15F4AD2F8F0308E
:1053B80023F08053A1690B43C2F8F0305A4AD2F85F
:1053C800F03043F08063C2F8F030FDF751FC064638
:1053D800554BD3F8F03013F0006F67D1FDF748FC58
:1053E800801B0528F4D9032022E34F4A136923F4CC
:1053F800F813216943EA01431361A4E74A4A136891
:1054080023F480731360FDF733FC0546464B1B6895
:1054180013F4806F97D0FDF72BFC401B0228F5D9B9
:10542800032005E30025A7E7404A936A43F00103F8
:105438009362FDF71DFC06463C4B9B6A13F0010F77
:105448009FD1FDF715FC801B0228F5D90320EFE258
:10545800354AD2F8F03023F0A053C2F8F030FDF707
:1054680007FC0646304BD3F8F03013F0006F9CD0A1
:10547800FDF7FEFB801B0528F4D90320D8E22A4A51
:10548800D2F8F03023F0A053C2F8F030FDF7F0FB6B
:105498000646254BD3F8F03013F0006F06D0FDF721
:1054A800E7FB801B0528F4D90320C1E295BB2368DC
:1054B80013F0040F00F0D9801B4BD3F8943013F08D
:1054C800040F2FD1184BD3F8942042F00402C3F8EC
:1054D8009420D3F8943003F004030293029B01252F
:1054E800124B9B6A13F0010F22D0A36813F0010F2F
:1054F8003AD013F0040F2FD00B4BD3F8F02042F022
:105508000402C3F8F020D3F8F02042F00102C3F8F7
:10551800F02036E0044AD2F8943023F00403C2F8AD
:105528009430C4E70025DBE7000C02460008024679
:10553800A84A936A43F001039362FDF799FB064674
:10554800A44B9B6A13F0010FCFD1FDF791FB801B91
:105558000228F5D903206BE29F4AD2F8F03043F0D5
:105568000103C2F8F0300CE09B4BD3F8F02022F096
:105578000102C3F8F020D3F8F02022F00402C3F8A7
:10558800F020A368002B41D0FDF772FB0646924B32
:10559800D3F8F03013F0020F08D1FDF769FB801B38
:1055A80041F288339842F2D9032041E2A36813F00C
:1055B800800F15D0884AD2F8F03043F08003C2F843
:1055C800F030854BD3F8F03013F4006F4CD1FDF771
:1055D8004FFB801B41F288339842F2D9032027E21F
:1055E8007D4AD2F8F03023F08003C2F8F0307A4BCD
:1055F800D3F8F03013F4006F36D0FDF739FB801B79
:1056080041F288339842F2D9032011E2FDF730FBCA
:105618000646714BD3F8F03013F0020F08D0FDF7AF
:1056280027FB801B41F288339842F2D90320FFE11F
:10563800694BD3F8F03013F0800F15D0664AD2F8D2
:10564800F03023F08003C2F8F030634BD3F8F03029
:1056580013F4006F08D0FDF70BFB801B41F2883371
:105668009842F2D90320E3E1CDB9236813F0200F63
:1056780031D0E36ADBB1584A136843F480531360AE
:10568800FDF7F6FA0546544B1B6813F4005F22D168
:10569800FDF7EEFA401B0228F5D90320C8E14E4A6F
:1056A800D2F8943023F00403C2F89430DDE74A4A74
:1056B800136823F480531360FDF7DAFA0546464B66
:1056C8001B6813F4005F06D0FDF7D2FA401B0228CE
:1056D800F5D90320ACE1236813F0800F29D0236BA0
:1056E8009BB13D4A136843F480431360FDF7C0FA49
:1056F8000546394B1B6813F4004F1AD1FDF7B8FA69
:10570800401B0228F5D9032092E1334A136823F499
:1057180080431360FDF7ACFA05462F4B1B6813F462
:10572800004F06D0FDF7A4FA401B0228F5D9032044
:105738007EE1236813F0400F64D0636B002B4DD0DB
:10574800254A936843F400039360936823F07063D9
:10575800A16A0B439360636AB3F1404F19D3D368CE
:1057680023F01F03216A0B43D3601B4A136843F0DD
:1057780010031360FDF77CFA0546174B1B6813F0FE
:10578800200F3FD1FDF774FA401B0228F5D90320FA
:105798004EE1002B0BDBB3F1804F11D30E4AD368D7
:1057A80023F4F843216A43EA8123D360DDE70A4AF8
:1057B800D36823F47873216A43EA4113D360D4E7AA
:1057C800054AD36823F47823216A43EAC133D360B6
:1057D800CBE700BF00080246000C0246A14A136846
:1057E80023F010031360FDF743FA05469D4B1B6831
:1057F80013F0200F06D0FDF73BFA401B0228F5D91D
:10580800032015E1A36B002B00F01A81954AD26999
:1058180002F00C020C2A00F0BC80022B14D0914A32
:10582800136823F080731360FDF722FA04468D4B4A
:105838001B6813F0007F00F0A380FDF719FA001B26
:105848000228F4D90320F3E0864A136823F0807312
:105858001360FDF70DFA0546824B1B6813F0007FB5
:1058680006D0FDF705FA401B0228F5D90320DFE032
:105878007C4BD3F8943013F0040F68D1794BD3F8EC
:10588800942042F00402C3F89420D3F8943003F033
:1058980004030393039B0125734BDB6813F4802FE8
:1058A80057D10026704AD36823F48023D3606D4B08
:1058B8009A6A22F47F4222F00302E16B206C0138DD
:1058C80041EA0021606C01430A439A625A6B6748B7
:1058D8001040A26C013AC2F30802E16C0139490296
:1058E80089B20A43216D0139090401F4FE010A4312
:1058F800616D0139090601F0FE410A4310435863FE
:105908009A6A22F010029A62E26DD2009A639A6A49
:1059180042F010029A629A6A22F00C02A16D0A43C0
:105928009A62C6B9EDB94F4A136843F080731360A1
:10593800FDF79EF904464B4B1B6813F0007F18D106
:10594800FDF796F9001B0228F5D9032070E0002521
:10595800A2E70126A6E7444AD36843F48023D3602C
:10596800E0E7404AD2F8943023F00403C2F89430B8
:10597800D9E73C4A936A43F480239362002057E0B6
:10598800384A936A23F4E02323F003039362002048
:105998004EE0344A916A506B012B53D001F0030357
:1059A800E26B934250D1C1F30322236C013B9A422C
:1059B8004CD101F47041636C994249D1C0F308029B
:1059C800A36C013B9A4245D1C0F34622E36C013BEC
:1059D8009A4241D1C0F30642236D013B9A423DD120
:1059E800C0F30660636D013B984239D11D4B9B6B38
:1059F800C3F3CC03E26D934201D1002018E0194AA9
:105A0800936A23F010039362FDF732F90546FDF718
:105A18002FF9A842FBD0E26DD200124B9A639A6A22
:105A280042F010029A62002002E001207047012033
:105A380005B0F0BD0120FBE70120F9E70120F7E7F9
:105A48000020F5E70120F3E70120F1E70120EFE767
:105A58000120EDE70120EBE70120E9E70120E7E776
:105A68000120E5E7000C024600080246000080809D
:105A780008B5FFF799FA044B1B6AC3F30213034AEC
:105A8800D35CD84008BD00BF000C0246B826010808
:105A980008B5FFF789FA044B1B6AC3F30223034ACC
:105AA800D35CD84008BD00BF000C0246B8260108E8
:105AB80008B5FFF779FA044B5B6AC3F30213034A8C
:105AC800D35CD84008BD00BF000C0246B8260108C8
