:020000040800F2
:1000000000002720E9060008990D00089B0D000854
:100010009D0D00089F0D0008A10D0008390700087C
:10002000000000000000000000000000A30D000818
:10003000A50D000800000000A70D0008A90D00088C
:100040003907000839070008390700083907000890
:100050003907000839070008390700083907000880
:100060003907000839070008390700083907000870
:100070003907000839070008390700083907000860
:100080003907000839070008390700083907000850
:100090003907000839070008390700083907000840
:1000A0003907000839070008390700083907000830
:1000B0003907000839070008390700083907000820
:1000C0003907000839070008390700083907000810
:1000D0003907000839070008390700083907000800
:1000E00039070008390700083907000839070008F0
:1000F00039070008390700083907000839070008E0
:1001000039070008390700083907000839070008CF
:1001100039070008390700083907000839070008BF
:1001200039070008390700083907000839070008AF
:10013000390700083907000839070008390700089F
:10014000390700083907000839070008390700088F
:10015000390700083907000839070008390700087F
:1001600039070008B10D00083907000839070008F1
:10017000390700083907000839070008390700085F
:10018000390700083907000839070008390700084F
:10019000390700083907000839070008390700083F
:1001A000390700083907000839070008390700082F
:1001B000390700083907000839070008390700081F
:1001C000390700083907000839070008390700080F
:1001D00039070008390700083907000839070008FF
:1001E00039070008390700083907000839070008EF
:1001F00039070008390700083907000839070008DF
:1002000039070008390700083907000839070008CE
:1002100039070008390700083907000839070008BE
:1002200039070008390700083907000839070008AE
:10023000390700083907000839070008390700089E
:1002400039070008390700083907000800000000D6
:08025000390700083907000816
:1002580010B5054C237833B9044B13B10448AFF3F8
:1002680000800123237010BD100000200000000052
:10027800A467000808B5034B1BB103490348AFF353
:10028800008008BD0000000014000020A4670008DA
:1002980053B94AB9002908BF00281CBF4FF0FF31E5
:1002A8004FF0FF3000F07EB9ADF1080C6DE904CED7
:1002B80000F006F8DDF804E0DDE9022304B0704739
:1002C8002DE9F04F099D0C46002B4DD18A420F466F
:1002D80084469646B2FA82F360D94BB102FA03FE1D
:1002E800C3F120029F4000FA03FC20FA02F21743F0
:1002F8004FEA1E461FFA8EF44FEA1C42B7FBF6F18E
:1003080006FB117701FB04F042EA0742904208D944
:100318001EEB020201F1FF3702D2904200F22D815A
:100328003946121A1FFA8CFCB2FBF6F006FB1022B3
:1003380000FB04F44CEA024C644508D91EEB0C0C93
:1003480000F1FF3202D2644500F21A81104640EAF9
:100358000140ACEB040C002125B12CFA03F3002278
:10036800C5E90032BDE8F08F8B4205D90DB1C5E96A
:10037800000100210846F5E7B3FA83F100294DD1C1
:10038800A342C0F0F280904280F0EF8006462346F8
:100398000846002DE6D0C5E90063E3E7002B40F0EE
:1003A800A2808A1A4FEA1E471FFA8EF60121B2FB75
:1003B800F7F407FB14204FEA1C4242EA004206FB0E
:1003C80004F090420FD91EEB020204F1FF382CBF53
:1003D8004FF001094FF00009904203D9B9F1000F1D
:1003E80000F0C8804446121A1FFA8CFCB2FBF7F0E2
:1003F80007FB102200FB06F64CEA024C664508D9BA
:100408001EEB0C0C00F1FF3202D2664500F2BB80F5
:100418001046ACEB060C40EA04409DE7C1F120060B
:100428008B4004FA01FE22FA06F720FA06FCF44093
:100438008A401F434EEA0C0300FA01FE4FEA1748B0
:100448004FEA13491FFA87FCB4FBF8F008FB104485
:1004580049EA044400FB0CF9A1450ED93C1900F106
:10046800FF3A2CBF4FF0010B4FF0000BA14503D909
:10047800BBF1000F00F093805046A4EB09041FFA6B
:1004880083F9B4FBF8F308FB134403FB0CFC49EABB
:100498000444A44506D93C1903F1FF3801D2A44508
:1004A8007AD8434643EA0040A4EB0C04A0FB029828
:1004B8004445CC46434602D306D1CE4504D2013842
:1004C800B9EB020C68EB07035DB1BEEB0C0264EB01
:1004D800030404FA06F622FA01F3CC401E43C5E9E8
:1004E800006400213EE702FA03FEC3F1200104FA8A
:1004F80003F200FA03FCCC404FEA1E4720FA01F150
:100508001FFA8EF6B4FBF7F00A4307FB1044110CF0
:1005180041EA044100FB06F48C420ED91EEB0101AE
:1005280000F1FF382CBF4FF001094FF000098C4251
:1005380002D9B9F1000F2CD04046091B92B2B1FB89
:10054800F7F407FB141142EA014204FB06F1914259
:1005580007D91EEB020204F1FF3801D2914215D8E7
:100568004446521A44EA004121E7861A64EB030321
:1005780001200EE7023C724435E702397244D0E6A6
:10058800F4440238E3E6F444023842E7023C724499
:10059800E7E702387144D0E7023B3C4482E702387F
:1005A8003C446AE7704700BF02440346934200D1C7
:1005B800704703F8011BF9E770B50D4D00260D4C87
:1005C800641BA410A64209D10B4D00260B4C06F063
:1005D800E5F8641BA410A64205D170BD55F8043B8C
:1005E80001369847EEE755F8043B01369847F2E79D
:1005F800C4680008C4680008C4680008CC6800081B
:1006080070477047024B13B1024800F005B87047B5
:10061800000000002D060008002301461A4618466F
:1006280000F014B838B5074D074C641BA4101CB96A
:10063800BDE8384006F0B8B8013C55F82430984772
:10064800F5E700BFCC680008D06800082DE9F0473E
:10065800DFF878A0064698460F46DAF8000091467B
:10066800FFF7CEFF174B1C680CB9174C1C60656868
:10067800DAF800001F2D05DDFFF7C3FF4FF0FF304C
:10068800BDE8F087AEB104EB85010122022EC1F866
:10069800889002FA05F2D4F8883143EA0203C4F8D4
:1006A8008831C1F8088102BFD4F88C311343C4F8EB
:1006B8008C316B1C0235636044F82570FFF7A1FF8D
:1006C8000020DDE73000002034000020000000207A
:1006D80008B500F018FA00F091FB002008BD0000F2
:1006E8000D48854600F068FB0C480D490D4A00236B
:1006F80002E0D458C4500433C4188C42F9D30A4ACF
:100708000A4C002301E013600432A242FBD3FFF736
:1007180053FFFFF7DDFFFEE7000027200000002061
:1007280010000020D068000810000020C808002031
:10073800FEE700002DE9F0478AB0002405940694EE
:10074800079408940994504BD3F88C2042F0040283
:10075800C3F88C20D3F88C2002F004020092009A8F
:10076800D3F88C2042F08002C3F88C20D3F88C2078
:1007780002F080020192019AD3F88C2042F0020222
:10078800C3F88C20D3F88C2002F002020292029A5D
:10079800D3F88C2042F04002C3F88C20D3F88C2088
:1007A80002F040020392039AD3F88C2042F001022F
:1007B800C3F88C20D3F88C3003F001030493049B16
:1007C800DFF8D8A022460421504601F0B3F82F4E96
:1007D80022468021304601F0ADF82D4D2246A02159
:1007E800284601F0A7F84FF400530593294B0693C8
:1007F800079405A9304600F08FFF042705974FF0AE
:100808000308CDF81880079405A9304600F084FF46
:100818004FF4804305930694079405A9284600F0F1
:100828007BFF4FF40049CDF81490CDF81880079459
:1008380005A9284600F070FF059701270697079439
:10084800089405A9504600F067FF80230593069792
:100858000794089405A9304600F05EFFCDF814907F
:10086800CDF81880079405A90B4800F055FFA02380
:10087800059306970794089405A9284600F04CFFAD
:100888000AB0BDE8F08700BF000C0246000802422B
:100898000004024200001110000002420018024247
:1008A80008B500F045FB08BD72B6FEE708B501F0D3
:1008B800B3FD01F0CDFD022001F070FD00B908BDC7
:1008C800FFF7F2FF00B583B01B4BD3F8882042F046
:1008D8000102C3F88820D3F8883003F0010301939C
:1008E800019B002211461D2000F09EFB1D2000F0F8
:1008F800ABFB00221146552000F096FB552000F076
:10090800A3FB0E480E4B036000238363C363036499
:100918004FF0404343648023836400F0CDFE38B930
:100928001021064800F0CDFD20B903B05DF804FBA6
:10093800FFF7BAFFFFF7B8FF000C02464C0800208B
:10094800D006024008B500F0FBFF00B908BDFFF76C
:10095800ABFF000000B589B000230493059306930C
:10096800079301930293039313484FF08042026068
:100978009F22426083604FF0FF32C260036183614F
:1009880004F082FF90B94FF48053049304A90A48F5
:1009980004F0B8FF60B900230193039301A9064846
:1009A80005F050F830B909B05DF804FBFFF77CFF9B
:1009B800FFF77AFFFFF778FF0008002008B509481D
:1009C800094B036013234360002383606322C260E2
:1009D800036143618023836104F056FF00B908BDB9
:1009E800FFF762FFB40700200048014008B515482A
:1009F800154B03604FF4E133436000238360C36009
:100A080003610C2242618361C361036243628362B2
:100A180005F0C3FA70B900210A4805F036FB58B949
:100A28000021084805F056FB40B9064805F00EFBC2
:100A380030B908BDFFF738FFFFF736FFFFF734FF7F
:100A4800FFF732FF200700200038014008B50A48A8
:100A58000A4B0360092303710023C3710322427206
:100A68008372C3720373C3738373837100F0DAFFF5
:100A780000B908BDFFF718FFC401002000000442B8
:100A880000B59FB06022002106A8FFF78DFD002366
:100A98000093019302930393049305934FF440301A
:100AA80001F024FC48BB012306934FF480320792DF
:100AB80002211491032215920022179216930A20FC
:100AC8001890082019901A911B930C231C931D92BF
:100AD80006A801F07FFF90B91F2300930323019319
:100AE800002302930393049305930421684601F0BD
:100AF800D7FD30B91FB05DF804FBFFF7D5FEFFF74F
:100B0800D3FEFFF7D1FE08B500F0D6F9FFF7CEFE09
:100B1800FFF7B6FFFFF70EFEFFF7D4FEFFF712FF51
:100B2800FFF718FFFFF74AFFFFF760FFFFF78EFF99
:100B3800012008BD00B583B0094BD3F8942042F0DA
:100B48000402C3F89420D3F8943003F0040301930B
:100B5800019B01F059FC01F05FFC03B05DF804FB58
:100B6800000C024682B00368B3F1804F04D0104AEB
:100B780093420FD002B070470E4BD3F89C2042F03E
:100B88000102C3F89C20D3F89C3003F001030093C2
:100B9800009BEFE7074BD3F8A42042F48022C3F868
:100BA800A420D3F8A43003F480230193019BE1E748
:100BB80000480140000C024630B5BFB00446002191
:100BC80039913A913B913C913D91D82202A8FFF787
:100BD800EBFC22682D4B9A4201D03FB030BD012278
:100BE8000023CDE9022302A802F058FD002847D1CE
:100BF800274BD3F8A42042F48042C3F8A420D3F8AA
:100C0800A42002F480420092009AD3F88C2042F08B
:100C18000102C3F88C20D3F88C3003F00103019350
:100C2800019B4FF4C063399302233A9300253B9507
:100C38003C9307233D9339A9164800F06DFD1648EB
:100C4800164B0360182343608560C56005614561E4
:100C58008561C5610562012343628362C5620563DC
:100C6800456300F0FFFB70B90B48C4F88000C46509
:100C7800102100F026FC0028AFD0FFF715FEACE7E6
:100C8800FFF712FEB4E7FFF70FFEEDE7003801406B
:100C9800000C024600000242A80600205000024054
:100CA80010B5BAB00446D822002104A8FFF77CFC8E
:100CB8002268354B9A4201D03AB010BD334BD3F875
:100CC800A82042F00202C3F8A820D3F8A83003F005
:100CD80002030093009B00220823CDE904234FF070
:100CE8008043399304A802F0D9FC002843D10C2092
:100CF80000F03CF9254BD3F88C2042F48042C3F82D
:100D08008C20D3F88C2002F480420192019AD3F807
:100D18008C2042F40042C3F88C20D3F88C2002F4D3
:100D280000420292029AD3F8943013F0040F25D1AE
:100D3800164CD4F8943043F00403C4F89430D4F833
:100D4800943003F004030393039B01F05DFB01F06F
:100D58006BFBD4F8943023F00403C4F894300120DA
:100D680000F0FAF800221146492000F05DF9492008
:100D780000F06AF9A0E7FFF797FDB8E701F044FB38
:100D880001F052FBEBE700BF00000442000C0246F2
:100D9800FEE7FEE7FEE7FEE7FEE7704770477047AD
:100DA80008B500F0B3F808BD08B5024800F08AFF9E
:100DB80008BD00BFC40100200E48D0F8883043F4B5
:100DC8007003C0F888300C4B01221A600022DA61E7
:100DD8001A625A62196821F0A85121F41021196089
:100DE8009A62196821F4802119601A654FF000632E
:100DF8008360704700ED00E0000C024608B54FF430
:100E08007A70FFF74DFD012008BD000038B5274B6B
:100E18001A78002A47D005464FF0E0231C6914F0E1
:100E280004040DD0224B1C684FF47A71B1FBF2F226
:100E3800B4FBF2F4204600F00BF950B3012033E084
:100E480000F054F901280ED0022817D00028F1D15B
:100E5800174B1C68154A11784FF4FA52B2FBF1F29D
:100E6800B4FBF2F4E6E7114B1B784FF47A72B2FB4D
:100E7800F3F24FF4FA43B3FBF2F4DBE70B4B1B78C6
:100E88004FF47A72B2FBF3F24FF40043B3FBF2F47F
:100E9800D0E7002229464FF0FF3000F0C5F8054B97
:100EA8001D60002000E0012038BD00BF08000020C0
:100EB800040000200C00002010B5104A136843F409
:100EC80080731360032000F09DF801F02BFB0C4B9E
:100ED8001B6A03F00F030B4AD35CD8400A4B186017
:100EE800042000F0C5F80F20FFF790FF10B101248F
:100EF800204610BD0446FFF71DFEF9E7002002401A
:100F0800000C02460468000804000020034B1B780C
:100F1800034A11680B441360704700BF08000020A3
:100F2800C4080020014B1868704700BFC40800209F
:100F380038B50446FFF7F6FF0546B4F1FF3F02D087
:100F4800044B1B781C44FFF7EDFF401BA042FAD36B
:100F580038BD00BF08000020034A536F23F0010387
:100F680003435367704700BF00040046034A536FAA
:100F780023F03C0303435367704700BF0004004657
:100F8800002807DB00F01F02400901239340024AB2
:100F980042F82030704700BF00E100E0002808DB7D
:100FA8000901C9B200F1604000F5614080F8001302
:100FB800704700F00F000901C9B2014B195470477E
:100FC80014ED00E000B500F00700C0F1070CBCF11B
:100FD800040F28BF4FF0040C031D062B0FD9C31EA6
:100FE8004FF0FF3E0EFA0CF021EA000199400EFA8C
:100FF80003FE22EA0E0241EA02005DF804FB002328
:10100800EEE70000074AD36823F4E0631B041B0CD7
:10101800000200F4E060034343F0BF6343F400338D
:10102800D360704700ED00E010B50446054BD86862
:10103800C0F30220FFF7C6FF01462046FFF7AEFFC8
:1010480010BD00BF00ED00E008B5FFF799FF08BD2F
:101058000138B0F1807F09D24FF0E02358610020B9
:1010680098611A6942F003021A61704701207047BB
:10107800042838D8DFE800F00A18283703004FF0B2
:10108800E022136943F00403136170474FF0E02234
:10109800136923F004031361134AD2F8E03023F4F0
:1010A8004003C2F8E03070474FF0E022136923F0A4
:1010B800040313610C4AD2F8E03023F4400343F4EC
:1010C8008003C2F8E03070474FF0E022136923F044
:1010D80004031361044AD2F8E03023F4400343F4D4
:1010E8000003C2F8E0307047000C02464FF0E023DE
:1010F800186910F004000CD1084BD3F8E03003F461
:101108004003B3F5800F06D0B3F5000F04D10220D9
:101118007047042070470120704700BF000C02464A
:1011280010B4016A0268536923F443030B43536103
:101138004369C2691343026913438269134301680F
:10114800784A914200F08D8002F18052914200F07D
:10115800888002F170428032914200F0828002F170
:10116800805291427DD002F170428032914278D013
:1011780002F18052914274D002F170428032914261
:101188006FD002F1805291426BD002F170428032EE
:10119800914266D002F18052914262D002F17042CF
:1011A800803291425DD002F18052914259D002F1D1
:1011B80070428032914254D002F18052914250D014
:1011C80002F17042803291424BD002F1805291423A
:1011D80047D002F170428032914242D002F18052EF
:1011E80091423ED002F170428032914239D002F1F0
:1011F8008052914235D002F170428032914230D013
:1012080002F1805291422CD002F170428032914218
:1012180027D002F18052914223D002F170428032ED
:1012280091421ED002F1805291421AD002F17042CE
:101238008032914215D002F18052914211D002F1D0
:101248007042803291420CD002F18052914208D013
:1012580002F170428032914203D002F180529142F1
:101268000FD1826A013A120502F07C72C46A44EA1C
:10127800020C426A013A120102F47C724CEA020240
:1012880013430A6C02F0802213430B64836842689C
:1012980002F07F021343026B1343C268B2F5806FFA
:1012A80044D0B2F5007F00F0D78001684A6C22F084
:1012B800434222F47F1222F4676222F00F021343A2
:1012C8004B64036800229A640368174A93421ED04D
:1012D80002F1805293421AD002F170428032934256
:1012E80015D002F18052934211D002F1704280323F
:1012F80093420CD002F18052934208D002F170421E
:101308008032934203D002F18052934203D10022EB
:101318005A6503689A6503680022DA675DF8044B2A
:10132800704700BF500002405006024002684C4916
:101338008A4200F08E8001F180518A4200F0898053
:1013480001F1704180318A4200F0838001F18051BF
:101358008A427ED001F1704180318A4279D001F110
:1013680080518A4275D001F1704180318A4270D033
:1013780001F180518A426CD001F1704180318A427A
:1013880067D001F180518A4263D001F17041803108
:101398008A425ED001F180518A425AD001F17041EF
:1013A80080318A4255D001F180518A4251D001F1F1
:1013B800704180318A424CD001F180518A4248D034
:1013C80001F1704180318A4243D001F180518A4253
:1013D8003FD001F1704180318A423AD001F1805109
:1013E8008A4236D001F1704180318A4231D001F110
:1013F80080518A422DD001F1704180318A4228D033
:1014080001F180518A4224D001F1704180318A4231
:101418001FD001F180518A421BD001F17041803107
:101428008A4216D001F180518A4212D001F17041EE
:1014380080318A420DD001F180518A4209D001F1F0
:10144800704180318A4204D001F180518A427FF490
:101458002CAF43F4806328E743F4007325E700BF0B
:101468005000024038B50446FFF75CFD3CB3054622
:101478002268002384F84C30022384F854305369DE
:1014880043F00603536123685B6913F0010F0BD027
:10149800FFF748FD431B052BF5D91023A36503234C
:1014A80084F85430012009E02046FFF739FE636BC9
:1014B80023650020A065012384F8543038BD01203D
:1014C800FCE7E8B1036823F47F6222F00F02C3F35C
:1014D8000B03503BC3F3C4130120984011F0100FC5
:1014E80010D001F01101112905D0536823EA000337
:1014F80053600020704753680343536000207047CF
:101508000120704700207047816BC36B1943036843
:10151800674A934200F08D8002F18052934200F0B6
:10152800888002F170428032934200F0828002F19A
:10153800805293427DD002F170428032934278D03B
:1015480002F18052934274D002F170428032934289
:101558006FD002F1805293426BD002F17042803218
:10156800934266D002F18052934262D002F17042F7
:10157800803293425DD002F18052934259D002F1F9
:1015880070428032934254D002F18052934250D03C
:1015980002F17042803293424BD002F18052934262
:1015A80047D002F170428032934242D002F1805219
:1015B80093423ED002F170428032934239D002F118
:1015C8008052934235D002F170428032934230D03B
:1015D80002F1805293422CD002F170428032934241
:1015E80027D002F18052934223D002F17042803218
:1015F80093421ED002F1805293421AD002F17042F7
:101608008032934215D002F18052934211D002F1F8
:101618007042803293420CD002F18052934208D03B
:1016280002F170428032934203D002F18052934219
:1016380001D1026C11435A6922F443020A435A61E8
:101648000268002313640268416C51640268936461
:101658000268D364026813650368164A93421ED071
:1016680002F1805293421AD002F1704280329342C2
:1016780015D002F18052934211D002F170428032AB
:1016880093420CD002F18052934208D002F170428A
:101698008032934203D002F18052934203D1002258
:1016A8005A6503689A6503680022DA67704700BFC5
:1016B800500002405006024038B50446FFF732FC9D
:1016C8003CB305462268002384F84C30022384F892
:1016D8005430536943F00603536123685B6913F080
:1016E800010F0BD0FFF71EFC431B052BF5D9102368
:1016F800A365032384F85430012009E02046FFF74E
:1017080003FFA36C23650020A065012384F85430EF
:1017180038BD0120FCE70000F0B504460023D9E0FD
:10172800056825EA0C054C6804F001049C402C432C
:1017380004607C4D55F8334005EBC3056D68EF0830
:10174800083754F8276005F0070C4FEA8C0C4FF067
:101758000F0E0EFA0CFE26EA0E0E0B2606FA0CF6F3
:1017680046EA0E0644F8276027684FEA450C032628
:1017780006FA0CF627EA0607022606FA0CF63E4396
:10178800266021E0DE08083650F8265003F00707E7
:10179800BF004FF00F0C0CFA07FC25EA0C0C0D6982
:1017A80005F00F05BD4045EA0C0540F826502668AF
:1017B8005F000325BD4026EA05064D6805F00305D0
:1017C800BD40354325601D464E6806F1FF3CBCF11F
:1017D800010F03D9112E01D0122E1CD1A6684FEA91
:1017E800450E4FF0030C0CFA0EFC26EA0C0CCE68E2
:1017F80006FA0EF646EA0C06A66066684FF0010C7B
:101808000CFA05FC26EA0C0C4E68C6F30016AE402E
:1018180046EA0C0666604E68032E0CD0E6686D003A
:101828004FF0030C0CFA05FC26EA0C0C8E68AE404F
:1018380046EA0C06E6604D6815F0805F49D09E08C0
:10184800394F183657F8265003F0030C4FEACC0CE2
:101858004FF00F0E0EFA0CFE25EA0E0E334D05EA78
:10186800902505FA0CF545EA0E0547F826503E681E
:101878006FEA020C26EA02074D6815F4801F01D0B2
:1018880042EA0607284E376076680CEA06074D6874
:1018980015F4001F01D042EA0607234E7760D6F8F8
:1018A80084600CEA06074D6815F4003F01D042EA4F
:1018B80006071D4EC6F88470D6F880600CEA060547
:1018C8004F6817F4803F01D042EA0605164AC2F86D
:1018D800805001330A6832FA03F521D04FF0010C29
:1018E8000CFA03FC1CEA0202F3D0114DA8423FF4A3
:1018F80017AF4D68022D3FF445AF122D3FF442AFAC
:1019080026684FEA430C032707FA0CF726EA07066E
:1019180005F0030505FA0CF5354325601D4653E728
:10192800F0BD00BF14680008002002467F7F2F002A
:10193800000002460AB18161704781627047000069
:10194800034A136843F0010313600020704700BF87
:10195800000403402DE9F04383B0D0F8008001EB88
:10196800C10300EB83039A6A5B6A9A4254D807461C
:101978000C469B1A01EBC10200EB8202D2699A4223
:1019880000D31A4602F103094FEA990915E006F156
:1019980003094FEA9909BB7904EBC40507EB8505F0
:1019A800296A0093B3B2E2B2404604F00BFE2B6AF8
:1019B80033442B62AB6A3344AB6208EB441303F540
:1019C80010639B699BB24B4512D304EBC40307EB2E
:1019D80083039A6A5B6A9A420AD24BB19B1A04EB58
:1019E800C40207EB8202D6699E42D0D31E46CEE7D8
:1019F80004EBC40307EB83077A6ABB6A9A420FD8E1
:101A080004F00F040122A240D8F8343823EA020374
:101A1800C8F83438002000E0012003B0BDE8F083A6
:101A28000020FAE730B583B000287AD0044690F851
:101A38009534ABB1032384F89534206804F02AFC6C
:101A4800237C8DF80030231D0ECB206804F08CFB1E
:101A580058B1022384F895340125284603B030BDD7
:101A680080F89434FFF71CF9E4E70021206804F0BB
:101A780024FE024608B9034617E0022384F8953489
:101A88000125EAE703EBC30104EB81010120487556
:101A98000B75CB8500200876C861086203EBC3018B
:101AA80004EB810148620133DBB220799842E9D81E
:101AB80016E002EBC20304EB8303002183F85512FE
:101AC80083F8542283F85812C3F85C12C3F86012E2
:101AD80002EBC20304EB8303C3F864120132D2B2EF
:101AE8009042E6D8237C8DF80030231D0ECB206869
:101AF80004F026FC054658B900236374012384F8D2
:101B08009534237B012B08D0206804F095FDA4E7C9
:101B1800022384F8953401259FE7204600F0D1FB85
:101B2800F2E7012599E7704770B504460D4600684D
:101B3800066C00EB411303F530639A68A17901291B
:101B480011D038498E4256D03DB905EBC50304EB98
:101B58008303D3F86432002B5ED0E9B22046FFF746
:101B6800E2FF002070BD12F0080F09D02E498E4206
:101B7800F7D912F4004FF4D04FF400429A60F0E71E
:101B880012F0200F02D020229A60EAE712F0280F04
:101B9800E7D125498E4206D912F4004F03D04FF4FD
:101BA80000429A60DDE705EBC50204EB8202D2F839
:101BB80074121B69C3F31203CB1AC2F868327DB9D9
:101BC80005EBC50204EB8202D2F864226AB105EB88
:101BD800C50204EB8202D2F860121944C2F86012FE
:101BE800E9B22046FFF79FFFBBE704F29C420121C0
:101BF80004F0A4FDF4E712F4004F03D04FF40042C0
:101C08009A60AEE712F0200F01D020229A60E9B264
:101C18002046FFF788FFA4E704F29C42002104F065
:101C28008DFD9AE70A31544F0A30544F7047704778
:101C380038B5044603681D6C03EB4113D3F8081B41
:101C48000E4A954207D903F5306311F4004F02D0CC
:101C58004FF400429A602046FFF7E9FF074B9D4288
:101C680002D9A379012B01D0002038BD04F29C428F
:101C78000121206804F062FDF6E700BF0A30544FE6
:101C88007047704770477047704770477047704794
:101C980008B511F0800F0CD101F00F0101EBC10163
:101CA800890001F5147101440431006804F02BFC2B
:101CB80008BD01F00F0101EBC10189001031014499
:101CC8000431F2E72DE9F04F83B004460568284651
:101CD80004F0EFFC10B103B0BDE8F08F06462068B1
:101CE80004F0B8FC0028F6D005F50067BB68C3F31C
:101CF8000D23C4F8D434206804F0ACFC10F0020FB3
:101D080004D02268536903F002035361206804F089
:101D1800A1FC10F0100F14D02268936923F010036F
:101D28009361D5F8208008F00F09C8F34343022BCC
:101D380069D0062B00F08D802268936943F0100368
:101D48009361206804F086FC10F4002F40F0938023
:101D5800206804F07FFC10F4802F40F0FC8020689D
:101D680004F078FC0028C0F27D81206804F072FC41
:101D780010F4006F09D0BB6813F0010F40F08A819E
:101D88002268536903F400635361206804F062FC1D
:101D980010F0006F15D02268536903F00063536197
:101DA80094F8CC34002B40F07981012184F8CC14CC
:101DB80023685B6DC3F38303C4F8D034204600F076
:101DC80093FA206804F046FC10F4805F40F06A81C2
:101DD800206804F03FFC10F4005F40F0B7812068F1
:101DE80004F038FC10F0080F40F0C881206804F0B7
:101DF80031FC10F0800F00F0DB81AB6923F0800329
:101E0800AB610126C4E147F6F07318EA030F93D0DB
:101E18004FEA181A4FEAC903019309EBC90B04EBFF
:101E28008B0BC8F30A12DBF86012284604F0E1FBBA
:101E3800DBF86032CAF30A0A5344CBF86032DBF8A5
:101E48006832019A4A4404EB82025344C2F8683269
:101E580072E7082204F29C41284604F0CAFB09EB09
:101E6800C90304EB8303D3F86822C8F30A18424471
:101E7800C3F8682260E7206804F0F0FB8046B146AA
:101E880035E005EB49130122C3F8082B49462046E3
:101E9800FFF74AFE3CE005EB49130822C3F8082B7C
:101EA80049462046FFF7C4FE35E009EBC90304EBB9
:101EB800830393F85732012B41D005EB49130222D3
:101EC800C3F8082B1AF0200F04D005EB4913202281
:101ED800C3F8082B1AF4005F05D005EB49134FF43B
:101EE8000052C3F8082B09F101094FEA5808B8F164
:101EF800000F3FF42DAF18F0010FF4D05FFA89FB03
:101F08005946206804F0BAFB824610F0010FB8D198
:101F18001AF0080FBFD11AF0100F04D005EB4913BF
:101F28001022C3F8082B1AF0020FCBD06B6913F0FC
:101F3800800FBAD07B6843F480637B60B5E709EB18
:101F4800C90304EB8303002283F85722594620462D
:101F5800FFF79AFEB1E7206804F088FB8046B14697
:101F680025E059462046FFF761FE1AF0080F04D015
:101F780005EB49130822C3F808291AF0100F04D0FA
:101F880005EB49131022C3F808291AF0400F04D0B2
:101F980005EB49134022C3F808291AF0020F40D173
:101FA8001AF0800F59D109F101094FEA5808B8F120
:101FB800000F3FF4D4AE18F0010FF4D05FFA89FB9C
:101FC8005946206804F063FB824610F0010FCCD01C
:101FD80009F00F02012101FA02F27B6B23EA0203E6
:101FE8007B6305EB4913C3F80819A3798B42B8D171
:101FF80009EBC90304EB83031A6AD9690A441A6214
:10200800B9F1000FADD109EBC90304EB83035B6A97
:10201800002BA6D104F29C420121206804F08EFB1B
:102028009FE74946284604F03BF909EBC90304EB4E
:102038008303DB7D012B05D005EB49130222C3F88E
:102048000829ADE709EBC90304EB83030022DA751D
:1020580059462046FFF719FEEEE749462046FFF7A6
:1020680079FCA0E77B6823F001037B6094F8CC340B
:10207800012B08D02046FFF706FE2268536903F0BB
:102088000043536171E6002184F8CC14204600F027
:102098002BF9F2E72046FFF7F5FD71E62046FFF73A
:1020A800F1FD8EE67B6823F001037B601021206838
:1020B80004F0F6F81AE005EB46134FF67F31C3F843
:1020C8000819D3F8002922F40012C3F80029C3F82C
:1020D800081BD3F8002B22F40012C3F8002BD3F806
:1020E800002B42F00062C3F8002B01362379B3427B
:1020F800E1D8FB6943F00113FB61E37BDBB1D7F85F
:10210800843043F00B03C7F884307B6C43F00B0337
:102118007B64D5F8003823F4FE63C5F8003804F270
:102128009C42A179206804F009FB2268536903F4F2
:10213800805353614CE67B6943F4005343F02B030F
:102148007B613B6943F00B033B61E2E7206804F0E5
:10215800E5FA206804F0C6F9E071266800F026FC6C
:102168000146E279304604F023F82046FFF789FD5E
:102178002268536903F40053536130E62046FFF7A1
:102188007FFD2268536903F0080353612EE6013688
:102198002379B3420CD906EBC60304EB830393F807
:1021A8005732012BF3D1F1B22046FFF771FDEEE76C
:1021B800206804F04FFA10F4801F25D1206804F03D
:1021C80049FA10F4001F58D0012326E0013623797C
:1021D800B3421BD905EB4613D3F8002906EBC60317
:1021E80004EB83031B7E012BF0D1002AEEDA06EB09
:1021F800C60304EB83030122DA7566F07F01C9B2D6
:102208002046FFF745FDE1E70126E0E7226853692C
:1022180003F480135361D1E7013322799A4227D915
:1022280005EB4312D2F8001B03EBC30204EB820256
:1022380092F85822012AEFD10029EDDAD4F8D424F3
:1022480082EA114212F0010FE6D103EBC30204EB5C
:102258008202012182F85712AA6942F08002AA611B
:102268006A6912F0800FD7D17B6843F400737B60F2
:102278002268536903F400135361206804F0EAF9F3
:1022880010F0804F10D1206804F0E4F910F0040F2A
:102298003FF421AD23685D6815F0040F0DD1226865
:1022A80053682B43536016E52046FFF7EFFC22687E
:1022B800536903F080435361E5E72046FFF7E7FCE5
:1022C800EDE7034602680121C0F8D814002083F81E
:1022D800CC04936943F000639361536D43F08053DA
:1022E80043F003035365704770470000244BDB6BD2
:1022F80003F44033834219D0B0F5803F20D9204AF7
:10230800D36823F4E023034343F48023D3601D4BB5
:102318001B681D4AA2FB03139B09322101FB03F32F
:10232800A2FB03239B0901331A4611E0B0F5803F55
:1023380004D9134AD36843F48023D360002070473C
:102348000F4AD36823F4E0230343D360DFE7013A5D
:102358000B49C96811F4004F01D1002AF7D112B90D
:1023680003207047013B064AD26B12F4004F01D19B
:10237800002BF7D10BB1002070470320704700BF36
:102388000008024604000020D34D6210024BD86BAF
:1023980000F44030704700BF00080246174B1B6826
:1023A800174AA2FB03139B09322101FB03F3A2FB8B
:1023B80003239B09013380B912498A6822F002027B
:1023C8008A6000E0013B0F4AD26B12F0020F01D085
:1023D800002BF7D183B1002070470A498A6842F080
:1023E80002028A6000E0013B064AD26B12F0020F3B
:1023F800F0D1002BF7D1EDE703207047040000204F
:10240800D34D621000080246024A136943F0805314
:102418001361704700080246024A136943F00053EB
:10242800136170470008024608B5FFF7AFFFB0F523
:10243800403F02D0B0F5003F06D1044AD36843F4C8
:10244800C013D360002008BD0120FCE70008024645
:10245800024AD36A43F00103D36270470008024678
:1024680030B583B004462D4BD3F8943013F0040FE5
:102478000FD0FFF78BFFB0F5403F20D0B0F5003FFD
:102488001DD0B4F1805F2CD2B0F5803F40D0012040
:1024980025E0224DD5F8943043F00403C5F8943074
:1024A800D5F8943003F004030193019BFFF76EFF06
:1024B800D5F8943023F00403C5F89430DBE7B4F181
:1024C800805F23D20120164A136823F00F030343C9
:1024D8001360136803F00F0383421DD1002003B07B
:1024E80030BDB4F1005F05D9A0B9B4F1405FEAD8B6
:1024F8000120E8E7B4F1805F01D00120E3E7B0F5FF
:10250800803F01D00220DEE70120DCE70020DAE787
:102518000320D8E70020D6E70120E0E7000C0246B8
:102528000020024010B4594AD369926A13F00C0390
:1025380010D002F003020C2B0AD0544AD26902F0E0
:102548000C02042A20D0082B21D00020044610E0D9
:10255800012AF2D14D4A926812F4000F0ED14B4A6B
:10256800D2F8F420C2F30332494951F822404BB162
:1025780000200C2B0ED05DF8044B7047434A92683C
:10258800120FF1E72046F4E742480024F1E74148FA
:102598000024EEE73D48816A01F00301836AC3F332
:1025A8000323013307EE103A836AC3F3001C836BDD
:1025B800C3F3CC030CFB03F307EE903AF8EE677A0B
:1025C80002291ED0032946D006EE904AF8EE666A24
:1025D800B8EE477A86EE876A2C4B5B6BC3F3080329
:1025E80007EE103AB8EE477ADFED2B6A67EEA67A67
:1025F80077EE277AB7EE007A77EE877A66EE276A63
:1026080019E0B8EE477A9FED256AC6EE076A1F4BB8
:102618005B6BC3F3080307EE103AB8EE477A9FEDF9
:102628001E6A67EE867A77EE277AB7EE007A77EE3B
:10263800877A66EEA76A154B5B6BC3F306630133B3
:1026480007EE903AB8EE677AC6EE877AFCEEE77A3C
:1026580017EE900A8FE7B8EE477A9FED106AC6EE3C
:10266800076A0A4B5B6BC3F3080307EE103AB8EE30
:10267800477A9FED096A67EE867A77EE277AB7EE92
:10268800007A77EE877A66EEA76AD4E7000C0246EE
:10269800BC6700080024F400000000390024744BD3
:1026A800002800F07181F0B583B00D4604467F4BD9
:1026B8001B6803F00F038B420BD27C4A136823F08C
:1026C8000F030B431360136803F00F038B4240F0B2
:1026D8005D81236813F0100F0CD06269744B5B6A3C
:1026E80003F070039A4205D971494B6A23F07003CD
:1026F8001A434A62236813F0080F0ED022696C4B04
:102708001B6A1B0903F070039A4206D968490B6AD1
:1027180023F4E06343EA02130B62236813F0040F07
:102728000CD0E268624B1B6A03F070039A4205D929
:102738005F490B6A23F070031A430A62236813F097
:10274800020F0CD0A2685A4B1B6A03F00F039A427F
:1027580005D957490B6A23F00F031A430A62236805
:1027680013F0010F00F0A8806368032B0AD0022B36
:1027780061D0002B66D14E4B1B6813F0040F26D195
:102788000120FFE04A4BD3F8943013F0040F0ED128
:10279800474BD3F8942042F00402C3F89420D3F8AE
:1027A800943003F004030193019B012700E0002704
:1027B800FEF7B8FB06463F4BDB6813F4802F26D1A3
:1027C8008FBB3B4B1B6813F0007F00F0E180384A59
:1027D800D36923F0030361680B43D361FEF7A2FBBF
:1027E80006466368032B34D0022B41D0002B4ED011
:1027F8002F4BDB6903F00C03042B5DD0FEF792FB33
:10280800801B41F288339842F2D90320BAE0294B61
:10281800DB6813F4804FD3D1FEF784FB801B0228BA
:10282800F5D90320AEE0224AD2F8943023F004030D
:10283800C2F89430C5E71E4B1B6813F4003FC6D19D
:1028480001209FE01A4B1B6813F4806FBFD1012051
:1028580098E0174BDB6903F00C030C2B2CD0FEF728
:1028680061FB831B41F288329342F2D9032089E04D
:102878000F4BDB6903F00C03082B1DD0FEF752FB4E
:10288800801B41F288339842F2D903207AE0084B42
:10289800DB6913F00C0F0FD0FEF744FB801B41F2ED
:1028A80088339842F3D903206CE000BF002002402F
:1028B800000C024600080246236813F0020F0CD0F1
:1028C800A268354B1B6A03F00F039A4205D23249BE
:1028D8000B6A23F00F031A430A62304B1B6803F09C
:1028E8000F03AB420AD92D4A136823F00F032B4379
:1028F8001360136803F00F03AB424BD1236813F046
:10290800040F0CD0E268244B1B6A03F070039A4250
:1029180005D221490B6A23F070031A430A6223681F
:1029280013F0080F0ED022691B4B1B6A1B0903F01A
:1029380070039A4206D218490B6A23F4E06343EA0B
:1029480002130B62236813F0100F0CD06269124B4C
:102958005B6A03F070039A4205D20F494B6A23F071
:1029680070031A434A62FFF7DDFD0B4B1B6A03F045
:102978000F030B4AD35CD8400A4B18600A4B1868FF
:10298800FEF744FA03B0F0BD012070470120F9E7D3
:102998000120F7E70120F5E7000C0246002002407D
:1029A80004680008040000200C00002008B5FFF7A8
:1029B800B9FD054B1B6A03F00F03044AD35CD840EA
:1029C800034B186008BD00BF000C024604680008ED
:1029D80004000020002800F02A85F0B585B00446E0
:1029E8009C4BDD6905F00C059E6A06F0030603683A
:1029F80013F0100F00F09480EDB10C2D19D0E3699D
:102A0800002B00F01181934A136843F0010313600F
:102A1800FEF788FA07468F4B1B6813F0040F40F047
:102A2800CD80FEF77FFAC01B0228F4D9032000F0FE
:102A380001BD012EE3D1E369002B00F0FA84606A3E
:102A4800844B9B6813F4000F1CD0824B9B6803F0E7
:102A58007043984244D9E5B17E4A936843F4000331
:102A68009360936823F07043616A0B439360636AD1
:102A7800B3F1404F14D3D36823F01F03216A0B43EB
:102A8800D36044E0734BD3F8F4301B0403F0704375
:102A9800DFE7FFF7E5FC0028DED0012000F0CABC24
:102AA800002B0BDBB3F1804F11D36A4AD36823F4B0
:102AB800F843216A43EA8123D36028E0654AD36852
:102AC80023F47873216A43EA4113D3601FE0614A13
:102AD800D36823F47823216A43EAC133D36016E02C
:102AE8005C4A936843F400039360936823F070434F
:102AF800616A0B439360636AB3F1404F36D3D3687E
:102B080023F01F03216A0B43D360002D4ED0FFF73B
:102B18004DFF514B1868FEF779F9002840F08A8478
:102B2800236813F0010F00F0A080082D00F09980B1
:102B38000C2D00F093806368B3F5803F00F0B680F9
:102B4800B3F5A02F00F0C880B3F5A81F00F0D2801D
:102B5800404B1A6822F480321A601A6822F48022E4
:102B68001A601A6822F480121A60A4E0002B0BDBAA
:102B7800B3F1804F11D3374AD36823F4F843216A5D
:102B880043EA8123D360C0E7324AD36823F47873D9
:102B9800216A43EA4113D360B7E72E4AD36823F486
:102BA8007823216A43EAC133D360AEE7606AFFF74E
:102BB80057FC0028ABD0012000F03CBC254A9368A4
:102BC80043F400039360936823F07043616A0B43F6
:102BD8009360636AB3F1404F06D3D36823F01F03B1
:102BE800216A0B43D3609BE7002B0BDBB3F1804FCB
:102BF80011D3184AD36823F4F843216A43EA81239E
:102C0800D3608DE7134AD36823F47873216A43EAC3
:102C18004113D36084E70F4AD36823F47823216AE9
:102C280043EAC133D3607BE70A4A136823F0010300
:102C38001360FEF777F90746064B1B6813F0040F7D
:102C48003FF46EAFFEF76EF9C01B0228F4D90320DB
:102C5800F0E300BF000C02460C000020032E7FF4B6
:102C68006AAF6368002B00F0E783236813F0020F54
:102C78006BD0042D5DD00C2D59D0E368002B00F0EB
:102C8800BF80AA4A136843F480731360FEF74AF9B9
:102C98000546A64B1B6813F4806F40F0A880FEF72A
:102CA80041F9401B0228F4D90320C3E39F4A136863
:102CB80043F480331360636853B3FEF733F9074670
:102CC8009A4B1B6813F4003FCFD1FEF72BF9C01BBA
:102CD8006428F5D90320ADE3944B1A6842F48022A6
:102CE8001A601A6822F480121A601A6842F4803254
:102CF8001A60E0E78D4B1A6842F480221A601A685D
:102D080042F480121A601A6842F480321A60D2E7DC
:102D1800FEF708F90746854B1B6813F4003FA4D05B
:102D2800FEF700F9C01B6428F5D9032082E3022EC0
:102D3800A3D1E368002B00F081837C4A136923F454
:102D4800F813216943EA01431361236813F0080F5C
:102D580000F0AF80754BD3F8943013F0040F63D1B3
:102D6800724BD3F8942042F00402C3F89420D3F8AD
:102D7800943003F004030193019B01256C4B9B6A7B
:102D880013F0010F52D06369002B7AD0674BD3F848
:102D9800F030A16903F08052914211D003F04062F3
:102DA800B2F1006F00F04C8313F0806F52D15F4A8C
:102DB800D2F8F03023F08053A1690B43C2F8F03009
:102DC8005A4AD2F8F03043F08063C2F8F030FEF788
:102DD800A9F80646554BD3F8F03013F0006F67D1C9
:102DE800FEF7A0F8801B0528F4D9032022E34F4AF8
:102DF800136923F4F813216943EA01431361A4E733
:102E08004A4A136823F480731360FEF78BF805466B
:102E1800464B1B6813F4806F97D0FEF783F8401B6E
:102E28000228F5D9032005E30025A7E7404A936A5D
:102E380043F001039362FEF775F806463C4B9B6A24
:102E480013F0010F9FD1FEF76DF8801B0228F5D90A
:102E58000320EFE2354AD2F8F03023F0A053C2F84D
:102E6800F030FEF75FF80646304BD3F8F03013F039
:102E7800006F9CD0FEF756F8801B0528F4D9032074
:102E8800D8E22A4AD2F8F03023F0A053C2F8F03042
:102E9800FEF748F80646254BD3F8F03013F0006FDC
:102EA80006D0FEF73FF8801B0528F4D90320C1E2BD
:102EB80095BB236813F0040F00F0D9801B4BD3F89F
:102EC800943013F0040F2FD1184BD3F8942042F00C
:102ED8000402C3F89420D3F8943003F00403029357
:102EE800029B0125124B9B6A13F0010F22D0A368A5
:102EF80013F0010F3AD013F0040F2FD00B4BD3F877
:102F0800F02042F00402C3F8F020D3F8F02042F099
:102F18000102C3F8F02036E0044AD2F8943023F0D6
:102F28000403C2F89430C4E70025DBE7000C02462E
:102F380000080246A84A936A43F001039362FDF72A
:102F4800F1FF0646A44B9B6A13F0010FCFD1FDF7A2
:102F5800E9FF801B0228F5D903206BE29F4AD2F8CB
:102F6800F03043F00103C2F8F0300CE09B4BD3F88B
:102F7800F02022F00102C3F8F020D3F8F02022F06C
:102F88000402C3F8F020A368002B41D0FDF7CAFF64
:102F98000646924BD3F8F03013F0020F08D1FDF734
:102FA800C1FF801B41F288339842F2D9032041E2E5
:102FB800A36813F0800F15D0884AD2F8F03043F098
:102FC8008003C2F8F030854BD3F8F03013F4006F6B
:102FD8004CD1FDF7A7FF801B41F288339842F2D904
:102FE800032027E27D4AD2F8F03023F08003C2F8AC
:102FF800F0307A4BD3F8F03013F4006F36D0FDF789
:1030080091FF801B41F288339842F2D9032011E2E4
:10301800FDF788FF0646714BD3F8F03013F0020F26
:1030280008D0FDF77FFF801B41F288339842F2D920
:103038000320FFE1694BD3F8F03013F0800F15D06F
:10304800664AD2F8F03023F08003C2F8F030634BC0
:10305800D3F8F03013F4006F08D0FDF763FF801B3E
:1030680041F288339842F2D90320E3E1CDB92368CD
:1030780013F0200F31D0E36ADBB1584A136843F4E8
:1030880080531360FDF74EFF0546544B1B6813F43D
:10309800005F22D1FDF746FF401B0228F5D9032027
:1030A800C8E14E4AD2F8943023F00403C2F89430B1
:1030B800DDE74A4A136823F480531360FDF732FFB3
:1030C8000546464B1B6813F4005F06D0FDF72AFF40
:1030D800401B0228F5D90320ACE1236813F0800FC8
:1030E80029D0236B9BB13D4A136843F48043136096
:1030F800FDF718FF0546394B1B6813F4004F1AD12A
:10310800FDF710FF401B0228F5D9032092E1334A4E
:10311800136823F480431360FDF704FF05462F4B23
:103128001B6813F4004F06D0FDF7FCFE401B022875
:10313800F5D903207EE1236813F0400F64D0636B58
:10314800002B4DD0254A936843F40003936093689D
:1031580023F07063A16A0B439360636AB3F1404F35
:1031680019D3D36823F01F03216A0B43D3601B4A8A
:10317800136843F010031360FDF7D4FE0546174BA0
:103188001B6813F0200F3FD1FDF7CCFE401B02282F
:10319800F5D903204EE1002B0BDBB3F1804F11D39F
:1031A8000E4AD36823F4F843216A43EA8123D360A3
:1031B800DDE70A4AD36823F47873216A43EA4113A6
:1031C800D360D4E7054AD36823F47823216A43EA15
:1031D800C133D360CBE700BF00080246000C0246AB
:1031E800A14A136823F010031360FDF79BFE054600
:1031F8009D4B1B6813F0200F06D0FDF793FE401B74
:103208000228F5D9032015E1A36B002B00F01A81E1
:10321800954AD26902F00C020C2A00F0BC80022BFD
:1032280014D0914A136823F080731360FDF77AFE77
:1032380004468D4B1B6813F0007F00F0A380FDF758
:1032480071FE001B0228F4D90320F3E0864A1368B4
:1032580023F080731360FDF765FE0546824B1B68FB
:1032680013F0007F06D0FDF75DFE401B0228F5D95C
:103278000320DFE07C4BD3F8943013F0040F68D1BF
:10328800794BD3F8942042F00402C3F89420D3F881
:10329800943003F004030393039B0125734BDB680D
:1032A80013F4802F57D10026704AD36823F4802363
:1032B800D3606D4B9A6A22F47F4222F00302E16BDD
:1032C800206C013841EA0021606C01430A439A628C
:1032D8005A6B67481040A26C013AC2F30802E16CCD
:1032E8000139490289B20A43216D0139090401F4FF
:1032F800FE010A43616D0139090601F0FE410A43E6
:10330800104358639A6A22F010029A62E26DD20062
:103318009A639A6A42F010029A629A6A22F00C0240
:10332800A16D0A439A62C6B9EDB94F4A136843F0D2
:1033380080731360FDF7F6FD04464B4B1B6813F0D2
:10334800007F18D1FDF7EEFD001B0228F5D90320F8
:1033580070E00025A2E70126A6E7444AD36843F4B3
:103368008023D360E0E7404AD2F8943023F0040386
:10337800C2F89430D9E73C4A936A43F480239362B5
:10338800002057E0384A936A23F4E02323F003032C
:10339800936200204EE0344A916A506B012B53D05F
:1033A80001F00303E26B934250D1C1F30322236C73
:1033B800013B9A424CD101F47041636C994249D166
:1033C800C0F30802A36C013B9A4245D1C0F34622E0
:1033D800E36C013B9A4241D1C0F30642236D013BA5
:1033E8009A423DD1C0F30660636D013B984239D1E2
:1033F8001D4B9B6BC3F3CC03E26D934201D10020BC
:1034080018E0194A936A23F010039362FDF78AFDC6
:103418000546FDF787FDA842FBD0E26DD200124BAE
:103428009A639A6A42F010029A62002002E0012030
:103438007047012005B0F0BD0120FBE70120F9E746
:103448000120F7E70020F5E70120F3E70120F1E785
:103458000120EFE70120EDE70120EBE70120E9E794
:103468000120E7E70120E5E7000C024600080246D4
:103478000000808008B5FFF799FA044B1B6AC3F374
:103488000213034AD35CD84008BD00BF000C0246B3
:10349800FC67000808B5FFF789FA044B1B6AC3F3F9
:1034A8000223034AD35CD84008BD00BF000C024683
:1034B800FC67000808B5FFF779FA044B5B6AC3F3A9
:1034C8000213034AD35CD84008BD00BF000C024673
:1034D800FC67000838B50546354A136823F0805361
:1034E8001360FDF71FFD0446314B1B6813F0005FA6
:1034F80006D0FDF717FD001B0228F5D9032038BDBB
:103508002B4B1A6B22F4706222F003022968686858
:10351800013841EA00210A431A635A6C25481040D1
:10352800AA68013AC2F30802E9680139490289B276
:103538000A4329690139090401F4FE010A4369694A
:103548000139090601F0FE410A43104358641A6B19
:1035580022F00C02A9690A431A631A6B296A0A4302
:103568001A631A6B22F010021A639A6C22F47F42D3
:1035780022F0F802E96942EAC1029A641A6B42F041
:1035880010021A631A6842F080521A60FDF7CAFCEA
:103598000446074B1B6813F0005F06D1FDF7C2FC19
:1035A800001B0228F5D90320A9E70020A7E700BFE0
:1035B800000C02460000808038B50546354A13687D
:1035C80023F080631360FDF7ADFC0446314B1B68A4
:1035D80013F0006F06D0FDF7A5FC001B0228F5D9F3
:1035E800032038BD2B4BDA6A22F4706222F0030202
:1035F80029686868013841EA00210A43DA62DA6B0F
:1036080025481040AA68013AC2F30802E96801395E
:10361800490289B20A4329690139090401F4FE0102
:103628000A4369690139090601F0FE410A4310435A
:10363800D863DA6A22F00C02A9690A43DA62DA6A04
:10364800296A0A43DA62DA6A22F01002DA621A6C2C
:1036580022F47F4222F0F802E96942EAC1021A64C0
:10366800DA6A42F01002DA621A6842F080621A607E
:10367800FDF758FC0446074B1B6813F0006F06D192
:10368800FDF750FC001B0228F5D90320A9E700200C
:10369800A7E700BF000C0246000080802DE9F0413A
:1036A80082B00446036813F0010F08D0B04AD2F87C
:1036B800E03023F00303016D0B43C2F8E0302368C8
:1036C80013F0020F08D0AA4AD2F8E03023F00C0316
:1036D800616D0B43C2F8E030236813F0040F08D083
:1036E800A34AD2F8E03023F03003A16D0B43C2F8AF
:1036F800E030236813F0080F08D09D4AD2F8E03074
:1037080023F0C003E16D0B43C2F8E030236813F0E7
:10371800100F08D0964AD2F8E03023F44073216E97
:103728000B43C2F8E030236813F0005F08D0904ADA
:10373800D2F8E43023F44033616E0B43C2F8E4302E
:10374800236813F0200F08D0894AD2F8E83023F014
:103758000703A16E0B43C2F8E830236813F0400F4B
:1037680008D0834AD2F8E03023F44063E16E0B437B
:10377800C2F8E030236813F0800F08D07C4AD2F8F2
:10378800E03023F44053216F0B43C2F8E030236844
:1037980013F4807F08D0764AD2F8E83023F0C003CB
:1037A800616F0B43C2F8E830236813F4800F08D028
:1037B8006F4AD2F8E03023F44043A16F0B43C2F8BC
:1037C800E030236813F0804F08D0694AD2F8E4301B
:1037D80023F04073E16F0B43C2F8E4302368002BF9
:1037E80009DA634AD2F8E43023F04063D4F8801051
:1037F8000B43C2F8E430236813F4007F09D05C4A15
:10380800D2F8E83023F44063D4F884100B43C2F8AC
:10381800E830236813F4806F09D0554AD2F8E030B5
:1038280023F44023D4F888100B43C2F8E03023680F
:1038380013F4006F09D04E4AD2F8E83023F44073ED
:10384800D4F88C100B43C2F8E830236813F4005FF7
:1038580036D0D4F89C30402B20D00BD82BB3202B5B
:1038680005D104F12C00FFF735FE054622E00126BC
:10387800354627E0602B21D0802B0CD100253C4A0F
:10388800D2F8E43023F0E003D4F89C100B43C2F8DC
:10389800E430002616E00126354613E0344A936AE0
:1038A80043F4803393620025E9E704F10800FFF749
:1038B80083FE0546002DE2D02E4603E00025DEE714
:1038C80000263546236813F4804F25D0D4F8A0305D
:1038D800B3F5007F45D00DD8002B4BD0B3F5807FD2
:1038E80005D104F12C00FFF7F5FD054608E0012697
:1038F800354611E0B3F5407F02D0B3F5806F2DD186
:10390800002D3DD11A4AD2F8E43023F4E063D4F80C
:10391800A0100B43C2F8E430236813F4004F10D012
:10392800D4F8B430B3F5005F33D02BD9B3F5804F5A
:1039380034D0B3F5A04F31D0B3F5405F2ED0012677
:103948003546236813F4803F46D0D4F89430042BCE
:103958005DD8DFE803F036315636360001263546A5
:10396800DAE7034A936A43F480339362C8E700BFF7
:10397800000C024604F10800FFF71EFE0546BFE7EB
:103988002E46C9E753B1B3F5805F07D00126354607
:10399800D7E704F10800FFF70FFE054655B9804A3E
:1039A800D2F8E83023F4E043D4F8B4100B43C2F85B
:1039B800E830C6E72E46C4E7794A936A43F4803371
:1039C80093623DBB764AD2F8E43023F00703D4F87B
:1039D80094100B43C2F8E430236813F4003F30D04E
:1039E800D4F89830B3F5003F00F0898017D8E3B1D8
:1039F800B3F5803F10D16A4A936A43F480339362E7
:103A080013E004F12C00FFF765FD0546D9E7012610
:103A18003546E1E72E46DFE70126354611E0B3F5E6
:103A2800403F02D0B3F5802F66D1002D6DD15C4A9E
:103A3800D2F8E83023F4E023D4F898100B43C2F806
:103A4800E830236813F4802F7AD0554BD3F894309C
:103A580013F0040F5BD1524BD3F8942042F00402C8
:103A6800C3F89420D3F8943003F004030193019B26
:103A78004FF001084B4A936A43F001039362FDF744
:103A880051FA0746474B9B6A13F0010F05D1FDF722
:103A980049FAC31B022BF5D90325002D4CD1404B05
:103AA800D3F8F03013F4407316D0D4F8D0209A42EB
:103AB80012D03B4AD2F8F03023F44073D2F8F01019
:103AC80041F48031C2F8F010D2F8F01021F48031BE
:103AD800C2F8F010C2F8F03013F0010F1AD1002D1F
:103AE80050D12F4AD2F8F03023F44073D4F8D010D4
:103AF8000B43C2F8F03020E001263546A1E704F177
:103B08002C00FFF7E7FC05468FE72E4699E74FF0B4
:103B18000008AFE7FDF706FA0746214BD3F8F03067
:103B280013F0020FDBD1FDF7FDF9C01B41F288331A
:103B38009842F2D90325D2E72E46B8F1000F23D1D7
:103B4800236813F4801F34D0D4F8AC30B3F1006F7D
:103B580000F00B8128D83BB1B3F1806F1CD104F180
:103B68000800FFF729FD0546002D40F004810C4AA6
:103B7800D2F8E03023F04063D4F8AC100B43C2F81D
:103B8800E03016E02E46D8E7054AD2F8943023F004
:103B98000403C2F89430D3E70126354609E000BF94
:103BA800000C024600080246B3F1406FDCD0012643
:103BB8003546236813F4002F0ED0D4F8A430B3F59B
:103BC800805F00F0DA80B3F5005F00F0D680002B4C
:103BD80000F0D38001263546236813F4805F09D0AE
:103BE800944AD2F8E43023F40063D4F8A8100B43C5
:103BF800C2F8E430236813F4001F0FD0D4F8B030B3
:103C0800B3F5804F00F0C5808A4AD2F8E43023F437
:103C18008043D4F8B0100B43C2F8E430236813F49F
:103C2800000F09D0834AD2F8E03023F44013D4F8C7
:103C3800C4100B43C2F8E030236813F0807F09D02A
:103C48007C4AD2F8E03023F44033D4F8C8100B4350
:103C5800C2F8E030236813F0007F09D0754AD2F823
:103C6800E83023F01803D4F8CC100B43C2F8E8303E
:103C7800236813F0806F18D0D4F8BC30B3F5001F58
:103C880000F08D80D4F8BC30B3F5401F00F08D8073
:103C9800002D40F09080674AD2F8E43023F44013B6
:103CA800D4F8BC100B43C2F8E430636813F0010F7A
:103CB8001CD0D4F8C030B3F5000F00F08D807FD849
:103CC8003BB1B3F5800F78D15A4A936A43F4003375
:103CD8009362002D40F08680564AD2F8E43023F4EF
:103CE8004003D4F8C0100B43C2F8E430236813F043
:103CF800006F0CD0D4F89030B3F1807F74D0B3F15A
:103D0800007F00F08280002B73D00126354623689F
:103D180013F0805F09D0474AD2F8E83023F4004313
:103D2800D4F8B8100B43C2F8E830636813F0080FF2
:103D380079D0D4F8D430B3F1004F09D06FD83BB163
:103D4800B3F1804F69D13B4A936A43F4803393625D
:103D5800002D6CD1374AD2F8E43023F04043D4F830
:103D6800D4100B43C2F8E4305DE0324A936A43F45E
:103D780000339362F8E62E461BE745B92D49D1F882
:103D8800E42022F440521343C1F8E43024E72E46DD
:103D980022E7284A936A43F48033936234E7254A3A
:103DA800936A43F4003393626CE704F10800FFF769
:103DB80003FC05466CE72E4677E70126354695E76E
:103DC800B3F5400F05D104F12C00FFF783FB05463E
:103DD8007FE70126354689E704F10800FFF7ECFB89
:103DE800054676E72E4681E7124A936A43F4003384
:103DF800936285B90F4AD2F8E03023F04073D4F8C3
:103E080090100B43C2F8E03081E704F10800FFF797
:103E1800D3FB0546EDE72E4679E7012603E0B3F12B
:103E2800404F90D00126304602B0BDE8F0812E46C2
:103E3800F9E700BF000C024610B5824C616BC1F374
:103E48000801A36A03F0030CA36AC3F303235A1CF3
:103E5800A36AC3F3001EA36BC3F3CC030EFB03F3E7
:103E680007EE903AF8EE677ABCF1020F2ED0BCF15B
:103E7800030F00F0BA80BCF1010F00F08A80714B8B
:103E88009B6813F4000F00F0CD806E4B9B681B0FEE
:103E98006D4C04EB830393ED006AB8EE466A07EEB7
:103EA800102AB8EE477AC6EE076A07EE101AB8EE7F
:103EB800477A9FED666A67EE867A77EE277AB7EEDD
:103EC800007A77EE877A66EEA77A1BE007EE102A6B
:103ED800B8EE477A9FED5E6AC6EE076A594B5B6B90
:103EE800C3F3080307EE103AB8EE477A9FED576A16
:103EF80067EE867A77EE277AB7EE007A77EE877ADA
:103F080066EEA77A4F4B9B6A13F4803F00F09080CF
:103F18004C4B5B6BC3F3462307EE103AB8EE477A77
:103F2800F7EE006A37EE267AC7EE876AFCEEE66A95
:103F3800C0ED006A434B9B6A13F4003F7BD0414BB2
:103F48005B6BC3F3064307EE103AB8EE477AF7EE19
:103F5800006A37EE267AC7EE876AFCEEE66AC0ED9D
:103F6800016A384B9B6A13F4802F67D0354B5B6B23
:103F7800C3F3066307EE103AB8EE477AF7EE006A25
:103F880037EE267AC7EE876AFCEEE66AC0ED026A6B
:103F980010BD2C4B9B6813F4000F20D0294B9B6855
:103FA8001B0F294C04EB830393ED006AB8EE466AB5
:103FB80007EE102AB8EE477AC6EE076A07EE101A1F
:103FC800B8EE477A9FED216A67EE867A77EE277A10
:103FD800B7EE007A77EE877A66EEA77A92E7194B02
:103FE800D3F8F430C3F30333DBE707EE102AB8EE57
:103FF800477A9FED176AC6EE076A124B5B6BC3F3ED
:10400800080307EE103AB8EE477A9FED106A67EE9C
:10401800867A77EE277AB7EE007A77EE877A66EEB9
:10402800A77A6FE7074BD3F8F430C3F303332FE7CE
:10403800002303607EE70023436092E70023836048
:10404800A6E700BF000C0246BC6700080000003964
:104058000024744B10B5824CE16BC1F30801E36A8C
:1040680003F0030CE36AC3F303235A1CE36AC3F3A4
:10407800001E236CC3F3CC030EFB03F307EE903A48
:10408800F8EE677ABCF1020F2ED0BCF1030F00F0F6
:10409800BA80BCF1010F00F08A80714B9B6813F461
:1040A800000F00F0CD806E4B9B681B0F6D4C04EB2E
:1040B800830393ED006AB8EE466A07EE102AB8EE5D
:1040C800477AC6EE076A07EE101AB8EE477A9FEDF0
:1040D800666A67EE867A77EE277AB7EE007A77EE29
:1040E800877A66EEA77A1BE007EE102AB8EE477AC1
:1040F8009FED5E6AC6EE076A594BDB6BC3F3080394
:1041080007EE103AB8EE477A9FED576A67EE867A5F
:1041180077EE277AB7EE007A77EE877A66EEA77A97
:104128004F4BDB6A13F4803F00F090804C4BDB6B05
:10413800C3F3462307EE103AB8EE477AF7EE006A63
:1041480037EE267AC7EE876AFCEEE66AC0ED006AAB
:10415800434BDB6A13F4003F7BD0414BDB6BC3F36B
:10416800064307EE103AB8EE477AF7EE006A37EEE4
:10417800267AC7EE876AFCEEE66AC0ED016A384B1C
:10418800DB6A13F4802F67D0354BDB6BC3F3066310
:1041980007EE103AB8EE477AF7EE006A37EE267A5D
:1041A800C7EE876AFCEEE66AC0ED026A10BD2C4BCA
:1041B8009B6813F4000F20D0294B9B681B0F294CD8
:1041C80004EB830393ED006AB8EE466A07EE102A03
:1041D800B8EE477AC6EE076A07EE101AB8EE477AC5
:1041E8009FED216A67EE867A77EE277AB7EE007A36
:1041F80077EE877A66EEA77A92E7194BD3F8F43010
:10420800C3F30333DBE707EE102AB8EE477A9FEDD6
:10421800176AC6EE076A124BDB6BC3F3080307EE97
:10422800103AB8EE477A9FED106A67EE867A77EE15
:10423800277AB7EE007A77EE877A66EEA77A6FE785
:10424800074BD3F8F430C3F303332FE7002303609D
:104258007EE70023436092E700238360A6E700BF60
:10426800000C0246BC670008000000390024744BAB
:1042780010B5824C616CC1F30801236B03F0030C89
:10428800236BC3F303235A1C236BC3F3001EA36CD5
:10429800C3F3CC030EFB03F307EE903AF8EE677A0C
:1042A800BCF1020F2ED0BCF1030F00F0BA80BCF1B4
:1042B800010F00F08A80714B9B6813F4000F00F027
:1042C800CD806E4B9B681B0F6D4C04EB830393ED05
:1042D800006AB8EE466A07EE102AB8EE477AC6EECC
:1042E800076A07EE101AB8EE477A9FED666A67EE1E
:1042F800867A77EE277AB7EE007A77EE877A66EED7
:10430800A77A1BE007EE102AB8EE477A9FED5E6A9F
:10431800C6EE076A594B5B6CC3F3080307EE103A05
:10432800B8EE477A9FED576A67EE867A77EE277A76
:10433800B7EE007A77EE877A66EEA77A4F4B1B6B5B
:1043480013F4803F00F090804C4B5B6CC3F3462322
:1043580007EE103AB8EE477AF7EE006A37EE267A9B
:10436800C7EE876AFCEEE66AC0ED006A434B1B6B3A
:1043780013F4003F7BD0414B5B6CC3F3064307EE5D
:10438800103AB8EE477AF7EE006A37EE267AC7EEAB
:10439800876AFCEEE66AC0ED016A384B1B6B13F4C2
:1043A800802F67D0354B5B6CC3F3066307EE103A7A
:1043B800B8EE477AF7EE006A37EE267AC7EE876AD4
:1043C800FCEEE66AC0ED026A10BD2C4B9B6813F444
:1043D800000F20D0294B9B681B0F294C04EB83034B
:1043E80093ED006AB8EE466A07EE102AB8EE477AEF
:1043F800C6EE076A07EE101AB8EE477A9FED216AF3
:1044080067EE867A77EE277AB7EE007A77EE877AC4
:1044180066EEA77A92E7194BD3F8F430C3F3033367
:10442800DBE707EE102AB8EE477A9FED176AC6EE6B
:10443800076A124B5B6CC3F3080307EE103AB8EE39
:10444800477A9FED106A67EE867A77EE277AB7EE9D
:10445800007A77EE877A66EEA77A6FE7074BD3F88C
:10446800F430C3F303332FE7002303607EE7002310
:10447800436092E700238360A6E700BF000C024672
:10448800BC670008000000390024744B00B58BB0ED
:10449800A0F500330B4300F0E684B64B984271F167
:1044A800000380F02981A0F580730B4300F070852C
:1044B80040F20113984271F1000324D3A0F5005390
:1044C8000B4300F0A28242F20103984271F100030B
:1044D800C0F09B80A0F500430B4300F04B84A0F58F
:1044E80080330B4340F0EB80A34BD3F8E43003F068
:1044F8000703042B01F27180DFE813F098048C04A1
:10450800920488049C04212871F1000354D250EAD3
:10451800010300F0E987013841F1FF31202871F1EA
:10452800000103D300200BB05DF804FB1F28F9D865
:1045380001A353F820F000BF894B0008CD4B0008B9
:104548002D450008114C00082D4500082D45000890
:104558002D450008554C00082D4500082D4500083C
:104568002D4500082D4500082D4500082D4500085B
:104578002D450008994C00082D4500082D450008D8
:104588002D4500082D4500082D4500082D4500083B
:104598002D4500082D4500082D4500082D4500082B
:1045A8002D4500082D4500082D4500082D4500081B
:1045B8002D450008014D0008A0F140030B4300F011
:1045C8009584803808431ED16B4BD3F8E03013F440
:1045D800405300F0C384B3F5805F00F0C384664A9B
:1045E800126812F4806F03D0B3F5005F00F0FF8704
:1045F800614A106810F0200095D0B3F5405F00F0D4
:10460800B58400208FE700208DE7A0F500630B43F9
:1046180000F0898540F60103984271F100031AD32E
:10462800A0F58050084348D1534AD2F8E43003F447
:104638000063126812F4806F02D0002B00F06D87BF
:104648004D4A126812F4806F00F06A87002B40F020
:104658006A87002067E7A0F500730B4300F0AC857C
:10466800A0F58060084326D1434BD3F8E03013F41B
:10467800402300F0EA85404AD2F8F02012F0006F9B
:1046880003D0B3F5802F00F0E4853B4A126812F49A
:10469800806F03D0B3F5002F00F0D587364AD2F8E3
:1046A800F02012F0020F00F0D187B3F5402F00F090
:1046B800D087002037E7002035E7002033E7A0F552
:1046C8008040084316D12C4BD3F8E43003F4E06360
:1046D800B3F5007F00F0DE8100F2CB81002B00F003
:1046E800DE81B3F5807F40F0C28101A8FFF7C0FDED
:1046F800019818E7002016E700F17C430B4300F00F
:104708005D861E4B984271F100033BD300F1404394
:104718000B4300F0B6841A4B984271F10003C0F0C5
:10472800DB80012908BF002800F08586082908BF1A
:10473800002840F01781104AD2F8E43003F04043D3
:10474800126812F4003F02D0002B00F0A6870A4A34
:10475800126812F4003F03D0B3F1004F00F0A087B5
:10476800B3F1804F00F0B386B3F1404F00F0B58647
:104778000020D8E601000200000C024601000004F7
:1047880001000040A0F580030B4300F04284A84BD1
:10479800984271F100032BD300F17F430B4300F0E3
:1047A800A38500F17E430B437BD1A24BD3F8E830BD
:1047B80003F01803182B00F25387DFE813F0D50530
:1047C8005107510751075107510751075107D9059B
:1047D8005107510751075107510751075107DD0587
:1047E8005107510751075107510751075107E6056E
:1047F800A0F580130B4300F057818F4B984271F15D
:10480800000320D3A0F50010084348D1894BD3F802
:10481800E40010F4804040F0AE81D3F8E03003F0BB
:104828004063B3F1006F00F0938100F27B81002BAD
:1048380000F09381B3F1806F7FF475AE04A8FFF7A1
:1048480009FC05986FE6A0F580230B4300F0B180C2
:10485800A0F50020084320D1764AD2F8E43003F4CA
:104868004053126812F4005F02D0002B00F0098751
:10487800704A126812F4005F03D0B3F5805F00F04D
:1048880003876C4A126812F4806F00F00087B3F552
:10489800005F00F0FF86002045E6002043E6002088
:1048A80041E6A0F50000084314D1624BD3F8E0308C
:1048B80003F44013B3F5001F00F0078500F2E88405
:1048C800002B00F0FE84B3F5801F40F0D884FDF77C
:1048D80029FE28E6002026E600F170430B4300F08D
:1048E800D68500F160430B4320D1524BD3F8E43016
:1048F80013F4403300F0F181B3F5803F00F0F0810C
:104908004C4A126812F4806F03D0B3F5003F00F0F0
:104918003F86484AD2F8F02012F0020F00F046868F
:10492800B3F5403F00F045860020FCE500F17840F3
:10493800084315D13F4AD2F8E03003F040731268BB
:1049480012F4003F02D0002B00F08786B3F1807F7D
:1049580000F08984B3F1007F00F08B840020E2E549
:104968000020E0E5002908BFB0F1004F1FD1314B0E
:10497800D3F8E43013F0406300F0BB83B3F1806FE9
:1049880000F0BB832B4A126812F4806F03D0B3F196
:10499800006F00F03586274A106810F020003FF4B9
:1049A800C2ADB3F1406F00F0AC830020BBE500203E
:1049B800B9E5204AD2F8F03003F44073D2F8F02079
:1049C80012F0020F03D0B3F5807F00F09085194AEA
:1049D800D2F8F02012F0006F02D0B3F5007F0BD0B0
:1049E800144A126812F4003F00F08985B3F5407F3D
:1049F80000F08885002096E50E4BD3F8F03013F0D0
:104A0800805F00F07885FA208DE50A4BD3F8E43012
:104A180003F0E003402B20D010D81BB3202B04D187
:104A280001A8FFF725FC01987DE500207BE500BF84
:104A380001004000000C024601001000602B00F04D
:104A48006485802B07D1A84B186810F480603FF468
:104A58006AADA64867E5002065E507A8FFF7ECF909
:104A6800079860E504A8FFF7F5FA04985BE50020CD
:104A780059E5B3F5407F00F04C85B3F5806F07D159
:104A8800994B186810F480603FF44DAD97484AE59B
:104A9800002048E507A8FFF7CFF9079843E504A8E1
:104AA800FFF7D8FA04983EE58F4BD3F8E03003F0CF
:104AB8004063B3F1006F22D00AD82BB3B3F1806FF3
:104AC80004D104A8FFF7C6FA05982CE500202AE5CA
:104AD800B3F1406F11D1844B186810F020003FF4F7
:104AE80022AD9B6813F4000F16D07F4B9B68C3F36D
:104AF80003637F4A52F8230015E5002013E507A851
:104B0800FFF79AF908980EE5774B186810F40050EB
:104B18003FF409AD774806E5734BD3F8F430C3F397
:104B28000323E6E7B3F1406F7FF4FDAC6E4B1868E2
:104B380010F020003FF4F7AC9B6813F4000F14D07A
:104B4800694B9B68C3F30363694A52F82300EAE49C
:104B580007A8FFF771F90898E5E4634B186810F4A3
:104B680000503FF4E0AC6348DDE45F4BD3F8F43029
:104B7800C3F30323E8E707A8FFF75EF90798D2E431
:104B8800594BD3F8E03013F0030315D0012B16D09E
:104B9800554A126812F4806F02D0022B00F0C684C6
:104BA800514AD2F8F02012F0020F00F0C284032B11
:104BB80000F0C2840020B6E4FEF76CFCB3E4FDF715
:104BC800B1FCB0E4484BD3F8E03013F00C0315D037
:104BD800042B16D0444A126812F4806F02D0082BB6
:104BE80000F0AE84404AD2F8F02012F0020F00F034
:104BF800AA840C2B00F0AA84002094E4FEF73AFC67
:104C080091E4FDF78FFC8EE4374BD3F8E03013F0D6
:104C1800300315D0102B16D0334A126812F4806F67
:104C280002D0202B00F096842F4AD2F8F02012F000
:104C3800020F00F09284302B00F09284002072E47E
:104C4800FEF718FC6FE4FDF76DFC6CE4264BD3F817
:104C5800E03013F0C00315D0402B16D0224A12685A
:104C680012F4806F02D0802B00F07E841E4AD2F8A6
:104C7800F02012F0020F00F07A84C02B00F07A8442
:104C8800002050E4FEF7F6FB4DE4FDF74BFC4AE448
:104C9800154BD3F8E03013F4407318D0B3F5807F88
:104CA80018D0114A126812F4806F03D0B3F5007F50
:104CB80000F064840C4AD2F8F02012F0020F00F0E1
:104CC8006084B3F5407F00F05F8400202BE4FEF79A
:104CD800D1FB28E4FDF726FC25E4FEF7CBFB22E414
:104CE800FDF720FC1FE400BF000C02460024F4007E
:104CF800BC670008006CDC02AE4BD3F8E83013F058
:104D080007031DD0012B1FD0AA4A126812F4806F26
:104D180002D0022B00F05184A64AD2F8F02012F0FB
:104D2800020F02D0032B00F04B84A24A106810F047
:104D380020003FF4F8AB042B0AD00020FFF7F3BBA8
:104D4800FEF7B8FBFFF7EFBBFDF7ECFBFFF7EBBB9C
:104D5800936813F4000F07D09368C3F30363964A6C
:104D680052F82300FFF7DFBB924BD3F8F430C3F3BC
:104D78000323F4E78F4BD3F8E83003F4E043B3F5AB
:104D8800805F1CD0B3F5005F1DD013B3B3F5A04FFF
:104D980023D0884A126812F4003F03D0B3F5405F6D
:104DA80000F01284834A126812F4806F00F00F84B6
:104DB800B3F5804F00F00E840020FFF7B4BBFDF779
:104DC800B1FBFFF7B0BB04A8FFF744F90698FFF75B
:104DD800AABBFDF7EBFDFFF7A6BB764B186810F0F2
:104DE80020003FF4A0AB9B6813F4000F08D0714B70
:104DF8009B68C3F30363704A52F82300FFF793BB21
:104E08006C4BD3F8F430C3F30323F4E74BF680304C
:104E1800FFF789BB07A8FFF70FF80798FFF783BBD1
:104E280001A8FFF725FA0298FFF77DBBFDF7BEFD45
:104E3800FFF779BB5F4B186810F020003FF473ABA5
:104E48009B6813F4000F08D05A4B9B68C3F30363A5
:104E5800594A52F82300FFF766BB564BD3F8F43093
:104E6800C3F30323F4E7534BD3F8E83003F4E02308
:104E7800B3F5003F2AD00CD873B3B3F5803F05D102
:104E880007A8FEF7D9FF0798FFF74DBB0020FFF7EB
:104E98004ABBB3F5403F00F0A383B3F5802F12D18E
:104EA800444B186810F020003FF43DAB9B6813F4A6
:104EB800000F15D03F4B9B68C3F303633E4A52F87B
:104EC8002300FFF730BB0020FFF72DBB01A8FFF739
:104ED800CFF90298FFF727BBFDF768FDFFF723BB63
:104EE800344BD3F8F430C3F30323E7E7314BD3F85B
:104EF800E03013F4406317D0B3F5806F18D02D4A13
:104F0800126812F4806F03D0B3F5006F00F06C8361
:104F1800284A106810F020003FF405ABB3F5406F45
:104F28000AD00020FFF7FFBAFEF7A4FAFFF7FBBA92
:104F3800FDF7F8FAFFF7F7BA936813F4000F07D0F4
:104F48009368C3F303631C4A52F82300FFF7EBBAD4
:104F5800184BD3F8F430C3F30323F4E7FEF78AFAC7
:104F6800FFF7E1BAFDF7DEFAFFF7DDBA936813F44D
:104F7800000F07D09368C3F303630F4A52F8230066
:104F8800FFF7D1BA0B4BD3F8F430C3F30323F4E79C
:104F9800084BD3F8E83003F0C003802B2AD00DD893
:104FA80023B3402B03D1FDF7BDFAFFF7BCBA0020AD
:104FB800FFF7B9BA000C0246BC670008C02B12D133
:104FC800B04B186810F020003FF4ADAA9B6813F4AA
:104FD800000F18D0AB4B9B68C3F30363AA4A52F87F
:104FE8002300FFF7A0BA0020FFF79DBAFEF762FA88
:104FF800FFF799BAA34B186810F480603FF493AA9E
:10500800A248FFF790BA9F4BD3F8F430C3F30323B9
:10501800E4E79C4BD3F8E03013F4404317D0B3F5E2
:10502800804F18D0974A126812F4806F03D0B3F5F6
:10503800004F00F0DF82934A106810F020003FF420
:1050480072AAB3F5404F0AD00020FFF76CBAFEF7FA
:1050580011FAFFF768BAFDF765FAFFF764BA9368C3
:1050680013F4000F07D09368C3F30363864A52F81A
:105078002300FFF758BA834BD3F8F430C3F3032364
:10508800F4E7804BD3F8E43013F0407317D0B3F152
:10509800807F18D07B4A126812F4806F03D0B3F176
:1050A800007F00F0AA82774A106810F020003FF4D1
:1050B8003AAAB3F1407F0AD00020FFF734BAFEF7CE
:1050C800D9F9FFF730BAFDF72DFAFFF72CBA936834
:1050D80013F4000F07D09368C3F303636A4A52F8C6
:1050E8002300FFF720BA674BD3F8F430C3F3032348
:1050F800F4E7FEF7BFF9FFF716BAFDF713FAFFF763
:1051080012BA936813F4000F07D09368C3F30363CC
:105118005D4A52F82300FFF706BA5A4BD3F8F43029
:10512800C3F30323F4E7574BD3F8E83013F4407381
:1051380018D1544B186810F020003FF4F4A99B686C
:1051480013F4000F08D04F4B9B68C3F303634E4A18
:1051580052F82300FFF7E7B94A4BD3F8F430C3F30A
:105168000323F4E7474AD2F8F02012F0006F02D088
:10517800B3F5807F16D0434A126812F4806F03D0CB
:10518800B3F5007F00F043823E4AD2F8F02012F0D7
:10519800020F00F03F82B3F5407F00F03E8200200E
:1051A800FFF7C1B9374BD3F8F03013F0805F00F048
:1051B8002A82FA20FFF7B7B9324BD3F8E83013F454
:1051C800406318D12F4B186810F020003FF4ABA9AA
:1051D8009B6813F4000F08D02A4B9B68C3F3036342
:1051E800294A52F82300FFF79EB9264BD3F8F4302A
:1051F800C3F30323F4E7234AD2F8F02012F0006F38
:1052080002D0B3F5806F16D01E4A126812F4806F70
:1052180003D0B3F5006F00F008821A4AD2F8F020E4
:1052280012F0020F00F00482B3F5406F00F0038221
:105238000020FFF778B9134BD3F8F03013F0805FF4
:1052480000F0EF81FA20FFF76EB9FEF713F9FFF7C8
:105258006AB90C4BD3F8F03013F0805F00F0EF819F
:10526800FA20FFF760B907A8FEF7E6FD0898FFF7F0
:105278005AB904A8FEF7EEFE0498FFF754B90020C7
:10528800FFF751B9000C0246BC6700080024F4007F
:10529800B3F5401F12D1C04B186810F020003FF43E
:1052A80042A99B6813F4000F18D0BB4B9B68C3F34B
:1052B8000363BA4A52F82300FFF735B90020FFF715
:1052C80032B9FEF7E7F8FFF72EB9B34B186810F4B8
:1052D80080603FF428A9B248FFF725B9AE4BD3F850
:1052E800F430C3F30323E4E7AB4BD3F8E03003F423
:1052F8004033B3F5003F28D00AD813B3B3F5803F45
:1053080003D1FDF70FF9FFF70EB90020FFF70BB92E
:10531800B3F5403F12D1A04B186810F020003FF4BD
:1053280002A99B6813F4000F18D09B4B9B68C3F32A
:1053380003639A4A52F82300FFF7F5B80020FFF7F5
:10534800F2B8FEF797F8FFF7EEB8934B186810F429
:1053580080603FF4E8A89248FFF7E5B88E4BD3F891
:10536800F430C3F30323E4E7FEF7A4F8FFF7DBB850
:10537800FDF7D8F8FFF7D7B8874B186810F48060A6
:105388003FF4D1A88648FFF7CEB8834B186810F0D1
:1053980020003FF4C8A89B6813F4000F08D07E4B88
:1053A8009B68C3F303637D4A52F82300FFF7BBB839
:1053B800794BD3F8F430C3F30323F4E7764BD3F8EF
:1053C800E43003F44013B3F5001F24D019D843B3D5
:1053D800B3F5801F12D1704B186810F020003FF40D
:1053E800A2A89B6813F4000F1FD06B4B9B68C3F3F4
:1053F80003636A4A52F82300FFF795B80020FFF7C5
:1054080092B8B3F5401F40F02E8104A8FEF722FEA3
:105418000598FFF788B807A8FEF70EFD0898FFF76C
:1054280082B8FDF77FF8FFF77EB85B4BD3F8F4300E
:10543800C3F30323DDE7584BD3F8E43003F4400308
:10544800B3F5000F1DD00CD8BBB1B3F5800F05D153
:1054580007A8FEF7F1FC0898FFF765B80020FFF7EA
:1054680062B8B3F5400F05D101A8FEF701FF039814
:10547800FFF759B80020FFF756B8FDF753F8FFF7C4
:1054880052B804A8FEF7E6FD0598FFF74CB8424A63
:10549800D2F8E83003F40043D2F8F02012F0020FFB
:1054A80002D0002B00F0E2803B4AD2F8F00010F066
:1054B80000603FF438A8002B00F0DC80D2F8F03010
:1054C80013F0805F00F0D980FA20FFF72CB807A806
:1054D800FEF7B2FC0798FFF726B807A8FEF7ACFC62
:1054E80007984008FFF71FB80020FFF71CB84FF4D3
:1054F8000040FFF718B84FF4FA40FFF714B800203F
:10550800FFF711B82748FFF70EB84BF68030FFF7C2
:105518000AB84BF68030FFF706B82148FFF703B802
:105528000020FFF700B82048FEF7FDBF1C48FEF733
:10553800FABF0020FEF7F7BF4FF40040FEF7F3BFB5
:105548001748FEF7F0BF0020FEF7EDBF4FF400400C
:10555800FEF7E9BF1248FEF7E6BF0020FEF7E3BFFB
:105568004FF40040FEF7DFBF0D48FEF7DCBF002018
:10557800FEF7D9BF4FF40040FEF7D5BF0848FEF745
:10558800D2BF0020FEF7CFBF4FF40040FEF7CBBFDD
:105598000348FEF7C8BF00BF000C0246BC670008FE
:1055A8000024F40020A1070000127A000020FEF772
:1055B800BABF4FF40040FEF7B6BF3B48FEF7B3BF93
:1055C8004FF40040FEF7AFBF3748FEF7ACBF0020EE
:1055D800FEF7A9BF3448FEF7A6BF0020FEF7A3BF19
:1055E8004BF68030FEF79FBF2F48FEF79CBF2E4832
:1055F800FEF799BF2C48FEF796BF2B48FEF793BFDE
:105608002948FEF790BF4FF4FA40FEF78CBF2648B2
:10561800FEF789BF0020FEF786BF4FF40040FEF773
:1056280082BF4FF4FA40FEF77EBF1F48FEF77BBFEC
:105638000020FEF778BF4FF40040FEF774BF4FF428
:10564800FA40FEF770BF1848FEF76DBF0020FEF75E
:105658006ABF4FF40040FEF766BF1348FEF763BF0A
:105668000020FEF760BF0020FEF75DBF4FF400404A
:10567800FEF759BF1846FEF756BF4FF4FA40FEF73B
:1056880052BF0A48FEF74FBF0948FEF74CBF00203B
:10569800FEF749BF0448FEF746BF0348FEF743BF7D
:1056A8000448FEF740BF00BF0024F400006CDC0291
:1056B80000366E0100127A0010B4036A046A24F0FE
:1056C80001040462846924F0F00C4CEA021223F00D
:1056D8000A030B43826103625DF8044B704710B400
:1056E800036A046A24F010040462846924F4704C88
:1056F8004CEA023223F0A00343EA011382610362F9
:105708005DF8044B7047836823F4401323F070035B
:105718000B4343F007038360704700000368524A55
:10572800904225D002F18052904221D0B0F1804FB2
:105738001ED0B0F1A04F1BD04C4A904218D002F1B5
:105748008052904214D04A4A904211D002F18052BD
:1057580090420DD0474A90420AD002F180529042BE
:1057680006D0454A904203D002F18052904203D1BC
:1057780023F070034A6813433B4A90423AD002F13F
:105788008052904236D0B0F1804F33D0B0F1A04F64
:1057980030D0364A90422DD002F18052904229D022
:1057A800334A904226D002F18052904222D0314AA8
:1057B80090421FD002F1805290421BD02E4A904254
:1057C80018D002F18052904214D02C4A904211D045
:1057D80002F1805290420DD0294A90420AD002F13B
:1057E8008052904206D0274A904203D002F180525C
:1057F800904203D123F44073CA68134323F0800313
:105808004A6913438A68C2620A688262164A9042E9
:105818001FD002F1805290421BD0174A904218D0F4
:1058280002F18052904214D0144A904211D002F1F1
:10583800805290420DD0124A90420AD002F1805212
:10584800904206D00F4A904203D002F18052904213
:1058580001D10A690263026842F00402026001226F
:1058680042610360704700BF002C01400004004003
:1058780000080040000C0040003401400040014096
:10588800004401400048014060B310B5044690F858
:105898003D3013B3022384F83D30214651F8040B00
:1058A800FFF73CFF012384F8483084F83E3084F841
:1058B8003F3084F8403084F8413084F8423084F82E
:1058C800433084F8443084F8453084F8463084F80E
:1058D800473084F83D30002010BD80F83C30FBF79D
:1058E80041F9D7E70120704710B4846824F47F4C4D
:1058F80042EA03220A4342EA0C0282605DF8044B42
:105908007047000090F83C30012B00F0928010B5F1
:105918000446012380F83C30022380F83D300268B9
:105928009068454B034093600B68702B58D031D872
:10593800502B6FD00CD9602B2AD1CA6849682068CF
:10594800FFF7CDFE60212068FFF7DDFE002035E07F
:10595800402B0AD1CA6849682068FFF7ADFE40218C
:105968002068FFF7D0FE002028E05ED8202B07D063
:1059780003D9302B04D0012020E00BB1102B05D126
:1059880019462068FFF7BFFE002017E0012015E048
:10599800012013E0B3F5005F2FD00BD9274A9342BB
:1059A800EED012D9264A9342EAD030329342E7D059
:1059B800012003E0B3F5805F39D10020012384F88A
:1059C8003D30002384F83C3010BDB3F1101FD7D010
:1059D800103A9342D4D0B3F5801FD1D00120EDE71F
:1059E800CB684A6889682068FFF77EFF2268936859
:1059F80043F0770393600020E0E7CB684A68896842
:105A08002068FFF771FF2268936843F4804393602E
:105A18000020D3E7CA6849682068FFF74DFE502187
:105A28002068FFF770FE0020C8E70120C6E70120C4
:105A3800C4E70220704700BF8800CEFF3000100086
:105A48004000100090F83C20012A61D030B4034691
:105A5800012280F83C20022280F83D20006842683C
:105A680084682C4DA8420AD005F18055A84206D07A
:105A7800294DA84203D005F18055A84203D122F44C
:105A880070024D682A4322F0007222F070020D68FD
:105A98002A4342601A681F4882422CD000F1805085
:105AA800824228D0B2F1804F25D0B2F1A04F22D047
:105AB8001A4882421FD000F1805082421BD01848F9
:105AC800824218D000F18050824214D01548824298
