:020000040800F2
:1000000000002720CD0300081D0400081D0400087F
:100010001D0400081D0400081D0400081D0400083C
:100020000000000000000000000000001D040008A7
:1000300000000000000000001D0400081D0400086E
:100040001D0400081D0400081D0400081D0400080C
:100050001D0400081D0400081D0400081D040008FC
:100060001D0400081D0400081D0400081D040008EC
:100070001D0400081D0400081D0400081D040008DC
:100080001D0400081D0400081D0400081D040008CC
:100090001D0400081D0400081D0400081D040008BC
:1000A0001D0400081D0400081D0400081D040008AC
:1000B0001D0400081D0400081D0400081D0400089C
:1000C0001D0400081D0400081D0400081D0400088C
:1000D0001D0400081D0400081D0400081D0400087C
:1000E0001D0400081D0400081D0400081D0400086C
:1000F0001D0400081D0400081D0400081D0400085C
:100100001D0400081D0400081D0400081D0400084B
:100110001D0400081D0400081D0400081D0400083B
:100120001D0400081D0400081D0400081D0400082B
:100130001D0400081D0400081D0400081D0400081B
:100140001D0400081D0400081D0400081D0400080B
:100150001D0400081D0400081D0400081D040008FB
:100160001D0400081D0400081D0400081D040008EB
:100170001D0400081D0400081D0400081D040008DB
:100180001D0400081D0400081D0400081D040008CB
:100190001D0400081D0400081D0400081D040008BB
:1001A0001D0400081D0400081D0400081D040008AB
:1001B0001D0400081D0400081D0400081D0400089B
:1001C0001D0400081D0400081D0400081D0400088B
:1001D0001D0400081D0400081D0400081D0400087B
:1001E0001D0400081D0400081D0400081D0400086B
:1001F0001D0400081D0400081D0400081D0400085B
:100200001D0400081D0400081D0400081D0400084A
:100210001D0400081D0400081D0400081D0400083A
:100220001D0400081D0400081D0400081D0400082A
:100230001D0400081D0400081D0400081D0400081A
:100240001D0400081D0400081D0400080000000033
:080250001D0400081D04000854
:1002580010B5054C237833B9044B13B10448AFF3F8
:1002680000800123237010BD100000200000000052
:100278005418000808B5034B1BB103490348AFF3F2
:10028800008008BD00000000140000205418000879
:1002980002440346934200D1704703F8011BF9E773
:1002A80070B50D4D00260D4C641BA410A64209D153
:1002B8000B4D00260B4C01F0C9FA641BA410A64292
:1002C80005D170BD55F8043B01369847EEE755F85F
:1002D800043B01369847F2E7BC180008BC18000830
:1002E800BC180008C418000870477047024B13B1C7
:1002F800024800F005B87047000000001503000828
:10030800002301461A46184600F014B838B5074DC0
:10031800074C641BA4101CB9BDE8384001F09CBA16
:10032800013C55F824309847F5E700BFC418000889
:10033800C81800082DE9F047DFF878A00646984667
:100348000F46DAF800009146FFF7CEFF174B1C68FE
:100358000CB9174C1C606568DAF800001F2D05DD24
:10036800FFF7C3FF4FF0FF30BDE8F087AEB104EBF5
:1003780085010122022EC1F8889002FA05F2D4F80C
:10038800883143EA0203C4F88831C1F8088102BF02
:10039800D4F88C311343C4F88C316B1C023563607C
:1003A80044F82570FFF7A1FF0020DDE730000020AA
:1003B800340000200000002008B500F075F8002087
:1003C80008BD00000D48854600F076F80C480D4938
:1003D8000D4A002302E0D458C4500433C4188C4298
:1003E800F9D30A4A0A4C002301E013600432A242FE
:1003F800FBD3FFF755FFFFF7DFFFFEE700002720DD
:100408000000002010000020C8180008100000207C
:10041800C8010020FEE772B6FEE700B59FB0602273
:10042800002106A8FFF734FF0023009301930293ED
:100438000393049305934FF4003000F0A5F90028C6
:100448002CD1112306934FF48033079301210D918A
:1004580010230E934FF080430F93022314931591AA
:100468000022179216918121189119931A931B93C0
:100478001C921D9206A800F099FC88B91F230093CE
:100488000323019300210291039104910591684689
:1004980000F0F2FA30B91FB05DF804FBFFF7BBFFBC
:1004A800FFF7B9FFFFF7B7FF08B500F07FF8FFF7D0
:1004B800B4FF012008BD00000E48D0F8883043F48E
:1004C8007003C0F888300C4B01221A600022DA61F0
:1004D8001A625A62196821F0A85121F41021196092
:1004E8009A62196821F4802119601A654FF0006337
:1004F8008360704700ED00E0000C02467047000082
:1005080038B5274B1A78002A47D005464FF0E02324
:100518001C6914F004040DD0224B1C684FF47A7146
:10052800B1FBF2F2B4FBF2F4204600F0C5F850B388
:10053800012033E000F00EF901280ED0022817D070
:100548000028F1D1174B1C68154A11784FF4FA525C
:10055800B2FBF1F2B4FBF2F4E6E7114B1B784FF46F
:100568007A72B2FBF3F24FF4FA43B3FBF2F4DBE72F
:100578000B4B1B784FF47A72B2FBF3F24FF4004343
:10058800B3FBF2F4D0E7002229464FF0FF3000F029
:1005980083F8054B1D60002000E0012038BD00BF36
:1005A80008000020040000200C00002010B5104AAC
:1005B800136843F480731360032000F05BF800F0C5
:1005C8009DF90C4B1B6A03F00F030B4AD35CD84010
:1005D8000A4B1860042000F07FF80F20FFF790FF07
:1005E80010B10124204610BD0446FFF787FFF9E744
:1005F80000200240000C0246AC180008040000204D
:10060800014B1868704700BFC4010020002808DBB0
:100618000901C9B200F1604000F5614080F800139B
:10062800704700F00F000901C9B2014B1954704717
:1006380014ED00E000B500F00700C0F1070CBCF1B4
:10064800040F28BF4FF0040C031D062B0FD9C31E3F
:100658004FF0FF3E0EFA0CF021EA000199400EFA25
:1006680003FE22EA0E0241EA02005DF804FB0023C1
:10067800EEE70000074AD36823F4E0631B041B0C71
:10068800000200F4E060034343F0BF6343F4003327
:10069800D360704700ED00E010B50446054BD868FC
:1006A800C0F30220FFF7C6FF01462046FFF7AEFF62
:1006B80010BD00BF00ED00E00138B0F1807F09D225
:1006C8004FF0E0235861002098611A6942F0030254
:1006D8001A61704701207047042838D8DFE800F015
:1006E8000A18283703004FF0E022136943F0040387
:1006F800136170474FF0E022136923F0040313617C
:10070800134AD2F8E03023F44003C2F8E0307047CF
:100718004FF0E022136923F0040313610C4AD2F866
:10072800E03023F4400343F48003C2F8E03070471C
:100738004FF0E022136923F004031361044AD2F84E
:10074800E03023F4400343F40003C2F8E03070477C
:10075800000C02464FF0E023186910F004000CD199
:10076800084BD3F8E03003F44003B3F5800F06D00C
:10077800B3F5000F04D10220704704207047012010
:10078800704700BF000C0246244BDB6B03F4403378
:10079800834219D0B0F5803F20D9204AD36823F48A
:1007A800E023034343F48023D3601D4B1B681D4A99
:1007B800A2FB03139B09322101FB03F3A2FB0323D2
:1007C8009B0901331A4611E0B0F5803F04D9134A5A
:1007D800D36843F48023D360002070470F4AD3685E
:1007E80023F4E0230343D360DFE7013A0B49C968E8
:1007F80011F4004F01D1002AF7D112B90320704734
:10080800013B064AD26B12F4004F01D1002BF7D1FD
:100818000BB1002070470320704700BF0008024654
:1008280004000020D34D6210024BD86B00F4403016
:10083800704700BF0008024630B583B004462D4B10
:10084800D3F8943013F0040F0FD0FFF7EDFFB0F595
:10085800403F20D0B0F5003F1DD0B4F1805F2CD2CE
:10086800B0F5803F40D0012025E0224DD5F89430E6
:1008780043F00403C5F89430D5F8943003F004032A
:100888000193019BFFF7D0FFD5F8943023F00403C0
:10089800C5F89430DBE7B4F1805F23D20120164A13
:1008A800136823F00F0303431360136803F00F0367
:1008B80083421DD1002003B030BDB4F1005F05D9DB
:1008C800A0B9B4F1405FEAD80120E8E7B4F1805F4D
:1008D80001D00120E3E7B0F5803F01D00220DEE738
:1008E8000120DCE70020DAE70320D8E70020D6E77C
:1008F8000120E0E7000C02460020024010B4594AEB
:10090800D369926A13F00C0310D002F003020C2B87
:100918000AD0544AD26902F00C02042A20D0082BCB
:1009280021D00020044610E0012AF2D14D4A9268F5
:1009380012F4000F0ED14B4AD2F8F420C2F303325E
:10094800494951F822404BB100200C2B0ED05DF8DC
:10095800044B7047434A9268120FF1E72046F4E7C8
:1009680042480024F1E741480024EEE73D48816A07
:1009780001F00301836AC3F30323013307EE103A3E
:10098800836AC3F3001C836BC3F3CC030CFB03F330
:1009980007EE903AF8EE677A02291ED0032946D06E
:1009A80006EE904AF8EE666AB8EE477A86EE876AEF
:1009B8002C4B5B6BC3F3080307EE103AB8EE477A8B
:1009C800DFED2B6A67EEA67A77EE277AB7EE007A24
:1009D80077EE877A66EE276A19E0B8EE477A9FEDD8
:1009E800256AC6EE076A1F4B5B6BC3F3080307EE65
:1009F800103AB8EE477A9FED1E6A67EE867A77EE70
:100A0800277AB7EE007A77EE877A66EEA76A154BF3
:100A18005B6BC3F30663013307EE903AB8EE677A6F
:100A2800C6EE877AFCEEE77A17EE900A8FE7B8EE03
:100A3800477A9FED106AC6EE076A0A4B5B6BC3F3F1
:100A4800080307EE103AB8EE477A9FED096A67EE99
:100A5800867A77EE277AB7EE007A77EE877A66EEAF
:100A6800A76AD4E7000C02466C1800080024F400BA
:100A7800000000390024744B002800F07181F0B5A3
:100A880083B00D4604467F4B1B6803F00F038B426F
:100A98000BD27C4A136823F00F030B4313601368CF
:100AA80003F00F038B4240F05D81236813F0100FB1
:100AB8000CD06269744B5B6A03F070039A4205D9E3
:100AC80071494B6A23F070031A434A62236813F092
:100AD800080F0ED022696C4B1B6A1B0903F07003C8
:100AE8009A4206D968490B6A23F4E06343EA021381
:100AF8000B62236813F0040F0CD0E268624B1B6A88
:100B080003F070039A4205D95F490B6A23F070031A
:100B18001A430A62236813F0020F0CD0A2685A4BDA
:100B28001B6A03F00F039A4205D957490B6A23F051
:100B38000F031A430A62236813F0010F00F0A8801C
:100B48006368032B0AD0022B61D0002B66D14E4B71
:100B58001B6813F0040F26D10120FFE04A4BD3F89D
:100B6800943013F0040F0ED1474BD3F8942042F081
:100B78000402C3F89420D3F8943003F004030193DB
:100B8800019B012700E00027FFF73AFD06463F4B8F
:100B9800DB6813F4802F26D18FBB3B4B1B6813F007
:100BA800007F00F0E180384AD36923F003036168CD
:100BB8000B43D361FFF724FD06466368032B34D04B
:100BC800022B41D0002B4ED02F4BDB6903F00C03D6
:100BD800042B5DD0FFF714FD801B41F28833984247
:100BE800F2D90320BAE0294BDB6813F4804FD3D144
:100BF800FFF706FD801B0228F5D90320AEE0224A44
:100C0800D2F8943023F00403C2F89430C5E71E4BA1
:100C18001B6813F4003FC6D101209FE01A4B1B68E4
:100C280013F4806FBFD1012098E0174BDB6903F004
:100C38000C030C2B2CD0FFF7E3FC831B41F288320A
:100C48009342F2D9032089E00F4BDB6903F00C03D0
:100C5800082B1DD0FFF7D4FC801B41F28833984243
:100C6800F2D903207AE0084BDB6913F00C0F0FD0A0
:100C7800FFF7C6FC801B41F288339842F3D9032062
:100C88006CE000BF00200240000C0246000802464B
:100C9800236813F0020F0CD0A268354B1B6A03F0CF
:100CA8000F039A4205D232490B6A23F00F031A4305
:100CB8000A62304B1B6803F00F03AB420AD92D4A76
:100CC800136823F00F032B431360136803F00F031B
:100CD800AB424BD1236813F0040F0CD0E268244BCD
:100CE8001B6A03F070039A4205D221490B6A23F06C
:100CF80070031A430A62236813F0080F0ED02269A2
:100D08001B4B1B6A1B0903F070039A4206D2184951
:100D18000B6A23F4E06343EA02130B62236813F0BF
:100D2800100F0CD06269124B5B6A03F070039A4291
:100D380005D20F494B6A23F070031A434A62FFF742
:100D4800DDFD0B4B1B6A03F00F030B4AD35CD84045
:100D58000A4B18600A4B1868FFF7D2FB03B0F0BDC6
:100D6800012070470120F9E70120F7E70120F5E7A6
:100D7800000C024600200240AC18000804000020C5
:100D88000C00002008B5FFF7B9FD054B1B6A03F0FE
:100D98000F03044AD35CD840034B186008BD00BF5A
:100DA800000C0246AC18000804000020002800F0DF
:100DB8002A85F0B585B004469C4BDD6905F00C0525
:100DC8009E6A06F00306036813F0100F00F0948083
:100DD800EDB10C2D19D0E369002B00F01181934A75
:100DE800136843F001031360FFF70AFC07468F4BB3
:100DF8001B6813F0040F40F0CD80FFF701FCC01B07
:100E08000228F4D9032000F001BD012EE3D1E369E3
:100E1800002B00F0FA84606A844B9B6813F4000F7F
:100E28001CD0824B9B6803F07043984244D9E5B1CB
:100E38007E4A936843F400039360936823F07043F9
:100E4800616A0B439360636AB3F1404F14D3D3686C
:100E580023F01F03216A0B43D36044E0734BD3F89C
:100E6800F4301B0403F07043DFE7FFF7E5FC0028CC
:100E7800DED0012000F0CABC002B0BDBB3F1804FA1
:100E880011D36A4AD36823F4F843216A43EA8123D9
:100E9800D36028E0654AD36823F47873216A43EA6B
:100EA8004113D3601FE0614AD36823F47823216A91
:100EB80043EAC133D36016E05C4A936843F4000305
:100EC8009360936823F07043616A0B439360636A8D
:100ED800B3F1404F36D3D36823F01F03216A0B4385
:100EE800D360002D4ED0FFF74DFF514B1868FFF728
:100EF80007FB002840F08A84236813F0010F00F0F4
:100F0800A080082D00F099800C2D00F09380636874
:100F1800B3F5803F00F0B680B3F5A02F00F0C8808D
:100F2800B3F5A81F00F0D280404B1A6822F4803233
:100F38001A601A6822F480221A601A6822F4801251
:100F48001A60A4E0002B0BDBB3F1804F11D3374AB2
:100F5800D36823F4F843216A43EA8123D360C0E7C6
:100F6800324AD36823F47873216A43EA4113D36081
:100F7800B7E72E4AD36823F47823216A43EAC133BA
:100F8800D360AEE7606AFFF757FC0028ABD00120BA
:100F980000F03CBC254A936843F4000393609368CF
:100FA80023F07043616A0B439360636AB3F1404F67
:100FB80006D3D36823F01F03216A0B43D3609BE752
:100FC800002B0BDBB3F1804F11D3184AD36823F4FD
:100FD800F843216A43EA8123D3608DE7134AD36833
:100FE80023F47873216A43EA4113D36084E70F4AF4
:100FF800D36823F47823216A43EAC133D3607BE7BB
:101008000A4A136823F001031360FFF7F9FA074649
:10101800064B1B6813F0040F3FF46EAFFFF7F0FAAE
:10102800C01B0228F4D90320F0E300BF000C0246DD
:101038000C000020032E7FF46AAF6368002B00F0D9
:10104800E783236813F0020F6BD0042D5DD00C2DBD
:1010580059D0E368002B00F0BF80AA4A136843F414
:1010680080731360FFF7CCFA0546A64B1B6813F490
:10107800806F40F0A880FFF7C3FA401B0228F4D91C
:101088000320C3E39F4A136843F480331360636803
:1010980053B3FFF7B5FA07469A4B1B6813F4003FA2
:1010A800CFD1FFF7ADFAC01B6428F5D90320ADE313
:1010B800944B1A6842F480221A601A6822F480124B
:1010C8001A601A6842F480321A60E0E78D4B1A6899
:1010D80042F480221A601A6842F480121A601A6870
:1010E80042F480321A60D2E7FFF78AFA0746854B46
:1010F8001B6813F4003FA4D0FFF782FAC01B6428D2
:10110800F5D9032082E3022EA3D1E368002B00F077
:1011180081837C4A136923F4F813216943EA014364
:101128001361236813F0080F00F0AF80754BD3F8F4
:10113800943013F0040F63D1724BD3F8942042F02B
:101148000402C3F89420D3F8943003F00403019305
:10115800019B01256C4B9B6A13F0010F52D0636908
:10116800002B7AD0674BD3F8F030A16903F0805296
:10117800914211D003F04062B2F1006F00F04C834D
:1011880013F0806F52D15F4AD2F8F03023F08053C9
:10119800A1690B43C2F8F0305A4AD2F8F03043F054
:1011A8008063C2F8F030FFF72BFA0646554BD3F8A8
:1011B800F03013F0006F67D1FFF722FA801B052883
:1011C800F4D9032022E34F4A136923F4F813216961
:1011D80043EA01431361A4E74A4A136823F480737E
:1011E8001360FFF70DFA0546464B1B6813F4806F32
:1011F80097D0FFF705FA401B0228F5D9032005E32D
:101208000025A7E7404A936A43F001039362FFF77A
:10121800F7F906463C4B9B6A13F0010F9FD1FFF785
:10122800EFF9801B0228F5D90320EFE2354AD2F8FE
:10123800F03023F0A053C2F8F030FFF7E1F906468A
:10124800304BD3F8F03013F0006F9CD0FFF7D8F98B
:10125800801B0528F4D90320D8E22A4AD2F8F030B6
:1012680023F0A053C2F8F030FFF7CAF90646254B21
:10127800D3F8F03013F0006F06D0FFF7C1F9801BE8
:101288000528F4D90320C1E295BB236813F0040FA5
:1012980000F0D9801B4BD3F8943013F0040F2FD1F2
:1012A800184BD3F8942042F00402C3F89420D3F8E2
:1012B800943003F004030293029B0125124B9B6AAE
:1012C80013F0010F22D0A36813F0010F3AD013F0E6
:1012D800040F2FD00B4BD3F8F02042F00402C3F8D0
:1012E800F020D3F8F02042F00102C3F8F02036E0F5
:1012F800044AD2F8943023F00403C2F89430C4E7C7
:101308000025DBE7000C024600080246A84A936A5B
:1013180043F001039362FFF773F90646A44B9B6AF7
:1013280013F0010FCFD1FFF76BF9801B0228F5D915
:1013380003206BE29F4AD2F8F03043F00103C2F871
:10134800F0300CE09B4BD3F8F02022F00102C3F8F8
:10135800F020D3F8F02022F00402C3F8F020A368AC
:10136800002B41D0FFF74CF90646924BD3F8F030EA
:1013780013F0020F08D1FFF743F9801B41F28833BD
:101388009842F2D9032041E2A36813F0800F15D0E8
:10139800884AD2F8F03043F08003C2F8F030854B29
:1013A800D3F8F03013F4006F4CD1FFF729F9801B04
:1013B80041F288339842F2D9032027E27D4AD2F8D5
:1013C800F03023F08003C2F8F0307A4BD3F8F030D5
:1013D80013F4006F36D0FFF713F9801B41F28833FE
:1013E8009842F2D9032011E2FFF70AF90646714B39
:1013F800D3F8F03013F0020F08D0FFF701F9801B83
:1014080041F288339842F2D90320FFE1694BD3F8BF
:10141800F03013F0800F15D0664AD2F8F03023F080
:101428008003C2F8F030634BD3F8F03013F4006F48
:1014380008D0FFF7E5F8801B41F288339842F2D9CB
:101448000320E3E1CDB9236813F0200F31D0E36A1C
:10145800DBB1584A136843F480531360FFF7D0F8A0
:101468000546544B1B6813F4005F22D1FFF7C8F8F8
:10147800401B0228F5D90320C8E14E4AD2F894301F
:1014880023F00403C2F89430DDE74A4A136823F4D2
:1014980080531360FFF7B4F80546464B1B6813F4F6
:1014A800005F06D0FFF7ACF8401B0228F5D90320EF
:1014B800ACE1236813F0800F29D0236B9BB13D4A20
:1014C800136843F480431360FFF79AF80546394BD5
:1014D8001B6813F4004F1AD1FFF792F8401B02283B
:1014E800F5D9032092E1334A136823F4804313604B
:1014F800FFF786F805462F4B1B6813F4004F06D0FC
:10150800FFF77EF8401B0228F5D903207EE1236807
:1015180013F0400F64D0636B002B4DD0254A9368BD
:1015280043F400039360936823F07063A16A0B434C
:101538009360636AB3F1404F19D3D36823F01F0354
:10154800216A0B43D3601B4A136843F010031360EE
:10155800FFF756F80546174B1B6813F0200F3FD1CD
:10156800FFF74EF8401B0228F5D903204EE1002B67
:101578000BDBB3F1804F11D30E4AD36823F4F84341
:10158800216A43EA8123D360DDE70A4AD36823F45A
:101598007873216A43EA4113D360D4E7054AD368D4
:1015A80023F47823216A43EAC133D360CBE700BF31
:1015B80000080246000C0246A14A136823F01003F3
:1015C8001360FFF71DF805469D4B1B6813F0200FAD
:1015D80006D0FFF715F8401B0228F5D9032015E1BE
:1015E800A36B002B00F01A81954AD26902F00C0215
:1015F8000C2A00F0BC80022B14D0914A136823F007
:1016080080731360FEF7FCFF04468D4B1B6813F0D4
:10161800007F00F0A380FEF7F3FF001B0228F4D937
:101628000320F3E0864A136823F080731360FEF703
:10163800E7FF0546824B1B6813F0007F06D0FEF7D4
:10164800DFFF401B0228F5D90320DFE07C4BD3F8ED
:10165800943013F0040F68D1794BD3F8942042F0FA
:101668000402C3F89420D3F8943003F004030393DE
:10167800039B0125734BDB6813F4802F57D1002699
:10168800704AD36823F48023D3606D4B9A6A22F49E
:101698007F4222F00302E16B206C013841EA00210D
:1016A800606C01430A439A625A6B67481040A26C07
:1016B800013AC2F30802E16C0139490289B20A43CE
:1016C800216D0139090401F4FE010A43616D0139F4
:1016D800090601F0FE410A43104358639A6A22F052
:1016E80010029A62E26DD2009A639A6A42F010027E
:1016F8009A629A6A22F00C02A16D0A439A62C6B9EC
:10170800EDB94F4A136843F080731360FEF778FF12
:1017180004464B4B1B6813F0007F18D1FEF770FF8F
:10172800001B0228F5D9032070E00025A2E7012656
:10173800A6E7444AD36843F48023D360E0E7404AED
:10174800D2F8943023F00403C2F89430D9E73C4A25
:10175800936A43F480239362002057E0384A936ADF
:1017680023F4E02323F00303936200204EE0344A7D
:10177800916A506B012B53D001F00303E26B934243
:1017880050D1C1F30322236C013B9A424CD101F49E
:101798007041636C994249D1C0F30802A36C013BC4
:1017A8009A4245D1C0F34622E36C013B9A4241D1AB
:1017B800C0F30642236D013B9A423DD1C0F3066057
:1017C800636D013B984239D11D4B9B6BC3F3CC032E
:1017D800E26D934201D1002018E0194A936A23F080
:1017E80010039362FEF70CFF0546FEF709FFA842B7
:1017F800FBD0E26DD200124B9A639A6A42F0100253
:101808009A62002002E001207047012005B0F0BD77
:101818000120FBE70120F9E70120F7E70020F5E7C1
:101828000120F3E70120F1E70120EFE70120EDE7D0
:101838000120EBE70120E9E70120E7E70120E5E7E0
:10184800000C02460008024600008080F8B500BF80
:10185800F8BC08BC9E467047F8B500BFF8BC08BC89
:041868009E467047E1
:10186C00006CDC0200366E010024F400001BB70093
:10187C0000093D0080841E00504B140040420F00B4
:10188C0000E02E000070170000A00F0000B80B0045
:10189C00801A0600400D030088070200A086010094
:1018AC000000000000000000010203040607080904
:0818BC00F50200087D0200089E
:0418C40059020008BD
:1018C8002C00002000093D0001000000100000006D
:04000005080003CD1F
:00000001FF
