:020000040800F2
:1000000000002720D103000811050008130500088F
:100010001505000817050008190500082104000847
:100020000000000000000000000000001B050008A8
:100030001D050008000000001F050008210500083C
:1000400021040008210400082104000821040008FC
:1000500021040008210400082104000821040008EC
:1000600021040008210400082104000821040008DC
:1000700021040008210400082104000821040008CC
:1000800021040008210400082104000821040008BC
:1000900021040008210400082104000821040008AC
:1000A000210400082104000821040008210400089C
:1000B000210400082104000821040008210400088C
:1000C000210400082104000821040008210400087C
:1000D000210400082104000821040008210400086C
:1000E000210400082104000821040008210400085C
:1000F000210400082104000821040008210400084C
:10010000210400082104000821040008210400083B
:10011000210400082104000821040008210400082B
:10012000210400082104000821040008210400081B
:10013000210400082104000821040008210400080B
:1001400021040008210400082104000821040008FB
:1001500021040008210400082104000821040008EB
:1001600021040008290500082104000821040008D2
:1001700021040008210400082104000821040008CB
:1001800021040008210400082104000821040008BB
:1001900021040008210400082104000821040008AB
:1001A000210400082104000821040008210400089B
:1001B000210400082104000821040008210400088B
:1001C000210400082104000821040008210400087B
:1001D000210400082104000821040008210400086B
:1001E000210400082104000821040008210400085B
:1001F000210400082104000821040008210400084B
:10020000210400082104000821040008210400083A
:10021000210400082104000821040008210400082A
:10022000210400082104000821040008210400081A
:10023000210400082104000821040008210400080A
:100240002104000821040008210400080000000027
:0802500021040008210400084C
:1002580010B5054C237833B9044B13B10448AFF3F8
:1002680000800123237010BD100000200000000052
:100278008C25000808B5034B1BB103490348AFF3AD
:10028800008008BD00000000140000208C25000834
:1002980002440346934200D1704703F8011BF9E773
:1002A80070B50D4D00260D4C641BA410A64209D153
:1002B8000B4D00260B4C02F065F9641BA410A642F6
:1002C80005D170BD55F8043B01369847EEE755F85F
:1002D800043B01369847F2E7F4250008F4250008A6
:1002E800F4250008FC25000870477047024B13B13D
:1002F800024800F005B87047000000001503000828
:10030800002301461A46184600F014B838B5074DC0
:10031800074C641BA4101CB9BDE8384002F038B97A
:10032800013C55F824309847F5E700BFFC25000844
:10033800002600082DE9F047DFF878A00646984621
:100348000F46DAF800009146FFF7CEFF174B1C68FE
:100358000CB9174C1C606568DAF800001F2D05DD24
:10036800FFF7C3FF4FF0FF30BDE8F087AEB104EBF5
:1003780085010122022EC1F8889002FA05F2D4F80C
:10038800883143EA0203C4F88831C1F8088102BF02
:10039800D4F88C311343C4F88C316B1C023563607C
:1003A80044F82570FFF7A1FF0020DDE730000020AA
:1003B800340000200000002008B500F083F800F0A9
:1003C800B7F8002008BD00000D48854602F0B8F8CF
:1003D8000C480D490D4A002302E0D458C450043398
:1003E800C4188C42F9D30A4A0A4C002301E013606E
:1003F8000432A242FBD3FFF753FFFFF7DDFFFEE70E
:10040800000027200000002010000020002600081F
:1004180010000020AC060020FEE708B500F022F925
:1004280008BD72B6FEE708B500F0BCFE00F0C2FEDB
:10043800022000F079FE00B908BDFFF7F2FF00B511
:100448009FB06022002106A8FFF722FF0023009337
:10045800019302930393049305934FF4403000F003
:100468000BFE48BB012306934FF48032079202210A
:100478001491032215920022179216930A201890BD
:10048800082019901A911B930C231C931D9206A8FF
:1004980001F052F990B91F2300930323019300231D
:1004A80002930393049305930421684600F0AAFF7E
:1004B80030B91FB05DF804FBFFF7B3FFFFF7B1FFDA
:1004C800FFF7AFFF08B500F091F8FFF7ACFFFFF7B3
:1004D800B6FF012008BD000000B583B0094BD3F872
:1004E800942042F00402C3F89420D3F8943003F027
:1004F80004030193019B00F04DFE00F053FE03B08E
:100508005DF804FB000C0246FEE7FEE7FEE7FEE7A7
:10051800FEE770477047704708B500F091F808BDCE
:1005280008B5024800F0A8FA08BD00BFC4010020C1
:1005380008B54FF47A70FFF770FF012008BD00007E
:1005480038B5274B1A78002A47D005464FF0E023E4
:100558001C6914F004040DD0224B1C684FF47A7106
:10056800B1FBF2F2B4FBF2F4204600F0E5F850B328
:10057800012033E000F02EF901280ED0022817D010
:100588000028F1D1174B1C68154A11784FF4FA521C
:10059800B2FBF1F2B4FBF2F4E6E7114B1B784FF42F
:1005A8007A72B2FBF3F24FF4FA43B3FBF2F4DBE7EF
:1005B8000B4B1B784FF47A72B2FBF3F24FF4004303
:1005C800B3FBF2F4D0E7002229464FF0FF3000F0E9
:1005D800A3F8054B1D60002000E0012038BD00BFD6
:1005E800040000200C0000200800002010B5104A6C
:1005F800136843F480731360032000F07BF800F065
:1006080043FE0C4B1B6A03F00F030B4AD35CD84024
:100618000A4B1860042000F09FF80F20FFF790FFA6
:1006280010B10124204610BD0446FFF755FFF9E735
:1006380000200240000C0246E42500080C000020BF
:10064800034B1B78034A11680B441360704700BFC3
:1006580004000020A8060020014B1868704700BF5E
:10066800A806002038B50446FFF7F6FF0546B4F1A2
:10067800FF3F02D0044B1B781C44FFF7EDFF401BE3
:10068800A042FAD338BD00BF04000020002808DBD0
:100698000901C9B200F1604000F5614080F800131B
:1006A800704700F00F000901C9B2014B1954704797
:1006B80014ED00E000B500F00700C0F1070CBCF134
:1006C800040F28BF4FF0040C031D062B0FD9C31EBF
:1006D8004FF0FF3E0EFA0CF021EA000199400EFAA5
:1006E80003FE22EA0E0241EA02005DF804FB002341
:1006F800EEE70000074AD36823F4E0631B041B0CF1
:10070800000200F4E060034343F0BF6343F40033A6
:10071800D360704700ED00E010B50446054BD8687B
:10072800C0F30220FFF7C6FF01462046FFF7AEFFE1
:1007380010BD00BF00ED00E00138B0F1807F09D2A4
:100748004FF0E0235861002098611A6942F00302D3
:100758001A61704701207047042838D8DFE800F094
:100768000A18283703004FF0E022136943F0040306
:10077800136170474FF0E022136923F004031361FB
:10078800134AD2F8E03023F44003C2F8E03070474F
:100798004FF0E022136923F0040313610C4AD2F8E6
:1007A800E03023F4400343F48003C2F8E03070479C
:1007B8004FF0E022136923F004031361044AD2F8CE
:1007C800E03023F4400343F40003C2F8E0307047FC
:1007D800000C02464FF0E023186910F004000CD119
:1007E800084BD3F8E03003F44003B3F5800F06D08C
:1007F800B3F5000F04D10220704704207047012090
:10080800704700BF000C02462DE9F04383B0D0F8D2
:10081800008001EBC10300EB83039A6A5B6A9A428A
:1008280054D807460C469B1A01EBC10200EB820222
:10083800D2699A4200D31A4602F103094FEA99098C
:1008480015E006F103094FEA9909BB7904EBC405E1
:1008580007EB8505296A0093B3B2E2B2404601F07E
:10086800C2FD2B6A33442B62AB6A3344AB6208EB9C
:10087800441303F510639B699BB24B4512D304EBF9
:10088800C40307EB83039A6A5B6A9A420AD24BB1A4
:100898009B1A04EBC40207EB8202D6699E42D0D3AE
:1008A8001E46CEE704EBC40307EB83077A6ABB6AEC
:1008B8009A420FD804F00F040122A240D8F8343825
:1008C80023EA0203C8F83438002000E0012003B00E
:1008D800BDE8F0830020FAE77047000070B50446D1
:1008E8000D460068066C00EB411303F530639A6807
:1008F800A179012911D038498E4256D03DB905EB6E
:10090800C50304EB8303D3F86432002B5ED0E9B24D
:100918002046FFF7E1FF002070BD12F0080F09D054
:100928002E498E42F7D912F4004FF4D04FF400420A
:100938009A60F0E712F0200F02D020229A60EAE7CE
:1009480012F0280FE7D125498E4206D912F4004F3C
:1009580003D04FF400429A60DDE705EBC50204EBD3
:100968008202D2F874121B69C3F31203CB1AC2F8BD
:1009780068327DB905EBC50204EB8202D2F8642225
:100988006AB105EBC50204EB8202D2F86012194481
:10099800C2F86012E9B22046FFF79EFFBBE704F2F7
:1009A8009C42012101F09CFDF4E712F4004F03D0B2
:1009B8004FF400429A60AEE712F0200F01D02022D7
:1009C8009A60E9B22046FFF787FFA4E704F29C4249
:1009D800002101F085FD9AE70A31544F0A30544F3F
:1009E8007047704738B5044603681D6C03EB411324
:1009F800D3F8081B0E4A954207D903F5306311F462
:100A0800004F02D04FF400429A602046FFF7E9FFFA
:100A1800074B9D4202D9A379012B01D0002038BD94
:100A280004F29C420121206801F05AFDF6E700BF5C
:100A38000A30544F70477047704770477047704787
:100A48007047704708B511F0800F0CD101F00F0105
:100A580001EBC101890001F51471014404310068FA
:100A680001F062FC08BD01F00F0101EBC101890032
:100A7800103101440431F2E72DE9F04F83B0044608
:100A88000568284601F018FD10B103B0BDE8F08FE5
:100A98000646206801F0E1FC0028F6D005F500675D
:100AA800BB68C3F30D23C4F8D434206801F0D5FC27
:100AB80010F0020F04D02268536903F00203536157
:100AC800206801F0CAFC10F0100F14D02268936956
:100AD80023F010039361D5F8208008F00F09C8F3BC
:100AE8004343022B69D0062B00F08D80226893695E
:100AF80043F010039361206801F0AFFC10F4002F5D
:100B080040F09380206801F0A8FC10F4802F40F09A
:100B1800FC80206801F0A1FC0028C0F27D812068DB
:100B280001F09BFC10F4006F09D0BB6813F0010FB3
:100B380040F08A812268536903F400635361206896
:100B480001F08BFC10F0006F15D02268536903F098
:100B58000063536194F8CC34002B40F07981012173
:100B680084F8CC1423685B6DC3F38303C4F8D034D2
:100B7800204600F080FA206801F06FFC10F4805FD6
:100B880040F06A81206801F068FC10F4005F40F0D2
:100B9800B781206801F061FC10F0080F40F0C881AF
:100BA800206801F05AFC10F0800F00F0DB81AB697F
:100BB80023F08003AB610126C4E147F6F07318EA1D
:100BC800030F93D04FEA181A4FEAC903019309EBB0
:100BD800C90B04EB8B0BC8F30A12DBF8601228462A
:100BE80001F018FCDBF86032CAF30A0A5344CBF868
:100BF8006032DBF86832019A4A4404EB82025344BB
:100C0800C2F8683272E7082204F29C41284601F0D3
:100C180001FC09EBC90304EB8303D3F86822C8F38A
:100C28000A184244C3F8682260E7206801F019FCFA
:100C38008046B14635E005EB49130122C3F8082B7D
:100C480049462046FFF74AFE3CE005EB49130822D7
:100C5800C3F8082B49462046FFF7C4FE35E009EBE8
:100C6800C90304EB830393F85732012B41D005EBFA
:100C780049130222C3F8082B1AF0200F04D005EB01
:100C880049132022C3F8082B1AF4005F05D005EB9E
:100C980049134FF40052C3F8082B09F101094FEA30
:100CA8005808B8F1000F3FF42DAF18F0010FF4D039
:100CB8005FFA89FB5946206801F0E3FB824610F091
:100CC800010FB8D11AF0080FBFD11AF0100F04D0D5
:100CD80005EB49131022C3F8082B1AF0020FCBD0EA
:100CE8006B6913F0800FBAD07B6843F480637B6034
:100CF800B5E709EBC90304EB8303002283F8572205
:100D080059462046FFF79AFEB1E7206801F0B1FB8B
:100D18008046B14625E059462046FFF761FE1AF0A5
:100D2800080F04D005EB49130822C3F808291AF064
:100D3800100F04D005EB49131022C3F808291AF044
:100D4800400F04D005EB49134022C3F808291AF0D4
:100D5800020F40D11AF0800F59D109F101094FEA69
:100D68005808B8F1000F3FF4D4AE18F0010FF4D0D2
:100D78005FFA89FB5946206801F08CFB824610F027
:100D8800010FCCD009F00F02012101FA02F27B6BAE
:100D980023EA02037B6305EB4913C3F80819A37917
:100DA8008B42B8D109EBC90304EB83031A6AD969EA
:100DB8000A441A62B9F1000FADD109EBC90304EB7B
:100DC80083035B6A002BA6D104F29C4201212068B0
:100DD80001F086FB9FE74946284601F06FFA09EBC8
:100DE800C90304EB8303DB7D012B05D005EB491315
:100DF8000222C3F80829ADE709EBC90304EB830312
:100E08000022DA7559462046FFF719FEEEE74946F3
:100E18002046FFF7F9FCA0E77B6823F001037B601D
:100E280094F8CC34012B08D02046FFF706FE226840
:100E3800536903F00043536171E6002184F8CC1430
:100E4800204600F018F9F2E72046FFF7F5FD71E6B5
:100E58002046FFF7F1FD8EE67B6823F001037B60F7
:100E68001021206801F02AFA1AE005EB46134FF624
:100E78007F31C3F80819D3F8002922F40012C3F807
:100E88000029C3F8081BD3F8002B22F40012C3F87A
:100E9800002BD3F8002B42F00062C3F8002B013678
:100EA8002379B342E1D8FB6943F00113FB61E37B8B
:100EB800DBB1D7F8843043F00B03C7F884307B6C80
:100EC80043F00B037B64D5F8003823F4FE63C5F8C0
:100ED800003804F29C42A179206801F001FB2268E5
:100EE800536903F4805353614CE67B6943F4005320
:100EF80043F02B037B613B6943F00B033B61E2E763
:100F0800206801F0DDFA206801F0FDF9E07126683B
:100F180000F0FEFB0146E279304601F05DF920461B
:100F2800FFF789FD2268536903F40053536130E6E3
:100F38002046FFF77FFD2268536903F008035361D9
:100F48002EE601362379B3420CD906EBC60304EB2F
:100F5800830393F85732012BF3D1F1B22046FFF700
:100F680071FDEEE7206801F078FA10F4801F25D1B2
:100F7800206801F072FA10F4001F58D0012326E00F
:100F880001362379B3421BD905EB4613D3F8002960
:100F980006EBC60304EB83031B7E012BF0D1002A6A
:100FA800EEDA06EBC60304EB83030122DA7566F07A
:100FB8007F01C9B22046FFF745FDE1E70126E0E7DA
:100FC8002268536903F480135361D1E7013322790E
:100FD8009A4227D905EB4312D2F8001B03EBC30250
:100FE80004EB820292F85822012AEFD10029EDDAA7
:100FF800D4F8D42482EA114212F0010FE6D103EBAF
:10100800C30204EB8202012182F85712AA6942F056
:101018008002AA616A6912F0800FD7D17B6843F415
:1010280000737B602268536903F4001353612068DE
:1010380001F013FA10F0804F10D1206801F00DFA7A
:1010480010F0040F3FF421AD23685D6815F0040F1C
:101058000DD1226853682B43536016E52046FFF7ED
:10106800EFFC2268536903F080435361E5E72046AB
:10107800FFF7E7FCEDE77047244BDB6B03F44033E5
:10108800834219D0B0F5803F20D9204AD36823F491
:10109800E023034343F48023D3601D4B1B681D4AA0
:1010A800A2FB03139B09322101FB03F3A2FB0323D9
:1010B8009B0901331A4611E0B0F5803F04D9134A61
:1010C800D36843F48023D360002070470F4AD36865
:1010D80023F4E0230343D360DFE7013A0B49C968EF
:1010E80011F4004F01D1002AF7D112B9032070473B
:1010F800013B064AD26B12F4004F01D1002BF7D105
:101108000BB1002070470320704700BF000802465B
:101118000C000020D34D6210024BD86B00F4403015
:10112800704700BF00080246174B1B68174AA2FB0E
:1011380003139B09322101FB03F3A2FB03239B0941
:10114800013380B912498A6822F002028A6000E0FD
:10115800013B0F4AD26B12F0020F01D0002BF7D1DE
:1011680083B1002070470A498A6842F002028A6007
:1011780000E0013B064AD26B12F0020FF0D1002BBF
:10118800F7D1EDE7032070470C000020D34D621023
:1011980000080246024A136943F0805313617047FE
:1011A80000080246024A136943F00053136170476E
:1011B80000080246024AD36A43F00103D36270472B
:1011C8000008024630B583B004462D4BD3F894305E
:1011D80013F0040F0FD0FFF79FFFB0F5403F20D06A
:1011E800B0F5003F1DD0B4F1805F2CD2B0F5803F40
:1011F80040D0012025E0224DD5F8943043F0040377
:10120800C5F89430D5F8943003F004030193019B9A
:10121800FFF782FFD5F8943023F00403C5F8943023
:10122800DBE7B4F1805F23D20120164A136823F06C
:101238000F0303431360136803F00F0383421DD1A8
:10124800002003B030BDB4F1005F05D9A0B9B4F1F6
:10125800405FEAD80120E8E7B4F1805F01D00120BF
:10126800E3E7B0F5803F01D00220DEE70120DCE7AC
:101278000020DAE70320D8E70020D6E70120E0E7DE
:10128800000C02460020024010B4594AD369926A01
:1012980013F00C0310D002F003020C2B0AD0544AAE
:1012A800D26902F00C02042A20D0082B21D0002099
:1012B800044610E0012AF2D14D4A926812F4000F58
:1012C8000ED14B4AD2F8F420C2F30332494951F8FF
:1012D80022404BB100200C2B0ED05DF8044B704718
:1012E800434A9268120FF1E72046F4E74248002487
:1012F800F1E741480024EEE73D48816A01F0030127
:10130800836AC3F30323013307EE103A836AC3F3F6
:10131800001C836BC3F3CC030CFB03F307EE903A7A
:10132800F8EE677A02291ED0032946D006EE904AC5
:10133800F8EE666AB8EE477A86EE876A2C4B5B6BE6
:10134800C3F3080307EE103AB8EE477ADFED2B6ACD
:1013580067EEA67A77EE277AB7EE007A77EE877A85
:1013680066EE276A19E0B8EE477A9FED256AC6EE61
:10137800076A1F4B5B6BC3F3080307EE103AB8EE1E
:10138800477A9FED1E6A67EE867A77EE277AB7EE80
:10139800007A77EE877A66EEA76A154B5B6BC3F324
:1013A8000663013307EE903AB8EE677AC6EE877A9D
:1013B800FCEEE77A17EE900A8FE7B8EE477A9FEDD2
:1013C800106AC6EE076A0A4B5B6BC3F3080307EEA5
:1013D800103AB8EE477A9FED096A67EE867A77EE9B
:1013E800277AB7EE007A77EE877A66EEA76AD4E7AF
:1013F800000C0246A42500080024F400000000396F
:101408000024744B002800F07181F0B583B00D46BC
:1014180004467F4B1B6803F00F038B420BD27C4AB8
:10142800136823F00F030B431360136803F00F03D3
:101438008B4240F05D81236813F0100F0CD0626975
:10144800744B5B6A03F070039A4205D971494B6A81
:1014580023F070031A434A62236813F0080F0ED072
:1014680022696C4B1B6A1B0903F070039A4206D968
:1014780068490B6A23F4E06343EA02130B622368AA
:1014880013F0040F0CD0E268624B1B6A03F0700380
:101498009A4205D95F490B6A23F070031A430A621E
:1014A800236813F0020F0CD0A2685A4B1B6A03F092
:1014B8000F039A4205D957490B6A23F00F031A43C1
:1014C8000A62236813F0010F00F0A8806368032BF9
:1014D8000AD0022B61D0002B66D14E4B1B6813F04B
:1014E800040F26D10120FFE04A4BD3F8943013F0C3
:1014F800040F0ED1474BD3F8942042F00402C3F8EE
:101508009420D3F8943003F004030193019B01273E
:1015180000E00027FFF7A0F806463F4BDB6813F40E
:10152800802F26D18FBB3B4B1B6813F0007F00F048
:10153800E180384AD36923F0030361680B43D36120
:10154800FFF78AF806466368032B34D0022B41D094
:10155800002B4ED02F4BDB6903F00C03042B5DD01E
:10156800FFF77AF8801B41F288339842F2D90320BA
:10157800BAE0294BDB6813F4804FD3D1FFF76CF83E
:10158800801B0228F5D90320AEE0224AD2F8943015
:1015980023F00403C2F89430C5E71E4B1B6813F40C
:1015A800003FC6D101209FE01A4B1B6813F4806FDF
:1015B800BFD1012098E0174BDB6903F00C030C2B1B
:1015C8002CD0FFF749F8831B41F288329342F2D9B5
:1015D800032089E00F4BDB6903F00C03082B1DD0B7
:1015E800FFF73AF8801B41F288339842F2D903207A
:1015F8007AE0084BDB6913F00C0F0FD0FFF72CF8DB
:10160800801B41F288339842F3D903206CE000BF75
:1016180000200240000C024600080246236813F02E
:10162800020F0CD0A268354B1B6A03F00F039A42D5
:1016380005D232490B6A23F00F031A430A62304B72
:101648001B6803F00F03AB420AD92D4A136823F035
:101658000F032B431360136803F00F03AB424BD106
:10166800236813F0040F0CD0E268244B1B6A03F0C4
:1016780070039A4205D221490B6A23F070031A437A
:101688000A62236813F0080F0ED022691B4B1B6AED
:101698001B0903F070039A4206D218490B6A23F417
:1016A800E06343EA02130B62236813F0100F0CD0B7
:1016B8006269124B5B6A03F070039A4205D20F49C4
:1016C8004B6A23F070031A434A62FFF7DDFD0B4BA8
:1016D8001B6A03F00F030B4AD35CD8400A4B18600F
:1016E8000A4B1868FEF72CFF03B0F0BD01207047C5
:1016F8000120F9E70120F7E70120F5E7000C024691
:1017080000200240E42500080C000020080000200A
:1017180008B5FFF7B9FD054B1B6A03F00F03044A30
:10172800D35CD840034B186008BD00BF000C0246CC
:10173800E42500080C000020002800F02A85F0B5F8
:1017480085B004469C4BDD6905F00C059E6A06F0E1
:101758000306036813F0100F00F09480EDB10C2D10
:1017680019D0E369002B00F01181934A136843F004
:1017780001031360FEF770FF07468F4B1B6813F0D9
:10178800040F40F0CD80FEF767FFC01B0228F4D994
:10179800032000F001BD012EE3D1E369002B00F026
:1017A800FA84606A844B9B6813F4000F1CD0824B48
:1017B8009B6803F07043984244D9E5B17E4A936828
:1017C80043F400039360936823F07043616A0B430A
:1017D8009360636AB3F1404F14D3D36823F01F03B7
:1017E800216A0B43D36044E0734BD3F8F4301B04F5
:1017F80003F07043DFE7FFF7E5FC0028DED00120A7
:1018080000F0CABC002B0BDBB3F1804F11D36A4A3E
:10181800D36823F4F843216A43EA8123D36028E09C
:10182800654AD36823F47873216A43EA4113D36085
:101838001FE0614AD36823F47823216A43EAC1335D
:10184800D36016E05C4A936843F40003936093689E
:1018580023F07043616A0B439360636AB3F1404FAE
:1018680036D3D36823F01F03216A0B43D360002DBE
:101878004ED0FFF74DFF514B1868FEF761FE002868
:1018880040F08A84236813F0010F00F0A080082D2F
:1018980000F099800C2D00F093806368B3F5803FC9
:1018A80000F0B680B3F5A02F00F0C880B3F5A81FEC
:1018B80000F0D280404B1A6822F480321A601A680D
:1018C80022F480221A601A6822F480121A60A4E0B6
:1018D800002B0BDBB3F1804F11D3374AD36823F4C5
:1018E800F843216A43EA8123D360C0E7324AD368C8
:1018F80023F47873216A43EA4113D360B7E72E4A89
:10190800D36823F47823216A43EAC133D360AEE76E
:10191800606AFFF757FC0028ABD0012000F03CBC00
:10192800254A936843F400039360936823F0704357
:10193800616A0B439360636AB3F1404F06D3D3687F
:1019480023F01F03216A0B43D3609BE7002B0BDBBB
:10195800B3F1804F11D3184AD36823F4F843216AAE
:1019680043EA8123D3608DE7134AD36823F478735D
:10197800216A43EA4113D36084E70F4AD36823F40A
:101988007823216A43EAC133D3607BE70A4A1368A4
:1019980023F001031360FEF75FFE0746064B1B6842
:1019A80013F0040F3FF46EAFFEF756FEC01B02287B
:1019B800F4D90320F0E300BF000C02460800002021
:1019C800032E7FF46AAF6368002B00F0E783236877
:1019D80013F0020F6BD0042D5DD00C2D59D0E368A5
:1019E800002B00F0BF80AA4A136843F48073136089
:1019F800FEF732FE0546A64B1B6813F4806F40F0D5
:101A0800A880FEF729FE401B0228F4D90320C3E36F
:101A18009F4A136843F480331360636853B3FEF737
:101A28001BFE07469A4B1B6813F4003FCFD1FEF705
:101A380013FEC01B6428F5D90320ADE3944B1A6844
:101A480042F480221A601A6822F480121A601A6816
:101A580042F480321A60E0E78D4B1A6842F4802223
:101A68001A601A6842F480121A601A6842F48032C6
:101A78001A60D2E7FEF7F0FD0746854B1B6813F4A2
:101A8800003FA4D0FEF7E8FDC01B6428F5D9032069
:101A980082E3022EA3D1E368002B00F081837C4A05
:101AA800136923F4F813216943EA01431361236896
:101AB80013F0080F00F0AF80754BD3F8943013F093
:101AC800040F63D1724BD3F8942042F00402C3F898
:101AD8009420D3F8943003F004030193019B01256B
:101AE8006C4B9B6A13F0010F52D06369002B7AD0BC
:101AF800674BD3F8F030A16903F08052914211D0BE
:101B080003F04062B2F1006F00F04C8313F0806F75
:101B180052D15F4AD2F8F03023F08053A1690B43C9
:101B2800C2F8F0305A4AD2F8F03043F08063C2F875
:101B3800F030FEF791FD0646554BD3F8F03013F020
:101B4800006F67D1FEF788FD801B0528F4D90320B4
:101B580022E34F4A136923F4F813216943EA014346
:101B68001361A4E74A4A136823F480731360FEF7ED
:101B780073FD0546464B1B6813F4806F97D0FEF73C
:101B88006BFD401B0228F5D9032005E30025A7E7D4
:101B9800404A936A43F001039362FEF75DFD0646EF
:101BA8003C4B9B6A13F0010F9FD1FEF755FD801B3C
:101BB8000228F5D90320EFE2354AD2F8F03023F0B5
:101BC800A053C2F8F030FEF747FD0646304BD3F875
:101BD800F03013F0006F9CD0FEF73EFD801B052807
:101BE800F4D90320D8E22A4AD2F8F03023F0A053DF
:101BF800C2F8F030FEF730FD0646254BD3F8F0303A
:101C080013F0006F06D0FEF727FD801B0528F4D9D6
:101C18000320C1E295BB236813F0040F00F0D980BC
:101C28001B4BD3F8943013F0040F2FD1184BD3F873
:101C3800942042F00402C3F89420D3F8943003F0BF
:101C480004030293029B0125124B9B6A13F0010FB8
:101C580022D0A36813F0010F3AD013F0040F2FD04D
:101C68000B4BD3F8F02042F00402C3F8F020D3F86D
:101C7800F02042F00102C3F8F02036E0044AD2F81E
:101C8800943023F00403C2F89430C4E70025DBE75E
:101C9800000C024600080246A84A936A43F0010372
:101CA8009362FEF7D9FC0646A44B9B6A13F0010F1A
:101CB800CFD1FEF7D1FC801B0228F5D903206BE2B7
:101CC8009F4AD2F8F03043F00103C2F8F0300CE03C
:101CD8009B4BD3F8F02022F00102C3F8F020D3F890
:101CE800F02022F00402C3F8F020A368002B41D0B2
:101CF800FEF7B2FC0646924BD3F8F03013F0020F11
:101D080008D1FEF7A9FC801B41F288339842F2D92A
:101D1800032041E2A36813F0800F15D0884AD2F857
:101D2800F03043F08003C2F8F030854BD3F8F03040
:101D380013F4006F4CD1FEF78FFC801B41F28833FF
:101D48009842F2D9032027E27D4AD2F8F03023F0F6
:101D58008003C2F8F0307A4BD3F8F03013F4006FF8
:101D680036D0FEF779FC801B41F288339842F2D9CD
:101D7800032011E2FEF770FC0646714BD3F8F030F1
:101D880013F0020F08D0FEF767FC801B41F288337E
:101D98009842F2D90320FFE1694BD3F8F03013F0F1
:101DA800800F15D0664AD2F8F03023F08003C2F8CD
:101DB800F030634BD3F8F03013F4006F08D0FEF71F
:101DC8004BFC801B41F288339842F2D90320E3E1AF
:101DD800CDB9236813F0200F31D0E36ADBB1584A3C
:101DE800136843F480531360FEF736FC0546544BE2
:101DF8001B6813F4005F22D1FEF72EFC401B02285B
:101E0800F5D90320C8E14E4AD2F8943023F00403F0
:101E1800C2F89430DDE74A4A136823F4805313600C
:101E2800FEF71AFC0546464B1B6813F4005F06D004
:101E3800FEF712FC401B0228F5D90320ACE1236809
:101E480013F0800F29D0236B9BB13D4A136843F4EC
:101E580080431360FEF700FC0546394B1B6813F4FA
:101E6800004F1AD1FEF7F8FB401B0228F5D90320D2
:101E780092E1334A136823F480431360FEF7ECFBC6
:101E880005462F4B1B6813F4004F06D0FEF7E4FB02
:101E9800401B0228F5D903207EE1236813F0400F88
:101EA80064D0636B002B4DD0254A936843F400033C
:101EB8009360936823F07063A16A0B439360636A2D
:101EC800B3F1404F19D3D36823F01F03216A0B43A2
:101ED800D3601B4A136843F010031360FEF7BCFB82
:101EE8000546174B1B6813F0200F3FD1FEF7B4FBD4
:101EF800401B0228F5D903204EE1002B0BDBB3F180
:101F0800804F11D30E4AD36823F4F843216A43EA79
:101F18008123D360DDE70A4AD36823F47873216A02
:101F280043EA4113D360D4E7054AD36823F47823FE
:101F3800216A43EAC133D360CBE700BF00080246F9
:101F4800000C0246A14A136823F010031360FEF741
:101F580083FB05469D4B1B6813F0200F06D0FEF748
:101F68007BFB401B0228F5D9032015E1A36B002B4E
:101F780000F01A81954AD26902F00C020C2A00F08E
:101F8800BC80022B14D0914A136823F0807313602D
:101F9800FEF762FB04468D4B1B6813F0007F00F0D0
:101FA800A380FEF759FB001B0228F4D90320F3E0B5
:101FB800864A136823F080731360FEF74DFB0546CD
:101FC800824B1B6813F0007F06D0FEF745FB401BD1
:101FD8000228F5D90320DFE07C4BD3F8943013F0C6
:101FE800040F68D1794BD3F8942042F00402C3F867
:101FF8009420D3F8943003F004030393039B012542
:10200800734BDB6813F4802F57D10026704AD368CE
:1020180023F48023D3606D4B9A6A22F47F4222F026
:102028000302E16B206C013841EA0021606C014336
:102038000A439A625A6B67481040A26C013AC2F38D
:102048000802E16C0139490289B20A43216D01395C
:10205800090401F4FE010A43616D0139090601F022
:10206800FE410A43104358639A6A22F010029A62AA
:10207800E26DD2009A639A6A42F010029A629A6AF2
:1020880022F00C02A16D0A439A62C6B9EDB94F4A13
:10209800136843F080731360FEF7DEFA04464B4B77
:1020A8001B6813F0007F18D1FEF7D6FA001B022830
:1020B800F5D9032070E00025A2E70126A6E7444AE7
:1020C800D36843F48023D360E0E7404AD2F89430E1
:1020D80023F00403C2F89430D9E73C4A936A43F4E6
:1020E80080239362002057E0384A936A23F4E02360
:1020F80023F00303936200204EE0344A916A506B48
:10210800012B53D001F00303E26B934250D1C1F38A
:102118000322236C013B9A424CD101F47041636C59
:10212800994249D1C0F30802A36C013B9A4245D1B8
:10213800C0F34622E36C013B9A4241D1C0F3064208
:10214800236D013B9A423DD1C0F30660636D013BAC
:10215800984239D11D4B9B6BC3F3CC03E26D93427C
:1021680001D1002018E0194A936A23F01003936202
:10217800FEF772FA0546FEF76FFAA842FBD0E26D49
:10218800D200124B9A639A6A42F010029A620020B7
:1021980002E001207047012005B0F0BD0120FBE7F7
:1021A8000120F9E70120F7E70020F5E70120F3E730
:1021B8000120F1E70120EFE70120EDE70120EBE73F
:1021C8000120E9E70120E7E70120E5E7000C0246E6
:1021D8000008024600008080022A0AD00922C3684B
:1021E80023F47053C360C36843EA8223C3600020AA
:1021F8007047234B0B44234A93422FD9224B0B445D
:10220800224A93422CD9A1F57403A3F51053204A0E
:10221800934227D9A1F18373A3F5E7431D4A93425B
:1022280022D31D4B0B441D4A93421FD91C4B0B4410
:102238001C4A93421CD31C4B0B441C4A934219D38F
:10224800A1F1B773A3F55853194A934214D3194B04
:102258000B44194A934211D20722C0E70F22BEE766
:102268000E22BCE70D22BAE70C22B8E70B22B6E72C
:102278000A22B4E70922B2E70822B0E70622AEE74D
:10228800405327FFFF340C00401E1BFF3F420F0046
:102298007F4F120020D6130060B6E5FE5FE31600FC
:1022A80000D3CEFE40771B00C05BB3FEC091210077
:1022B80020753800E05459FEE09C410082B00023AC
:1022C8000193019B01330193019BB3F1706F15D802
:1022D8000369002BF5DA00230193890141F02001FD
:1022E8000161019B01330193019BB3F1706F08D821
:1022F800036913F0200FF4D1002000E0032002B09E
:1023080070470320FBE7D0F8083813F0060307D01E
:10231800022B07D0062B01D00F20704702207047F0
:10232800002070470220704710B483B00246002393
:102338000193487801280BD00B7802EB4313D3F8AC
:10234800000B00282DDB002003B05DF8044B70471C
:102358000B7802EB4313D3F80049002C01DB002073
:10236800F2E7D3F8004944F00064C3F800490B7859
:1023780002EB4313D3F8004944F08044C3F8004902
:10238800019B01330193019C42F210739C42DBD8FC
:102398000B7802EB4313D3F80039002BF0DB002055
:1023A800D2E7D3F8000B40F00060C3F8000B0B78BD
:1023B80002EB4313D3F8000B40F08040C3F8000B46
:1023C800019B01330193019842F21073984208D897
:1023D8000B7802EB4313D3F8003B002BF0DB002013
:1023E800B2E70120B0E710B59DF8084084B903337F
:1023F8004FEA930E4FF0000C08E000EB023303F5B0
:10240800805351F8044B1C600CF1010CF445F4D3D3
:10241800002010BD10B5844608464FEA920E02F01F
:102428000302002305E00CF58051096840F8041BFD
:1024380001337345F7D37AB10CF5805CDCF80040C2
:102448000021CBB2DB0024FA03F300F8013B013191
:10245800013A92B2002AF4D110BD42698069104055
:102468007047D0F8183800F50060C0691840000CB3
:102478007047D0F8183800F50060C069184080B27D
:10248800704700EB4111D1F8082B00F50060406956
:1024980010407047D0F81028D0F8343801F00F0CED
:1024A80023FA0CF3DB01DBB2134300EB411000F518
:1024B8001060806818407047406900F0010070475C
:1024C800D0F8003923F4FF6323F00703C0F800397C
:1024D800D0F8043843F48073C0F8043800207047FB
:1024E80010B4046C154B9C4203D9D0F8003B002B68
:1024F80016DB0024C0F8104BD0F8104B44F400242D
:10250800C0F8104BD0F8104B44F01804C0F8104B2A
:10251800D0F8104B44F0C044C0F8104B012903D048
:1025280000205DF8044B7047C0F8142BD0F8003B2E
:1025380043F08023C0F8003BF2E700BF0A30544F55
:102548000E48D0F8883043F47003C0F888300C4B3C
:1025580001221A600022DA611A625A62196821F0AF
:10256800A85121F4102119609A62196821F4802178
:1025780019601A654FF000638360704700ED00E052
:10258800000C0246F8B500BFF8BC08BC9E46704770
:0C259800F8B500BFF8BC08BC9E467047B8
:1025A400006CDC0200366E010024F400001BB7004E
:1025B40000093D0080841E00504B140040420F006F
:1025C40000E02E000070170000A00F0000B80B0000
:1025D400801A0600400D030088070200A08601004F
:1025E40000000000000000000102030406070809BF
:0825F400F50200087D02000859
:0425FC005902000878
:102600002C000020010000001000000000093D0027
:04000005080003D11B
:00000001FF
