:020000040800F2
:100000000000272049100008894D00088B4D00088A
:100010008D4D00088F4D0008914D00089910000883
:10002000000000000000000000000000934D0008E8
:10003000954D000800000000974D0008994D0008FC
:1000400099100008991000089910000899100008EC
:1000500099100008991000089910000899100008DC
:10006000991000089910000899100008B5160008AA
:10007000C3160008D1160008DF160008ED160008A8
:10008000FB160008091700081717000825170008B5
:1000900035170008451700085517000865170008B0
:1000A00075170008851700089517000899100008B3
:1000B000991000089910000899100008991000087C
:1000C000991000089910000899100008991000086C
:1000D000991000089910000899100008991000085C
:1000E000991000089910000899100008991000084C
:1000F000991000089910000899100008991000083C
:10010000991000089910000899100008991000082B
:10011000991000089910000899100008991000081B
:10012000991000089910000899100008991000080B
:1001300099100008991000089910000899100008FB
:1001400099100008991000089910000899100008EB
:1001500099100008991000089910000899100008DB
:1001600099100008852E00089910000899100008C1
:1001700099100008991000089910000899100008BB
:1001800099100008991000089910000899100008AB
:10019000991000089910000899100008991000089B
:1001A000991000089910000899100008991000088B
:1001B000991000089910000899100008991000087B
:1001C000991000089910000899100008991000086B
:1001D000991000089910000899100008991000085B
:1001E000991000089910000899100008991000084B
:1001F000991000089910000899100008991000083B
:10020000991000089910000899100008991000082A
:10021000991000089910000899100008991000081A
:10022000991000089910000899100008991000080A
:1002300099100008991000089910000899100008FA
:10024000991000089910000899100008000000009B
:08025000991000089910000844
:1002580010B5054C237833B9044B13B10448AFF3F8
:1002680000800123237010BD44110020000000000D
:100278009429010808B5034B1BB103490348AFF3A0
:10028800008008BD000000004811002094290108E2
:1002980010F8012B11F8013B012A28BF9A42F7D028
:1002A800D01A7047034613F8012B002AFBD1181AFD
:1002B8000138704781F0004102E000BF83F000433D
:1002C80030B54FEA41044FEA430594EA050F08BFE9
:1002D80090EA020F1FBF54EA000C55EA020C7FEAAD
:1002E800645C7FEA655C00F0E2804FEA5454D4EB2A
:1002F8005555B8BF6D420CDD2C4480EA020281EAF4
:10030800030382EA000083EA010180EA020281EA2B
:100318000303362D88BF30BD11F0004F4FEA01317D
:100328004FF4801C4CEA113102D0404261EB41018C
:1003380013F0004F4FEA03334CEA133302D0524212
:1003480063EB430394EA050F00F0A780A4F10104CE
:10035800D5F1200E0DDB02FA0EFC22FA05F2801808
:1003680041F1000103FA0EF2801843FA05F35941EE
:100378000EE0A5F120050EF1200E012A03FA0EFC6D
:1003880028BF4CF0020C43FA05F3C01851EBE37197
:1003980001F0004507D54FF0000EDCF1000C7EEBB4
:1003A80000006EEB0101B1F5801F1BD3B1F5001FF2
:1003B8000CD349085FEA30004FEA3C0C04F1010411
:1003C8004FEA445212F5800F80F09A80BCF1004F3A
:1003D80008BF5FEA500C50F1000041EB045141EABC
:1003E800050130BD5FEA4C0C404141EB0101013C85
:1003F80028BFB1F5801FE9D291F0000F04BF014674
:100408000020B1FA81F308BF2033A3F10B03B3F145
:1004180020020CDA0C3208DD02F1140CC2F10C02D5
:1004280001FA0CF021FA02F10CE002F11402D8BF33
:10043800C2F1200C01FA02F120FA0CFCDCBF41EAFF
:100448000C019040E41AA2BF01EB0451294330BDCE
:100458006FEA04041F3C1CDA0C340EDC04F11404AB
:10046800C4F1200220FA04F001FA02F340EA030082
:1004780021FA04F345EA030130BDC4F10C04C4F1C8
:10048800200220FA02F001FA04F340EA03002946A8
:1004980030BD21FA04F0294630BD94F0000F83F4F2
:1004A800801306BF81F480110134013D4EE77FEAD5
:1004B800645C18BF7FEA655C29D094EA050F08BF21
:1004C80090EA020F05D054EA000C04BF1946104602
:1004D80030BD91EA030F1EBF0021002030BD5FEA46
:1004E800545C05D14000494128BF41F0004130BD6E
:1004F80014F580043CBF01F5801130BD01F00045C2
:1005080045F0FE4141F470014FF0000030BD7FEA34
:10051800645C1ABF194610467FEA655C1CBF0B462F
:10052800024650EA013406BF52EA033591EA030F46
:1005380041F4002130BD00BF90F0000F04BF00213E
:10054800704730B54FF4806404F132044FF0000571
:100558004FF0000150E700BF90F0000F04BF0021EA
:10056800704730B54FF4806404F1320410F0004550
:1005780048BF40424FF000013EE700BF42004FEA4B
:10058800E2014FEA31014FEA02701FBF12F07F43C8
:1005980093F07F4F81F06051704732F07F4208BF7F
:1005A800704793F07F4F04BF41F40021704730B586
:1005B8004FF4607401F0004521F000411CE700BFD2
:1005C80050EA010208BF704730B54FF000050AE055
:1005D80050EA010208BF704730B511F0004502D556
:1005E800404261EB41014FF4806404F132045FEA58
:1005F800915C3FF4D8AE4FF003025FEADC0C18BF01
:1006080003325FEADC0C18BF033202EBDC02C2F1F2
:10061800200300FA03FC20FA02F001FA03FE40EA84
:100628000E0021FA02F11444BDE600BF70B54FF088
:10063800FF0C4CF4E06C1CEA11541DBF1CEA135566
:1006480094EA0C0F95EA0C0F00F0DEF82C4481EACE
:10065800030621EA4C5123EA4C5350EA013518BFEE
:1006680052EA033541F4801143F4801338D0A0FBDB
:1006780002CE4FF00005E1FB02E506F00042E0FB88
:1006880003E54FF00006E1FB03569CF0000F18BF8E
:100698004EF0010EA4F1FF04B6F5007F64F5407436
:1006A80004D25FEA4E0E6D4146EB060642EAC621C9
:1006B80041EA55514FEAC52040EA5E504FEACE2E36
:1006C800B4F1FD0C88BFBCF5E06F1ED8BEF1004F39
:1006D80008BF5FEA500E50F1000041EB045170BDB5
:1006E80006F0004646EA010140EA020081EA0301F9
:1006F800B4EB5C04C2BFD4EB0C0541EA045170BDF5
:1007080041F480114FF0000E013C00F3AB8014F16E
:10071800360FDEBF002001F0004170BDC4F10004B7
:10072800203C35DA0C341BDC04F11404C4F1200538
:1007380000FA05F320FA04F001FA05F240EA020093
:1007480001F0004221F0004110EBD37021FA04F6C9
:1007580042EB06015EEA430E08BF20EAD37070BD83
:10076800C4F10C04C4F1200500FA04F320FA05F0E2
:1007780001FA04F240EA020001F0004110EBD370E4
:1007880041F100015EEA430E08BF20EAD37070BD54
:10079800C4F1200500FA05F24EEA020E20FA04F32D
:1007A80001FA05F243EA020321FA04F001F00041DC
:1007B80021FA04F220EA020000EBD3705EEA430E4D
:1007C80008BF20EAD37070BD94F0000F0FD101F07C
:1007D8000046400041EB010111F4801F08BF013CB5
:1007E800F7D041EA060195F0000F18BF704703F0F3
:1007F8000046520043EB030313F4801F08BF013D7A
:10080800F7D043EA0603704794EA0C0F0CEA135535
:1008180018BF95EA0C0F0CD050EA410618BF52EAEF
:100828004306D1D181EA030101F000414FF00000F5
:1008380070BD50EA410606BF1046194652EA430603
:1008480019D094EA0C0F02D150EA013613D195EA77
:100858000C0F05D152EA03361CBF104619460AD1BF
:1008680081EA030101F0004141F0FE4141F47001C9
:100878004FF0000070BD41F0FE4141F4780170BDB9
:1008880070B54FF0FF0C4CF4E06C1CEA11541DBF1E
:100898001CEA135594EA0C0F95EA0C0F00F0A7F820
:1008A800A4EB050481EA030E52EA03354FEA01314D
:1008B80000F088804FEA03334FF0805545EA131360
:1008C80043EA12634FEA022245EA111545EA106528
:1008D8004FEA00260EF000419D4208BF964244F1BF
:1008E800FD0404F5407402D25B084FEA3202B61ADE
:1008F80065EB03055B084FEA32024FF480104FF4B2
:10090800002CB6EB020E75EB030E22BFB61A754625
:1009180040EA0C005B084FEA3202B6EB020E75EBB8
:10092800030E22BFB61A754640EA5C005B084FEA20
:100938003202B6EB020E75EB030E22BFB61A7546ED
:1009480040EA9C005B084FEA3202B6EB020E75EBF8
:10095800030E22BFB61A754640EADC0055EA060EB9
:1009680018D04FEA051545EA16754FEA06164FEAFC
:10097800C30343EA52734FEAC2025FEA1C1CC0D1A8
:1009880011F4801F0BD141EA00014FF000004FF035
:10099800004CB6E711F4801F04BF01430020B4F1F6
:1009A800FD0C88BFBCF5E06F3FF6AFAEB5EB030CAE
:1009B80004BFB6EB020C5FEA500C50F1000041EBAB
:1009C800045170BD0EF0004E4EEA113114EB5C0478
:1009D800C2BFD4EB0C0541EA045170BD41F480114B
:1009E8004FF0000E013C90E645EA060E8DE60CEA53
:1009F800135594EA0C0F08BF95EA0C0F3FF43BAF70
:100A080094EA0C0F0AD150EA01347FF434AF95EA26
:100A18000C0F7FF425AF104619462CE795EA0C0F0A
:100A280006D152EA03353FF4FDAE1046194622E7D7
:100A380050EA410618BF52EA43067FF4C5AE50EAB1
:100A480041047FF40DAF52EA43057FF4EBAE12E7A1
:100A58004FF0FF3C06E000BF4FF0010C02E000BF82
:100A68004FF0010C4DF804CD4FEA410C7FEA6C5C65
:100A78004FEA430C18BF7FEA6C5C1BD001B050EA08
:100A8800410C0CBF52EA430C91EA030F02BF90EAF3
:100A9800020F0020704710F1000F91EA030F58BFB2
:100AA800994208BF90422CBFD8176FEAE37040F014
:100AB800010070474FEA410C7FEA6C5C02D150EAB2
:100AC800013C07D14FEA430C7FEA6C5CD6D152EA6D
:100AD800033CD3D05DF8040B704700BF8446104632
:100AE80062468C461946634600E000BF01B5FFF731
:100AF800B7FF002848BF10F1000F01BD4DF808ED01
:100B0800FFF7F4FF0CBF012000205DF808FB00BFD1
:100B18004DF808EDFFF7EAFF34BF012000205DF82B
:100B280008FB00BF4DF808EDFFF7E0FF94BF012078
:100B380000205DF808FB00BF4DF808EDFFF7CEFF79
:100B480094BF012000205DF808FB00BF4DF808EDB8
:100B5800FFF7C4FF34BF012000205DF808FB00BF89
:100B68004FEA410C7FEA6C5C02D150EA013C0AD1A1
:100B78004FEA430C7FEA6C5C02D152EA033C02D193
:100B88004FF0000070474FF0010070474FEA4102F4
:100B980012F5001215D211D56FF47873B3EB6252C7
:100BA80012D94FEAC12343F0004343EA505311F0EE
:100BB800004F23FA02F018BF404270474FF0000080
:100BC800704750EA013005D111F0004008BF6FF0BE
:100BD800004070474FF00000704700BF4A0011D234
:100BE80012F5001211D20DD56FF47873B3EB62527F
:100BF8000ED44FEAC12343F0004343EA505323FA8B
:100C080002F070474FF00000704750EA013002D1FF
:100C18004FF0FF3070474FF0000070474FEA410235
:100C2800B2F1E04324BFB3F5001CDCF1FE5C0DD942
:100C380001F0004C4FEAC0024CEA5070B2F1004F8C
:100C480040EB830008BF20F00100704711F0804F8F
:100C580021D113F13872BCBF01F00040704741F454
:100C680080114FEA5252C2F11802C2F1200C10FA58
:100C78000CF320FA02F018BF40F001004FEAC1233C
:100C88004FEAD32303FA0CFC40EA0C0023FA02F3E0
:100C98004FEA4303CCE77FEA625307D150EA0133B6
:100CA8001EBF4FF0FE4040F44000704701F0004086
:100CB80040F0FE4040F40000704700BF53B94AB905
:100CC800002908BF00281CBF4FF0FF314FF0FF304C
:100CD80000F0B4B9ADF1080C6DE904CE00F03CF8B1
:100CE800DDF804E0DDE9022304B0704738B50022DE
:100CF800002304460D46FFF70BFF28B92046294676
:100D0800BDE8384000F00AB8204605F1004100F07F
:100D180005F8404261EB410138BD00BFD0B5002263
:100D28000B4B06460F46FFF781FCFFF757FF0446BB
:100D3800FFF702FC0022074BFFF778FC02460B4640
:100D480030463946FFF7BAFAFFF748FF2146D0BDCB
:100D58000000F03D0000F0412DE9F04F099D0C46E0
:100D6800002B4DD18A420F4684469646B2FA82F34A
:100D780060D94BB102FA03FEC3F120029F4000FA8A
:100D880003FC20FA02F217434FEA1E461FFA8EF4BC
:100D98004FEA1C42B7FBF6F106FB117701FB04F0A2
:100DA80042EA0742904208D91EEB020201F1FF37DE
:100DB80002D2904200F22D813946121A1FFA8CFC99
:100DC800B2FBF6F006FB102200FB04F44CEA024CDE
:100DD800644508D91EEB0C0C00F1FF3202D26445C1
:100DE80000F21A81104640EA0140ACEB040C0021E5
:100DF80025B12CFA03F30022C5E90032BDE8F08FD3
:100E08008B4205D90DB1C5E9000100210846F5E777
:100E1800B3FA83F100294DD1A342C0F0F280904289
:100E280080F0EF80064623460846002DE6D0C5E947
:100E38000063E3E7002B40F0A2808A1A4FEA1E47BE
:100E48001FFA8EF60121B2FBF7F407FB14204FEAD4
:100E58001C4242EA004206FB04F090420FD91EEB06
:100E6800020204F1FF382CBF4FF001094FF00009CE
:100E7800904203D9B9F1000F00F0C8804446121A15
:100E88001FFA8CFCB2FBF7F007FB102200FB06F6FA
:100E98004CEA024C664508D91EEB0C0C00F1FF32F7
:100EA80002D2664500F2BB801046ACEB060C40EA65
:100EB80004409DE7C1F120068B4004FA01FE22FAA6
:100EC80006F720FA06FCF4408A401F434EEA0C035A
:100ED80000FA01FE4FEA17484FEA13491FFA87FC48
:100EE800B4FBF8F008FB104449EA044400FB0CF991
:100EF800A1450ED93C1900F1FF3A2CBF4FF0010B68
:100F08004FF0000BA14503D9BBF1000F00F093800F
:100F18005046A4EB09041FFA83F9B4FBF8F308FB65
:100F2800134403FB0CFC49EA0444A44506D93C19C4
:100F380003F1FF3801D2A4457AD8434643EA00407A
:100F4800A4EB0C04A0FB02984445CC46434602D3CC
:100F580006D1CE4504D20138B9EB020C68EB070381
:100F68005DB1BEEB0C0264EB030404FA06F622FA48
:100F780001F3CC401E43C5E9006400213EE702FAB4
:100F880003FEC3F1200104FA03F200FA03FCCC408B
:100F98004FEA1E4720FA01F11FFA8EF6B4FBF7F06C
:100FA8000A4307FB1044110C41EA044100FB06F414
:100FB8008C420ED91EEB010100F1FF382CBF4FF017
:100FC80001094FF000098C4202D9B9F1000F2CD069
:100FD8004046091B92B2B1FBF7F407FB141142EA31
:100FE800014204FB06F1914207D91EEB020204F10B
:100FF800FF3801D2914215D84446521A44EA0041BA
:1010080021E7861A64EB030301200EE7023C7244D1
:1010180035E702397244D0E6F4440238E3E6F44492
:10102800023842E7023C7244E7E702387144D0E7ED
:10103800023B3C4482E702383C446AE7704700BF01
:101048000D48854603F006FF0C480D490D4A00235C
:1010580002E0D458C4500433C4188C42F9D30A4A65
:101068000A4C002301E013600432A242FBD30CF0C7
:1010780049FC0BF056FBFEE700002720000000208B
:10108800EC08002054370108441100202CAF002040
:10109800FEE703460020186058609A600120D86077
:1010A8001961704710B40024046044608360C26012
:1010B800016101205DF8044B7047F0B500270CE092
:1010C8000CEB030511F803E006F805E00133C568E9
:1010D8009D42F5D8294404600137974213D2056828
:1010E8006B1C8468B3FBF4F604FB16344368A34214
:1010F8000BD00669002EEED00029ECD0C36803FBA4
:1011080005FC0023E3E70120F0BD0020FCE770B5F3
:101118000C461646002516E001EB0E0C1CF803C021
:1011280004F803C00133C2689A42F5D814444368EE
:101138000268934216D001338268B3FBF2F102FBD6
:10114800113343600135B5420AD201690029EED056
:10115800002CECD04368C26802FB03FE0023E2E7E0
:10116800012070BD0020FCE78268036813444168D1
:101178005B1AB3FBF2F002FB1030704710B500F0B9
:10118800AFFF01F00BF901F0C1F901F0F7F9002404
:1011980005E04FF4E131E0B201F016FA0134012C18
:1011A800F7DD4FF4E131002001F02CF9164801F089
:1011B8006DF91649164801F069F91649164801F003
:1011C80065F905F0F1FD154981FB0031C017C0EB49
:1011D800A141134801F05AF9124801F057F900F0FB
:1011E80007FA00F0DBFA01F09DFC042001F0A6FCF0
:1011F80000F0B0FF4FF4E131002000F017FC0020B0
:1012080001F0F8F810BD00BFB8290108D429010879
:10121800E4290108FC290108082A010883DE1B4388
:10122800202A0108D029010810B500F0C7F90446A2
:1012380004E000F0C3F9044600F068FE00F0BEF9CF
:10124800031BB3F5FA7FF4D2F6E700002DE9F04767
:101258008AB0002405940694079408940994504B86
:10126800D3F88C2042F00402C3F88C20D3F88C20E9
:1012780002F004020092009AD3F88C2042F0800217
:10128800C3F88C20D3F88C2002F080020192019AD6
:10129800D3F88C2042F00202C3F88C20D3F88C20BB
:1012A80002F002020292029AD3F88C2042F0400225
:1012B800C3F88C20D3F88C2002F040020392039AE2
:1012C800D3F88C2042F00102C3F88C20D3F88C307C
:1012D80003F001030493049BDFF8D8A022460421FD
:1012E800504604F09EFD2F4E22468021304604F0E1
:1012F80098FD2D4D2246A021284604F092FD4FF47A
:1013080000530593294B0693079405A9304604F02A
:10131800F1FB042705974FF00308CDF818800794D0
:1013280005A9304604F0E6FB4FF480430593069484
:10133800079405A9284604F0DDFB4FF40049CDF8D1
:101348001490CDF81880079405A9284604F0D2FB1C
:101358000597012706970794089405A9504604F0B5
:10136800C9FB8023059306970794089405A930467E
:1013780004F0C0FBCDF81490CDF81880079405A9A7
:101388000B4804F0B7FBA02305930697079408942D
:1013980005A9284604F0AEFB0AB0BDE8F08700BFF7
:1013A800000C02460008024200040242000011102C
:1013B800000002420018024272B6FEE700B59FB074
:1013C8006022002106A80CF005FA0023009301937F
:1013D80002930393049305934FF4403005F0C8FB40
:1013E80048BB012306934FF48032079202211491DF
:1013F800032215920022179216930A2018900820AB
:1014080019901A911B930C231C931D9206A805F0A2
:1014180023FF90B91F230093032301930023029312
:101428000393049305930421684605F07BFD30B9C6
:101438001FB05DF804FBFFF7BFFFFFF7BDFFFFF725
:10144800BBFF08B505F02AFC05F044FC022005F0B6
:10145800E7FB00B908BDFFF7AFFF000000B583B098
:101468001B4BD3F8882042F00102C3F88820D3F838
:10147800883003F001030193019B002211461D20CF
:1014880003F0E8FD1D2003F0F5FD0022114655206C
:1014980003F0E0FD552003F0EDFD0E480E4B036010
:1014A80000238363C36303644FF040434364802392
:1014B800836404F04DF938B91021064803F0C5FEDD
:1014C80020B903B05DF804FBFFF776FFFFF774FF60
:1014D800000C0246F8110020D006024008B504F0BE
:1014E800BFFC00B908BDFFF767FF000000B589B071
:1014F80000230493059306930793019302930393A0
:1015080013484FF0804202609F22426083604FF090
:10151800FF32C2600361836108F056FE90B94FF450
:101528008053049304A90A4808F08CFE60B900238C
:101538000193039301A9064808F024FF30B909B0C4
:101548005DF804FBFFF738FFFFF736FFFFF734FFBE
:10155800AC11002008B50948094B03601323436008
:10156800002383606322C260036143618023836137
:1015780008F02AFE00B908BDFFF71EFF6011002021
:101588000048014008B503F0AFFCFFF75AFFFFF72A
:1015980015FFFFF75BFEFFF761FFFFF79FFFFFF700
:1015A800A5FFFFF7D7FF04F05BFC08B9012008BDD1
:1015B8000020FCE708B503F0D1FC08BD08B503F02E
:1015C800C7FC08BD012801D90020704710B5074B9A
:1015D800020103EB0014A188985804F01BFC237B3C
:1015E800984201D0002010BD0120FCE73C2A0108E8
:1015F80030B589B0002303930493059306930793AA
:10160800224AD2F88C1041F00401C2F88C10D2F8AA
:101618008C1001F0040101910199D2F88C1041F06D
:101628002001C2F88C10D2F88C2002F0200202921D
:10163800029A08E0164A002102F8331002EBC302AE
:10164800518051700133012BF4DD124B04930024B7
:1016580016E0114B220103EB041569680391A96890
:10166800059103A9985804F045FAB5F90E500022DF
:101678000521284603F0EEFC284603F0FBFC013464
:10168800012CE6DD012009B030BD00BF000C024688
:1016980070120020000031103C2A0108012801D9ED
:1016A8000020704708B5FFF78DFF08BD08B5012079
:1016B80004F0BEFB00F0E0FD08BD08B5022004F010
:1016C800B7FB00F0D9FD08BD08B5042004F0B0FB55
:1016D80000F0D2FD08BD08B5082004F0A9FB00F011
:1016E800CBFD08BD08B5102004F0A2FB00F0C4FD36
:1016F80008BD08B5202004F09BFB00F0BDFD08BD27
:1017080008B5402004F094FB00F0B6FD08BD08B50C
:10171800802004F08DFB00F0AFFD08BD08B54FF444
:10172800807004F085FB00F0A7FD08BD08B54FF4F4
:10173800007004F07DFB00F09FFD08BD08B54FF474
:10174800806004F075FB00F097FD08BD08B54FF404
:10175800006004F06DFB00F08FFD08BD08B54FF484
:10176800805004F065FB00F087FD08BD08B54FF414
:10177800005004F05DFB00F07FFD08BD08B54FF494
:10178800804004F055FB00F077FD08BD08B54FF424
:10179800004004F04DFB00F06FFD08BD08B501F0F6
:1017A80003FF014B187008BD8012002008B501F036
:1017B80037FF08BD08B501F013FF08BD08B501F0F3
:1017C80017FF08BD08B501F049FF08BD08B501F0CD
:1017D80021FF08BD08B501F077FF08BD002380F898
:1017E800F23380F8F1333F2280F8F02380F8B033E9
:1017F800704738B5054690F8964104EB441004EB61
:1018080040002844432205F56C7100F5CC700CF0BB
:10181800A9F895F89731072B02D8013385F8973145
:1018280085F895410134634204F0070403F0070387
:1018380058BF5C4285F89641012385F8943138BD3C
:10184800002303E08CF8002001339BB20F2B0BD848
:1018580000EB030CC25C3AB1A2F16101C9B21929CB
:10186800F0D8203AD2B2EDE7102B00D07047013BF8
:101878000022C254FAE70000064BB3F878369842C3
:1018880005D2044BD3F87C3653F82000704700206B
:10189800704700BF8412002008B50346094AB2F811
:1018A800782690420AD20846064AD2F87C2652F890
:1018B8002310FEF7EDFC18B1002000E0002008BD61
:1018C8000120FCE78412002008B5084BB3F87836ED
:1018D800984202D39FED060A08BD044BD3F87C3624
:1018E800002153F820000BF027FDF5E784120020B3
:1018F8000000000008B5084BB3F87836984201D3C9
:10190800002008BD044BD3F87C360022114653F85A
:1019180020000BF0E3FDF4E78412002010B5044624
:101928000449007800F080FF0349207800F07CFF2C
:1019380010BD00BF803001085C2A010838B590F856
:10194800973143B304460D4690F8F12322BB94F82F
:10195800F22332BB012D29D094F99511013194F865
:10196800973191FBF3F203FB121184F89511C9B278
:1019780001EB411301EB43012144432201F5CC71F2
:1019880004F56C700BF0EEFF94F8F23384F8F13341
:10199800002384F8943138BD0F49007800F044FFE3
:1019A800D5E70E49207800F03FFFD3E794F894314B
:1019B8001BB194F9963184F8953194F9951194F8FE
:1019C80097311944013991FBF3F203FB121184F8A2
:1019D8009511C9B2CCE700BF642A01086C2A010836
:1019E80070B582B006460024A0F8124100F58A7549
:1019F800C0F8144101AA0C4900F56C700BF02CFFDB
:101A0800234609E05C1CA4B245F8230001AA064954
:101A180000200BF021FF23460028F3D1A6F812314D
:101A280003B1012002B070BD742A01080A4B187076
:101A38001B7A1BB1084B5B688B4200D011B9064B6F
:101A4800187A704710B5044C616000F0BDFD207233
:101A5800014B187A10BD00BF84120020014B187882
:101A6800704700BF8412002038B5234B5B7A03B956
:101A780038BD054690F8F1232049C07A00F0D4FE1D
:101A880095F8F2231E49E87A00F0CEFE95F8F02387
:101A98001C49E87A00F0C8FE05F56C721A49E87A24
:101AA80000F0C2FE95F995211849E87A00F0BCFECD
:101AB80095F896211649E87A00F0B6FE95F8972130
:101AC8001449E87A00F0B0FE00240CE004EB44135B
:101AD80004EB430303F5CC732B4422460E49E87A02
:101AE80000F0A2FE013495F89731A342EEDC0B49D1
:101AF800E87A00F099FEBBE7841200207C2A0108EE
:101B08008C2A01089C2A0108AC2A0108BC2A010871
:101B1800CC2A0108DC2A0108EC2A0108D02901088E
:101B280008B5024B187800F005FE08BD84120020A5
:101B380008B5024B187800F021FE08BD8412002079
:101B480008B50A460146024B187800F043FE08BD66
:101B5800841200200FB410B582B004AB53F8042BE4
:101B68000193084C4FF4807120460BF025FE024685
:101B7800214614F8110C00F02DFE02B0BDE810400B
:101B880004B070479512002038B50546FFF728FFC6
:101B980008B9002038BD1848FFF7DCFFD5F8140154
:101BA800FFF74EFE0123AB720024B5F8F433A342CD
:101BB8001EDD04EB8401890001F57E712944D5F806
:101BC8001401FEF765FB08B10134EEE7B5F81231F0
:101BD800013BA5F8783605F58C73C5F87C3604EB1F
:101BE800840405EB8404D4F8083405F5CF609847DD
:101BF8000023AB72CDE700BF442D010830B585B096
:101C080004468DF80710037CABB9CBB21B2B30D040
:101C18001CD8082B4BD00D2B40F0848090F8F23361
:101C28000BBB002384F8F23384F8F13384F8B03323
:101C38002046FFF773FE237C013B032B00F2C8808C
:101C4800DFE813F0C400CC00CF0056017F2B69D128
:101C580090F8F1C390F8F2E3F445ECD2AEEB0C0542
:101C6800EDB2012212E0FFF7C4FD2046FFF78CFF1A
:101C7800D7E701230374DEE70CEB0203591E234464
:101C880093F8B003631883F8B00301329542F3DC8C
:101C98000EF1FF3E5FFA8EFE84F8F2E3A6440023BD
:101CA8008EF8B0339449207800F0BEFDC3E790F871
:101CB800F2335BB390F8F10340B3834209D094F850
:101CC800F2C3604522D2ACEB000E5FFA8EFE002212
:101CD80011E0013BDBB284F8F2332344002283F89D
:101CE800B023ECE78318591E234493F8B0536318C4
:101CF80083F8B05301329645F4DC0CF1FF33DBB2C4
:101D080084F8F2332344002283F8B02394F8F133A3
:101D1800002B90D0013B84F8F1337849207800F00B
:101D280083FD88E794F8F233591C94F8F023914224
:101D380081DA94F8F123934216D094F8F1C394F819
:101D4800F2038445BFF477AFA0EB0C05EDB2002297
:101D5800954224DD831A591E214491F8B013234477
:101D680083F8B0130132F3E701220DF1070120785F
:101D780000F030FD94F8F123A3189DF8071083F8BC
:101D8800B01394F8F2330133DBB284F8F233013242
:101D980084F8F1232344002283F8B023CDE79DF88B
:101DA800072004EB0C0383F8B0230130C0B284F899
:101DB800F2030CF1010C84F8F1C32044002380F8ED
:101DC800B0334F49207800F02FFD34E70223237405
:101DD8002046FFF749FE002005B030BD03232374D9
:101DE800F6E7002323749DF80730442B26D09DF88E
:101DF8000730432B37D09DF80730412B4AD09DF848
:101E08000730422B50D09DF80730312B56D09DF823
:101E18000730342BDCD194F8F13394F8F223934251
:101E280058D394F8F12394F8F2339A4259D894F895
:101E3800F23384F8F13304232374C9E794F8F123C7
:101E4800002AD4D0013A84F8F1231B228DF8082007
:101E58005B228DF809208DF80A30032202A9207828
:101E680000F0B8FCC3E794F8F12394F8F2138A421F
:101E7800C1D2013284F8F1231B228DF808205B229D
:101E88008DF809208DF80A30032202A9207800F085
:101E9800A1FCB0E701212046FFF750FD04F56C7165
:101EA800207800F0C1FCAAE700212046FFF746FD94
:101EB80004F56C71207800F0B7FCA4E794F8F123DE
:101EC8001049207800F0B0FC002384F8F133042393
:101ED80023749CE7D21A92B20B49207800F0A4FC34
:101EE8009FE7D21A92B20749207800F09DFC9EE73E
:101EF800002323746CE700BFFC2A0108042B0108A7
:101F08000C2B0108642A0108182B010838B5094B65
:101F18001C7A0CB9204638BD187800F00BFC002854
:101F2800F8D0044D287800F029FC01462846FFF730
:101F380065FEEFE78412002010B50F48FFF70AFE90
:101F48000E48FFF707FE00240CE004EB840398001A
:101F580000F57E700A4B1844FFF7FCFD0648FFF7B2
:101F6800F9FD0134064BB3F8F433A342EDDC054820
:101F7800FFF7F0FD10BD00BF442D0108202B01081C
:101F880084120020402B01082DE9F04383B0038818
:101F9800446873B1012B12D810270022114620681B
:101FA8000BF09CFA06462C48FFF7D4FDB0460024F7
:101FB8001BE02A48FFF7CEFD03B0BDE8F0830022FE
:101FC800114660680BF08AFA0746E6E7316824484C
:101FD800FFF7C0FD624204F0030302F0030258BF9A
:101FE8005342032B0BD004360134BC42E4DA14F01C
:101FF800030FEBD131461B48FFF7ACFDE6E71A4863
:10200800FFF7A8FD4FF0000917E01848FFF7A2FDF9
:102018000135032D0DDC05F108036B4413F8041C8E
:10202800A1F12003DBB25E2BEFD81148FFF792FD38
:10203800EEE708F1040809F10109B9F1030F04DC1E
:10204800D8F8003001930025E3E70A48FFF782FD3E
:102058000120FFF7AFFAC6E7742B0108602B0108CF
:10206800882B01087C2B0108902B0108982B01086C
:10207800942B01089C2B010808B5044B187800F034
:1020880059FB08B9012008BD0020FCE78412002094
:102098002DE9F041114BB3F8F4531F2D02D900205C
:1020A800BDE8F0810E46AF0005EB8504A40004F5F9
:1020B8007E7498461C44014620460BF04BFC2F4486
:1020C80008EB8707C7F808642046FFF7B9FBB8F89C
:1020D800F4330133A8F8F4330120E1E78412002037
:1020E80008B513480023037243728372037480F89F
:1020F800953180F8963180F8973180F894310D4BFE
:10210800C0F880360C4BC0F884360C4BC0F88836C3
:102118000B4BC0F88C36FFF761FB0A490A48FFF7FA
:10212800B7FF0A490A48FFF7B3FF012008BD00BFFF
:1021380084120020FD180008D11800088118000832
:10214800A1180008411F0008A42B0108911F0008CE
:10215800AC2B010808B564230C220D490D48FEF785
:10216800A1FF0D4A02231360002353609363136396
:102178000AE003EB83029100074A0A440021117226
:1021880051729176D1760133012BF2D9012008BD25
:1021980014190020C41D0020D81D00202DE9F0418D
:1021A80084B0334D6B6801336B6000F0E1F907468A
:1021B80000242C63AC631EE004EB84022C4B03EB7D
:1021C800820302221A7204EB8402294B03EB820376
:1021D8001A7A5A721969791A59615B7E9E4227D117
:1021E80046B1234A136B03F1180102EB41018C80BD
:1021F8000133136301341E4B1B68A34234D904EB2B
:1022080084031B4D05EB8305EF602B7E6B765FFA2D
:1022180084F84046FFF742FA064628762B7A002BC8
:10222800D1D168762F610028C6D001222A72CAE768
:102238000F4D04EB840005EB80000122C276076194
:102248008DF804808DF80C608DF80D30029101A98D
:102258000848FEF732FFAB6B03F11C0205EB4202A4
:1022680094800133AB63BBE704B0BDE8F08100BFE5
:10227800D81D0020C41D002008B5FFF78FFF08BD3A
:102288002DE9F04106460388012B0AD00027338840
:10229800012B23D03388012B3ED0002F5AD0BDE824
:1022A800F081436930490020984707460028EED05E
:1022B8002E4C21882E48FFF74DFC61882D48FFF7EA
:1022C80049FC2D48FFF746FC2C4C21882C48FFF789
:1022D80041FC61882B48FFF73DFCD8E773692A4920
:1022E8000020984780460028D4D0002506E01F4BE0
:1022F800986821462844FFF723FC2544FFF7BCFED5
:10230800074638B1194B5C88641BC3D0402CEED902
:102318004024ECE74746BDE773691C49002098470D
:1023280006460028B9D0002506E0144B98682146D7
:102338002844FFF705FC2544FFF79EFE074638B101
:102348000E4B5C88641BA8D0402CEED94024ECE7E7
:102358003746A2E70E48FFF7FDFB0E48FFF7FAFBEA
:102368000D48FFF7F7FB9AE7B02B01082C37002040
:10237800B82B0108CC2B0108D029010820370020F0
:10238800E02B0108F42B0108082C0108102C010887
:10239800182C0108242C0108302C010810B50E4A0D
:1023A8000023138053804FF400619180D3800B4940
:1023B80091600B4A138053804FF480519180D380F1
:1023C800084B93600124084B1C7008490848FFF724
:1023D8005FFE204610BD00BF2C370020202F0020B4
:1023E80020370020201F00201E1F002089220008FF
:1023F8003C2C0108003818BF0120014B18707047A9
:102408000100002010B5054B1870054B1960054CEC
:102418000123237000F0D8F8207010BD1C1F002085
:10242800181F00201D1F002030B583B004469446B5
:10243800C3881344083382889A4205D20023C38094
:102448000CF108039A4219D3E088009123880E4AB8
:102458000CF10801A56828440BF00CF92388013316
:102468002380E38882B21344E38063881844A188F8
:10247800884205DC1A446280012002E0002000E066
:10248800012003B030BD00BF402C01080FB410B5C7
:1024980082B0164B1B7823B902B0BDE8104004B0D7
:1024A800704705AB0193049A4FF4807110480BF004
:1024B80083F904460F4B1B7813B10F4B1B7843B9B4
:1024C8000E4B1B7863B9224609490D48FFF7ACFF4C
:1024D800E2E7024606490B4B187800F07BF9EFE774
:1024E800224603490848FFF79FFFECE71E1F00201C
:1024F800181E00201D1F00200000002001000020E1
:10250800203700201C1F00202C37002010B582B077
:10251800134BD3F89C2042F00102C3F89C20D3F857
:102528009C3003F001030193019B0E4C4FF0804354
:1025380023600D4B1B680D4AA2FB03239B0C013B38
:102548004FF0FF32E260636000232361A3602046FE
:1025580007F03AFE204607F023FD012002B010BD27
:10256800000C0246383700202C02002083DE1B4373
:10257800014B1B68586A70473837002010B5002394
:102588000FE00D4C40F22C4203FB02F2A118002090
:10259800A0544FF461424A60C1F82404C1F82804E9
:1025A8000133012BEDDD0124044B1C70044905485F
:1025B800FFF76EFD204610BDEC080020CC38002047
:1025C80085280008482C0108012800F2AA80F0B5E7
:1025D80083B0044640F22C4300FB03F3524AD05C1C
:1025E80038B1134640F22C4202FB04335B688B423D
:1025F80004D02CB1012C00F08A80002003B0F0BD7B
:10260800494840F22C4304FB03F3C5186960474E60
:1026180006EB0416B268C5F81C2477681760D5F86D
:102628001C245160D5F81C1400228A60D5F81C14AB
:10263800CA60D5F81C140A61D5F81C140C274F6120
:10264800D5F81C148A61D5F81C14CA61D5F81C1475
:102658000A62D5F81C144A62D5F81C148A6203F180
:102668000807074403F581634FF48062394618442C
:10267800FEF70FFD2E4BD3F8882042F00102C3F875
:102688008820D3F8883003F001030193019BD5F823
:102698001C0407F02FFF337B4BB100231A46194661
:1026A800D5F81C0408F020FB58B10020A6E71E4B03
:1026B80040F22C4202FB0433D3F81C0408F034FA2D
:1026C800F2E7194A40F22C4304FB03F3D018012126
:1026D800D1544FF480623946D0F81C0408F0DAFA75
:1026E80098B90120104B40F22C4202FB0433D3F876
:1026F8001024D3F81C14D1F880100968896C521A78
:10270800C3F80824C3F80C2478E70020EAE7064B4E
:1027180040F22C4202FB04F41A19516001201855AA
:102728006CE70020704700BFEC080020002D01086E
:10273800000C024610B5034618B1012818D0002035
:1027480010BD0D4840F22C4202FB03F3C218D2F828
:102758001014D2F81C44D4F880402468A46C091BD7
:10276800C2F8081403F581631844FEF7FDFCE7E797
:10277800FFF720F8E4E700BFEC08002010B582B0AE
:1027880000238DF80730044678B101281BD0104B80
:1027980040F22C4202FB0433D3F824240132C3F85C
:1027A80024249DF8070002B010BD40F22C4300FB22
:1027B80003F303F5816301220DF10701044818446E
:1027C800FEF7A5FCE3E7FEF7F9FF8DF80700DEE763
:1027D800EC08002038B58C461446054668B1012837
:1027E80019D000200F4B40F22C4202FB0533D3F8DE
:1027F80028240244C3F8282438BD0A4840F22C4350
:1028080003FB0500642392B2D0F81C0408F0BEF85C
:1028180030B10020E6E711466046FEF7D3FFE1E756
:102828002046DFE7EC0800200EB410B5C3B004461C
:1028380045AB53F8042B01934FF4807102A80AF0BA
:10284800BBFF024602A92046FFF7C4FF43B0BDE81C
:10285800104003B07047000001280BD808B506D017
:10286800054B40F22C4202FB0033586808BDFEF7C6
:10287800ADFFFBE700207047EC080020F0B583B0FF
:1028880004460388012B07D000252388022B1DD07E
:10289800002D63D003B0F0BD436934490020984748
:1028A80005460028F1D000200DE0461C0301304AFF
:1028B800D758C0B2FFF7D0FF03463A4631462D48F5
:1028C800FFF748F930460128EFDDDEE763692A495A
:1028D800002098470028DBD0A368012098470028EB
:1028E8000BDDA3680120984702280FDCA3680120AC
:1028F8009847C4B2013CE4B200E00024FFF7AEF808
:10290800A04208D11D48FFF725F9C3E70124F5E7E0
:10291800FFF706F978B92046FFF70CFF0028F7D033
:102928002046FFF72BFF02468DF80700611C14486C
:10293800FFF710F9ECE7FFF7FBF88DF807007128AF
:10294800A8D001220DF107012046FFF743FF9DF8AB
:102958000720611C0B48FFF7FDF8DCE70A48FFF782
:10296800F9F802210948FFF7F5F893E7B02B0108B9
:10297800002D0108502C01086C2C0108AC2C010812
:10298800742C0108902C0108C02C0108CC2C0108DB
:1029980030B5D9B0054600245394549455945694B0
:1029A80057946C22214638A80AF014FFD8222146F1
:1029B80002A80AF00FFF2A68444B9A4201D059B086
:1029C80030BD01220023CDE9022302A805F0A8FAB0
:1029D800002868D13E4BD3F8A42042F48042C3F8C3
:1029E800A420D3F8A42002F480420092009AD3F8DD
:1029F8008C2042F00202C3F88C20D3F88C3003F00C
:102A080002030193019B4FF4C06353930223549331
:102A18000024559456930723579353A92D4803F040
:102A280069F821233893182339933A943B943C94BA
:102A38004FF400233D933E943F94012341934293E6
:102A4800439444944594499446944794224938A819
:102A580002F014FF50BB204A0021204802F019FF61
:102A680038BB1E4802F0A1FF30BB1D481D4B036058
:102A780000238363C363036443648123836402F094
:102A880067FEE0B91549164802F0D0FFD0B91448DE
:102A9800C5F88000C565102102F0D7FB00288ED04C
:102AA800FEF78AFC8BE7FEF787FC93E7FEF784FCCA
:102AB800D1E7FEF781FCD4E7FEF77EFCD5E7FEF709
:102AC8007BFCDFE7FEF778FCE1E700BF0038014058
:102AD800000C02460000024214380020FC37002097
:102AE800843700205000024002680B4B9A4200D005
:102AF800704710B50446094AD2F8A43023F480433D
:102B0800C2F8A4304FF4C061054803F001F9D4F8C5
:102B1800800002F0DDFA10BD00380140000C0246CA
:102B28000000024208B503490348FFF7B1FA012043
:102B380008BD00BFBD2C0008202D010838B5384B52
:102B480001221A7090420ED0022809D0032827D0FB
:102B580004283FD0324B00221A703248FFF796FC07
:102B68002F4B187838BD304D304C2946204608F098
:102B78009DFE2F49204608F0C7FE2E49204600F04A
:102B8800D3FB204608F016FF2B4B01221A702B4B63
:102B98001D602B48FFF77AFC2A48FFF777FCDFE730
:102BA800294D224C01222946204608F07FFE27495C
:102BB800204608F0A9FE204608F0FCFE1E4B032222
:102BC8001A701E4B1D601E48FFF760FC2048FFF777
:102BD8005DFCC5E71F4D154C01222946204608F02B
:102BE80065FE1D4B02221249204608F0ADFE1B4B24
:102BF80001221649204608F0A7FE0E49204600F09B
:102C080093FB204608F0D6FE0B4B01221A700B4BA3
:102C18001D600B48FFF73AFC1148FFF737FC9FE7A8
:102C2800B53C0020682D010898000020D438002009
:102C38000C00002044000020B43C0020D0380020C4
:102C4800242D0108382D010884010020F4010020FA
:102C5800482D01083401002004000020080000204D
:102C6800582D010808B5FEF7A1FD08BD08B50B4BA6
:102C7800D3F8C8326BB1094B93F89C32DBB2032B03
:102C880009D1064B5B680BB9002005E001F07CFE1A
:102C980002E0002000E0002008BD00BFD43800207A
:102CA800014B1878704700BFB43C002008B5FEF708
:102CB80091FD08BDF0B583B004460388012B0BD005
:102CC80000252388012B54D02388012B7AD0002D8E
:102CD80000F0A68003B0F0BD43695649002098472C
:102CE80005460028EDD00023ADF80630524B1B688E
:102CF800A3B11B680DF1060100209847437A017AB9
:102D080041EA0321C37A867A46EA03264B48FEF74E
:102D180021FF31464A48FEF71DFF21E000263146D3
:102D2800F4E7FFF7BDFF01464648FEF713FFFFF73C
:102D3800BDFF01464448FEF70DFFFFF797FF014628
:102D48004248FEF707FFFFF78DFF01464048FEF7B0
:102D580001FF04213F48FEF7FDFE6420FEF72AFC30
:102D6800FFF78AF90028DCD104213B48FEF7F2FE80
:102D7800A7E7636939490020984707460028A3D088
:102D8800FEF71CFC0646002504E01F213448FEF728
:102D980019FD0544FFF770F970B1FEF70FFC831BAE
:102DA800B3F57A7FF1D3FEF709FC0646A90A2D4848
:102DB800FFF76CFB0025E8E702212748FEF7CAFE6B
:102DC8003D4681E7636928490020984700283FF479
:102DD8007EAFFEF7F3FB074600260EE0FEF7EEFB9C
:102DE8000746B10A2148FFF751FB00260EE0FEF71F
:102DF800E5FC0134AC42FAD32E44FFF73DF950B15B
:102E0800FEF7DCFBC31BB3F57A7FE7D2FEF7D2FCF3
:102E180005460024EEE702210F48FEF79BFE59E71E
:102E28001348FEF797FE1348FEF794FE1248FEF784
:102E380091FE4FE7B02B0108D03800207C2D010807
:102E4800942D0108AC2D0108C02D0108D42D0108CE
:102E5800E82D0108FC2D0108042E01080C2E01089C
:102E6800202E0108102E0108402E0108442E0108CA
:102E7800542E0108602E0108682E010808B5024882
:102E880003F034FB08BD00BF08A7002038B5D0F810
:102E9800F83203F1B20200EB8202546894B1B633FF
:102EA80000EB83035B687BB194F80012FF290DD017
:102EB8009D6894F801322246A847FF2384F800321F
:102EC800002038BD0320FCE70020FAE70020F8E7DF
:102ED80038B5D0F8F832B23300EB83035D689DB1A2
:102EE800044601F09CFEC5F80C02D4F8F832B6335B
:102EF80004EB83035B68DB6805F50372D5F80412FD
:102F080020469847002038BD0320FCE738B5D0F8A4
:102F1800EC52D0F8F822B23200EB8202546884B343
:102F280001F00F0303EB830200EB820292694AB1BE
:102F380003EBC30C05EB8C056D6CB2FBF5FC05FBD4
:102F48001C2292B10023C4F81432D0F8F832B633F8
:102F580000EB83035B681D69ADB10B4604F5047291
:102F6800D4F80812A847002038BD03EB830300EB10
:102F7800830300249C612346224601F0AFFE2046CD
:102F8800F2E70320F0E70020EEE7F0B583B0D0F8D1
:102F9800F82202F1B20300EB83035F6800238DF887
:102FA8000730ADF80430002F7BD004460D46097871
:102FB80011F0600634D0202E6CD1EB882BB311F0C1
:102FC800800F07D16B7887F80032EA883F2A13D838
:102FD800D2B212E0B63200EB8202526896683A46E4
:102FE8006978B047EA88072A28BF07223946204669
:102FF80009F055FB002651E0402287F801223946A6
:10300800204609F061FB002648E0B63200EB820258
:1030180053689E6800232A466978B04700263DE039
:103028006F780B2F31D8DFE807F0063930303030B1
:1030380030303030162690F89C32DBB2032B04D0A7
:10304800294608F091FF032628E0022201A909F089
:1030580026FB3E4622E090F89C32DBB2032B04D0DC
:10306800294608F081FF032618E001220DF1070127
:1030780009F015FB12E090F89C32DBB2032B0DD05F
:10308800294608F071FF032608E0294608F06CFF7E
:10309800032603E0294608F067FF0326304603B0FD
:1030A800F0BD0326FAE70000F8B5044690F8F832B8
:1030B8000222802108F004FF2D4D287094F8F83280
:1030C80002220021204608F0FBFE2A4F387094F8AF
:1030D800F83203228021204608F0F2FE264E307096
:1030E8002978204601F0D4FD2B7803F00F0303EB79
:1030F800830304EB830300259D843978204601F07F
:10310800C7FD3B7803F00F0303EB830304EB830352
:10311800A3F864513178204601F0BAFD337803F002
:103128000F0303EB830204EB82029584D584D4F861
:10313800F83203F1B20204EB82025268B2B1B6333C
:1031480004EB83035B685B6820469847D4F8F83241
:10315800B23304EB8303586801F07CFDD4F8F832ED
:10316800B23304EB83035D60C4F8C8520020F8BD95
:103178000B0000200A00002009000020F8B50446D2
:103188004FF4077001F052FD002800F088800546D2
:103198004FF4077200210AF01DFBD4F8F83203F14E
:1031A800B20204EB82025560C4F8C852DBB20222B4
:1031B8008021204608F084FE584B187094F8F832A5
:1031C80002220021204608F07BFE554B187094F827
:1031D800F83203228021204608F072FE514B187005
:1031E800237C002B64D14D4E4FF4007302223178BA
:1031F800204601F042FD337803F00F0303EB83030D
:1032080004EB830301269E84454F4FF4007302228A
:103218003978204601F031FD3B7803F00F0303EBCA
:10322800830304EB8303A3F864613E4B1B7803F02C
:103238000F0303EB830304EB83031022DA84394E74
:10324800082303223178204601F017FD337803F074
:103258000F0303EB830304EB830301229A84002604
:10326800C5F80462D4F8F832B63304EB83035B681C
:103278001B6820469847C5F81462C5F81862D5F847
:103288000422002A47D0257C002D3CD14FF400733E
:1032980023490978204601F029FD2846F8BDD4F8CD
:1032A800F832B23304EB830300225A600225F4E7B4
:1032B8001A4E402302223178204601F0DEFC337892
:1032C80003F00F0303EB830304EB830301269E84BF
:1032D800134F402302223978204601F0CEFC3B7878
:1032E80003F00F0303EB830304EB8303A3F8646188
:1032F8000C4B1B7803F00F0303EB830304EB8303EE
:103308001022DA849BE7402305490978204601F01A
:10331800EDFC0025C1E70225BFE700BF0B00002038
:103328000A0000200900002071B138B504460D4696
:103338000022022100F0CBFDC4F8F802B63004EBFD
:1033480080046560002038BD03207047B23300EB6D
:10335800830043682BB1C3F80812C3F81022002079
:10336800704703207047D0F8F832B23300EB83007F
:1033780043681BB1C3F8041200207047032070474C
:1033880038B504460B4601F1B20200EB82025568DB
:103398000222802108F094FD0E4B1870C5B1D5F8B3
:1033A80014320BB1012038BD0123C5F8143200F0E6
:1033B8000F02D5F8103202EB820204EB820293610D
:1033C800D5F808220146204601F088FC0020EAE7EB
:1033D8000320E8E70B00002070B50446D0F8F83267
:1033E80003F1B20200EB82025668DBB2022200212E
:1033F80008F066FD0F4B1870D4F8F832B23304EBBE
:1034080083035B689BB10146257C45B94FF4007383
:10341800D6F80422204601F069FC284670BD4023F6
:10342800D6F80422204601F061FC0025F5E70325C3
:10343800F3E700BF0A0000200020014B1870704716
:10344800B83C0020212930D0222943D0202901D09E
:10345800002070471378517843EA0123917843EAB2
:103468000143D17843EA0163107920490871507902
:10347800487192798A711E4AA2FB0323DB0803EB89
:1034880083035B000B60B3F5966F06D0B3F5E13F9D
:1034980007D0184B00221A70DAE7174A0121117079
:1034A800F4E7144B01221A70D2E710490B6811484F
:1034B800007803431370C3F307205070C3F3074029
:1034C80090701B0ED3700B7913714B7953718B79F4
:1034D8009371BDE7538813F0010F03D0074B012206
:1034E8001A70B5E7054B00221A70B1E758000020A2
:1034F800CDCCCCCCB63C0020E95C0020B83C002008
:103508000020704770B506460D46144612681748E5
:10351800FDF7D3FD164B1B78012B0DD0134884689B
:10352800FDF722FE241A013CB4F5007F16D2114B98
:1035380001221A70002070BD0D4B00221A702368FA
:103548000C2BEBD9002300E001330C2BE6D80A4AF8
:103558001268D15CEA5C9142F6D0DFE72946304632
:10356800FFF701FF3046FFF737FFE3E7D04C0020B5
:10357800E95C0020B73C00206000002010B504463C
:1035880090F8F83200220549FFF7E0FE044920468A
:10359800FFF7E9FE0020034B187010BDE44C002033
:1035A800E8540020B83C002008B5084B00221A70E7
:1035B8004FF4006206490748FDF76BFD4FF40062BF
:1035C80005490648FDF765FD012008BDB83C002007
:1035D800BC440020D04C0020BC3C0020BC4C002047
:1035E80008B50248FDF7C0FD08BD00BFD04C00205B
:1035F80000B583B000238DF8073001220DF10701D3
:103608000348FDF784FD9DF8070003B05DF804FB4F
:10361800D04C0020014B1868704700BF58000020AC
:103628000C4BD3F8C83293B101220B4B187800B178
:103638001046084B93F89C32DBB2032B00D00020D5
:10364800044B5B6803B90020034B187070470022D5
:10365800EBE700BFD4380020B83C00202DE9F0414A
:1036680007460E46FFF7DCFF18B900252846BDE8D7
:10367800F081FDF7A3FF804600250CE00120FDF74F
:1036880099FFFFF7CDFF0028F0D0FDF797FFA0EBDB
:103698000803632BEAD8B542E8D20A488468FDF7E4
:1036A80063FD241A013C731B9C4200D31C46002C6A
:1036B800E4D0224639460348FDF7FFFC2744254459
:1036C800DFE700BFBC4C0020014B1878704700BFF3
:1036D800B63C002070B505461F4B1B78A3B91F48A0
:1036E800FDF742FD0446C0F3080313B950B1441E68
:1036F80008D0D5F8F832B23305EB83035B68D3F80A
:103708001432ABB1002070BD15488468FDF72CFD5C
:10371800241A013CB4F5007FE1D312492846FFF78B
:1037280022FE2846FFF758FE0B4B00221A70D6E7F8
:103738000D4E224631460948FDF7E9FC95F8F83266
:10374800224631462846FFF701FE95F8F81228462A
:10375800FFF716FED6E700BFB73C0020BC4C0020A0
:10376800D04C0020E8540020E44C002012230B80A9
:10377800004870478400002004230B8000487047ED
:1037880080000020002393421ED200B510E00CF107
:10379800370C01F813C000014FEA430C0CF1010C7F
:1037A8004FF0000E01F80CE00133DBB2934209D26E
:1037B8004FEA107CB0F1204FE9D20CF1300C01F83F
:1037C80013C0E8E75DF804FB7047000030B583B02C
:1037D800144BD3F80007D3F80447D3F80837C018B8
:1037E80001D103B030BD104D08222946FFF7CAFFAA
:1037F800042205F110012046FFF7C4FF0B4B01938B
:1038080000230CE05A1C510008336B4413F8043CA5
:10381800074800F812304B1C0021C1541346022BF4
:10382800F0D9DEE70000FA0B6600002055355F008E
:103838006400002008B51A230B80FFF7C7FF014872
:1038480008BD00BF6400002008B50A4628B905492C
:10385800054808F007FF034808BD0249024808F078
:1038680001FFF8E7EC5C0020802E010808B50A4645
:1038780028B90549054808F0F5FE034808BD02497E
:10388800024808F0EFFEF8E7EC5C0020902E0108F3
:1038980008B50A4628B90549054808F0E3FE034873
:1038A80008BD0249024808F0DDFEF8E7EC5C00209C
:1038B8009C2E010810B50A46034C2146034808F01F
:1038C800D1FE204610BD00BFEC5C0020B42E0108DC
:1038D800024B1B6803800248704700BF4460002009
:1038E80048600020024B1B6803800248704700BFF5
:1038F800145F0020185F0020024B1B6803800248F9
:10390800704700BF44600020486000200A230380FD
:1039180000487047B400002000218C460BE00CF1F1
:10392800010C0132C1EBC10300EBC303D3F8283308
:103938009342F4D80131D0F8FC328B4201D90022ED
:10394800F0E75FFA8CF07047092303700223437095
:1039580000238370C37003710123437104238371AF
:10396800C023C371322303720B6809330B6070479D
:1039780030B54FF0000E01E00EF1010ED0F8F8421C
:10398800C4EBC40C00EBCC0CDCF80C5375450BD91C
:10399800C4EBC40C0EEB4C0C0CF1C40C00EB8C0CFF
:1039A8009CF80350002DE7D1C4EBC4050EEB450588
:1039B800C43500F8251000EB85014A708B70AE46BF
:1039C8000123CB7030BD00002DE9F04115686C185B
:1039D800334E34604FF0090E05F801E00425657098
:1039E800D0F8F852C5EBC50500EBC50595F82C5382
:1039F800A5704FF0000C84F803C0D0F8F852C5EB5E
:103A0800C50500EBC50595F80C53257103266671AD
:103A18000125A571E57184F808C014687444146020
:103A280017687C18DFF88080C8F8004007F801E0C4
:103A3800212767701127A770E57084F804C06571A5
:103A48002225A5713F25E57184F808C014687444DF
:103A5800146015686C18134F3C6007276F540525D0
:103A68006570D0F8F852C5EBC50500EBC50090F8B5
:103A78001003A070E6704020207184F805C05BB97F
:103A88000123A3711368073313600B7901330B719A
:103A980013684B80BDE8F0810123A371F2E700BFF2
:103AA800105F0020085F00200C5F00202DE9F04720
:103AB80015686C189F4E346008266E540B25657087
:103AC800D0F8F852C5EBC50500EBC50595F82C53A1
:103AD800A5704FF0020C84F803C084F804C084F881
:103AE80005C00127A7710025E571146834441460E6
:103AF80016687418DFF844E2CEF800404FF0090E5B
:103B080006F801E04FF0040E84F801E0D0F8F862FE
:103B1800C6EBC60600EBC60696F82C63A670E570E1
:103B2800277184F805C084F806C0E7712572146807
:103B380009341460D2F8008008EB01047E4E34602A
:103B4800052608F801604FF0240884F80180A57064
:103B58004FF0100984F803902771146834441460F6
:103B6800146804EB0109DFF8DCA1CAF80090665478
:103B780089F8018089F8027089F80350D0F8F84272
:103B8800C4EBC40400EBC40494F82D4389F8044042
:103B980014683444146017687C18DFF8AC91C9F8CD
:103BA800004007F801E084F8018084F802C084F836
:103BB80003C014687444146014686718DFF88CC173
:103BC800CCF80070665487F801800624BC70D0F8E1
:103BD800F842C4EBC40400EBC40494F82C43FC7012
:103BE800D0F8F842C4EBC40400EBC40494F82D43A5
:103BF8003C7114683444146017687C18DFF840C1BD
:103C0800CCF800404FF0070C07F801C06670D0F8F8
:103C1800F862C6EBC60600EBC60696F81863A670EF
:103C28000326E6700826267165711D46002B77D19C
:103C38001023A371136807331360146863183F4E89
:103C480033600926665404245C70D0F8F842C4EB4B
:103C5800C40400EBC40494F82D439C700024DC7069
:103C680002261E710A265E719C71DC711C72136833
:103C7800093313604DB9D0F8F832C3EBC30300EB36
:103C8800C3034FF40074C3F83443146863182C4E0C
:103C980033600726665405245C70D0F8F842C4EBFC
:103CA800C40400EBC40494F810439C700224DC7034
:103CB800D0F8F842C4EBC40400EBC404B4F83443AD
:103CC8009C8085BB00249C711368073313601468BB
:103CD80063181B4E33600726665405245C70D0F8C1
:103CE800F842C4EBC40400EBC40494F814439C7079
:103CF8000224DC70D0F8F842C4EBC40400EBC40022
:103D0800B0F8340398808DB9002098711368073390
:103D180013600B7902330B7113684B80BDE8F08791
:103D28001023A37186E700249C71CDE700209871C9
:103D3800ECE700BF045F0020FC5E0020005F00206D
:103D4800EC5E0020F85E0020F45E0020F05E0020AB
:103D58002DE9F0470446D0F8F83273B1D4F8F85298
:103D6800C5EBC50304EBC30393F80033012B0FD055
:103D7800022B37D00020BDE8F0874049404B186837
:103D8800FFF7E2FD3F49404B1868FFF7DDFDE5E727
:103D9800C5EBC50604EBC6064FF04009C6F83493D8
:103DA8002046FFF7B9FD4FF00108C6F8288386F8CA
:103DB8002C03C6F80C83D6F824134B460322097843
:103DC8002046FFF7D5FD43462C4A2D490968204671
:103DD800FFF7FAFD00232B4A2B4909682046FFF715
:103DE800F3FDC7E7C5EBC50604EBC6064FF0400A6E
:103DF800C6F834A32046FFF78FFD4FF00208C6F837
:103E0800288386F82C03013086F82D030327C6F88B
:103E18000C73D6F824135346424609782046FFF718
:103E2800A7FDD4F8F832C3EBC30204EBC202D2F800
:103E38002413D2F83433424649782046FFF798FDD8
:103E4800D4F8F832C3EBC30304EBC303D3F8241349
:103E580008233A4689782046FFF78AFD0123074A56
:103E6800074909682046FFF721FE0023054A06494D
:103E780009682046FFF71AFE7CE700BF446000206F
:103E8800C4000020145F0020C0000020D0F8F832E1
:103E9800032B1AD810B5C3EBC30C00EBCC0CDCF821
:103EA80008430CB1002010BD03F1AE0440F8241003
:103EB800CCF804330124CCF808438CF80023FFF72E
:103EC80047FF0028EFD00320EDE70020704700B53A
:103ED80084464FF0000E704600E00130DCF8FC32FA
:103EE800834214D9C0EBC0030CEBC30393F800332F
:103EF8008B42F2D1C0EBC0030CEBC303D3F80833F9
:103F0800012BEAD1964503D00EF1010EE5E7FF201B
:103F18005DF804FB12230B80004870472001002045
:103F280004230B80004870471C01002000239342A3
:103F38001ED200B510E00CF1370C01F813C00001D7
:103F48004FEA430C0CF1010C4FF0000E01F80CE0A5
:103F58000133DBB2934209D24FEA107CB0F1204F13
:103F6800E9D20CF1300C01F813C0E8E75DF804FB66
:103F78007047000030B583B0144BD3F80007D3F86E
:103F88000447D3F80837C01801D103B030BD104D2D
:103F980008222946FFF7CAFF042205F1100120462E
:103FA800FFF7C4FF0B4B019300230CE05A1C510090
:103FB80008336B4413F8043C074800F812304B1CD4
:103FC8000021C1541346022BF0D9DEE70000FA0B9A
:103FD8000201002055355F000001002008B51A23B2
:103FE8000B80FFF7C7FF014808BD00BF0001002094
:103FF80008B50A4628B90549054808F033FB0348BF
:1040080008BD0249024808F02DFBF8E7746100205A
:10401800C82E010808B50A4628B90549054808F018
:1040280021FB034808BD0249024808F01BFBF8E7DA
:1040380074610020D82E010808B50A4628B9054938
:10404800054808F00FFB034808BD0249034808F07B
:1040580009FBF8E774610020E82E0108FC2E01082E
:1040680010B50A46034C2146034808F0FBFA2046DF
:1040780010BD00BF74610020102F010812230B80AF
:10408800004870477001002004230B8000487047E7
:104098006C010020002393421ED200B510E00CF101
:1040A800370C01F813C000014FEA430C0CF1010C66
:1040B8004FF0000E01F80CE00133DBB2934209D255
:1040C8004FEA107CB0F1204FE9D20CF1300C01F826
:1040D80013C0E8E75DF804FB7047000030B583B013
:1040E800144BD3F80007D3F80447D3F80837C0189F
:1040F80001D103B030BD104D08222946FFF7CAFF91
:10410800042205F110012046FFF7C4FF0B4B019371
:1041180000230CE05A1C510008336B4413F8043C8C
:10412800074800F812304B1C0021C1541346022BDB
:10413800F0D9DEE70000FA0B5201002055355F0088
:104148005001002008B51A230B80FFF7C7FF01486C
:1041580008BD00BF5001002008B50A4628B9054926
:10416800054808F07FFA034808BD0249024808F0EC
:1041780079FAF8E774630020C82E010808B50A46E2
:1041880028B90549054808F06DFA034808BD0249F1
:10419800024808F067FAF8E774630020D82E01088F
:1041A80008B50A4628B90549054808F05BFA0348E6
:1041B80008BD0249034808F055FAF8E7746300207F
:1041C800182F01082C2F010810B50A46034C214668
:1041D800034808F047FA204610BD00BF746300206A
:1041E800102F010838B5FEF7C3F9114B1860114BB1
:1041F8001B68B3F5FA5F13D300230E4A13600E4809
:1042080001680E4A11600E490C680E4A14600E4A85
:104218000E4C1568256003604FF6FF700860136048
:10422800044A136801331360FDF7B8FF002038BD56
:1042380050660020806500206C66002068660020BB
:10424800A00100205C66002054660020586600200B
:1042580010B51D48FEF71AF91C4C21781C48FEF7CA
:1042680015F961781B48FEF711F9E1881A48FEF73D
:104278000DF9002406E0194B1A5D21461848FEF78F
:1042880005F90134114BDB88A342F4DC154B1B788C
:104298004BB1154B1C88072C07D9124B00221A70FA
:1042A800124B01221A70002010BDFEF761F9104B65
:1042B80043F824000C4A13880E49022041F82300D1
:1042C80001331380E9E700BF402F0108F86600209A
:1042D8005C2F0108782F0108942F0108B866002088
:1042E8009C2F0108B2660020B0660020B36600204B
:1042F800906600207066002038B5044690F8F832C1
:104308000322802107F0DCFD0146104D287020466D
:1043180000F0BEFC2B7803F00F0303EB830204EBE1
:10432800820200219184D184D4F8F832B23304EBAC
:104338008303586840B100F08DFCD4F8F832B233EA
:1043480004EB830400236360002038BDA40100202F
:1043580038B50446102000F069FC90B30546D4F83F
:10436800F83203F1B20204EB82025060C4F8C802CA
:10437800DBB203228021204607F0A2FD0146204B34
:104388001870237C33BB00F00F0303EB830304EBAB
:1043980083030122DA8440230322204600F06DFCC7
:1043A800174B1B7803F00F0303EB830304EB830421
:1043B8000123A38400232B73124B1B789BB100208D
:1043C80038BDD4F8F832B23304EB830300225A60C4
:1043D8000220F5E700F00F0303EB830304EB8303EC
:1043E8000122DA84D7E7074B01221A700648FEF744
:1043F8004DF806490648FDF74BFE0020E0E700BFF0
:10440800A401002074650020AC2F01081D44000899
:10441800C82F01082DE9F04182B005460388012B19
:1044280010D000262B882BB16B694B490020984788
:10443800074668B92B88012B45D0002E7FD002B0E3
:10444800BDE8F08143694549002098470646E9E7F9
:10445800C8220021424809F0BDF9FDF7AFF804462B
:10446800FDF70AFEA8B1FDF7A9F8031BB3F57A7F9B
:10447800F6D3FDF7A3F804463A4B1B6800933A4B72
:104488001B683A4A12683A4909683A48FDF762FBDC
:10449800E6E72B88022B01D03E46CBE76B6936490D
:1044A80001209847064660B93E46C3E72C4B33F8CF
:1044B800142021463148FDF74DFB0134632CF5DD0E
:1044C800B8E70024FAE76B692D4900209847804631
:1044D8000028B2D00346002634461F466FB3294B46
:1044E80001221A70FDF76AF80546FDF767F8401BC8
:1044F800B0F57A7FF2D2244B1B784BB9FDF710FB4D
:104508000028F2D0FDF714FB00237128EDD1E4E771
:104518000134A4B21D4B1B88013B1D4951F82320CF
:104528000B68D21A1644B6FBF4F321461948FDF776
:1045380011FB154B00221A70E0E746467DE7164846
:10454800FDF708FB1548FDF705FB1548FDF702FBCD
:104558001448FDF7FFFA72E7D02F0108B02B0108C5
:10456800846500204C6600205C66002058660020A8
:1045780068660020D82F01080430010808300108B7
:1045880010300108B4660020B3660020B066002031
:1045980090660020183001083030010840300108CA
:1045A80050300108643001082DE9F041044603F158
:1045B800B20004EB800047681FB30D46164603227D
:1045C8008021204607F07CFC0F4B187094F89C3231
:1045D800DBB2032B04D04FF000084046BDE8F08161
:1045E80097F80C80B8F1000F02D04FF00008F4E7FC
:1045F80001233B7333462A460146204600F06EFBF2
:10460800EBE74FF00308E8E7A401002070B5044683
:10461800D0F8F832B23300EB83035B6800251D73D2
:10462800FDF7BCFD344B1D605D602846FDF736F88C
:1046380010B1314B04229A700120FDF72FF810B108
:104648002D4B0522DA702D4B1B78002B3BD194F8AB
:10465800F832082228492046FFF7A6FF284A13689F
:1046680001331360FDF784FF264B1B68C01A264BE5
:104678001860FDF77DFF254B1B68C31A244A136099
:10468800244A1268934201D2224A1360224A1268CD
:10469800934201D9204A13601C4A10601F4AA2FBAA
:1046A8000312D208B3F57A7F00D363221C4B33F888
:1046B80012304FF6FF718B4203D00133184921F8AD
:1046C8001230002070BD0C4B53229A70154E0025F5
:1046D8003580FDF74DFF144B18603388134A42F8B4
:1046E800235001333380124B01221A70114B1D7075
:1046F800024B1D70ABE700BF78650020B466002050
:104708006C660020506600204C660020646600201D
:1047180060660020A001002054660020CDCCCCCCDF
:1047280084650020B0660020906600207066002036
:10473800B2660020B36600202DE9F04184B00C4633
:10474800D0F8F81201F1B20300EB83035F6800238D
:10475800ADF80E30002F00F0EF8006467748FDF7E1
:1047680095FE21787648FDF791FE61787548FDF74A
:104778008DFE257815F060055FD0202D40F0D380A0
:104788006378023B092B4ED8DFE803F0240E4D4D29
:104798004D4D4D301A05E28861886B48FDF776FE6D
:1047A800A3783B600025C3E0E28861886748FDF78D
:1047B8006DFE01223946304607F071FF0025B7E04B
:1047C800E28861886248FDF761FE63881B0A7B60A6
:1047D8000025ADE0E28861885E48FDF757FE0122BA
:1047E800391D304607F05BFF0025A1E0E2886188AB
:1047F8005948FDF74BFE594B01AD93E8030085E896
:10480800030096F8F832082229463046FFF7CCFE16
:10481800534B2068616803C3E2885249304607F069
:1048280053FF002584E061884F48FDF72FFE21469D
:10483800304607F099FB03257AE094F80180B8F137
:104848000B0F66D8DFE808F00660656565651965D1
:104858006565384E96F89C32DBB2032B05D02146AD
:10486800304607F081FB032562E002220DF10E01BC
:10487800304607F014FF45465AE061883B48FDF78B
:1048880005FE63881B0A222B0AD0212B0ED1E28851
:10489800092A28BF09223649304607F000FF47E0B9
:1048A800E2883F2A28BF3F223249F5E721463046B1
:1048B80007F05AFB03253BE061882F48FDF7E6FD2A
:1048C80096F89C32DBB2032B05D02146304607F020
:1048D8004BFB03252CE0012207F10801304607F0C5
:1048E800DEFE25E061882548FDF7D0FD96F89C326C
:1048F800DBB2032B02D1A378BB6019E02146304616
:1049080007F032FB032513E061881D48FDF7BEFD63
:104918000EE061881B48FDF7B9FD2146304607F0D7
:1049280023FB032504E02146304607F01DFB032541
:10493800284604B0BDE8F0810325F9E77430010882
:104948005C2F0108782F010884300108B030010875
:10495800DC300108043101082C310108B0290108B4
:10496800F8660020B8660020583101086C3101084B
:10497800E8010020A801002090310108B4310108A5
:10498800D8310108FC310108014B1878704700BF85
:1049980004A7002010B5BAB00446D822002104A804
:1049A80008F018FF2268344B9A4201D03AB010BD83
:1049B800324BD3F8A82042F00202C3F8A820D3F85B
:1049C800A83003F002030093009B00220823CDE9DE
:1049D80004230023399304A803F0A2FA002843D142
:1049E8000C2000F0D9FA254BD3F88C2042F48042F1
:1049F800C3F88C20D3F88C2002F480420192019AEB
:104A0800D3F88C2042F40042C3F88C20D3F88C20D1
:104A180002F400420292029AD3F8943013F0040F81
:104A280025D1164CD4F8943043F00403C4F89430DC
:104A3800D4F8943003F004030393039B02F026F99F
:104A480002F034F9D4F8943023F00403C4F8943015
:104A5800012000F097FA00220521492000F0FAFA17
:104A6800492000F007FBA1E7FCF7A6FCB8E702F035
:104A78000DF902F01BF9EBE700000442000C0246B6
:104A880008B500F2C441D0F8080506F0E0FF08BDFB
:104A980008B501EBC10300EB8303D3F88822D0F8F3
:104AA800080507F037F908BD08B501EBC10300EBAD
:104AB80083039A6CD0F8080507F093F908BD08B588
:104AC800D0F8080507F050F808BD10B5044603698A
:104AD8003BB1022B01D1012104E0FCF76DFC01215F
:104AE80000E00021D4F8080507F01FF8D4F80805FD
:104AF80006F0D9FF10BD000010B50446D0F808052F
:104B080007F016F82268D2F8003E43F00103C2F815
:104B1800003E236A23B1044A136943F00603136174
:104B2800024B00221A7010BD00ED00E004A700201F
:104B380008B5D0F8080507F00AF808BD08B5D0F898
:104B4800080507F04DF808BD08B5D0F8080507F0C6
:104B580030F808BD08B5D0F8080507F058F808BDC2
:104B680008B5D0F8080507F054F808BD0378012BFC
:104B780001D00020704710B51B4BC3F80805C0F8DA
:104B8800EC321A4A1A6009225A6000221A61DA6065
:104B9800032199610121D9611A625A62DA621A63A2
:104BA8005A63184601F0CEF9D8B90F4C4FF400718A
:104BB800204601F0C5FF80220021204601F09AFF1F
:104BC80080220121204601F095FF80220221204603
:104BD80001F090FF80220321204601F08BFF002086
:104BE80010BDFCF7E9FBE0E708A70020000004423D
:104BF800D0F8EC3211F0800F08D101F07F0101EB01
:104C0800C10103EB810393F87E02704701F07F0135
:104C180001EBC10103EB810393F83E00704708B52F
:104C2800D0F8EC0201F09BFB08BD0000074B1B68A5
:104C3800B3F5805F08D803EB90000130034A106099
:104C4800034800EB830070470020704700A700204E
:104C5800006700207047032805D8DFE800F0050446
:104C68000205012070470320704708B5D0F8EC0210
:104C780001F0FFF9FFF7EFFF08BD08B594461A46A3
:104C88006346D0F8EC0201F0C7FAFFF7E4FF08BD6D
:104C980008B5D0F8EC0201F004FBFFF7DCFF08BD13
:104CA80008B5D0F8EC0201F088FBFFF7D4FF08BD87
:104CB80008B5D0F8EC0201F0C4FBFFF7CCFF08BD43
:104CC80008B5D0F8EC0201F093FAFFF7C4FF024BE5
:104CD80001221A7008BD00BF04A7002008B5D0F84B
:104CE800EC0201F045FBFFF7B6FF08BD08B5D0F8A8
:104CF800EC0201F00FFBFFF7AEFF08BD00B583B073
:104D0800094BD3F8942042F00402C3F89420D3F856
:104D1800943003F004030193019B01F0B7FF01F005
:104D2800BDFF03B05DF804FB000C024682B00368C7
:104D3800B3F1804F04D0104A93420FD002B07047AD
:104D48000E4BD3F89C2042F00102C3F89C20D3F804
:104D58009C3003F001030093009BEFE7074BD3F867
:104D6800A42042F48022C3F8A420D3F8A43003F48A
:104D780080230193019BE1E700480140000C0246B3
:104D8800FEE7FEE7FEE7FEE7FEE77047704770477D
:104D980008B500F0D1F808BD0120704708B508F043
:104DA800ABFD162303604FF0FF3008BD08B54FF088
:104DB800FF31FFF7F3FFFEE770B50C4616460025F6
:104DC80006E0AFF30080214601F8010B01350C46DF
:104DD800B542F6DB304670BD70B50C461646002568
:104DE80004E014F8010BAFF300800135B542F8DB9D
:104DF800304670BD4FF0FF3070474FF400534B60A2
:104E080000207047012070470020704710B5034606
:104E18000C4A0D490D48006840B10C48006803442D
:104E2800521A934206D8094A136010BD0748084C25
:104E38000460F2E708F060FD0C2303604FF0FF30D8
:104E4800F3E700BF000027200004000014AC002096
:104E580030AF00200E48D0F8883043F47003C0F813
:104E680088300C4B01221A600022DA611A625A62F9
:104E7800196821F0A85121F4102119609A62196863
:104E880021F4802119601A654FF000638360704730
:104E980000ED00E0000C0246104B1B780BB9012016
:104EA800704710B504464FF47A70B0FBF3F30C4A20
:104EB8001068B0FBF3F000F0E1F868B90F2C01D9E5
:104EC80001200AE0002221464FF0FF3000F0C2F82E
:104ED800044B1C60002000E0012010BD30020020BF
:104EE8002C0200203402002010B50F4A136843F446
:104EF80080731360032000F09BF801F055FF0B4B03
:104F08001B6A03F00F030A4AD35CD840094B1860A8
:104F18000F20FFF7C1FF10B10124204610BD044641
:104F2800FFF7ECFEF9E700BF00200240000C024644
:104F3800583201082C020020034B1B78034A1168E1
:104F48000B441360704700BF3002002018AC0020EB
:104F5800014B1868704700BF18AC002038B50446EC
:104F6800FFF7F6FF0546B4F1FF3F02D0044B1B786C
:104F78001C44FFF7EDFF401BA042FAD338BD00BF29
:104F880030020020034A536F23F0010303435367A1
:104F9800704700BF00040046034A536F23F03C03E8
:104FA80003435367704700BF00040046002807DB2F
:104FB80000F01F02400901239340024A42F82030C2
:104FC800704700BF00E100E0002808DB0901C9B212
:104FD80000F1604000F5614080F80013704700F070
:104FE8000F000901C9B2014B1954704714ED00E0D4
:104FF80000B500F00700C0F1070CBCF1040F28BF92
:105008004FF0040C031D062B0FD9C31E4FF0FF3EB3
:105018000EFA0CF021EA000199400EFA03FE22EA8A
:105028000E0241EA02005DF804FB0023EEE70000EF
:10503800074AD36823F4E0631B041B0C000200F446
:10504800E060034343F0BF6343F40033D360704729
:1050580000ED00E010B50446054BD868C0F3022007
:10506800FFF7C6FF01462046FFF7AEFF10BD00BFA1
:1050780000ED00E008B5FFF799FF08BD0138B0F171
:10508800807F0BD24FF0E0235861054AF02182F867
:1050980023100020986107221A6170470120704789
:1050A80000ED00E030B40568AC6C4FEA144C4FEAF0
:1050B8000C4C9BB24CEA0303AB6403684FF4FE4408
:1050C800DC600368D96403681A6530BC7047000067
:1050D80070B50446FFF73CFF002C75D005462368E1
:1050E80023F47F6626F00F065A6942F006025A61D9
:1050F80023685A6912F0010F0BD0FFF729FF431BF1
:10510800052BF5D91023A365032384F85430012017
:1051180059E000221A6023685A6123681A642368D8
:105128005A6423689A642368DA6423681A652368D2
:10513800DA672368254A93421ED002F180529342CF
:105148001AD002F170428032934215D002F1805297
:10515800934211D002F17042803293420CD002F196
:105168008052934208D002F170428032934203D0B9
:1051780002F18052934203D100225A6523689A654E
:1051880072682368C3F30B03503BC3F3C4130121B4
:1051980001FA03F322EA0303736023684FF4FE4223
:1051A800DA60002323666366A366E36623676367A2
:1051B800E36D0BB10023E36500202065A06584F84A
:1051C800540084F84C0070BD0120FCE750060240F2
:1051D800002836D010B5044690F84C00012832D08B
:1051E800012084F84C0094F85400C0B2012806D07D
:1051F8004023A365002384F84C30012010BD022011
:1052080084F854000020A0652046FFF74BFF226871
:10521800536943F4BA435361636E23B122685369F7
:1052280043F400735361236F23B12268536943F435
:10523800005353612268536943F00103536100200E
:10524800DCE7012070470220D8E7E8B1036823F4BF
:105258007F6222F00F02C3F30B03503BC3F3C41366
:105268000120984011F0100F10D001F01101112900
:1052780005D0536823EA0003536000207047536841
:105288000343536000207047012070470020704797
:10529800816BC36B19430368674A934200F08D80A2
:1052A80002F18052934200F0888002F1704280320D
:1052B800934200F0828002F1805293427DD002F145
:1052C80070428032934278D002F18052934274D077
:1052D80002F17042803293426FD002F180529342C1
:1052E8006BD002F170428032934266D002F1805254
:1052F800934262D002F17042803293425DD002F153
:105308008052934259D002F170428032934254D075
:1053180002F18052934250D002F17042803293429F
:105328004BD002F18052934247D002F17042803252
:10533800934242D002F1805293423ED002F1704231
:105348008032934239D002F18052934235D002F133
:1053580070428032934230D002F1805293422CD076
:1053680002F170428032934227D002F18052934278
:1053780023D002F17042803293421ED002F1805253
:1053880093421AD002F170428032934215D002F152
:105398008052934211D002F17042803293420CD075
:1053A80002F18052934208D002F170428032934257
:1053B80003D002F18052934201D1026C11435A6921
:1053C80022F443020A435A61026800231364026804
:1053D800416C5164026893640268D364026813657F
:1053E8000368164A93421ED002F1805293421AD0A3
:1053F80002F170428032934215D002F180529342FA
:1054080011D002F17042803293420CD002F18052E6
:10541800934208D002F170428032934203D002F1E5
:105428008052934203D100225A6503689A65036843
:105438000022DA67704700BF500002405006024061
:1054480010B44369C2691343C26B1343026913431F
:10545800826913430B60026812F0200F16D0C26AEB
:10546800846B2243846A04F1FF3C4FEA0C5C0CF025
:105478007C7C42EA0C02446A04F1FF3C4FEA0C1CB3
:105488000CF47C7C42EA0C0213430B60036B426809
:1054980022F4C0729205920D13434B60C268B2F5B4
:1054A800806F64D0B2F5007F69D0436C4BB1026C59
:1054B8001343826C120402F47C1213434A681343A8
:1054C8004B60B0F868308B60026812F0020F20D091
:1054D800C26C02F1FF3C434A02EA0C4213438B6060
:1054E800026D002A4FDB8B60436D002B4FDB8B680E
:1054F80023F000538B60836D002B4DDB8B6823F00A
:1055080080438B60C36D002B4BDB8B6823F000431B
:105518008B60036ECB60436E0B61036813F0020F60
:105528001AD0036D002B41DBC3F30C034B61436DB1
:10553800002B40DB4A692C4C04EA03431A434A61B6
:10554800836D002B3FDB9BB28B61C36D002B3EDB71
:105558008A6942EA03428A6103680B6213F0020F08
:105568003BD043F4E0630B625DF8044B704702687C
:1055780012F0200F99D043F480634B6095E743F411
:1055880000734B6091E743F080538B60ACE78B6806
:1055980043F000538B60AEE78B6843F080438B6029
:1055A800B0E78B6843F000438B60B2E75B42C3F31C
:1055B8000C034B61BBE75B424A690B4C04EA0343AB
:1055C8001A434A61BCE75B429BB28B61BDE75B4211
:1055D8008A6942EA03428A61BEE743F4A0630B6228
:1055E800C2E700BF0000FF070000FF1F844640EA33
:1055F8000103134330B183EA0C03B3F5803F0AD2A9
:105608000020704709B18C46F5E70AB19446F2E7E5
:105618004FF0000CEFE70120704768B190F8203098
:1056280019B191F82010994210D18AB192F820202E
:105638009A420FD10020704711B191F82030F0E75D
:1056480012B192F82030EBE70023E9E70220704717
:105658000020704703207047036A13F0020F06D03A
:1056680009B1064B0B6042B107231360704709B1BB
:10567800034B0B600AB1052313607047000001FE5D
:10568800000001F830B5844615680C46E1B14FF0CA
:10569800000E7146734627E0BCF8020001EB00409B
:1056A80050F825008E464FF6FC7101400133DCF8B6
:1056B800080098422AD9002BEED1DCF8001021F01E
:1056C80003010904090CF1E74FF0000E7146734617
:1056D800EDE7BCF8020001EB004050F825008E46CB
:1056E8004FF6FC7101400133DCF8080098420DD9EF
:1056F8004FF6FC702040884208D0002BE9D1DCF836
:10570800001021F003010904090CECE72CB124F086
:1057180003042404240C8C4218D19360BCF8023092
:105728004EEA03435360BCF8023041EA0341D160BA
:1057380051F8250058B120F003000004000CBCF813
:10574800023040EA03401061002000E0012030BD33
:1057580038B50446FFF7FCFB3CB305462268002336
:1057680084F84C30022384F85430536943F006031C
:10577800536123685B6913F0010F0BD0FFF7E8FB57
:10578800431B052BF5D91023A365032384F8543054
:10579800012009E02046FFF77BFDA36C236500206C
:1057A800A065012384F8543038BD0120FCE70028A7
:1057B8005ED010B582B00446416F00295AD090F8E7
:1057C8005430DBB20268526902F48032012B03D0F4
:1057D800022B46D1002A44D094F85430DBB2012B76
:1057E80007D02268536943F001035361002002B0D7
:1057F80010BD94F84C30012B3ED0012384F84C3076
:10580800022384F854300B730023A365626F13617D
:105818002268536943F4BA435361636E23B1226823
:10582800536943F400735361236F23B122685369AA
:1058380043F400535361636F002201A91868FFF70E
:105848000BFF636F22685B881B041360636F1B6820
:1058580023F003031B041B0C226801990B43D36735
:10586800BFE74023A365002384F84C300120BEE73E
:10587800012070470120BAE70220B8E728B108B52F
:1058880029B1FFF7DDFD002008BD01207047012088
:10589800FAE7002800F08580F0B589B00D46144677
:1058A8000646002A7FD04369012B0ED00768384688
:1058B800FFF79CFE68B9224629463846FFF7ADFE39
:1058C80060B104233361012006E004230361012051
:1058D80002E005233361012009B0F0BD02233373D0
:1058E8000023336106AA07A92046FFF7B5FE3368EF
:1058F800DBB165B3069B019301AA29463046FFF741
:10590800C1FE002849D1B368039A9A4231D0069B58
:1059180055F8232044F8232024F003042404240CFD
:10592800079A144345F823401BE065B1356024F01D
:1059380003042404240C079B1C43069B45F82340BE
:105948000223B36010E034600123B3600CE023F05D
:1059580003031B041B0C079A1343069A44F82230CE
:105968003460B3680133B3600020306101233373BE
:10597800B2E7736843B123F003031B041B0C079AB7
:105988001343069A44F822304FF6FC732340079AD3
:105998001343069A45F82230E3E7062333610120D2
:1059A8009AE701207047012096E7002839D030B5E2
:1059B80089B00446006840B1636853B1984232D058
:1059C80004232361012009B030BD02232361012093
:1059D800F9E76369012B20D0022323730025256191
:1059E80006AA07A9FFF738FE069B019301AA2946D4
:1059F8002046FFF747FE236823F003031B041B0C14
:105A0800079A1343049A069942F821302368636081
:105A18002561012323732846D5E704232361012048
:105A2800D1E7012070470020CDE700008446002818
:105A38005AD000295AD090F85430DAB290F854303D
:105A4800DBB2022B37D0052A35D00B7BDBB2022B19
:105A580039D00368264A934223D002F180529342F8
:105A68001FD002F17042803293421AD002F1805264
:105A7800934216D002F170428032934211D002F163
:105A8800805293420DD002F170428032934208D086
:105A980002F18052934204D00B681B6A13F0020F84
:105AA80014D1DCF85030812B14D04B68A3B10423F7
:105AB8000B61012070474023CCF8583000238CF844
:105AC8004C300120704701200861704703230B61A7
