:020000040800F2
:1000000000002720491000088D5400088F54000874
:100010009154000893540008955400089910000862
:1000200000000000000000000000000097540008DD
:1000300099540008000000009B5400089D540008DB
:1000400099100008991000089910000899100008EC
:1000500099100008991000089910000899100008DC
:100060009910000899100008991000084917000815
:100070005717000865170008731700088117000854
:100080008F1700089D170008AB170008B917000864
:10009000C9170008D9170008E9170008F917000860
:1000A00009180008191800082918000899100008F4
:1000B000991000089910000899100008991000087C
:1000C000991000089910000899100008991000086C
:1000D000991000089910000899100008991000085C
:1000E000991000089910000899100008991000084C
:1000F000991000089910000899100008991000083C
:10010000991000089910000899100008991000082B
:10011000991000089910000899100008991000081B
:10012000991000089910000899100008991000080B
:1001300099100008991000089910000899100008FB
:1001400099100008991000089910000899100008EB
:1001500099100008991000089910000899100008DB
:10016000991000082D300008991000089910000817
:1001700099100008991000089910000899100008BB
:1001800099100008991000089910000899100008AB
:10019000991000089910000899100008991000089B
:1001A000991000089910000899100008991000088B
:1001B000991000089910000899100008991000087B
:1001C000991000089910000899100008991000086B
:1001D000991000089910000899100008991000085B
:1001E000991000089910000899100008991000084B
:1001F000991000089910000899100008991000083B
:10020000991000089910000899100008991000082A
:10021000991000089910000899100008991000081A
:10022000991000089910000899100008991000080A
:1002300099100008991000089910000899100008FA
:10024000991000089910000899100008000000009B
:08025000991000089910000844
:1002580010B5054C237833B9044B13B10448AFF3F8
:1002680000800123237010BD6C11002000000000E5
:100278009C30010808B5034B1BB103490348AFF391
:10028800008008BD00000000701100209C300108AB
:1002980010F8012B11F8013B012A28BF9A42F7D028
:1002A800D01A7047034613F8012B002AFBD1181AFD
:1002B8000138704781F0004102E000BF83F000433D
:1002C80030B54FEA41044FEA430594EA050F08BFE9
:1002D80090EA020F1FBF54EA000C55EA020C7FEAAD
:1002E800645C7FEA655C00F0E2804FEA5454D4EB2A
:1002F8005555B8BF6D420CDD2C4480EA020281EAF4
:10030800030382EA000083EA010180EA020281EA2B
:100318000303362D88BF30BD11F0004F4FEA01317D
:100328004FF4801C4CEA113102D0404261EB41018C
:1003380013F0004F4FEA03334CEA133302D0524212
:1003480063EB430394EA050F00F0A780A4F10104CE
:10035800D5F1200E0DDB02FA0EFC22FA05F2801808
:1003680041F1000103FA0EF2801843FA05F35941EE
:100378000EE0A5F120050EF1200E012A03FA0EFC6D
:1003880028BF4CF0020C43FA05F3C01851EBE37197
:1003980001F0004507D54FF0000EDCF1000C7EEBB4
:1003A80000006EEB0101B1F5801F1BD3B1F5001FF2
:1003B8000CD349085FEA30004FEA3C0C04F1010411
:1003C8004FEA445212F5800F80F09A80BCF1004F3A
:1003D80008BF5FEA500C50F1000041EB045141EABC
:1003E800050130BD5FEA4C0C404141EB0101013C85
:1003F80028BFB1F5801FE9D291F0000F04BF014674
:100408000020B1FA81F308BF2033A3F10B03B3F145
:1004180020020CDA0C3208DD02F1140CC2F10C02D5
:1004280001FA0CF021FA02F10CE002F11402D8BF33
:10043800C2F1200C01FA02F120FA0CFCDCBF41EAFF
:100448000C019040E41AA2BF01EB0451294330BDCE
:100458006FEA04041F3C1CDA0C340EDC04F11404AB
:10046800C4F1200220FA04F001FA02F340EA030082
:1004780021FA04F345EA030130BDC4F10C04C4F1C8
:10048800200220FA02F001FA04F340EA03002946A8
:1004980030BD21FA04F0294630BD94F0000F83F4F2
:1004A800801306BF81F480110134013D4EE77FEAD5
:1004B800645C18BF7FEA655C29D094EA050F08BF21
:1004C80090EA020F05D054EA000C04BF1946104602
:1004D80030BD91EA030F1EBF0021002030BD5FEA46
:1004E800545C05D14000494128BF41F0004130BD6E
:1004F80014F580043CBF01F5801130BD01F00045C2
:1005080045F0FE4141F470014FF0000030BD7FEA34
:10051800645C1ABF194610467FEA655C1CBF0B462F
:10052800024650EA013406BF52EA033591EA030F46
:1005380041F4002130BD00BF90F0000F04BF00213E
:10054800704730B54FF4806404F132044FF0000571
:100558004FF0000150E700BF90F0000F04BF0021EA
:10056800704730B54FF4806404F1320410F0004550
:1005780048BF40424FF000013EE700BF42004FEA4B
:10058800E2014FEA31014FEA02701FBF12F07F43C8
:1005980093F07F4F81F06051704732F07F4208BF7F
:1005A800704793F07F4F04BF41F40021704730B586
:1005B8004FF4607401F0004521F000411CE700BFD2
:1005C80050EA010208BF704730B54FF000050AE055
:1005D80050EA010208BF704730B511F0004502D556
:1005E800404261EB41014FF4806404F132045FEA58
:1005F800915C3FF4D8AE4FF003025FEADC0C18BF01
:1006080003325FEADC0C18BF033202EBDC02C2F1F2
:10061800200300FA03FC20FA02F001FA03FE40EA84
:100628000E0021FA02F11444BDE600BF70B54FF088
:10063800FF0C4CF4E06C1CEA11541DBF1CEA135566
:1006480094EA0C0F95EA0C0F00F0DEF82C4481EACE
:10065800030621EA4C5123EA4C5350EA013518BFEE
:1006680052EA033541F4801143F4801338D0A0FBDB
:1006780002CE4FF00005E1FB02E506F00042E0FB88
:1006880003E54FF00006E1FB03569CF0000F18BF8E
:100698004EF0010EA4F1FF04B6F5007F64F5407436
:1006A80004D25FEA4E0E6D4146EB060642EAC621C9
:1006B80041EA55514FEAC52040EA5E504FEACE2E36
:1006C800B4F1FD0C88BFBCF5E06F1ED8BEF1004F39
:1006D80008BF5FEA500E50F1000041EB045170BDB5
:1006E80006F0004646EA010140EA020081EA0301F9
:1006F800B4EB5C04C2BFD4EB0C0541EA045170BDF5
:1007080041F480114FF0000E013C00F3AB8014F16E
:10071800360FDEBF002001F0004170BDC4F10004B7
:10072800203C35DA0C341BDC04F11404C4F1200538
:1007380000FA05F320FA04F001FA05F240EA020093
:1007480001F0004221F0004110EBD37021FA04F6C9
:1007580042EB06015EEA430E08BF20EAD37070BD83
:10076800C4F10C04C4F1200500FA04F320FA05F0E2
:1007780001FA04F240EA020001F0004110EBD370E4
:1007880041F100015EEA430E08BF20EAD37070BD54
:10079800C4F1200500FA05F24EEA020E20FA04F32D
:1007A80001FA05F243EA020321FA04F001F00041DC
:1007B80021FA04F220EA020000EBD3705EEA430E4D
:1007C80008BF20EAD37070BD94F0000F0FD101F07C
:1007D8000046400041EB010111F4801F08BF013CB5
:1007E800F7D041EA060195F0000F18BF704703F0F3
:1007F8000046520043EB030313F4801F08BF013D7A
:10080800F7D043EA0603704794EA0C0F0CEA135535
:1008180018BF95EA0C0F0CD050EA410618BF52EAEF
:100828004306D1D181EA030101F000414FF00000F5
:1008380070BD50EA410606BF1046194652EA430603
:1008480019D094EA0C0F02D150EA013613D195EA77
:100858000C0F05D152EA03361CBF104619460AD1BF
:1008680081EA030101F0004141F0FE4141F47001C9
:100878004FF0000070BD41F0FE4141F4780170BDB9
:1008880070B54FF0FF0C4CF4E06C1CEA11541DBF1E
:100898001CEA135594EA0C0F95EA0C0F00F0A7F820
:1008A800A4EB050481EA030E52EA03354FEA01314D
:1008B80000F088804FEA03334FF0805545EA131360
:1008C80043EA12634FEA022245EA111545EA106528
:1008D8004FEA00260EF000419D4208BF964244F1BF
:1008E800FD0404F5407402D25B084FEA3202B61ADE
:1008F80065EB03055B084FEA32024FF480104FF4B2
:10090800002CB6EB020E75EB030E22BFB61A754625
:1009180040EA0C005B084FEA3202B6EB020E75EBB8
:10092800030E22BFB61A754640EA5C005B084FEA20
:100938003202B6EB020E75EB030E22BFB61A7546ED
:1009480040EA9C005B084FEA3202B6EB020E75EBF8
:10095800030E22BFB61A754640EADC0055EA060EB9
:1009680018D04FEA051545EA16754FEA06164FEAFC
:10097800C30343EA52734FEAC2025FEA1C1CC0D1A8
:1009880011F4801F0BD141EA00014FF000004FF035
:10099800004CB6E711F4801F04BF01430020B4F1F6
:1009A800FD0C88BFBCF5E06F3FF6AFAEB5EB030CAE
:1009B80004BFB6EB020C5FEA500C50F1000041EBAB
:1009C800045170BD0EF0004E4EEA113114EB5C0478
:1009D800C2BFD4EB0C0541EA045170BD41F480114B
:1009E8004FF0000E013C90E645EA060E8DE60CEA53
:1009F800135594EA0C0F08BF95EA0C0F3FF43BAF70
:100A080094EA0C0F0AD150EA01347FF434AF95EA26
:100A18000C0F7FF425AF104619462CE795EA0C0F0A
:100A280006D152EA03353FF4FDAE1046194622E7D7
:100A380050EA410618BF52EA43067FF4C5AE50EAB1
:100A480041047FF40DAF52EA43057FF4EBAE12E7A1
:100A58004FF0FF3C06E000BF4FF0010C02E000BF82
:100A68004FF0010C4DF804CD4FEA410C7FEA6C5C65
:100A78004FEA430C18BF7FEA6C5C1BD001B050EA08
:100A8800410C0CBF52EA430C91EA030F02BF90EAF3
:100A9800020F0020704710F1000F91EA030F58BFB2
:100AA800994208BF90422CBFD8176FEAE37040F014
:100AB800010070474FEA410C7FEA6C5C02D150EAB2
:100AC800013C07D14FEA430C7FEA6C5CD6D152EA6D
:100AD800033CD3D05DF8040B704700BF8446104632
:100AE80062468C461946634600E000BF01B5FFF731
:100AF800B7FF002848BF10F1000F01BD4DF808ED01
:100B0800FFF7F4FF0CBF012000205DF808FB00BFD1
:100B18004DF808EDFFF7EAFF34BF012000205DF82B
:100B280008FB00BF4DF808EDFFF7E0FF94BF012078
:100B380000205DF808FB00BF4DF808EDFFF7CEFF79
:100B480094BF012000205DF808FB00BF4DF808EDB8
:100B5800FFF7C4FF34BF012000205DF808FB00BF89
:100B68004FEA410C7FEA6C5C02D150EA013C0AD1A1
:100B78004FEA430C7FEA6C5C02D152EA033C02D193
:100B88004FF0000070474FF0010070474FEA4102F4
:100B980012F5001215D211D56FF47873B3EB6252C7
:100BA80012D94FEAC12343F0004343EA505311F0EE
:100BB800004F23FA02F018BF404270474FF0000080
:100BC800704750EA013005D111F0004008BF6FF0BE
:100BD800004070474FF00000704700BF4A0011D234
:100BE80012F5001211D20DD56FF47873B3EB62527F
:100BF8000ED44FEAC12343F0004343EA505323FA8B
:100C080002F070474FF00000704750EA013002D1FF
:100C18004FF0FF3070474FF0000070474FEA410235
:100C2800B2F1E04324BFB3F5001CDCF1FE5C0DD942
:100C380001F0004C4FEAC0024CEA5070B2F1004F8C
:100C480040EB830008BF20F00100704711F0804F8F
:100C580021D113F13872BCBF01F00040704741F454
:100C680080114FEA5252C2F11802C2F1200C10FA58
:100C78000CF320FA02F018BF40F001004FEAC1233C
:100C88004FEAD32303FA0CFC40EA0C0023FA02F3E0
:100C98004FEA4303CCE77FEA625307D150EA0133B6
:100CA8001EBF4FF0FE4040F44000704701F0004086
:100CB80040F0FE4040F40000704700BF53B94AB905
:100CC800002908BF00281CBF4FF0FF314FF0FF304C
:100CD80000F0B4B9ADF1080C6DE904CE00F03CF8B1
:100CE800DDF804E0DDE9022304B0704738B50022DE
:100CF800002304460D46FFF70BFF28B92046294676
:100D0800BDE8384000F00AB8204605F1004100F07F
:100D180005F8404261EB410138BD00BFD0B5002263
:100D28000B4B06460F46FFF781FCFFF757FF0446BB
:100D3800FFF702FC0022074BFFF778FC02460B4640
:100D480030463946FFF7BAFAFFF748FF2146D0BDCB
:100D58000000F03D0000F0412DE9F04F099D0C46E0
:100D6800002B4DD18A420F4684469646B2FA82F34A
:100D780060D94BB102FA03FEC3F120029F4000FA8A
:100D880003FC20FA02F217434FEA1E461FFA8EF4BC
:100D98004FEA1C42B7FBF6F106FB117701FB04F0A2
:100DA80042EA0742904208D91EEB020201F1FF37DE
:100DB80002D2904200F22D813946121A1FFA8CFC99
:100DC800B2FBF6F006FB102200FB04F44CEA024CDE
:100DD800644508D91EEB0C0C00F1FF3202D26445C1
:100DE80000F21A81104640EA0140ACEB040C0021E5
:100DF80025B12CFA03F30022C5E90032BDE8F08FD3
:100E08008B4205D90DB1C5E9000100210846F5E777
:100E1800B3FA83F100294DD1A342C0F0F280904289
:100E280080F0EF80064623460846002DE6D0C5E947
:100E38000063E3E7002B40F0A2808A1A4FEA1E47BE
:100E48001FFA8EF60121B2FBF7F407FB14204FEAD4
:100E58001C4242EA004206FB04F090420FD91EEB06
:100E6800020204F1FF382CBF4FF001094FF00009CE
:100E7800904203D9B9F1000F00F0C8804446121A15
:100E88001FFA8CFCB2FBF7F007FB102200FB06F6FA
:100E98004CEA024C664508D91EEB0C0C00F1FF32F7
:100EA80002D2664500F2BB801046ACEB060C40EA65
:100EB80004409DE7C1F120068B4004FA01FE22FAA6
:100EC80006F720FA06FCF4408A401F434EEA0C035A
:100ED80000FA01FE4FEA17484FEA13491FFA87FC48
:100EE800B4FBF8F008FB104449EA044400FB0CF991
:100EF800A1450ED93C1900F1FF3A2CBF4FF0010B68
:100F08004FF0000BA14503D9BBF1000F00F093800F
:100F18005046A4EB09041FFA83F9B4FBF8F308FB65
:100F2800134403FB0CFC49EA0444A44506D93C19C4
:100F380003F1FF3801D2A4457AD8434643EA00407A
:100F4800A4EB0C04A0FB02984445CC46434602D3CC
:100F580006D1CE4504D20138B9EB020C68EB070381
:100F68005DB1BEEB0C0264EB030404FA06F622FA48
:100F780001F3CC401E43C5E9006400213EE702FAB4
:100F880003FEC3F1200104FA03F200FA03FCCC408B
:100F98004FEA1E4720FA01F11FFA8EF6B4FBF7F06C
:100FA8000A4307FB1044110C41EA044100FB06F414
:100FB8008C420ED91EEB010100F1FF382CBF4FF017
:100FC80001094FF000098C4202D9B9F1000F2CD069
:100FD8004046091B92B2B1FBF7F407FB141142EA31
:100FE800014204FB06F1914207D91EEB020204F10B
:100FF800FF3801D2914215D84446521A44EA0041BA
:1010080021E7861A64EB030301200EE7023C7244D1
:1010180035E702397244D0E6F4440238E3E6F44492
:10102800023842E7023C7244E7E702387144D0E7ED
:10103800023B3C4482E702383C446AE7704700BF01
:101048000D48854604F088FA0C480D490D4A0023DE
:1010580002E0D458C4500433C4188C42F9D30A4A65
:101068000A4C002301E013600432A242FBD30CF0C7
:10107800CDFF0BF0D8FEFEE700002720000000207F
:1010880014090020244601086C11002078B30020C0
:10109800FEE703460020186058609A600120D86077
:1010A8001961704710B40024046044608360C26012
:1010B800016101205DF8044B7047F0B500270CE092
:1010C8000CEB030511F803E006F805E00133C568E9
:1010D8009D42F5D8294404600137974213D2056828
:1010E8006B1C8468B3FBF4F604FB16344368A34214
:1010F8000BD00669002EEED00029ECD0C36803FBA4
:1011080005FC0023E3E70120F0BD0020FCE770B5F3
:101118000C461646002516E001EB0E0C1CF803C021
:1011280004F803C00133C2689A42F5D814444368EE
:101138000268934216D001338268B3FBF2F102FBD6
:10114800113343600135B5420AD201690029EED056
:10115800002CECD04368C26802FB03FE0023E2E7E0
:10116800012070BD0020FCE78268036813444168D1
:101178005B1AB3FBF2F002FB1030704710B500F0B9
:10118800F9FF01F0DFF901F095FA01F0CBFA00243C
:1011980005E04FF4E131E0B201F0EAFA0134012C44
:1011A800F7DD4FF4E131002001F000FA164801F0B4
:1011B80041FA1649164801F03DFA1649164801F059
:1011C80039FA06F073F9154981FB0031C017C0EBF5
:1011D800A141134801F02EFA124801F02BFA00F051
:1011E80007FA00F025FB01F071FD042001F07AFDFB
:1011F80001F07CF84FF4E131002000F061FC0020A0
:1012080001F0CCF910BD00BFC0300108DC30010886
:10121800EC300108043101081031010883DE1B435A
:1012280028310108D830010810B500F0C7F9044684
:1012380004E000F0C3F9044600F0B2FE00F0BEF985
:10124800031BB3F5FA7FF4D2F6E700002DE9F04767
:101258008AB0002405940694079408940994504B86
:10126800D3F88C2042F00402C3F88C20D3F88C20E9
:1012780002F004020092009AD3F88C2042F0800217
:10128800C3F88C20D3F88C2002F080020192019AD6
:10129800D3F88C2042F00202C3F88C20D3F88C20BB
:1012A80002F002020292029AD3F88C2042F0400225
:1012B800C3F88C20D3F88C2002F040020392039AE2
:1012C800D3F88C2042F00102C3F88C20D3F88C307C
:1012D80003F001030493049BDFF8D8A022460421FD
:1012E800504605F020F92F4E22468021304605F061
:1012F8001AF92D4D2246A021284605F014F94FF47D
:1013080000530593294B0693079405A9304604F02A
:1013180073FF042705974FF00308CDF8188007944A
:1013280005A9304604F068FF4FF4804305930694FE
:10133800079405A9284604F05FFF4FF40049CDF84B
:101348001490CDF81880079405A9284604F054FF96
:101358000597012706970794089405A9504604F0B5
:101368004BFF8023059306970794089405A93046F8
:1013780004F042FFCDF81490CDF81880079405A921
:101388000B4804F039FFA0230593069707940894A7
:1013980005A9284604F030FF0AB0BDE8F08700BF71
:1013A800000C02460008024200040242000011102C
:1013B800000002420018024272B6FEE700B59FB074
:1013C8006022002106A80CF089FD002300930193F8
:1013D80002930393049305934FF4403005F04AFFBA
:1013E80048BB012306934FF48032079202211491DF
:1013F800032215920022179216930A2018900820AB
:1014080019901A911B930C231C931D9206A806F0A1
:10141800A5FA90B91F230093032301930023029395
:101428000393049305930421684606F0FDF830B948
:101438001FB05DF804FBFFF7BFFFFFF7BDFFFFF725
:10144800BBFF08B505F0ACFF05F0C6FF022005F0AC
:1014580069FF00B908BDFFF7AFFF000000B583B012
:101468001B4BD3F8882042F00102C3F88820D3F838
:10147800883003F001030193019B002211461D20CF
:1014880004F06AF91D2004F077F90022114655206E
:1014980004F062F9552004F06FF90E480E4B036012
:1014A80000238363C36303644FF040434364802392
:1014B800836404F0CFFC38B91021064804F047FAD9
:1014C80020B903B05DF804FBFFF776FFFFF774FF60
:1014D800000C024620120020D006024008B505F094
:1014E80041F800B908BDFFF767FF000000B589B0F3
:1014F80000230493059306930793019302930393A0
:1015080013484FF0804202609F22426083604FF090
:10151800FF32C2600361836109F0D8F990B94FF4D2
:101528008053049304A90A4809F00EFA60B900230D
:101538000193039301A9064809F0A6FA30B909B046
:101548005DF804FBFFF738FFFFF736FFFFF734FFBE
:10155800D411002008B50948094B036013234360E0
:10156800002383606322C260036143618023836137
:1015780009F0ACF900B908BDFFF71EFF881100207B
:101588000048014008B504F031F8FFF75AFFFFF7AB
:1015980015FFFFF75BFEFFF761FFFFF79FFFFFF700
:1015A800A5FFFFF7D7FF04F0DDFF08B9012008BD4C
:1015B8000020FCE708B504F053F808BD08B504F0AE
:1015C80049F808BD012801D90020704710B5074B1C
:1015D800020103EB0014A188985804F09DFF237BB7
:1015E800984201D0002010BD0120FCE78431010899
:1015F80030B589B0002303930493059306930793AA
:10160800244AD2F88C1041F00401C2F88C10D2F8A8
:101618008C1001F0040101910199D2F88C1041F06D
:101628002001C2F88C10D2F88C2002F0200202921D
:10163800029A08E0184A002102F8331002EBC302AC
:10164800518051700133012BF4DD144B04930024B5
:1016580016E0134B220103EB041569680391A9688E
:10166800059103A9985804F0C7FDB5F90E5000225A
:101678000521284604F070F8284604F07DF8013466
:10168800012CE6DD0749084800F04CFD012009B0AF
:1016980030BD00BF000C0246981200200000311037
:1016A80084310108C516000844310108012801D910
:1016B8000020704708B5FFF785FF08BD70B50446E0
:1016C8000388012B05D000252388012B07D025B3DB
:1016D80070BD43691449002098470546F4E76369DB
:1016E800124900209847064680B9F0E7E0B2FFF7B4
:1016F800DDFF01460E4800F077FA0134012CF5DDD4
:101708003220FFF757FF0B4800F06EFA00F0FEFC9E
:1017180008B10024F2E73546D9E7074800F064FA33
:10172800064800F061FAD3E74C310108543101084A
:101738005C31010860310108643101087431010825
:1017480008B5012004F0F6FE00F06AFE08BD08B5F1
:10175800022004F0EFFE00F063FE08BD08B5042087
:1017680004F0E8FE00F05CFE08BD08B5082004F0AF
:10177800E1FE00F055FE08BD08B5102004F0DAFEC1
:1017880000F04EFE08BD08B5202004F0D3FE00F09E
:1017980047FE08BD08B5402004F0CCFE00F040FE2E
:1017A80008BD08B5802004F0C5FE00F039FE08BD6C
:1017B80008B54FF4807004F0BDFE00F031FE08BD9E
:1017C80008B54FF4007004F0B5FE00F029FE08BD1E
:1017D80008B54FF4806004F0ADFE00F021FE08BDAE
:1017E80008B54FF4006004F0A5FE00F019FE08BD2E
:1017F80008B54FF4805004F09DFE00F011FE08BDBE
:1018080008B54FF4005004F095FE00F009FE08BD3D
:1018180008B54FF4804004F08DFE00F001FE08BDCD
:1018280008B54FF4004004F085FE00F0F9FD08BD4E
:1018380008B501F08DFF014B187008BDA8120020F3
:1018480008B501F0C1FF08BD08B501F09DFF08BD4E
:1018580008B501F0A1FF08BD08B501F0D3FF08BD28
:1018680008B501F0ABFF08BD08B502F001F808BDE6
:10187800002380F8F23380F8F1333F2280F8F02318
:1018880080F8B033704738B5054690F8964104EBB8
:10189800441004EB40002844432205F56C7100F520
:1018A800CC700CF0E3FB95F89731072B02D8013385
:1018B80085F8973185F895410134634204F00704AF
:1018C80003F0070358BF5C4285F89641012385F869
:1018D800943138BD002303E08CF8002001339BB21B
:1018E8000F2B0BD800EB030CC25C3AB1A2F16101DB
:1018F800C9B21929F0D8203AD2B2EDE7102B00D09E
:101908007047013B0022C254FAE70000064BB3F8C7
:101918007836984205D2044BD3F87C3653F8200029
:1019280070470020704700BFAC12002008B503467E
:10193800094AB2F8782690420AD20846064AD2F8EE
:101948007C2652F82310FEF7A3FC18B1002000E013
:10195800002008BD0120FCE7AC12002008B5084BA8
:10196800B3F87836984202D39FED060A08BD044BB7
:10197800D3F87C36002153F820000CF061F8F5E725
:10198800AC1200200000000008B5084BB3F8783608
:10199800984201D3002008BD044BD3F87C360022BE
:1019A800114653F820000CF01DF9F4E7AC120020A2
:1019B80010B504460449007801F00AF80349207874
:1019C80001F006F810BD00BFA4310108A8310108D4
:1019D80038B590F8973143B304460D4690F8F12393
:1019E80022BB94F8F22332BB012D29D094F995112A
:1019F800013194F8973191FBF3F203FB121184F84B
:101A08009511C9B201EB411301EB43012144432273
:101A180001F5CC7104F56C700CF028FB94F8F233E6
:101A280084F8F133002384F8943138BD0F490078E5
:101A380000F0CEFFD5E70E49207800F0C9FFD3E7C4
:101A480094F894311BB194F9963184F8953194F94E
:101A5800951194F897311944013991FBF3F203FB7E
:101A6800121184F89511C9B2CCE700BFB031010852
:101A7800B831010870B582B006460024A0F81241BA
:101A880000F58A75C0F8144101AA0C4900F56C707C
:101A98000CF066FA234609E05C1CA4B245F8230062
:101AA80001AA064900200CF05BFA23460028F3D16E
:101AB800A6F8123103B1012002B070BDC03101088F
:101AC8000A4B18701B7A1BB1084B5B688B4200D01D
:101AD80011B9064B187A704710B5044C616000F0D4
:101AE80047FE2072014B187A10BD00BFAC120020CF
:101AF800014B1878704700BFAC12002038B5234B53
:101B08005B7A03B938BD054690F8F1232049C07ABD
:101B180000F05EFF95F8F2231E49E87A00F058FFBE
:101B280095F8F0231C49E87A00F052FF05F56C722D
:101B38001A49E87A00F04CFF95F995211849E87A96
:101B480000F046FF95F896211649E87A00F040FF24
:101B580095F897211449E87A00F03AFF00240CE040
:101B680004EB441304EB430303F5CC732B442246E4
:101B78000E49E87A00F02CFF013495F89731A3421A
:101B8800EEDC0B49E87A00F023FFBBE7AC1200203B
:101B9800C8310108D8310108E8310108F8310108D5
:101BA80008320108183201082832010838320108C1
:101BB800D830010808B5024B187800F08FFE08BD30
:101BC800AC12002008B5024B187800F0ABFE08BD37
:101BD800AC12002008B50A460146024B187800F0FE
:101BE800CDFE08BDAC1200200FB410B582B004AB16
:101BF80053F8042B0193084C4FF4807120460CF0E5
:101C08005FF90246214614F8110C00F0B7FE02B045
:101C1800BDE8104004B07047BD12002038B5054635
:101C2800FFF728FF08B9002038BD1848FFF7DCFF88
:101C3800D5F81401FFF74EFE0123AB720024B5F866
:101C4800F433A3421EDD04EB8401890001F57E71A3
:101C58002944D5F81401FEF71BFB08B10134EEE75F
:101C6800B5F81231013BA5F8783605F58C73C5F83F
:101C78007C3604EB840405EB8404D4F8083405F5B9
:101C8800CF6098470023AB72CDE700BF303501081D
:101C980030B585B004468DF80710037CABB9CBB2DC
:101CA8001B2B30D01CD8082B4BD00D2B40F0848038
:101CB80090F8F2330BBB002384F8F23384F8F13345
:101CC80084F8B0332046FFF773FE237C013B032BD7
:101CD80000F2C880DFE813F0C400CC00CF00560142
:101CE8007F2B69D190F8F1C390F8F2E3F445ECD278
:101CF800AEEB0C05EDB2012212E0FFF7C4FD204661
:101D0800FFF78CFFD7E701230374DEE70CEB020330
:101D1800591E234493F8B003631883F8B0030132C3
:101D28009542F3DC0EF1FF3E5FFA8EFE84F8F2E393
:101D3800A64400238EF8B0339449207800F048FE7A
:101D4800C3E790F8F2335BB390F8F10340B38342F2
:101D580009D094F8F2C3604522D2ACEB000E5FFACA
:101D68008EFE002211E0013BDBB284F8F2332344FB
:101D7800002283F8B023ECE78318591E234493F814
:101D8800B053631883F8B05301329645F4DC0CF174
:101D9800FF33DBB284F8F2332344002283F8B02304
:101DA80094F8F133002B90D0013B84F8F133784953
:101DB800207800F00DFE88E794F8F233591C94F867
:101DC800F023914281DA94F8F123934216D094F8E3
:101DD800F1C394F8F2038445BFF477AFA0EB0C0588
:101DE800EDB20022954224DD831A591E214491F850
:101DF800B013234483F8B0130132F3E701220DF145
:101E08000701207800F0BAFD94F8F123A3189DF893
:101E1800071083F8B01394F8F2330133DBB284F877
:101E2800F233013284F8F1232344002283F8B023EB
:101E3800CDE79DF8072004EB0C0383F8B0230130AD
:101E4800C0B284F8F2030CF1010C84F8F1C3204409
:101E5800002380F8B0334F49207800F0B9FD34E70B
:101E6800022323742046FFF749FE002005B030BD49
:101E780003232374F6E7002323749DF80730442BCB
:101E880026D09DF80730432B37D09DF80730412BDB
:101E98004AD09DF80730422B50D09DF80730312B9F
:101EA80056D09DF80730342BDCD194F8F13394F8F0
:101EB800F223934258D394F8F12394F8F2339A42D8
:101EC80059D894F8F23384F8F13304232374C9E71A
:101ED80094F8F123002AD4D0013A84F8F1231B2284
:101EE8008DF808205B228DF809208DF80A3003222E
:101EF80002A9207800F042FDC3E794F8F12394F892
:101F0800F2138A42C1D2013284F8F1231B228DF8E0
:101F180008205B228DF809208DF80A30032202A9D7
:101F2800207800F02BFDB0E701212046FFF750FD97
:101F380004F56C71207800F04BFDAAE700212046DB
:101F4800FFF746FD04F56C71207800F041FDA4E729
:101F580094F8F1231049207800F03AFD002384F822
:101F6800F133042323749CE7D21A92B20B492078E8
:101F780000F02EFD9FE7D21A92B20749207800F0B0
:101F880027FD9EE7002323746CE700BF4832010851
:101F98005032010858320108B03101086432010892
:101FA80038B5094B1C7A0CB9204638BD187800F0B2
:101FB80095FC0028F8D0044D287800F0B3FC0146C1
:101FC8002846FFF765FEEFE7AC12002010B50F4872
:101FD800FFF70AFE0E48FFF707FE00240CE004EBAB
:101FE8008403980000F57E700A4B1844FFF7FCFD47
:101FF8000648FFF7F9FD0134064BB3F8F433A34262
:10200800EDDC0548FFF7F0FD10BD00BF30350108D5
:102018006C320108AC1200208C3201082DE9F04323
:1020280083B00388446873B1012B12D810270022AB
:10203800114620680BF0D6FD06462C48FFF7D4FD64
:10204800B04600241BE02A48FFF7CEFD03B0BDE8E8
:10205800F0830022114660680BF0C4FD0746E6E7EE
:1020680031682448FFF7C0FD624204F0030302F020
:10207800030258BF5342032B0BD004360134BC4231
:10208800E4DA14F0030FEBD131461B48FFF7ACFD3F
:10209800E6E71A48FFF7A8FD4FF0000917E01848CF
:1020A800FFF7A2FD0135032D0DDC05F108036B4494
:1020B80013F8041CA1F12003DBB25E2BEFD8114802
:1020C800FFF792FDEEE708F1040809F10109B9F1FB
:1020D800030F04DCD8F8003001930025E3E70A4831
:1020E800FFF782FD0120FFF765FAC6E7C032010855
:1020F800AC320108D4320108C8320108DC320108C8
:10210800E4320108E0320108E832010808B5044B5E
:10211800187800F0E3FB08B9012008BD0020FCE7AF
:10212800AC1200202DE9F041114BB3F8F4531F2DE8
:1021380002D90020BDE8F0810E46AF0005EB85040A
:10214800A40004F57E7498461C44014620460BF012
:1021580085FF2F4408EB8707C7F808642046FFF778
:10216800B9FBB8F8F4330133A8F8F4330120E1E7F8
:10217800AC12002008B5134800230372437283721F
:10218800037480F8953180F8963180F8973180F89B
:1021980094310D4BC0F880360C4BC0F884360C4B8C
:1021A800C0F888360B4BC0F88C36FFF761FB0A493C
:1021B8000A48FFF7B7FF0A490A48FFF7B3FF0120AB
:1021C80008BD00BFAC12002091190008651900086D
:1021D8001519000835190008D51F0008F032010844
:1021E80025200008F832010870B584B00446038839
:1021F800012B0AD000252388012B13D02388012B1B
:1022080018D0002D49D004B070BD4369284900207A
:10221800984705460028EED0264B59682648FFF710
:10222800E3FCE8E763692549002098470028E5D0E2
:102238000546E3E7636922490020984706460028D7
:10224800DFD02048FEF790FF054601461E48FFF7FD
:10225800CBFC00241DE0012201A91A48FEF757FF14
:1022680021461A48FFF7C0FC9DF804101848FFF7EC
:10227800BBFC9DF80C209DF80D101648FFF7B4FC28
:102288000299154AA2FB013292091448FFF7ACFCE7
:102298000134AC42DFD33546B3E71148FFF7A4FC5D
:1022A8001048FFF7A1FC1048FFF79EFCABE700BF02
:1022B8004C310108001E0020FC32010810330108CF
:1022C80018330108EC1D00202033010830330108C1
:1022D8003833010848330108D34D62105C330108D4
:1022E80074330108843301089433010808B5642362
:1022F8000C220F490F48FEF7D5FE0F4A0223136040
:1023080000235360936313630AE003EB8302910095
:10231800094A0A440021117251729176D17601332B
:10232800012BF2D905490648FFF7FCFE012008BD3C
:102338003C190020EC1D0020001E0020F12100089F
:10234800A43301082DE9F04184B0334D6B680133A3
:102358006B6000F0E1F9074600242C63AC631EE0D3
:1023680004EB84022C4B03EB820302221A7204EB67
:102378008402294B03EB82031A7A5A721969791A73
:1023880059615B7E9E4227D146B1234A136B03F104
:10239800180102EB41018C800133136301341E4B99
:1023A8001B68A34234D904EB84031B4D05EB83055A
:1023B800EF602B7E6B765FFA84F84046FFF776F97C
:1023C800064628762B7A002BD1D168762F61002813
:1023D800C6D001222A72CAE70F4D04EB840005EB30
:1023E80080000122C27607618DF804808DF80C60A8
:1023F8008DF80D30029101A90848FEF75EFEAB6B1F
:1024080003F11C0205EB420294800133AB63BBE786
:1024180004B0BDE8F08100BF001E0020EC1D0020C4
:1024280008B5FFF78FFF08BD2DE9F0410646038880
:10243800012B0AD000273388012B23D03388012BA6
:102448003ED0002F5AD0BDE8F081436930490020C2
:10245800984707460028EED02E4C21882E48FFF7D3
:10246800C3FB61882D48FFF7BFFB2D48FFF7BCFB76
:102478002C4C21882C48FFF7B7FB61882B48FFF7C5
:10248800B3FBD8E773692A4900209847804600289B
:10249800D4D0002506E01F4B986821462844FFF752
:1024A80099FB2544FFF732FE074638B1194B5C8883
:1024B800641BC3D0402CEED94024ECE74746BDE767
:1024C80073691C490020984706460028B9D00025A2
:1024D80006E0144B986821462844FFF77BFB254407
:1024E800FFF714FE074638B10E4B5C88641BA8D072
:1024F800402CEED94024ECE73746A2E70E48FFF718
:1025080073FB0E48FFF770FB0D48FFF76DFB9AE76A
:102518004C31010854370020AC330108C03301089E
:10252800D830010848370020D4330108E8330108BF
:10253800FC330108043401080C340108183401087C
:102548002434010810B50E4A0023138053804FF439
:1025580000619180D3800B4991600B4A13805380AE
:102568004FF480519180D380084B93600124084B2D
:102578001C7008490848FFF7D5FD204610BD00BF6C
:1025880054370020482F002048370020481F0020DB
:10259800461F00203124000830340108003818BFD5
:1025A8000120014B187070470100002010B5054B41
:1025B8001870054B1960054C0123237000F0D8F8FA
:1025C800207010BD441F0020401F0020451F002020
:1025D80030B583B004469446C388134408338288D0
:1025E8009A4205D20023C3800CF108039A4219D3FA
:1025F800E088009123880E4A0CF10801A568284458
:102608000BF0BCFB238801332380E38882B2134498
:10261800E38063881844A188884205DC1A446280F4
:10262800012002E0002000E0012003B030BD00BF1F
:10263800343401080FB410B582B0164B1B7823B997
:1026480002B0BDE8104004B0704705AB0193049A8E
:102658004FF4807110480BF033FC04460F4B1B7885
:1026680013B10F4B1B7843B90E4B1B7863B9224645
:1026780009490D48FFF7ACFFE2E7024606490B4B54
:10268800187800F07BF9EFE7224603490848FFF77E
:102698009FFFECE7461F0020401E0020451F00203A
:1026A800000000200100002048370020441F0020BF
:1026B8005437002010B582B0134BD3F89C2042F059
:1026C8000102C3F89C20D3F89C3003F00103019366
:1026D800019B0E4C4FF0804323600D4B1B680D4A45
:1026E800A2FB03239B0C013B4FF0FF32E2606360C7
:1026F80000232361A360204608F0E8F8204607F08D
:10270800D1FF012002B010BD000C02466037002046
:102718005402002083DE1B43014B1B68586A704734
:102728006037002010B500230FE00D4C40F22C421A
:1027380003FB02F2A1180020A0544FF461424A6042
:10274800C1F82404C1F828040133012BEDDD01246C
:10275800044B1C7004490548FFF7E4FC204610BDF3
:1027680014090020F43800202D2A00083C34010800
:10277800012800F2AA80F0B583B0044640F22C4349
:1027880000FB03F3524AD05C38B1134640F22C42A6
:1027980002FB04335B688B4204D02CB1012C00F09F
:1027A8008A80002003B0F0BD494840F22C4304FB66
:1027B80003F3C5186960474E06EB0416B268C5F8FE
:1027C8001C2477681760D5F81C245160D5F81C14B0
:1027D80000228A60D5F81C14CA60D5F81C140A6156
:1027E800D5F81C140C274F61D5F81C148A61D5F84C
:1027F8001C14CA61D5F81C140A62D5F81C144A6264
:10280800D5F81C148A6203F10807074403F58163AD
:102818004FF4806239461844FEF73BFC2E4BD3F840
:10282800882042F00102C3F88820D3F8883003F0EA
:1028380001030193019BD5F81C0408F0DDF9337BF3
:102848004BB100231A461946D5F81C0408F0CEFDF2
:1028580058B10020A6E71E4B40F22C4202FB04337D
:10286800D3F81C0408F0E2FCF2E7194A40F22C43C2
:1028780004FB03F3D0180121D1544FF48062394688
:10288800D0F81C0408F088FD98B90120104B40F2DC
:102898002C4202FB0433D3F81024D3F81C14D1F8CB
:1028A80080100968896C521AC3F80824C3F80C24EC
:1028B80078E70020EAE7064B40F22C4202FB04F4DA
:1028C8001A195160012018556CE70020704700BFA5
:1028D80014090020EC340108000C024610B5034628
:1028E80018B1012818D0002010BD0D4840F22C4224
:1028F80002FB03F3C218D2F81014D2F81C44D4F81F
:1029080080402468A46C091BC2F8081403F581638D
:102918001844FEF729FCE7E7FEF796FFE4E700BF57
:102928001409002010B582B000238DF80730044642
:1029380078B101281BD0104B40F22C4202FB043323
:10294800D3F824240132C3F824249DF8070002B0E8
:1029580010BD40F22C4300FB03F303F58163012211
:102968000DF1070104481844FEF7D1FBE3E7FEF731
:102978006FFF8DF80700DEE71409002038B58C4694
:102988001446054668B1012819D000200F4B40F2C3
:102998002C4202FB0533D3F828240244C3F8282428
:1029A80038BD0A4840F22C4303FB0500642392B269
:1029B800D0F81C0408F06CFB30B10020E6E71146A3
:1029C8006046FEF749FFE1E72046DFE714090020EB
:1029D8000EB410B5C3B0044645AB53F8042B0193AD
:1029E8004FF4807102A80BF06BFA024602A9204648
:1029F800FFF7C4FF43B0BDE8104003B070470000C4
:102A080001280BD808B506D0054B40F22C4202FB32
:102A18000033586808BDFEF723FFFBE70020704726
:102A280014090020F0B583B004460388012B07D0B1
:102A380000252388022B1DD0002D63D003B0F0BDE4
:102A4800436934490020984705460028F1D0002002
:102A58000DE0461C0301304AD758C0B2FFF7D0FF3B
:102A680003463A4631462D48FFF7BEF8304601285E
:102A7800EFDDDEE763692A49002098470028DBD0AC
:102A8800A3680120984700280BDDA3680120984718
:102A980002280FDCA36801209847C4B2013CE4B2C5
:102AA80000E00024FFF724F8A04208D11D48FFF7F2
:102AB8009BF8C3E70124F5E7FFF77CF878B92046CF
:102AC800FFF70CFF0028F7D02046FFF72BFF024640
:102AD8008DF80700611C1448FFF786F8ECE7FFF74C
:102AE80071F88DF807007128A8D001220DF10701AF
:102AF8002046FFF743FF9DF80720611C0B48FFF7AE
:102B080073F8DCE70A48FFF76FF802210948FFF776
:102B18006BF893E74C310108EC34010844340108A0
:102B28001033010898340108603401087C34010826
:102B3800AC340108B834010830B5D9B005460024D2
:102B4800539454945594569457946C22214638A81B
:102B58000BF0C4F9D822214602A80BF0BFF92A6865
:102B6800444B9A4201D059B030BD01220023CDE92F
:102B7800022302A805F056FD002868D13E4BD3F881
:102B8800A42042F48042C3F8A420D3F8A42002F47D
:102B980080420092009AD3F88C2042F00202C3F8D7
:102BA8008C20D3F88C3003F002030193019B4FF47F
:102BB800C0635393022354930024559456930723D8
:102BC800579353A92D4803F017FB21233893182353
:102BD80039933A943B943C944FF400233D933E94AC
:102BE8003F940123419342934394449445944994D8
:102BF80046944794224938A803F0C2F950BB204AAA
:102C08000021204803F0C7F938BB1E4803F04FFAEB
:102C180030BB1D481D4B036000238363C3630364FB
:102C280043648123836403F015F9E0B91549164814
:102C380003F07EFAD0B91448C5F88000C5651021A4
:102C480002F085FE00288ED0FEF7B6FB8BE7FEF774
:102C5800B3FB93E7FEF7B0FBD1E7FEF7ADFBD4E794
:102C6800FEF7AAFBD5E7FEF7A7FBDFE7FEF7A4FB15
:102C7800E1E700BF00380140000C024600000242B4
:102C88003C38002024380020AC3700205000024097
:102C980002680B4B9A4200D0704710B50446094AA7
:102CA800D2F8A43023F48043C2F8A4304FF4C061B2
:102CB800054803F0AFFBD4F8800002F08BFD10BD8F
:102CC80000380140000C02460000024208B50349E2
:102CD8000348FFF727FA012008BD00BF652E00084A
:102CE8000C35010838B5384B01221A7090420ED0C5
:102CF800022809D0032827D004283FD0324B0022CD
:102D08001A703248FFF796FC2F4B187838BD304DB3
:102D1800304C2946204609F04BF92F49204609F046
:102D280075F92E49204600F0D3FB204609F0C4F976
:102D38002B4B01221A702B4B1D602B48FFF77AFC96
:102D48002A48FFF777FCDFE7294D224C0122294664
:102D5800204609F02DF92749204609F057F9204661
:102D680009F0AAF91E4B03221A701E4B1D601E485B
:102D7800FFF760FC2048FFF75DFCC5E71F4D154CC9
:102D880001222946204609F013F91D4B0122194951
:102D9800204609F05BF91B4B02220F49204609F037
:102DA80055F90E49204600F093FB204609F084F9B6
:102DB8000B4B01221A700B4B1D600B48FFF73AFCB6
:102DC8001148FFF737FC9FE7DD3C00205435010828
:102DD8009C000020FC380020100000204800002043
:102DE800DC3C0020F83800201035010824350108A3
:102DF800880100201C020020343501083801002019
:102E080008000020040000204435010808B5FEF73A
:102E180017FD08BD08B50B4BD3F8C8326BB1094B89
:102E280093F89C32DBB2032B09D1064B5B680BB9D4
:102E3800002005E001F04EFF02E0002000E0002045
:102E480008BD00BFFC380020014B1878704700BF50
:102E5800DC3C002008B5FEF707FD08BDF0B583B0DF
:102E680004460388012B0BD000252388012B54D05E
:102E78002388012B7AD0002D00F0A68003B0F0BD86
:102E8800436956490020984705460028EDD000239D
:102E9800ADF80630524B1B68A3B11B680DF1060153
:102EA80000209847437A017A41EA0321C37A867A57
:102EB80046EA03264B48FEF797FE31464A48FEF796
:102EC80093FE21E000263146F4E7FFF7BDFF0146F7
:102ED8004648FEF789FEFFF7BDFF01464448FEF766
:102EE80083FEFFF797FF01464248FEF77DFEFFF796
:102EF8008DFF01464048FEF777FE04213F48FEF764
:102F080073FE6420FEF756FBFFF700F90028DCD1BA
:102F180004213B48FEF768FEA7E7636939490020AA
:102F2800984707460028A3D0FEF748FB0646002529
:102F380004E01F213448FEF78FFC0544FFF7E6F84C
:102F480070B1FEF73BFB831BB3F57A7FF1D3FEF735
:102F580035FB0646A90A2D48FFF76CFB0025E8E774
:102F680002212748FEF740FE3D4681E7636928496C
:102F78000020984700283FF47EAFFEF71FFB074666
:102F880000260EE0FEF71AFB0746B10A2148FFF7B4
:102F980051FB00260EE0FEF75BFC0134AC42FAD38D
:102FA8002E44FFF7B3F850B1FEF708FBC31BB3F587
:102FB8007A7FE7D2FEF748FC05460024EEE70221B7
:102FC8000F48FEF711FE59E71348FEF70DFE1348A8
:102FD800FEF70AFE1248FEF707FE4FE74C310108DC
:102FE800F83800206835010880350108983501084F
:102FF800AC350108C0350108D4350108E8350108A9
:10300800F0350108F83501080C360108FC350108CF
:103018002C36010830360108403601084C360108C4
:103028005436010808B5024803F0E2FD08BD00BFA8
:1030380050A7002038B5D0F8F83203F1B20200EBFF
:103048008202546894B1B63300EB83035B687BB1AA
:1030580094F80012FF290DD09D6894F80132224699
:10306800A847FF2384F80032002038BD0320FCE77E
:103078000020FAE70020F8E738B5D0F8F832B23384
:1030880000EB83035D689DB1044601F074FFC5F849
:103098000C02D4F8F832B63304EB83035B68DB68C0
:1030A80005F50372D5F8041220469847002038BD6C
:1030B8000320FCE738B5D0F8EC52D0F8F822B23249
:1030C80000EB8202546884B301F00F0303EB830220
:1030D80000EB820292694AB103EBC30C05EB8C0545
:1030E8006D6CB2FBF5FC05FB1C2292B10023C4F801
:1030F8001432D0F8F832B63300EB83035B681D69ED
:10310800ADB10B4604F50472D4F80812A8470020A4
:1031180038BD03EB830300EB830300249C61234643
:10312800224601F087FF2046F2E70320F0E700205F
:10313800EEE7F0B583B0D0F8F82202F1B20300EB65
:1031480083035F6800238DF80730ADF80430002F43
:103158007BD004460D46097811F0600634D0202E45
:103168006CD1EB882BB311F0800F07D16B7887F8FF
:103178000032EA883F2A13D8D2B212E0B63200EB06
:103188008202526896683A466978B047EA88072A00
:1031980028BF07223946204609F003FE002651E0E1
:1031A800402287F801223946204609F00FFE002602
:1031B80048E0B63200EB820253689E6800232A4634
:1031C8006978B04700263DE06F780B2F31D8DFE8EB
:1031D80007F006393030303030303030162690F86D
:1031E8009C32DBB2032B04D0294609F03FFA0326B0
:1031F80028E0022201A909F0D4FD3E4622E090F819
:103208009C32DBB2032B04D0294609F02FFA03269F
:1032180018E001220DF1070109F0C3FD12E090F852
:103228009C32DBB2032B0DD0294609F01FFA032686
:1032380008E0294609F01AFA032603E0294609F0AE
:1032480015FA0326304603B0F0BD0326FAE700005E
:10325800F8B5044690F8F8320222802109F0B2F954
:103268002D4D287094F8F83202220021204609F0EA
:10327800A9F92A4F387094F8F832032280212046A1
:1032880009F0A0F9264E30702978204601F0ACFEEE
:103298002B7803F00F0303EB830304EB8303002570
:1032A8009D843978204601F09FFE3B7803F00F0398
:1032B80003EB830304EB8303A3F8645131782046BE
:1032C80001F092FE337803F00F0303EB830204EB63
:1032D80082029584D584D4F8F83203F1B20204EB63
:1032E80082025268B2B1B63304EB83035B685B6851
:1032F80020469847D4F8F832B23304EB8303586871
:1033080001F054FED4F8F832B23304EB83035D6065
:10331800C4F8C8520020F8BD0D0000200C000020A1
:103328000B000020F8B504464FF4077001F02AFEA0
:10333800002800F0888005464FF4077200210AF043
:10334800CDFDD4F8F83203F1B20204EB82025560E5
:10335800C4F8C852DBB202228021204609F032F9B3
:10336800584B187094F8F83202220021204609F0D0
:1033780029F9554B187094F8F83203228021204619
:1033880009F020F9514B1870237C002B64D14D4E65
:103398004FF4007302223178204601F01AFE337888
:1033A80003F00F0303EB830304EB830301269E84DE
:1033B800454F4FF4007302223978204601F009FE88
:1033C8003B7803F00F0303EB830304EB8303A3F8B9
:1033D80064613E4B1B7803F00F0303EB830304EB9C
:1033E80083031022DA84394E0823032231782046D9
:1033F80001F0EFFD337803F00F0303EB830304EBD5
:10340800830301229A840026C5F80462D4F8F832AE
:10341800B63304EB83035B681B6820469847C5F8FE
:103428001462C5F81862D5F80422002A47D0257C12
:10343800002D3CD14FF4007323490978204601F050
:1034480001FE2846F8BDD4F8F832B23304EB830302
:1034580000225A600225F4E71A4E402302223178EE
:10346800204601F0B6FD337803F00F0303EB830326
:1034780004EB830301269E84134F402302223978EC
:10348800204601F0A6FD3B7803F00F0303EB83030E
:1034980004EB8303A3F864610C4B1B7803F00F0360
:1034A80003EB830304EB83031022DA849BE74023B6
:1034B80005490978204601F0C5FD0025C1E7022528
:1034C800BFE700BF0D0000200C0000200B0000200B
:1034D80071B138B504460D460022022100F053FEB2
:1034E800C4F8F802B63004EB80046560002038BDEB
:1034F80003207047B23300EB830043682BB1C3F855
:103508000812C3F810220020704703207047D0F833
:10351800F832B23300EB830043681BB1C3F80412DE
:10352800002070470320704738B504460B4601F168
:10353800B20200EB820255680222802109F042F8AB
:103548000E4B1870C5B1D5F814320BB1012038BD37
:103558000123C5F8143200F00F02D5F8103202EB3F
:10356800820204EB82029361D5F8082201462046C4
:1035780001F060FD0020EAE70320E8E70D000020E5
:1035880070B50446D0F8F83203F1B20200EB8202BB
:103598005668DBB20222002109F014F80F4B1870AC
:1035A800D4F8F832B23304EB83035B689BB101466D
:1035B800257C45B94FF40073D6F80422204601F063
:1035C80041FD284670BD4023D6F80422204601F06C
:1035D80039FD0025F5E70325F3E700BF0C000020BF
:1035E8000020014B18707047E03C0020212930D0A2
:1035F800222943D0202901D0002070471378517820
:1036080043EA0123917843EA0143D17843EA01630D
:103618001079204908715079487192798A711E4A47
:10362800A2FB0323DB0803EB83035B000B60B3F50A
:10363800966F06D0B3F5E13F07D0184B00221A70F9
:10364800DAE7174A01211170F4E7144B01221A70C6
:10365800D2E710490B681148007803431370C3F38D
:1036680007205070C3F3074090701B0ED3700B797E
:1036780013714B7953718B799371BDE7538813F0AC
:10368800010F03D0074B01221A70B5E7054B002242
:103698001A70B1E75C000020CDCCCCCCDE3C002019
:1036A800115D0020E03C00200020704770B5064600
:1036B8000D46144612681748FDF7FFFC164B1B7899
:1036C800012B0DD013488468FDF74EFD241A013CE8
:1036D800B4F5007F16D2114B01221A70002070BD7C
:1036E8000D4B00221A7023680C2BEBD9002300E045
:1036F80001330C2BE6D80A4A1268D15CEA5C914285
:10370800F6D0DFE729463046FFF701FF3046FFF7DE
:1037180037FFE3E7F84C0020115D0020DF3C002074
:103728006400002010B5044690F8F83200220549DC
:10373800FFF7E0FE04492046FFF7E9FE0020034BAF
:10374800187010BD0C4D002010550020E03C0020E2
:1037580008B5084B00221A704FF400620649074862
:10376800FDF797FC4FF4006205490648FDF791FC08
:10377800012008BDE03C0020E4440020F84C002073
:10378800E43C0020E44C002008B50248FDF7ECFCBE
:1037980008BD00BFF84C002000B583B000238DF8A9
:1037A800073001220DF107010348FDF7B0FC9DF831
:1037B800070003B05DF804FBF84C0020014B1868C3
:1037C800704700BF5C0000200C4BD3F8C83293B19F
:1037D80001220B4B187800B11046084B93F89C3225
:1037E800DBB2032B00D00020044B5B6803B9002038
:1037F800034B187070470022EBE700BFFC3800202D
:10380800E03C00202DE9F04107460E46FFF7DCFFBB
:1038180018B900252846BDE8F081FDF7CFFE80469F
:1038280000250CE00120FDF7C5FEFFF7CDFF0028BD
:10383800F0D0FDF7C3FEA0EB0803632BEAD8B5422E
:10384800E8D20A488468FDF78FFC241A013C731BF0
:103858009C4200D31C46002CE4D02246394603483B
:10386800FDF72BFC27442544DFE700BFE44C00208C
:10387800014B1878704700BFDE3C002070B5054644
:103888001F4B1B78A3B91F48FDF76EFC0446C0F315
:10389800080313B950B1441E08D0D5F8F832B23332
:1038A80005EB83035B68D3F81432ABB1002070BD1D
:1038B80015488468FDF758FC241A013CB4F5007FCC
:1038C800E1D312492846FFF722FE2846FFF758FEA3
:1038D8000B4B00221A70D6E70D4E22463146094896
:1038E800FDF715FC95F8F832224631462846FFF7D1
:1038F80001FE95F8F8122846FFF716FED6E700BF36
:10390800DF3C0020E44C0020F84C0020105500203B
:103918000C4D002012230B800048704788000020BF
:1039280004230B8000487047840000200023934242
:103938001ED200B510E00CF1370C01F813C00001DD
:103948004FEA430C0CF1010C4FF0000E01F80CE0AB
:103958000133DBB2934209D24FEA107CB0F1204F19
:10396800E9D20CF1300C01F813C0E8E75DF804FB6C
:103978007047000030B583B0144BD3F80007D3F874
:103988000447D3F80837C01801D103B030BD104D33
:1039980008222946FFF7CAFF042205F11001204634
:1039A800FFF7C4FF0B4B019300230CE05A1C510096
:1039B80008336B4413F8043C074800F812304B1CDA
:1039C8000021C1541346022BF0D9DEE70000FA0BA0
:1039D8006A00002055355F006800002008B51A23EA
:1039E8000B80FFF7C7FF014808BD00BF6800002033
:1039F80008B50A4628B90549054809F0B5F9034844
:103A080008BD0249024809F0AFF9F8E7145D002043
:103A18006C36010808B50A4628B90549054809F071
:103A2800A3F9034808BD0249024809F09DF9F8E7DF
:103A3800145D00207C36010808B50A4628B90549F6
:103A4800054809F091F9034808BD0249024809F000
:103A58008BF9F8E7145D00208836010810B50A468E
:103A6800034C2146034809F07FF9204610BD00BFEA
:103A7800145D0020A0360108024B1B680380024831
:103A8800704700BF6C60002070600020024B1B680C
:103A980003800248704700BF3C5F0020405F002061
:103AA800024B1B6803800248704700BF6C6000200F
:103AB800706000200A23038000487047B800002087
:103AC80000218C460BE00CF1010C0132C1EBC10363
:103AD80000EBC303D3F828339342F4D80131D0F86C
:103AE800FC328B4201D90022F0E75FFA8CF0704774
:103AF800092303700223437000238370C37003718A
:103B08000123437104238371C023C37132230372D9
:103B18000B6809330B60704730B54FF0000E01E0B9
:103B28000EF1010ED0F8F842C4EBC40C00EBCC0C3B
:103B3800DCF80C5375450BD9C4EBC40C0EEB4C0CDC
:103B48000CF1C40C00EB8C0C9CF80350002DE7D151
:103B5800C4EBC4050EEB4505C43500F8251000EB91
:103B680085014A708B70AE460123CB7030BD0000D2
:103B78002DE9F04115686C18684E34604FF0090E55
:103B880005F801E004256570D0F8F852C5EBC505C5
:103B980000EBC50595F82C53A5700026E6700125A5
:103BA80025714FF0030C84F805C0A571E5712672E4
:103BB80014687444146017687C18DFF86881C8F8C2
:103BC800004007F801E0212767701127A770E5700A
:103BD800267165712225A5713F25E5712672146845
:103BE8007444146015686C184D4F3C6007276F5477
:103BF80005256570D0F8F852C5EBC50500EBC5057D
:103C080095F81053A57084F803C040252571667196
:103C18001E46002B79D10123A37113680733136063
:103C2800146863183D4D2B600925655404245C70A5
:103C3800D0F8F842C4EBC40400EBC40494F82D4354
:103C48009C700024DC7002271F714FF0030C83F86E
:103C580005C09C71DC711C7213682B4413601768D3
:103C68007B18DFF8C0E0CEF800307D5421255D7068
:103C780011259D700125DD701C715D7122259D71D6
:103C8800DD711C7213680933136015686B18244FB3
:103C98003B6007276F5405255D70D0F8F852C5EBD7
:103CA800C50500EBC50595F814539D7083F803C04E
:103CB80020251D715C715EBB01249C71136807335C
:103CC800136014686318164D2B6007256554052486
:103CD8005C70D0F8F842C4EBC40400EBC40090F860
:103CE800180398700320D87020201871002058718C
:103CF8008EB9012098711368073313600B7902336A
:103D08000B7113684B80BDE8F0810123A37184E730
:103D180001249C71D2E701209871ECE7385F0020FC
:103D2800305F0020345F00202DE9F04715686C18DB
:103D38009F4E346008266E540B256570D0F8F852F3
:103D4800C5EBC50500EBC50595F82C53A5704FF0DC
:103D5800020C84F803C084F804C084F805C0012765
:103D6800A7710025E5711468344414601668741846
:103D7800DFF844E2CEF800404FF0090E06F801E003
:103D88004FF0040E84F801E0D0F8F862C6EBC606DE
:103D980000EBC60696F82C63A670E570277184F8C8
:103DA80005C084F806C0E7712572146809341460E8
:103DB800D2F8008008EB01047E4E3460052608F82E
:103DC80001604FF0240884F80180A5704FF01009B5
:103DD80084F803902771146834441460146804EB61
:103DE8000109DFF8DCA1CAF80090665489F801805F
:103DF80089F8027089F80350D0F8F842C4EBC4047B
:103E080000EBC40494F82D4389F804401468344442
:103E1800146017687C18DFF8AC91C9F8004007F8FF
:103E280001E084F8018084F802C084F803C01468B3
:103E38007444146014686718DFF88CC1CCF80070FB
:103E4800665487F801800624BC70D0F8F842C4EBA9
:103E5800C40400EBC40494F82C43FC70D0F8F84276
:103E6800C4EBC40400EBC40494F82D433C711468FB
:103E78003444146017687C18DFF840C1CCF800405F
:103E88004FF0070C07F801C06670D0F8F862C6EB6F
:103E9800C60600EBC60696F81863A6700326E670F9
:103EA8000826267165711D46002B77D11023A37152
:103EB800136807331360146863183F4E336009268C
:103EC800665404245C70D0F8F842C4EBC40400EBD8
:103ED800C40494F82D439C700024DC7002261E71E3
:103EE8000A265E719C71DC711C72136809331360B9
:103EF8004DB9D0F8F832C3EBC30300EBC3034FF45A
:103F08000074C3F83443146863182C4E33600726D2
:103F1800665405245C70D0F8F842C4EBC40400EB86
:103F2800C40494F810439C700224DC70D0F8F84262
:103F3800C4EBC40400EBC404B4F834439C8085BBD0
:103F480000249C71136807331360146863181B4EB0
:103F580033600726665405245C70D0F8F842C4EB39
:103F6800C40400EBC40494F814439C700224DC706D
:103F7800D0F8F842C4EBC40400EBC400B0F8340332
:103F880098808DB9002098711368073313600B79F6
:103F980002330B7113684B80BDE8F0871023A371BF
:103FA80086E700249C71CDE700209871ECE700BFFC
:103FB8002C5F0020245F0020285F0020145F002071
:103FC800205F00201C5F0020185F00202DE9F047CB
:103FD8000446D0F8F83273B1D4F8F852C5EBC503EB
:103FE80004EBC30393F80033012B0FD0022B56D0F8
:103FF8000020BDE8F0874F494F4B1868FFF778FD60
:104008004E494F4B1868FFF773FDE5E7C5EBC5064A
:1040180004EBC6064FF04009C6F834932046FFF774
:104028004FFD0223C6F8283386F82C03013086F8A2
:104038002D030327C6F80C73D6F824134B463A46CB
:1040480009782046FFF768FDD4F8F832C3EBC303BC
:1040580004EBC303D3F8241320233A4649782046B7
:10406800FFF75AFDD4F8F832C3EBC30304EBC303DC
:10407800D3F8241320233A4689782046FFF74CFDCD
:1040880001232C4A2C4909682046FFF771FD0023BB
:104098002A4A2B4909682046FFF76AFDA8E7C5EBBD
:1040A800C50604EBC6064FF0400AC6F834A32046FE
:1040B800FFF706FD4FF00208C6F8288386F82C03A0
:1040C800013086F82D030327C6F80C73D6F824139D
:1040D8005346424609782046FFF71EFDD4F8F832C9
:1040E800C3EBC30204EBC202D2F82413D2F8343370
:1040F800424649782046FFF70FFDD4F8F832C3EB63
:10410800C30304EBC303D3F8241308233A4689787E
:104118002046FFF701FD0123064A074909682046A2
:10412800FFF702FE0023054A054909682046FFF704
:10413800FBFD5DE76C600020C80000203C5F0020AC
:10414800C4000020D0F8F832032B1AD810B5C3EBFE
:10415800C30C00EBCC0CDCF808430CB1002010BDFC
:1041680003F1AE0440F82410CCF804330124CCF851
:1041780008438CF80023FFF729FF0028EFD003201D
:10418800EDE70020704700B584464FF0000E7046FA
:1041980000E00130DCF8FC32834214D9C0EBC003E4
:1041A8000CEBC30393F800338B42F2D1C0EBC0038E
:1041B8000CEBC303D3F80833012BEAD1964503D09F
:1041C8000EF1010EE5E7FF205DF804FB12230B80DA
:1041D800004870472401002004230B8000487047E2
:1041E80020010020002393421ED200B510E00CF1FC
:1041F800370C01F813C000014FEA430C0CF1010C15
:104208004FF0000E01F80CE00133DBB2934209D203
:104218004FEA107CB0F1204FE9D20CF1300C01F8D4
:1042280013C0E8E75DF804FB7047000030B583B0C1
:10423800144BD3F80007D3F80447D3F80837C0184D
:1042480001D103B030BD104D08222946FFF7CAFF3F
:10425800042205F110012046FFF7C4FF0B4B019320
:1042680000230CE05A1C510008336B4413F8043C3B
:10427800074800F812304B1C0021C1541346022B8A
:10428800F0D9DEE70000FA0B0601002055355F0083
:104298000401002008B51A230B80FFF7C7FF014867
:1042A80008BD00BF0401002008B50A4628B9054921
:1042B800054808F059FD034808BD0249024808F0BE
:1042C80053FDF8E79C610020B436010808B50A469A
:1042D80028B90549054808F047FD034808BD0249C3
:1042E800024808F041FDF8E79C610020C436010847
:1042F80008B50A4628B90549054808F035FD0348B8
:1043080008BD0249034808F02FFDF8E79C6100202A
:10431800D4360108E836010810B50A46034C214690
:10432800034808F021FD204610BD00BF9C61002015
:10433800FC36010812230B800048704774010020E6
:1043480004230B800048704770010020002393422B
:104358001ED200B510E00CF1370C01F813C00001B3
:104368004FEA430C0CF1010C4FF0000E01F80CE081
:104378000133DBB2934209D24FEA107CB0F1204FEF
:10438800E9D20CF1300C01F813C0E8E75DF804FB42
:104398007047000030B583B0144BD3F80007D3F84A
:1043A8000447D3F80837C01801D103B030BD104D09
:1043B80008222946FFF7CAFF042205F1100120460A
:1043C800FFF7C4FF0B4B019300230CE05A1C51006C
:1043D80008336B4413F8043C074800F812304B1CB0
:1043E8000021C1541346022BF0D9DEE70000FA0B76
:1043F8005601002055355F005401002008B51A23E6
:104408000B80FFF7C7FF014808BD00BF540100201B
:1044180008B50A4628B90549054808F0A5FC034827
:1044280008BD0249024808F09FFCF8E79C63002099
:10443800B436010808B50A4628B90549054808F000
:1044480093FC034808BD0249024808F08DFCF8E7D0
:104458009C630020C436010808B50A4628B90549F6
:10446800054808F081FC034808BD0249034808F0E4
:104478007BFCF8E79C630020043701081C3701081F
:1044880010B50A46034C2146034808F06DFC204647
:1044980010BD00BF9C630020FC36010838B5FEF74C
:1044A8003BF9114B1860114B1B68B3F5FA5F13D336
:1044B80000230E4A13600E4801680E4A11600E4927
:1044C8000C680E4A14600E4A0E4C1568256003608D
:1044D8004FF6FF7008601360044A136801331360D5
:1044E800FDF730FF002038BD78660020A865002061
:1044F8009466002090660020A401002084660020B5
:104508007C6600208066002038B5D0F8F832B233D7
:1045180000EB83035B68ABB1044600F02CFD0A4D49
:10452800C1B2284600F0AFFE20232A4604212046C7
:1045380000F080FD20232A460421204600F082FD59
:10454800002038BD0320FCE7E066002010B51D48B8
:10455800FEF770F81C4C21781C48FEF76BF8617860
:104568001B48FEF767F8E1881A48FEF763F800244D
:1045780006E0194B1A5D21461848FEF75BF801342E
:10458800114BDB88A342F4DC154B1B784BB1154B60
:104598001C88072C07D9124B00221A70124B0122D3
:1045A8001A70002010BDFEF7B7F8104B43F824002E
:1045B8000C4A13880E49022041F823000133138066
:1045C800E9E700BF34370108406700204C3701088D
:1045D8006837010884370108006700208C37010814
:1045E800DA660020D8660020DB660020B866002066
:1045F8009866002038B5044690F8F83203228021E6
:1046080007F0E0FF0146104D2870204600F0ECFC52
:104618002B7803F00F0303EB830204EB82020021E3
:104628009184D184D4F8F832B23304EB8303586808
:1046380040B100F0BBFCD4F8F832B23304EB830489
:1046480000236360002038BDA8010020F8B50446A7
:10465800102000F097FC002848D00646D4F8F8321D
:1046680003F1B20204EB82025060C4F8C802DBB264
:1046780003228021204607F0A5FF0146254F387008
:1046880000F00F0303EB830304EB83030125DD84B0
:1046980040230322204600F09CFC3B7803F00F03E4
:1046A80003EB830304EB83039D84A4F87650202353
:1046B80003228421204600F08CFCA4F87450A4F84E
:1046C8007650202303220421204600F082FCA4F81F
:1046D80074500023337320230F4A0421204600F02E
:1046E800B1FC0E4B1B7853B10020F8BDD4F8F8325A
:1046F800B23304EB830300225A600220F5E7074B2C
:104708001D700748FDF796FF06490748FDF70AFDA3
:104718000020EAE7A8010020E06600209C65002050
:104728009C37010835470008B83701082DE9F041E2
:1047380082B005460388012B10D000262B882BB1A8
:104748006B694B4900209847074668B92B88012BAD
:1047580045D0002E7FD002B0BDE8F08143694549BD
:10476800002098470646E9E7C8220021424809F098
:10477800B5FBFCF723FF0446FDF7C8FCA8B1FCF71E
:104788001DFF031BB3F57A7FF6D3FCF717FF04462A
:104798003A4B1B6800933A4B1B683A4A12683A49ED
:1047A80009683A48FDF720FAE6E72B88022B01D082
:1047B8003E46CBE76B69364901209847064660B903
:1047C8003E46C3E72C4B33F8142021463148FDF709
:1047D8000BFA0134632CF5DDB8E70024FAE76B69BE
:1047E8002D490020984780460028B2D0034600266D
:1047F80034461F466FB3294B01221A70FCF7DEFEC0
:104808000546FCF7DBFE401BB0F57A7FF2D2244B5D
:104818001B784BB9FDF7CEF90028F2D0FDF7D2F995
:1048280000237128EDD1E4E70134A4B21D4B1B88A5
:10483800013B1D4951F823200B68D21A1644B6FBD8
:10484800F4F321461948FDF7CFF9154B00221A70E9
:10485800E0E746467DE71648FDF7C6F91548FDF737
:10486800C3F91548FDF7C0F91448FDF7BDF972E71B
:10487800C03701084C310108AC650020746600207F
:10488800846600208066002090660020C8370108F2
:10489800F4370108F837010800380108DC66002001
:1048A800DB660020D8660020B866002008380108BA
:1048B8002038010830380108403801085438010808
:1048C8002DE9F041044603F1B20004EB800047688B
:1048D8001FB30D46164603228021204607F072FEBC
:1048E8000F4B187094F89C32DBB2032B04D04FF0B6
:1048F80000084046BDE8F08197F80C80B8F1000F39
:1049080002D04FF00008F4E701233B7333462A46F0
:104918000146204600F08EFBEBE74FF00308E8E77E
:10492800A8010020D0F8F832B23300EB83035B68AB
:1049380000221A73012901D00020704770B504467F
:10494800FDF700FD344B002018605860FCF7AEFE00
:1049580010B1314B04229A700120FCF7A7FE10B168
:104968002D4B0522DA702D4B1B78002B3BD194F888
:10497800F832082228492046FFF7A2FF284A136880
:1049880001331360FDF7C8FE264B1B68C01A264B7F
:104998001860FDF7C1FE254B1B68C31A244A136033
:1049A800244A1268934201D2224A1360224A1268AA
:1049B800934201D9204A13601C4A10601F4AA2FB87
:1049C8000312D208B3F57A7F00D363221C4B33F865
:1049D80012304FF6FF718B4203D00133184921F88A
:1049E8001230002070BD0C4B53229A70154E0025D2
:1049F8003580FDF791FE144B18603388134A42F84E
:104A0800235001333380124B01221A70114B1D7051
:104A1800024B1D70ABE700BFA0650020DC660020DC
:104A28009466002078660020746600208C6600205A
:104A380088660020A40100207C660020CDCCCCCC68
:104A4800AC650020D8660020B86600209866002073
:104A5800DA660020DB6600202DE9F04184B00C46C0
:104A6800D0F8F81201F1B20300EB83035F6800236A
:104A7800ADF80E30002F00F0018106468048FDF7A2
:104A8800D9FD21787F48FDF7D5FD61787E48FDF78F
:104A9800D1FDA1887D48FDF7CDFDE1880A467C4817
:104AA800FDF7C8FD257815F060055FD0202D40F092
:104AB800DC806378023B092B4ED8DFE803F0240E34
:104AC8004D4D4D4D4D301A05E28861887148FDF70E
:104AD800B1FDA3783B600025CCE0E28861886E4890
:104AE800FDF7A8FD01223946304608F05AF900259D
:104AF800C0E0E28861886948FDF79CFD63881B0A6D
:104B08007B600025B6E0E28861886548FDF792FD84
:104B18000122391D304608F044F90025AAE0E28850
:104B280061886048FDF786FD5F4B01AD93E803009F
:104B380085E8030096F8F832082229463046FFF740
:104B4800BFFE5A4B2068616803C3E2885849304663
:104B580008F03CF900258DE061885648FDF76AFDAC
:104B68002146304607F082FD032583E094F8018052
:104B7800B8F10B0F6FD8DFE808F006696E6E6E6E3D
:104B8800196E6E6E415796F89C32DBB2032B05D036
:104B98002146304607F06AFD03256BE002220DF13D
:104BA8000E01304608F0FDF8454663E0618842484A
:104BB800FDF740FD63881B0A222B0AD0212B17D151
:104BC800E288092A28BF09223C49304608F0E9F85A
:104BD80050E0A388012B05D0E2883F2A28BF3F2256
:104BE8003749F2E7E288222A28BF22223549ECE732
:104BF8002146304607F03AFD03253BE061883248FC
:104C0800FDF718FD96F89C32DBB2032B05D0214640
:104C1800304607F02BFD03252CE0012207F108019F
:104C2800304608F0BEF825E061882848FDF702FD07
:104C380096F89C32DBB2032B02D1A378BB6019E053
:104C48002146304607F012FD032513E0618820480D
:104C5800FDF7F0FC0EE061881648FDF7EBFC2146F5
:104C6800304607F003FD032504E02146304607F0EF
:104C7800FDFC0325284604B0BDE8F0810325F9E7CB
:104C8800643801084C37010868370108743801088E
:104C980090380108AC380108D838010804390108EF
:104CA8002C39010854390108B83001084067002040
:104CB800006700208039010894390108100200209B
:104CC800D0010020AC010020B8390108DC39010806
:104CD800003A0108014B1878704700BF4CA7002024
:104CE80010B5BAB00446D822002104A809F0F6F895
:104CF8002268344B9A4201D03AB010BD324BD3F8F7
:104D0800A82042F00202C3F8A820D3F8A83003F084
:104D180002030093009B00220823CDE9042300230B
:104D2800399304A803F07EFC002843D10C2000F03E
:104D3800B5FC254BD3F88C2042F48042C3F88C2074
:104D4800D3F88C2002F480420192019AD3F88C2087
:104D580042F40042C3F88C20D3F88C2002F40042BD
:104D68000292029AD3F8943013F0040F25D1164C0E
:104D7800D4F8943043F00403C4F89430D4F8943051
:104D880003F004030393039B02F002FB02F010FB01
:104D9800D4F8943023F00403C4F89430012000F0D0
:104DA80073FC00220521492000F0D6FC492000F0C0
:104DB800E3FCA1E7FCF700FBB8E702F0E9FA02F030
:104DC800F7FAEBE700000442000C024608B500F2CF
:104DD800C441D0F8080507F0BCF908BD08B501EBD7
:104DE800C10300EB8303D3F88822D0F8080507F045
:104DF80013FB08BD08B501EBC10300EB83039A6CF4
:104E0800D0F8080507F06FFB08BD08B5D0F808050D
:104E180007F02CFA08BD10B5044603693BB1022B14
:104E280001D1012104E0FCF7C7FA012100E00021CB
:104E3800D4F8080507F0FBF9D4F8080507F0B5F928
:104E480010BD000010B50446D0F8080507F0F2F9C7
:104E58002268D2F8003E43F00103C2F8003E236AFC
:104E680023B1044A136943F006031361024B00227D
:104E78001A7010BD00ED00E04CA7002008B5D0F86E
:104E8800080507F0E6F908BD08B5D0F8080507F0E9
:104E980029FA08BD08B5D0F8080507F00CFA08BDCE
:104EA80008B5D0F8080507F034FA08BD08B5D0F8F9
:104EB800080507F030FA08BD0378012B01D000205F
:104EC800704710B51E4BC3F80805C0F8EC321D4AF0
:104ED8001A6009225A6000221A61DA600321996176
:104EE8000121D9611A625A62DA621A635A63184652
:104EF80001F0AAFB00BB124C4FF40071204602F0EF
:104F0800A1F980220021204602F076F980220121B1
:104F1800204602F071F980220221204602F06CF945
:104F280080220321204602F067F9802204212046CE
:104F380002F062F9002010BDFCF73EFADBE700BF83
:104F480050A7002000000442D0F8EC3211F0800F86
:104F580008D101F07F0101EBC10103EB810393F854
:104F68007E02704701F07F0101EBC10103EB810371
:104F780093F83E00704708B5D0F8EC0201F071FDD7
:104F880008BD0000074B1B68B3F5805F08D803EB2A
:104F980090000130034A1060034800EB830070471B
:104FA8000020704748A70020486700207047032862
:104FB80005D8DFE800F0050402050120704703204A
:104FC800704708B5D0F8EC0201F0D5FBFFF7EFFF0A
:104FD80008BD08B594461A466346D0F8EC0201F0BD
:104FE8009DFCFFF7E4FF08BD08B5D0F8EC0201F01E
:104FF800DAFCFFF7DCFF08BD08B5D0F8EC0201F0D9
:105008005EFDFFF7D4FF08BD08B5D0F8EC0201F04B
:105018009AFDFFF7CCFF08BD08B5D0F8EC0201F007
:1050280069FCFFF7C4FF024B01221A7008BD00BFDC
:105038004CA7002008B5D0F8EC0201F01BFDFFF7E3
:10504800B6FF08BD08B5D0F8EC0201F0E5FCFFF7A3
:10505800AEFF08BD4378032B01D0002070470378CA
:10506800082B0BD0092B07D0072B02D0FF23037086
:1050780002E0C278034B1A7001207047014B1B787D
:10508800C370F9E75CAC0020FF2303707047000091
:10509800014B33F810007047603A0108F0B583B04F
:1050A80006460B464F1EFFB214466AB114493278C1
:1050B800144850F822000190009373781248FDF7C5
:1050C800B9FA1CB900240BE01049F0E71048FDF7C5
:1050D800B1FA12E0354469780E48FDF7ABFA0134AD
:1050E800A74207DD254614F0070FF3D10A48FDF75C
:1050F800A1FAEFE70648FDF79DFA03B0F0BD00BF3F
:10510800243A0108E03C0108283A0108543A010809
:10511800A4310108583A0108503A0108014B185CBB
:10512800704700BF60AC00202DE9F0410746884673
:1051380015460646002405E000232B70013601358C
:105148000134A4B2444508D2E319B3F5806FF3DA09
:105158003046FFF7E3FF2870F0E7BDE8F08170B54F
:1051680000242826204604B170BD05023046FFF70A
:10517800D5FF284301360134E4B2F4E72DE9F041C4
:1051880007468846154600F12506002405E0002359
:105198002B70013601350134A4B2444508D2E31915
:1051A800B3F5167FF3DA3046FFF7B8FF2870F0E75B
:1051B800BDE8F081014B1954704700BF60AC002076
:1051C80008B5FFF7F7FF08BD10B5002404E000217B
:1051D8002046FFF7F5FF0134B4F5806FF7D110BD15
:1051E8002DE9F04107468846154600F125060024BA
:1051F80003E0013501360134A4B2444508D2E3196D
:10520800B3F5167FF5DA29783046FFF7D9FFF0E7CE
:10521800BDE8F081C1EB01114900962303FB0011A1
:1052280001EB420101F125007047032811D838B578
:105238001C46042901D80E2A00D938BDFFF7EAFF19
:105248000546210AFFF7BCFFE1B2681CFFF7B8FF6B
:10525800F3E770472DE9F0410746884615460646AC
:10526800002403E0013501360134A4B2444508D2D4
:10527800E319B3F5806FF5DA29783046FFF7A0FF18
:10528800F0E7BDE8F0812DE9F04104460D460646F9
:1052980016F8013B013B122B00F2A480DFE803F073
:1052A8000A2CA2A273A29E9E9EA2A216101A907EFB
:1052B80028658200002343700C238370012692E046
:1052C800042343700023837001268CE0102343706D
:1052D800012688E04378807840EA0320E1781C2999
:1052E80001D901267FE0221DFFF71EFF01267AE083
:1052F80004234370012676E04378022B12D0032B57
:105308002FD0012B03D0FFF7BFFE01266BE0FCF77F
:1053180055F9030EA370030CE370030A237160713F
:10532800012660E0FFF71BFF030EA370030CE37078
:10533800030A23716071012655E03846FFF7A8FE7D
:1053480008F10103DBB2020A06F8082008F1020896
:105358005FFA88F8F0540137FFB2042FEDD901261F
:1053680041E000274FF00108F7E74378807840EAEA
:105378000320E1781C2901D9012634E0221DFFF71A
:10538800FDFE01262FE00279437943EA0223C27821
:1053980081784078FFF749FF012624E0FFF714FFE2
:1053A800012620E04378807840EA0320E1781C2930
:1053B80001D9012617E0221DFFF712FF012612E08E
:1053C8004378807840EA0320E1781C2901D9012636
:1053D80009E0221DFFF73EFF012604E0FFF73AFE31
:1053E800064600E00026324629462046FFF756FECC
:1053F8000EB1BDE8F08129462046FFF745FEF8E7E3
:1054080000B583B0094BD3F8942042F00402C3F8E6
:105418009420D3F8943003F004030193019B01F026
:10542800B7FF01F0BDFF03B05DF804FB000C0246B6
:1054380082B00368B3F1804F04D0104A93420FD072
:1054480002B070470E4BD3F89C2042F00102C3F81B
:105458009C20D3F89C3003F001030093009BEFE7F6
:10546800074BD3F8A42042F48022C3F8A420D3F831
:10547800A43003F480230193019BE1E70048014035
:10548800000C0246FEE7FEE7FEE7FEE7FEE7704790
:105498007047704708B500F0D1F808BD0120704783
:1054A80008B508F0ADFD162303604FF0FF3008BDC6
:1054B80008B54FF0FF31FFF7F3FFFEE770B50C4674
:1054C8001646002506E0AFF30080214601F8010BDF
:1054D80001350C46B542F6DB304670BD70B50C465A
:1054E8001646002504E014F8010BAFF300800135DF
:1054F800B542F8DB304670BD4FF0FF3070474FF4CF
:1055080000534B600020704701207047002070470F
:1055180010B503460C4A0D490D48006840B10C48C7
:1055280000680344521A934206D8094A136010BD12
:105538000748084C0460F2E708F062FD0C2303609A
:105548004FF0FF30F3E700BF000027200004000001
:1055580060B0002078B300200E48D0F8883043F4BB
:105568007003C0F888300C4B01221A600022DA61FF
:105578001A625A62196821F0A85121F410211960A1
:105588009A62196821F4802119601A654FF0006346
:105598008360704700ED00E0000C0246104B1B785A
:1055A8000BB90120704710B504464FF47A70B0FB70
:1055B800F3F30C4A1068B0FBF3F000F0E1F868B9B7
:1055C8000F2C01D901200AE0002221464FF0FF30BC
:1055D80000F0C2F8044B1C60002000E0012010BD60
:1055E80058020020540200205C02002010B50F4A27
:1055F800136843F480731360032000F09BF801F0F4
:1056080055FF0B4B1B6A03F00F030A4AD35CD840C3
:10561800094B18600F20FFF7C1FF10B10124204685
:1056280010BD0446FFF7ECFEF9E700BF002002407A
:10563800000C02462841010854020020034B1B7845
:10564800034A11680B441360704700BF58020020DA
:1056580064B00020014B1868704700BF64B0002098
:1056680038B50446FFF7F6FF0546B4F1FF3F02D010
:10567800044B1B781C44FFF7EDFF401BA042FAD3F4
:1056880038BD00BF58020020034A536F23F00103BE
:1056980003435367704700BF00040046034A536F33
:1056A80023F03C0303435367704700BF00040046E0
:1056B800002807DB00F01F02400901239340024A3B
:1056C80042F82030704700BF00E100E0002808DB06
:1056D8000901C9B200F1604000F5614080F800138B
:1056E800704700F00F000901C9B2014B1954704707
:1056F80014ED00E000B500F00700C0F1070CBCF1A4
:10570800040F28BF4FF0040C031D062B0FD9C31E2E
:105718004FF0FF3E0EFA0CF021EA000199400EFA14
:1057280003FE22EA0E0241EA02005DF804FB0023B0
:10573800EEE70000074AD36823F4E0631B041B0C60
:10574800000200F4E060034343F0BF6343F4003316
:10575800D360704700ED00E010B50446054BD868EB
:10576800C0F30220FFF7C6FF01462046FFF7AEFF51
:1057780010BD00BF00ED00E008B5FFF799FF08BDB8
:105788000138B0F1807F0BD24FF0E0235861054A11
:10579800F02182F823100020986107221A617047CF
:1057A8000120704700ED00E030B40568AC6C4FEAAA
:1057B800144C4FEA0C4C9BB24CEA0303AB640368ED
:1057C8004FF4FE44DC600368D96403681A6530BC92
:1057D8007047000070B50446FFF73CFF002C75D0F9
:1057E8000546236823F47F6626F00F065A6942F0BF
:1057F80006025A6123685A6912F0010F0BD0FFF7AD
:1058080029FF431B052BF5D91023A365032384F82F
:105818005430012059E000221A6023685A61236835
:105828001A6423685A6423689A642368DA642368CC
:105838001A652368DA672368254A93421ED002F165
:10584800805293421AD002F170428032934215D0AE
:1058580002F18052934211D002F170428032934299
:105868000CD002F18052934208D002F1704280328B
:10587800934203D002F18052934203D100225A6529
:1058880023689A6572682368C3F30B03503BC3F31C
:10589800C413012101FA03F322EA030373602368A6
:1058A8004FF4FE42DA60002323666366A366E3666C
:1058B80023676367E36D0BB10023E3650020206570
:1058C800A06584F8540084F84C0070BD0120FCE702
:1058D80050060240002836D010B5044690F84C0017
:1058E800012832D0012084F84C0094F85400C0B24A
:1058F800012806D04023A365002384F84C300120FA
:1059080010BD022084F854000020A0652046FFF74F
:105918004BFF2268536943F4BA435361636E23B162
:105928002268536943F400735361236F23B12268DB
:10593800536943F4005353612268536943F00103E8
:1059480053610020DCE7012070470220D8E7E8B166
:10595800036823F47F6222F00F02C3F30B03503B6A
:10596800C3F3C4130120984011F0100F10D001F0B8
:105978001101112905D0536823EA00035360002060
:1059880070475368034353600020704701207047F5
:1059980000207047816BC36B19430368674A9342C1
:1059A80000F08D8002F18052934200F0888002F16D
:1059B80070428032934200F0828002F1805293421A
:1059C8007DD002F170428032934278D002F1805249
:1059D800934274D002F17042803293426FD002F148
:1059E800805293426BD002F170428032934266D06B
:1059F80002F18052934262D002F1704280329342A7
:105A08005DD002F18052934259D002F17042803247
:105A1800934254D002F18052934250D002F1704226
:105A2800803293424BD002F18052934247D002F128
:105A380070428032934242D002F1805293423ED06B
:105A480002F170428032934239D002F1805293427F
:105A580035D002F170428032934230D002F1805248
:105A680093422CD002F170428032934227D002F147
:105A78008052934223D002F17042803293421ED06A
:105A880002F1805293421AD002F17042803293425E
:105A980015D002F18052934211D002F17042803247
:105AA80093420CD002F18052934208D002F1704226
:105AB8008032934203D002F18052934201D1026CAA
:105AC80011435A6922F443020A435A6102680023C7
