:020000040800F2
:1000000000002720491000087528000877280008FC
:10001000792800087B2800087D280008991000082E
:100020000000000000000000000000007F28000821
:1000300081280008000000008328000885280008A7
:1000400099100008991000089910000899100008EC
:1000500099100008991000089910000899100008DC
:1000600099100008991000089910000899100008CC
:1000700099100008991000089910000899100008BC
:1000800099100008991000089910000899100008AC
:10009000991000089910000899100008991000089C
:1000A0008D28000899100008991000089910000880
:1000B000991000089910000899100008991000087C
:1000C000991000089910000899100008991000086C
:1000D000991000089910000899100008991000085C
:1000E000991000089910000899100008991000084C
:1000F000991000089910000899100008991000083C
:10010000991000089910000899100008991000082B
:10011000991000089910000899100008991000081B
:10012000991000089910000899100008991000080B
:1001300099100008991000089910000899100008FB
:1001400099100008991000089910000899100008EB
:1001500099100008991000089910000899100008DB
:1001600099100008992800089910000899100008B3
:1001700099100008991000089910000899100008BB
:1001800099100008991000089910000899100008AB
:10019000991000089910000899100008991000089B
:1001A000991000089910000899100008991000088B
:1001B000991000089910000899100008991000087B
:1001C000991000089910000899100008991000086B
:1001D000991000089910000899100008991000085B
:1001E000991000089910000899100008991000084B
:1001F000991000089910000899100008991000083B
:10020000991000089910000899100008991000082A
:10021000991000089910000899100008991000081A
:10022000991000089910000899100008991000080A
:1002300099100008991000089910000899100008FA
:10024000991000089910000899100008000000009B
:08025000991000089910000844
:1002580010B5054C237833B9044B13B10448AFF3F8
:1002680000800123237010BD1C0F00200000000037
:100278006CED000808B5034B1BB103490348AFF305
:10028800008008BD00000000200F00206CED000871
:1002980010F8012B11F8013B012A28BF9A42F7D028
:1002A800D01A7047034613F8012B002AFBD1181AFD
:1002B8000138704781F0004102E000BF83F000433D
:1002C80030B54FEA41044FEA430594EA050F08BFE9
:1002D80090EA020F1FBF54EA000C55EA020C7FEAAD
:1002E800645C7FEA655C00F0E2804FEA5454D4EB2A
:1002F8005555B8BF6D420CDD2C4480EA020281EAF4
:10030800030382EA000083EA010180EA020281EA2B
:100318000303362D88BF30BD11F0004F4FEA01317D
:100328004FF4801C4CEA113102D0404261EB41018C
:1003380013F0004F4FEA03334CEA133302D0524212
:1003480063EB430394EA050F00F0A780A4F10104CE
:10035800D5F1200E0DDB02FA0EFC22FA05F2801808
:1003680041F1000103FA0EF2801843FA05F35941EE
:100378000EE0A5F120050EF1200E012A03FA0EFC6D
:1003880028BF4CF0020C43FA05F3C01851EBE37197
:1003980001F0004507D54FF0000EDCF1000C7EEBB4
:1003A80000006EEB0101B1F5801F1BD3B1F5001FF2
:1003B8000CD349085FEA30004FEA3C0C04F1010411
:1003C8004FEA445212F5800F80F09A80BCF1004F3A
:1003D80008BF5FEA500C50F1000041EB045141EABC
:1003E800050130BD5FEA4C0C404141EB0101013C85
:1003F80028BFB1F5801FE9D291F0000F04BF014674
:100408000020B1FA81F308BF2033A3F10B03B3F145
:1004180020020CDA0C3208DD02F1140CC2F10C02D5
:1004280001FA0CF021FA02F10CE002F11402D8BF33
:10043800C2F1200C01FA02F120FA0CFCDCBF41EAFF
:100448000C019040E41AA2BF01EB0451294330BDCE
:100458006FEA04041F3C1CDA0C340EDC04F11404AB
:10046800C4F1200220FA04F001FA02F340EA030082
:1004780021FA04F345EA030130BDC4F10C04C4F1C8
:10048800200220FA02F001FA04F340EA03002946A8
:1004980030BD21FA04F0294630BD94F0000F83F4F2
:1004A800801306BF81F480110134013D4EE77FEAD5
:1004B800645C18BF7FEA655C29D094EA050F08BF21
:1004C80090EA020F05D054EA000C04BF1946104602
:1004D80030BD91EA030F1EBF0021002030BD5FEA46
:1004E800545C05D14000494128BF41F0004130BD6E
:1004F80014F580043CBF01F5801130BD01F00045C2
:1005080045F0FE4141F470014FF0000030BD7FEA34
:10051800645C1ABF194610467FEA655C1CBF0B462F
:10052800024650EA013406BF52EA033591EA030F46
:1005380041F4002130BD00BF90F0000F04BF00213E
:10054800704730B54FF4806404F132044FF0000571
:100558004FF0000150E700BF90F0000F04BF0021EA
:10056800704730B54FF4806404F1320410F0004550
:1005780048BF40424FF000013EE700BF42004FEA4B
:10058800E2014FEA31014FEA02701FBF12F07F43C8
:1005980093F07F4F81F06051704732F07F4208BF7F
:1005A800704793F07F4F04BF41F40021704730B586
:1005B8004FF4607401F0004521F000411CE700BFD2
:1005C80050EA010208BF704730B54FF000050AE055
:1005D80050EA010208BF704730B511F0004502D556
:1005E800404261EB41014FF4806404F132045FEA58
:1005F800915C3FF4D8AE4FF003025FEADC0C18BF01
:1006080003325FEADC0C18BF033202EBDC02C2F1F2
:10061800200300FA03FC20FA02F001FA03FE40EA84
:100628000E0021FA02F11444BDE600BF70B54FF088
:10063800FF0C4CF4E06C1CEA11541DBF1CEA135566
:1006480094EA0C0F95EA0C0F00F0DEF82C4481EACE
:10065800030621EA4C5123EA4C5350EA013518BFEE
:1006680052EA033541F4801143F4801338D0A0FBDB
:1006780002CE4FF00005E1FB02E506F00042E0FB88
:1006880003E54FF00006E1FB03569CF0000F18BF8E
:100698004EF0010EA4F1FF04B6F5007F64F5407436
:1006A80004D25FEA4E0E6D4146EB060642EAC621C9
:1006B80041EA55514FEAC52040EA5E504FEACE2E36
:1006C800B4F1FD0C88BFBCF5E06F1ED8BEF1004F39
:1006D80008BF5FEA500E50F1000041EB045170BDB5
:1006E80006F0004646EA010140EA020081EA0301F9
:1006F800B4EB5C04C2BFD4EB0C0541EA045170BDF5
:1007080041F480114FF0000E013C00F3AB8014F16E
:10071800360FDEBF002001F0004170BDC4F10004B7
:10072800203C35DA0C341BDC04F11404C4F1200538
:1007380000FA05F320FA04F001FA05F240EA020093
:1007480001F0004221F0004110EBD37021FA04F6C9
:1007580042EB06015EEA430E08BF20EAD37070BD83
:10076800C4F10C04C4F1200500FA04F320FA05F0E2
:1007780001FA04F240EA020001F0004110EBD370E4
:1007880041F100015EEA430E08BF20EAD37070BD54
:10079800C4F1200500FA05F24EEA020E20FA04F32D
:1007A80001FA05F243EA020321FA04F001F00041DC
:1007B80021FA04F220EA020000EBD3705EEA430E4D
:1007C80008BF20EAD37070BD94F0000F0FD101F07C
:1007D8000046400041EB010111F4801F08BF013CB5
:1007E800F7D041EA060195F0000F18BF704703F0F3
:1007F8000046520043EB030313F4801F08BF013D7A
:10080800F7D043EA0603704794EA0C0F0CEA135535
:1008180018BF95EA0C0F0CD050EA410618BF52EAEF
:100828004306D1D181EA030101F000414FF00000F5
:1008380070BD50EA410606BF1046194652EA430603
:1008480019D094EA0C0F02D150EA013613D195EA77
:100858000C0F05D152EA03361CBF104619460AD1BF
:1008680081EA030101F0004141F0FE4141F47001C9
:100878004FF0000070BD41F0FE4141F4780170BDB9
:1008880070B54FF0FF0C4CF4E06C1CEA11541DBF1E
:100898001CEA135594EA0C0F95EA0C0F00F0A7F820
:1008A800A4EB050481EA030E52EA03354FEA01314D
:1008B80000F088804FEA03334FF0805545EA131360
:1008C80043EA12634FEA022245EA111545EA106528
:1008D8004FEA00260EF000419D4208BF964244F1BF
:1008E800FD0404F5407402D25B084FEA3202B61ADE
:1008F80065EB03055B084FEA32024FF480104FF4B2
:10090800002CB6EB020E75EB030E22BFB61A754625
:1009180040EA0C005B084FEA3202B6EB020E75EBB8
:10092800030E22BFB61A754640EA5C005B084FEA20
:100938003202B6EB020E75EB030E22BFB61A7546ED
:1009480040EA9C005B084FEA3202B6EB020E75EBF8
:10095800030E22BFB61A754640EADC0055EA060EB9
:1009680018D04FEA051545EA16754FEA06164FEAFC
:10097800C30343EA52734FEAC2025FEA1C1CC0D1A8
:1009880011F4801F0BD141EA00014FF000004FF035
:10099800004CB6E711F4801F04BF01430020B4F1F6
:1009A800FD0C88BFBCF5E06F3FF6AFAEB5EB030CAE
:1009B80004BFB6EB020C5FEA500C50F1000041EBAB
:1009C800045170BD0EF0004E4EEA113114EB5C0478
:1009D800C2BFD4EB0C0541EA045170BD41F480114B
:1009E8004FF0000E013C90E645EA060E8DE60CEA53
:1009F800135594EA0C0F08BF95EA0C0F3FF43BAF70
:100A080094EA0C0F0AD150EA01347FF434AF95EA26
:100A18000C0F7FF425AF104619462CE795EA0C0F0A
:100A280006D152EA03353FF4FDAE1046194622E7D7
:100A380050EA410618BF52EA43067FF4C5AE50EAB1
:100A480041047FF40DAF52EA43057FF4EBAE12E7A1
:100A58004FF0FF3C06E000BF4FF0010C02E000BF82
:100A68004FF0010C4DF804CD4FEA410C7FEA6C5C65
:100A78004FEA430C18BF7FEA6C5C1BD001B050EA08
:100A8800410C0CBF52EA430C91EA030F02BF90EAF3
:100A9800020F0020704710F1000F91EA030F58BFB2
:100AA800994208BF90422CBFD8176FEAE37040F014
:100AB800010070474FEA410C7FEA6C5C02D150EAB2
:100AC800013C07D14FEA430C7FEA6C5CD6D152EA6D
:100AD800033CD3D05DF8040B704700BF8446104632
:100AE80062468C461946634600E000BF01B5FFF731
:100AF800B7FF002848BF10F1000F01BD4DF808ED01
:100B0800FFF7F4FF0CBF012000205DF808FB00BFD1
:100B18004DF808EDFFF7EAFF34BF012000205DF82B
:100B280008FB00BF4DF808EDFFF7E0FF94BF012078
:100B380000205DF808FB00BF4DF808EDFFF7CEFF79
:100B480094BF012000205DF808FB00BF4DF808EDB8
:100B5800FFF7C4FF34BF012000205DF808FB00BF89
:100B68004FEA410C7FEA6C5C02D150EA013C0AD1A1
:100B78004FEA430C7FEA6C5C02D152EA033C02D193
:100B88004FF0000070474FF0010070474FEA4102F4
:100B980012F5001215D211D56FF47873B3EB6252C7
:100BA80012D94FEAC12343F0004343EA505311F0EE
:100BB800004F23FA02F018BF404270474FF0000080
:100BC800704750EA013005D111F0004008BF6FF0BE
:100BD800004070474FF00000704700BF4A0011D234
:100BE80012F5001211D20DD56FF47873B3EB62527F
:100BF8000ED44FEAC12343F0004343EA505323FA8B
:100C080002F070474FF00000704750EA013002D1FF
:100C18004FF0FF3070474FF0000070474FEA410235
:100C2800B2F1E04324BFB3F5001CDCF1FE5C0DD942
:100C380001F0004C4FEAC0024CEA5070B2F1004F8C
:100C480040EB830008BF20F00100704711F0804F8F
:100C580021D113F13872BCBF01F00040704741F454
:100C680080114FEA5252C2F11802C2F1200C10FA58
:100C78000CF320FA02F018BF40F001004FEAC1233C
:100C88004FEAD32303FA0CFC40EA0C0023FA02F3E0
:100C98004FEA4303CCE77FEA625307D150EA0133B6
:100CA8001EBF4FF0FE4040F44000704701F0004086
:100CB80040F0FE4040F40000704700BF53B94AB905
:100CC800002908BF00281CBF4FF0FF314FF0FF304C
:100CD80000F0B4B9ADF1080C6DE904CE00F03CF8B1
:100CE800DDF804E0DDE9022304B0704738B50022DE
:100CF800002304460D46FFF70BFF28B92046294676
:100D0800BDE8384000F00AB8204605F1004100F07F
:100D180005F8404261EB410138BD00BFD0B5002263
:100D28000B4B06460F46FFF781FCFFF757FF0446BB
:100D3800FFF702FC0022074BFFF778FC02460B4640
:100D480030463946FFF7BAFAFFF748FF2146D0BDCB
:100D58000000F03D0000F0412DE9F04F099D0C46E0
:100D6800002B4DD18A420F4684469646B2FA82F34A
:100D780060D94BB102FA03FEC3F120029F4000FA8A
:100D880003FC20FA02F217434FEA1E461FFA8EF4BC
:100D98004FEA1C42B7FBF6F106FB117701FB04F0A2
:100DA80042EA0742904208D91EEB020201F1FF37DE
:100DB80002D2904200F22D813946121A1FFA8CFC99
:100DC800B2FBF6F006FB102200FB04F44CEA024CDE
:100DD800644508D91EEB0C0C00F1FF3202D26445C1
:100DE80000F21A81104640EA0140ACEB040C0021E5
:100DF80025B12CFA03F30022C5E90032BDE8F08FD3
:100E08008B4205D90DB1C5E9000100210846F5E777
:100E1800B3FA83F100294DD1A342C0F0F280904289
:100E280080F0EF80064623460846002DE6D0C5E947
:100E38000063E3E7002B40F0A2808A1A4FEA1E47BE
:100E48001FFA8EF60121B2FBF7F407FB14204FEAD4
:100E58001C4242EA004206FB04F090420FD91EEB06
:100E6800020204F1FF382CBF4FF001094FF00009CE
:100E7800904203D9B9F1000F00F0C8804446121A15
:100E88001FFA8CFCB2FBF7F007FB102200FB06F6FA
:100E98004CEA024C664508D91EEB0C0C00F1FF32F7
:100EA80002D2664500F2BB801046ACEB060C40EA65
:100EB80004409DE7C1F120068B4004FA01FE22FAA6
:100EC80006F720FA06FCF4408A401F434EEA0C035A
:100ED80000FA01FE4FEA17484FEA13491FFA87FC48
:100EE800B4FBF8F008FB104449EA044400FB0CF991
:100EF800A1450ED93C1900F1FF3A2CBF4FF0010B68
:100F08004FF0000BA14503D9BBF1000F00F093800F
:100F18005046A4EB09041FFA83F9B4FBF8F308FB65
:100F2800134403FB0CFC49EA0444A44506D93C19C4
:100F380003F1FF3801D2A4457AD8434643EA00407A
:100F4800A4EB0C04A0FB02984445CC46434602D3CC
:100F580006D1CE4504D20138B9EB020C68EB070381
:100F68005DB1BEEB0C0264EB030404FA06F622FA48
:100F780001F3CC401E43C5E9006400213EE702FAB4
:100F880003FEC3F1200104FA03F200FA03FCCC408B
:100F98004FEA1E4720FA01F11FFA8EF6B4FBF7F06C
:100FA8000A4307FB1044110C41EA044100FB06F414
:100FB8008C420ED91EEB010100F1FF382CBF4FF017
:100FC80001094FF000098C4202D9B9F1000F2CD069
:100FD8004046091B92B2B1FBF7F407FB141142EA31
:100FE800014204FB06F1914207D91EEB020204F10B
:100FF800FF3801D2914215D84446521A44EA0041BA
:1010080021E7861A64EB030301200EE7023C7244D1
:1010180035E702397244D0E6F4440238E3E6F44492
:10102800023842E7023C7244E7E702387144D0E7ED
:10103800023B3C4482E702383C446AE7704700BF01
:101048000D48854601F08AFC0C480D490D4A0023DD
:1010580002E0D458C4500433C4188C42F9D30A4A65
:101068000A4C002301E013600432A242FBD308F0CB
:1010780035FE07F041FDFEE70000272000000020B4
:10108800C406002014F600081C0F00206439002054
:10109800FEE703460020186058609A600120D86077
:1010A8001961704770B50C461646002516E001EB2D
:1010B8000E0C1CF803C004F803C00133C2689A423E
:1010C800F5D8144443680268934216D00133826805
:1010D800B3FBF2F102FB113343600135B5420AD28A
:1010E80001690029EED0002CECD04368C26802FBED
:1010F80003FE0023E2E7012070BD0020FCE78268C0
:101108000368134441685B1AB3FBF2F002FB10302A
:101118007047000010B5C82000F02AFA00F0B2FEAF
:1011280000F078FF01F02EF8002405E04FF4E131DB
:10113800E0B201F04DF80134012CF7DD4FF4E13154
:10114800002000F09BFF114800F0DCFF1049114817
:1011580000F0D8FF1049114800F0D4FF03F00AFA54
:101168000F4981FB0031C017C0EBA1410D4800F0C9
:10117800C9FF0D4800F0C6FF4FF4E131002000F030
:1011880027FB002000F072FF10BD00BF88ED0008AB
:10119800A4ED0008B4ED0008CCED0008D8ED000877
:1011A80083DE1B43F0ED0008A0ED000810B500F049
:1011B800E3F9044604E000F0DFF9044600F078FDA6
:1011C80000F0DAF9031BB3F5FA7FF4D2F6E7000072
:1011D8002DE9F0478AB000240594069407940894F2
:1011E8000994504BD3F88C2042F00402C3F88C20A9
:1011F800D3F88C2002F004020092009AD3F88C20D5
:1012080042F08002C3F88C20D3F88C2002F08002D0
:101218000192019AD3F88C2042F00202C3F88C2084
:10122800D3F88C2002F002020292029AD3F88C20A2
:1012380042F04002C3F88C20D3F88C2002F0400220
:101248000392039AD3F88C2042F00102C3F88C2051
:10125800D3F88C3003F001030493049BDFF8D8A083
:1012680022460421504602F059FB2F4E2246802187
:10127800304602F053FB2D4D2246A021284602F0AD
:101288004DFB4FF400530593294B0693079405A98A
:10129800304602F0B3F9042705974FF00308CDF85C
:1012A8001880079405A9304602F0A8F94FF4804346
:1012B80005930694079405A9284602F09FF94FF470
:1012C8000049CDF81490CDF81880079405A9284650
:1012D80002F094F90597012706970794089405A941
:1012E800504602F08BF980230593069707940894DB
:1012F80005A9304602F082F9CDF81490CDF818808F
:10130800079405A90B4802F079F9A02305930697DD
:101318000794089405A9284602F070F90AB0BDE8B8
:10132800F08700BF000C0246000802420004024297
:1013380000001110000002420018024272B6FEE7D7
:1013480000B59FB06022002106A808F02FFC0023FA
:101358000093019302930393049305934FF4403051
:1013680002F0ECFF48BB012306934FF4803207924A
:1013780002211491032215920022179216930A2033
:101388001890082019901A911B930C231C931D92F6
:1013980006A803F047FB90B91F230093032301938A
:1013A800002302930393049305930421684603F0F2
:1013B8009FF930B91FB05DF804FBFFF7BFFFFFF7D7
:1013C800BDFFFFF7BBFF08B503F04EF803F068F860
:1013D800022003F00BF800B908BDFFF7AFFF0000CB
:1013E80000B583B01B4BD3F8882042F00102C3F844
:1013F8008820D3F8883003F001030193019B002271
:1014080011461D2001F0AAFB1D2001F0B7FB0022A8
:101418001146552001F0A2FB552001F0AFFB0E4804
:101428000E4B036000238363C36303644FF04043A0
:1014380043648023836401F00FFF38B91021064804
:1014480001F087FC20B903B05DF804FBFFF776FFD5
:10145800FFF774FF000C0246DC140020D00602409F
:1014680008B502F07BFA00B908BDFFF767FF000076
:1014780000B589B00023049305930693079301935D
:101488000293039313484FF0804202609F22426008
:1014980083604FF0FF32C2600361836106F018FA7F
:1014A80090B94FF48053049304A90A4806F04EFA01
:1014B80060B900230193039301A9064806F0E6FAF0
:1014C80030B909B05DF804FBFFF738FFFFF736FFC6
:1014D800FFF734FF9014002008B50948094B036052
:1014E80013234360002383606322C2600361436166
:1014F8008023836106F0ECF900B908BDFFF71EFFF1
:10150800441400200048014008B50A480A4B03600B
:10151800092343600023036103228261C3610362DC
:1015280043620363C362C36002F08AFA00B908BD6C
:10153800FFF704FF380F00200000044208B501F04F
:1015480057FAFFF740FFFFF7FBFEFFF741FEFFF7F3
:1015580047FFFFF785FFFFF78BFFFFF7BDFFFFF79B
:10156800D3FF02F0FBF908B9012008BD0020FCE711
:1015780008B501F077FA08BD08B501F06DFA08BDA5
:10158800002380F8F23380F8F1333F2280F8F0230B
:1015980080F8B033704738B5054690F8964104EBAB
:1015A800441004EB40002844432205F56C7100F513
:1015B800CC7008F0C3FB95F89731072B02D801339C
:1015C80085F8973185F895410134634204F00704A2
:1015D80003F0070358BF5C4285F89641012385F85C
:1015E800943138BD002303E08CF8002001339BB20E
:1015F8000F2B0BD800EB030CC25C3AB1A2F16101CE
:10160800C9B21929F0D8203AD2B2EDE7102B00D090
:101618007047013B0022C254FAE70000064BB3F8BA
:101628007836984205D2044BD3F87C3653F820001C
:1016380070470020704700BF5415002008B50346C6
:10164800094AB2F8782690420AD20846064AD2F8E1
:101658007C2652F82310FEF71BFE18B1002000E08C
:10166800002008BD0120FCE75415002008B5084BF0
:10167800B3F87836984202D39FED060A08BD044BAA
:10168800D3F87C36002153F8200008F041F8F5E73C
:10169800541500200000000008B5084BB3F8783650
:1016A800984201D3002008BD044BD3F87C360022B1
:1016B800114653F8200008F0FDF8F4E7541500200F
:1016C80010B504460449007800F09EFE03492078CE
:1016D80000F09AFE10BD00BF0CEE000810EE0008E6
:1016E80038B590F8973143B304460D4690F8F12386
:1016F80022BB94F8F22332BB012D29D094F995111D
:10170800013194F8973191FBF3F203FB121184F83D
:101718009511C9B201EB411301EB43012144432266
:1017280001F5CC7104F56C7008F008FB94F8F233FD
:1017380084F8F133002384F8943138BD0F490078D8
:1017480000F062FED5E70E49207800F05DFED3E791
:1017580094F894311BB194F9963184F8953194F941
:10176800951194F897311944013991FBF3F203FB71
:10177800121184F89511C9B2CCE700BF18EE000821
:1017880020EE000870B582B006460024A0F8124189
:1017980000F58A75C0F8144101AA0C4900F56C706F
:1017A80008F046FA234609E05C1CA4B245F8230079
:1017B80001AA0649002008F03BFA23460028F3D185
:1017C800A6F8123103B1012002B070BD28EE00085E
:1017D8000A4B18701B7A1BB1084B5B688B4200D010
:1017E80011B9064B187A704710B5044C616000F0C7
:1017F800EFFC2072014B187A10BD00BF5415002071
:10180800014B1878704700BF5415002038B5234B9A
:101818005B7A03B938BD054690F8F1232049C07AB0
:1018280000F0F2FD95F8F2231E49E87A00F0ECFD8D
:1018380095F8F0231C49E87A00F0E6FD05F56C728E
:101848001A49E87A00F0E0FD95F995211849E87AF7
:1018580000F0DAFD95F896211649E87A00F0D4FDF3
:1018680095F897211449E87A00F0CEFD00240CE0A1
:1018780004EB441304EB430303F5CC732B442246D7
:101888000E49E87A00F0C0FD013495F89731A3427B
:10189800EEDC0B49E87A00F0B7FDBBE754150020F1
:1018A80030EE000840EE000850EE000860EE000838
:1018B80070EE000880EE000890EE0008A0EE000828
:1018C800A0ED000808B5024B187800F037FD08BDF8
:1018D8005415002008B5024B187800F04DFD08BDDE
:1018E8005415002008B50A460146024B187800F046
:1018F80069FD08BD541500200FB410B582B004ABC3
:1019080053F8042B0193084C4FF48071204608F0DB
:101918003FF90246214614F8110C00F053FD02B0BD
:10192800BDE8104004B070476515002038B505467D
:10193800FFF728FF08B9002038BD1848FFF7DCFF7B
:10194800D5F81401FFF74EFE0123AB720024B5F859
:10195800F433A3421EDD04EB8401890001F57E7196
:101968002944D5F81401FEF793FC08B10134EEE7D9
:10197800B5F81231013BA5F8783605F58C73C5F832
:101988007C3604EB840405EB8404D4F8083405F5AC
:10199800CF6098470023AB72CDE700BFECED00089D
:1019A80030B585B004468DF80710037CABB9CBB2CF
:1019B8001B2B30D01CD8082B4BD00D2B40F084802B
:1019C80090F8F2330BBB002384F8F23384F8F13338
:1019D80084F8B0332046FFF773FE237C013B032BCA
:1019E80000F2C880DFE813F0C400CC00CF00560135
:1019F8007F2B69D190F8F1C390F8F2E3F445ECD26B
:101A0800AEEB0C05EDB2012212E0FFF7C4FD204653
:101A1800FFF78CFFD7E701230374DEE70CEB020323
:101A2800591E234493F8B003631883F8B0030132B6
:101A38009542F3DC0EF1FF3E5FFA8EFE84F8F2E386
:101A4800A64400238EF8B0339449207800F0DCFCDB
:101A5800C3E790F8F2335BB390F8F10340B38342E5
:101A680009D094F8F2C3604522D2ACEB000E5FFABD
:101A78008EFE002211E0013BDBB284F8F2332344EE
:101A8800002283F8B023ECE78318591E234493F807
:101A9800B053631883F8B05301329645F4DC0CF167
:101AA800FF33DBB284F8F2332344002283F8B023F7
:101AB80094F8F133002B90D0013B84F8F133784946
:101AC800207800F0A1FC88E794F8F233591C94F8C8
:101AD800F023914281DA94F8F123934216D094F8D6
:101AE800F1C394F8F2038445BFF477AFA0EB0C057B
:101AF800EDB20022954224DD831A591E214491F843
:101B0800B013234483F8B0130132F3E701220DF137
:101B18000701207800F056FC94F8F123A3189DF8EB
:101B2800071083F8B01394F8F2330133DBB284F86A
:101B3800F233013284F8F1232344002283F8B023DE
:101B4800CDE79DF8072004EB0C0383F8B0230130A0
:101B5800C0B284F8F2030CF1010C84F8F1C32044FC
:101B6800002380F8B0334F49207800F04DFC34E76B
:101B7800022323742046FFF749FE002005B030BD3C
:101B880003232374F6E7002323749DF80730442BBE
:101B980026D09DF80730432B37D09DF80730412BCE
:101BA8004AD09DF80730422B50D09DF80730312B92
:101BB80056D09DF80730342BDCD194F8F13394F8E3
:101BC800F223934258D394F8F12394F8F2339A42CB
:101BD80059D894F8F23384F8F13304232374C9E70D
:101BE80094F8F123002AD4D0013A84F8F1231B2277
:101BF8008DF808205B228DF809208DF80A30032221
:101C080002A9207800F0DEFBC3E794F8F12394F8EA
:101C1800F2138A42C1D2013284F8F1231B228DF8D3
:101C280008205B228DF809208DF80A30032202A9CA
:101C3800207800F0C7FBB0E701212046FFF750FDF0
:101C480004F56C71207800F0DFFBAAE7002120463C
:101C5800FFF746FD04F56C71207800F0D5FBA4E78A
:101C680094F8F1231049207800F0CEFB002384F883
:101C7800F133042323749CE7D21A92B20B492078DB
:101C880000F0C2FB9FE7D21A92B20749207800F011
:101C9800BBFB9EE7002323746CE700BFB0EE00088F
:101CA800B8EE0008C0EE000818EE0008CCEE0008F8
:101CB80038B5094B1C7A0CB9204638BD187800F0A5
:101CC8003DFB0028F8D0044D287800F055FB01466C
:101CD8002846FFF765FEEFE75415002010B50F48BA
:101CE800FFF70AFE0E48FFF707FE00240CE004EB9E
:101CF8008403980000F57E700A4B1844FFF7FCFD3A
:101D08000648FFF7F9FD0134064BB3F8F433A34254
:101D1800EDDC0548FFF7F0FD10BD00BFECED000855
:101D2800D4EE000854150020F4EE00082DE9F04325
:101D380083B00388446873B1012B12D8102700229E
:101D48001146206807F0B6FD06462C48FFF7D4FD7B
:101D5800B04600241BE02A48FFF7CEFD03B0BDE8DB
:101D6800F08300221146606807F0A4FD0746E6E705
:101D780031682448FFF7C0FD624204F0030302F013
:101D8800030258BF5342032B0BD004360134BC4224
:101D9800E4DA14F0030FEBD131461B48FFF7ACFD32
:101DA800E6E71A48FFF7A8FD4FF0000917E01848C2
:101DB800FFF7A2FD0135032D0DDC05F108036B4487
:101DC80013F8041CA1F12003DBB25E2BEFD81148F5
:101DD800FFF792FDEEE708F1040809F10109B9F1EE
:101DE800030F04DCD8F8003001930025E3E70A4824
:101DF800FFF782FD0120FFF7BBFBC6E728EF0008CD
:101E080014EF00083CEF000830EF000844EF00082A
:101E18004CEF000848EF000850EF000808B5044BE5
:101E2800187800F08BFA08B9012008BD0020FCE7FB
:101E3800541500202DE9F041114BB3F8F4531F2D30
:101E480002D90020BDE8F0810E46AF0005EB8504FD
:101E5800A40004F57E7498461C440146204607F009
:101E680065FF2F4408EB8707C7F808642046FFF78B
:101E7800B9FBB8F8F4330133A8F8F4330120E1E7EB
:101E88005415002008B51348002303724372837267
:101E9800037480F8953180F8963180F8973180F88E
:101EA80094310D4BC0F880360C4BC0F884360C4B7F
:101EB800C0F888360B4BC0F88C36FFF761FB0A492F
:101EC8000A48FFF7B7FF0A490A48FFF7B3FF01209E
:101ED80008BD00BF54150020A1160008751600089B
:101EE8002516000845160008E51C000858EF0008EC
:101EF800351D000860EF00082DE9F041064603880B
:101F0800012B0AD000273388012B23D03388012BDB
:101F18003ED0002F5AD0BDE8F081436930490020F7
:101F2800984707460028EED02E4C21882E48FFF708
:101F3800E3FC61882D48FFF7DFFC2D48FFF7DCFC48
:101F48002C4C21882C48FFF7D7FC61882B48FFF7D9
:101F5800D3FCD8E773692A490020984780460028AF
:101F6800D4D0002506E01F4B986821462844FFF787
:101F7800B9FC2544FFF752FF074638B1194B5C8876
:101F8800641BC3D0402CEED94024ECE74746BDE79C
:101F980073691C490020984706460028B9D00025D7
:101FA80006E0144B986821462844FFF79BFC25441B
:101FB800FFF734FF074638B10E4B5C88641BA8D086
:101FC800402CEED94024ECE73746A2E70E48FFF74D
:101FD80093FC0E48FFF790FC0D48FFF78DFC9AE73D
:101FE80064EF0008F83400206CEF000880EF000868
:101FF800A0ED0008EC34002094EF0008A8EF0008DA
:10200800BCEF0008C4EF0008CCEF0008D8EF0008C8
:10201800E4EF000810B50E4A0023138053804FF4F4
:1020280000619180D3800B4991600B4A13805380E3
:102038004FF480519180D380084B93600124084B62
:102048001C7008490848FFF7F5FE204610BD00BF80
:10205800F8340020EC2C0020EC340020EC1C00208C
:10206800EA1C0020011F0008F0EF0008003818BF24
:102078000120014B187070470100002010B5054B76
:102088001870054B1960054C0123237000F0A0F867
:10209800207010BDE81C0020E41C0020E91C002072
:1020A80030B583B004469446C38813440833828805
:1020B8009A4205D20023C3800CF108039A4219D32F
:1020C800E088009123880E4A0CF10801A56828448D
:1020D80007F0BCFC238801332380E38882B21344D1
:1020E800E38063881844A188884205DC1A4462802A
:1020F800012002E0002000E0012003B030BD00BF55
:10210800F4EF00080FB410B582B0164B1B7823B952
:1021180002B0BDE8104004B0704705AB0193049AC3
:102128004FF48071104807F033FD04460F4B1B78BD
:1021380013B10F4B1B7843B90E4B1B7863B922467A
:1021480009490D48FFF7ACFFE2E7024606490B4B89
:10215800187800F037F9EFE7224603490848FFF7F7
:102168009FFFECE7EA1C0020E41B0020E91C00208C
:102178000000002001000020EC340020E81C0020B2
:10218800F834002010B500230FE00D4C40F22C422B
:1021980003FB02F2A1180020A0544FF461424A60E8
:1021A800C1F82404C1F828040133012BEDDD012412
:1021B800044B1C7004490548FFF73CFE204610BD3F
:1021C800C40600204C3600205D240008FCEF0008FF
:1021D800012800F2AA80F0B583B0044640F22C43EF
:1021E80000FB03F3524AD05C38B1134640F22C424C
:1021F80002FB04335B688B4204D02CB1012C00F045
:102208008A80002003B0F0BD494840F22C4304FB0B
:1022180003F3C5186960474E06EB0416B268C5F8A3
:102228001C2477681760D5F81C245160D5F81C1455
:1022380000228A60D5F81C14CA60D5F81C140A61FB
:10224800D5F81C140C274F61D5F81C148A61D5F8F1
:102258001C14CA61D5F81C140A62D5F81C144A6209
:10226800D5F81C148A6203F10807074403F5816353
:102278004FF4806239461844FEF70BFF2E4BD3F813
:10228800882042F00102C3F88820D3F8883003F090
:1022980001030193019BD5F81C0405F0AFFC337BC7
:1022A8004BB100231A461946D5F81C0406F0A0F8CD
:1022B80058B10020A6E71E4B40F22C4202FB043323
:1022C800D3F81C0405F0B4FFF2E7194A40F22C4396
:1022D80004FB03F3D0180121D1544FF4806239462E
:1022E800D0F81C0406F05AF898B90120104B40F2B7
:1022F8002C4202FB0433D3F81024D3F81C14D1F871
:1023080080100968896C521AC3F80824C3F80C2491
:1023180078E70020EAE7064B40F22C4202FB04F47F
:102328001A195160012018556CE70020704700BF4A
:10233800C4060020B4F00008000C024608B10020D2
:10234800704710B503460B4840F22C4202FB03F3DA
:10235800C218D2F81014D2F81C44D4F8804024686B
:10236800A46C091BC2F8081403F581631844FEF72E
:10237800C6FE10BDC406002010B582B000238DF83B
:102388000730044668B10E4B40F22C4202FB04337E
:10239800D3F824240132C3F824249DF8070002B09E
:1023A80010BD40F22C4300FB03F303F581630122C7
:1023B8000DF1070102481844FEF774FEE3E700BF79
:1023C800C406002038B5054658B100200D4B40F230
:1023D8002C4202FB0533D3F828240244C3F82824EE
:1023E80038BD1446074840F22C4303FB050064231C
:1023F80092B2D0F81C0405F04DFE08B10020E5E7C4
:102408002046E3E7C40600200EB410B5C3B0044666
:1024180045AB53F8042B01934FF4807102A807F0E1
:10242800B7FB024602A92046FFF7CCFF43B0BDE840
:10243800104003B070470000012806D8044B40F252
:102448002C4202FB0033586870470020704700BFD9
:10245800C4060020F0B583B004460388012B07D0DA
:1024680000252388022B1DD0002D63D003B0F0BDBA
:10247800436934490020984705460028F1D00020D8
:102488000DE0461C0301304AD758C0B2FFF7D4FF0D
:1024980003463A4631462D48FFF72EFA30460128C2
:1024A800EFDDDEE763692A49002098470028DBD082
:1024B800A3680120984700280BDDA36801209847EE
:1024C80002280FDCA36801209847C4B2013CE4B29B
:1024D80000E00024FFF794F9A04208D11D48FFF757
:1024E8000BFAC3E70124F5E7FFF7ECF978B92046C2
:1024F800FFF724FF0028F7D02046FFF73DFF0246EC
:102508008DF80700611C1448FFF7F6F9ECE7FFF7B0
:10251800E1F98DF807007128A8D001220DF1070113
:102528002046FFF74FFF9DF80720611C0B48FFF777
:10253800E3F9DCE70A48FFF7DFF902210948FFF76A
:10254800DBF993E764EF0008B4F0000804F0000832
:1025580020F0000860F0000828F0000844F00008A7
:1025680074F0000880F0000830B5D9B005460024A2
:10257800539454945594569457946C22214638A8F1
:1025880007F014FBD822214602A807F00FFB2A689F
:10259800444B9A4201D059B030BD01220023CDE905
:1025A800022302A803F0A2F8002868D13E4BD3F812
:1025B800A42042F48042C3F8A420D3F8A42002F453
:1025C80080420092009AD3F88C2042F00202C3F8AD
:1025D8008C20D3F88C3003F002030193019B4FF455
:1025E800C0635393022354930024559456930723AE
:1025F800579353A92D4801F001F821233893182344
:1026080039933A943B943C944FF400233D933E9481
:102618003F940123419342934394449445944994AD
:1026280046944794224938A800F0ACFE50BB204A93
:102638000021204800F0B1FE38BB1E4800F039FFE9
:1026480030BB1D481D4B036000238363C3630364D1
:1026580043648123836400F0FFFDE0B915491648FF
:1026680000F068FFD0B91448C5F88000C56510218E
:1026780000F06FFB00288ED0FEF760FE8BE7FEF7B8
:102688005DFE93E7FEF75AFED1E7FEF757FED4E763
:10269800FEF754FED5E7FEF751FEDFE7FEF74EFEE4
:1026A800E1E700BF00380140000C0246000002428A
:1026B800943500207C35002004350020500002406D
:1026C80002680B4B9A4200D0704710B50446094A7D
:1026D800D2F8A43023F48043C2F8A4304FF4C06188
:1026E800054801F099F8D4F8800000F075FA10BD9B
:1026F80000380140000C02460000024200B583B0D9
:10270800094BD3F8942042F00402C3F89420D3F87C
:10271800943003F004030193019B01F09DFE01F046
:10272800A3FE03B05DF804FB000C024682B0036808
:10273800B3F1804F04D0104A93420FD002B07047D3
:102748000E4BD3F89C2042F00102C3F89C20D3F82A
:102758009C3003F001030093009BEFE7074BD3F88D
:10276800A42042F48022C3F8A420D3F8A43003F4B0
:1027780080230193019BE1E700480140000C0246D9
:1027880010B5BAB00446D822002104A807F00EFA02
:102798002268344B9A4201D03AB010BD324BD3F87C
:1027A800A82042F00202C3F8A820D3F8A83003F00A
:1027B80002030093009B00220823CDE90423002391
:1027C800399304A802F092FF002843D10C2000F0AE
:1027D80067F9254BD3F88C2042F48042C3F88C204B
:1027E800D3F88C2002F480420192019AD3F88C200D
:1027F80042F40042C3F88C20D3F88C2002F4004243
:102808000292029AD3F8943013F0040F25D1164C93
:10281800D4F8943043F00403C4F89430D4F89430D6
:1028280003F004030393039B01F016FE01F024FE5A
:10283800D4F8943023F00403C4F89430012000F055
:1028480025F900220621492000F088F9492000F0E6
:1028580095F9A1E7FEF772FDB8E701F0FDFD01F07B
:102868000BFEEBE700000442000C0246FEE7FEE721
:10287800FEE7FEE7FEE770477047704708B500F0CF
:10288800DFF808BD08B54FF4005001F04FF808BD57
:1028980008B5024801F03AFA08BD00BF380F002019
:1028A8000120704708B507F013FA162303604FF0AC
:1028B800FF3008BD08B54FF0FF31FFF7F3FFFEE723
:1028C80070B50C461646002506E0AFF30080214699
:1028D80001F8010B01350C46B542F6DB304670BDF8
:1028E80070B50C461646002504E014F8010BAFF34A
:1028F80000800135B542F8DB304670BD4FF0FF303F
:1029080070474FF400534B60002070470120704718
:102918000020704710B503460C4A0D490D48006861
:1029280040B10C4800680344521A934206D8094A39
:10293800136010BD0748084C0460F2E707F0C8F9B7
:102948000C2303604FF0FF30F3E700BF000027209F
:102958000004000050360020683900200E48D0F8E6
:10296800883043F47003C0F888300C4B01221A6099
:102978000022DA611A625A62196821F0A85121F41A
:10298800102119609A62196821F4802119601A656A
:102998004FF000638360704700ED00E0000C0246D2
:1029A800104B1B780BB90120704710B504464FF443
:1029B8007A70B0FBF3F30C4A1068B0FBF3F000F048
:1029C800E1F868B90F2C01D901200AE0002221465C
:1029D8004FF0FF3000F0C2F8044B1C60002000E00C
:1029E800012010BD08000020040000200C00002079
:1029F80010B50F4A136843F480731360032000F086
:102A08009BF801F0B7FD0B4B1B6A03F00F030A4A52
:102A1800D35CD840094B18600F20FFF7C1FF10B1F5
:102A28000124204610BD0446FFF768FEF9E700BF01
:102A380000200240000C02461CF10008040000209F
:102A4800034B1B78034A11680B441360704700BF9F
:102A58000800002054360020014B1868704700BF5A
:102A68005436002038B50446FFF7F6FF0546B4F1A2
:102A7800FF3F02D0044B1B781C44FFF7EDFF401BBF
:102A8800A042FAD338BD00BF08000020034A536FA4
:102A980023F0010303435367704700BF0004004657
:102AA800034A536F23F03C0303435367704700BF47
:102AB80000040046002807DB00F01F02400901233C
:102AC8009340024A42F82030704700BF00E100E01E
:102AD800002808DB0901C9B200F1604000F5614037
:102AE80080F80013704700F00F000901C9B2014BCC
:102AF8001954704714ED00E000B500F00700C0F16C
:102B0800070CBCF1040F28BF4FF0040C031D062B63
:102B18000FD9C31E4FF0FF3E0EFA0CF021EA000158
:102B280099400EFA03FE22EA0E0241EA02005DF81D
:102B380004FB0023EEE70000074AD36823F4E063B0
:102B48001B041B0C000200F4E060034343F0BF6366
:102B580043F40033D360704700ED00E010B504463D
:102B6800054BD868C0F30220FFF7C6FF0146204690
:102B7800FFF7AEFF10BD00BF00ED00E008B5FFF79E
:102B880099FF08BD0138B0F1807F0BD24FF0E023E8
:102B98005861054AF02182F8231000209861072225
:102BA8001A6170470120704700ED00E030B40568F5
:102BB800AC6C4FEA144C4FEA0C4C9BB24CEA030342
:102BC800AB6403684FF4FE44DC600368D9640368AF
:102BD8001A6530BC7047000070B50446FFF73CFF2B
:102BE800002C75D00546236823F47F6626F00F066F
:102BF8005A6942F006025A6123685A6912F0010FB5
:102C08000BD0FFF729FF431B052BF5D91023A3652C
:102C1800032384F85430012059E000221A60236805
:102C28005A6123681A6423685A6423689A6423687B
:102C3800DA6423681A652368DA672368254A9342A9
:102C48001ED002F1805293421AD002F170428032B3
:102C5800934215D002F18052934211D002F1704292
:102C6800803293420CD002F18052934208D002F194
:102C780070428032934203D002F18052934203D1D2
:102C880000225A6523689A6572682368C3F30B03A8
:102C9800503BC3F3C413012101FA03F322EA0303EF
:102CA800736023684FF4FE42DA600023236663668C
:102CB800A366E36623676367E36D0BB10023E365EF
:102CC80000202065A06584F8540084F84C0070BD8D
:102CD8000120FCE750060240002836D010B5044613
:102CE80090F84C00012832D0012084F84C0094F868
:102CF8005400C0B2012806D04023A365002384F8FD
:102D08004C30012010BD022084F854000020A0653A
:102D18002046FFF74BFF2268536943F4BA435361D7
:102D2800636E23B12268536943F400735361236FC0
:102D380023B12268536943F40053536122685369ED
:102D480043F0010353610020DCE7012070470220B3
:102D5800D8E7E8B1036823F47F6222F00F02C3F3D7
:102D68000B03503BC3F3C4130120984011F0100F1C
:102D780010D001F01101112905D0536823EA00038E
:102D88005360002070475368034353600020704726
:102D98000120704700207047816BC36B194303689B
:102DA800674A934200F08D8002F18052934200F00E
:102DB800888002F170428032934200F0828002F1F2
:102DC800805293427DD002F170428032934278D093
:102DD80002F18052934274D002F1704280329342E1
:102DE8006FD002F1805293426BD002F17042803270
:102DF800934266D002F18052934262D002F170424F
:102E0800803293425DD002F18052934259D002F150
:102E180070428032934254D002F18052934250D093
:102E280002F17042803293424BD002F180529342B9
:102E380047D002F170428032934242D002F1805270
:102E480093423ED002F170428032934239D002F16F
:102E58008052934235D002F170428032934230D092
:102E680002F1805293422CD002F170428032934298
:102E780027D002F18052934223D002F1704280326F
:102E880093421ED002F1805293421AD002F170424E
:102E98008032934215D002F18052934211D002F150
:102EA8007042803293420CD002F18052934208D093
:102EB80002F170428032934203D002F18052934271
:102EC80001D1026C11435A6922F443020A435A6140
:102ED8000268002313640268416C516402689364B9
:102EE8000268D364026813650368164A93421ED0C9
:102EF80002F1805293421AD002F17042803293421A
:102F080015D002F18052934211D002F17042803202
:102F180093420CD002F18052934208D002F17042E1
:102F28008032934203D002F18052934203D10022AF
:102F38005A6503689A6503680022DA67704700BF1C
:102F4800500002405006024010B44369C26913435E
:102F5800C26B134302691343826913430B6002680F
:102F680012F0200F16D0C26A846B2243846A04F1DF
:102F7800FF3C4FEA0C5C0CF07C7C42EA0C02446A91
:102F880004F1FF3C4FEA0C1C0CF47C7C42EA0C0276
:102F980013430B60036B426822F4C0729205920DD2
:102FA80013434B60C268B2F5806F64D0B2F5007FFE
:102FB80069D0436C4BB1026C1343826C120402F467
:102FC8007C1213434A6813434B60B0F868308B6037
:102FD800026812F0020F20D0C26C02F1FF3C434A93
:102FE80002EA0C4213438B60026D002A4FDB8B60B0
:102FF800436D002B4FDB8B6823F000538B60836D90
:10300800002B4DDB8B6823F080438B60C36D002B56
:103018004BDB8B6823F000438B60036ECB60436E01
:103028000B61036813F0020F1AD0036D002B41DB0C
:10303800C3F30C034B61436D002B40DB4A692C4CF6
:1030480004EA03431A434A61836D002B3FDB9BB2BA
:103058008B61C36D002B3EDB8A6942EA03428A61B9
:1030680003680B6213F0020F3BD043F4E0630B627A
:103078005DF8044B7047026812F0200F99D043F4B2
:1030880080634B6095E743F400734B6091E743F02E
:1030980080538B60ACE78B6843F000538B60AEE7DE
:1030A8008B6843F080438B60B0E78B6843F0004344
:1030B8008B60B2E75B42C3F30C034B61BBE75B4237
:1030C8004A690B4C04EA03431A434A61BCE75B4272
:1030D8009BB28B61BDE75B428A6942EA03428A611F
:1030E800BEE743F4A0630B62C2E700BF0000FF071E
:1030F8000000FF1F844640EA0103134330B183EA0E
:103108000C03B3F5803F0AD20020704709B18C4602
:10311800F5E70AB19446F2E74FF0000CEFE701201B
:10312800704768B190F8203019B191F82010994291
:1031380010D18AB192F820209A420FD1002070470E
:1031480011B191F82030F0E712B192F82030EBE796
:103158000023E9E7022070470020704703207047EA
:10316800036A13F0020F06D009B1064B0B6042B197
:1031780007231360704709B1034B0B600AB105239D
:1031880013607047000001FE000001F830B5844666
:1031980015680C46E1B14FF0000E7146734627E002
:1031A800BCF8020001EB004050F825008E464FF6AF
:1031B800FC7101400133DCF8080098422AD9002B41
:1031C800EED1DCF8001021F003010904090CF1E745
:1031D8004FF0000E71467346EDE7BCF8020001EBB4
:1031E800004050F825008E464FF6FC71014001332F
:1031F800DCF8080098420DD94FF6FC702040884250
:1032080008D0002BE9D1DCF8001021F003010904F3
:10321800090CECE72CB124F003042404240C8C42A0
:1032280018D19360BCF802304EEA03435360BCF8EF
:10323800023041EA0341D16051F8250058B120F02D
:1032480003000004000CBCF8023040EA034010619F
:10325800002000E0012030BD38B50446FFF7FCFB34
:103268003CB305462268002384F84C30022384F8D6
:103278005430536943F00603536123685B6913F0C4
:10328800010F0BD0FFF7E8FB431B052BF5D91023E3
:10329800A365032384F85430012009E02046FFF792
:1032A8007BFDA36C23650020A065012384F85430BE
:1032B80038BD0120FCE700285ED010B582B0044676
:1032C800416F00295AD090F85430DBB20268526935
:1032D80002F48032012B03D0022B46D1002A44D0BD
:1032E80094F85430DBB2012B07D02268536943F0BD
:1032F80001035361002002B010BD94F84C30012B3B
:103308003ED0012384F84C30022384F854300B73E8
:103318000023A365626F13612268536943F4BA43BB
:103328005361636E23B12268536943F40073536198
:10333800236F23B12268536943F400535361636FC9
:10334800002201A91868FFF70BFF636F22685B88EA
:103358001B041360636F1B6823F003031B041B0C1F
:10336800226801990B43D367BFE74023A365002375
:1033780084F84C300120BEE7012070470120BAE7ED
:103388000220B8E728B108B529B1FFF7DDFD002014
:1033980008BD012070470120FAE7002800F0858069
:1033A800F0B589B00D4614460646002A7FD0436919
:1033B800012B0ED007683846FFF79CFE68B92246F5
:1033C80029463846FFF7ADFE60B10423336101207A
:1033D80006E004230361012002E005233361012094
:1033E80009B0F0BD022333730023336106AA07A98D
:1033F8002046FFF7B5FE3368DBB165B3069B019342
:1034080001AA29463046FFF7C1FE002849D1B36812
:10341800039A9A4231D0069B55F8232044F823207A
:1034280024F003042404240C079A144345F8234089
:103438001BE065B1356024F003042404240C079BC9
:103448001C43069B45F823400223B36010E0346018
:103458000123B3600CE023F003031B041B0C079A41
:103468001343069A44F822303460B3680133B360DA
:103478000020306101233373B2E7736843B123F04E
:1034880003031B041B0C079A1343069A44F82230C3
:103498004FF6FC732340079A1343069A45F82230E7
:1034A800E3E70623336101209AE7012070470120F2
:1034B80096E7002839D030B589B00446006840B195
:1034C800636853B1984232D004232361012009B0C4
:1034D80030BD022323610120F9E76369012B20D065
:1034E800022323730025256106AA07A9FFF738FEE2
:1034F800069B019301AA29462046FFF747FE236849
:1035080023F003031B041B0C079A1343049A069920
:1035180042F821302368636025610123237328461C
:10352800D5E7042323610120D1E70120704700205B
:10353800CDE70000844600285AD000295AD090F8D8
:103548005430DAB290F85430DBB2022B37D0052A67
:1035580035D00B7BDBB2022B39D00368264A934265
:1035680023D002F1805293421FD002F17042803280
:1035780093421AD002F18052934216D002F170425F
:103588008032934211D002F1805293420DD002F161
:1035980070428032934208D002F18052934204D0A4
:1035A8000B681B6A13F0020F14D1DCF85030812B22
:1035B80014D04B68A3B104230B610120704740234A
:1035C800CCF8583000238CF84C300120704701208B
:1035D8000861704703230B61012070474B681BB1DA
:1035E800CCF874100020704704230B610120704749
:1035F800012070470120704750060240F0B504468C
:103608000023D9E0056825EA0C054C6804F001049C
:103618009C402C4304607C4D55F8334005EBC305B2
:103628006D68EF08083754F8276005F0070C4FEA73
:103638008C0C4FF00F0E0EFA0CFE26EA0E0E0B261F
:1036480006FA0CF646EA0E0644F8276027684FEAA1
:10365800450C032606FA0CF627EA0607022606FAA0
:103668000CF63E43266021E0DE08083650F8265066
:1036780003F00707BF004FF00F0C0CFA07FC25EA10
:103688000C0C0D6905F00F05BD4045EA0C0540F826
:10369800265026685F000325BD4026EA05064D68CA
:1036A80005F00305BD40354325601D464E6806F10B
:1036B800FF3CBCF1010F03D9112E01D0122E1CD1F1
:1036C800A6684FEA450E4FF0030C0CFA0EFC26EAEA
:1036D8000C0CCE6806FA0EF646EA0C06A66066687A
:1036E8004FF0010C0CFA05FC26EA0C0C4E68C6F3E8
:1036F8000016AE4046EA0C0666604E68032E0CD0F3
:10370800E6686D004FF0030C0CFA05FC26EA0C0C79
:103718008E68AE4046EA0C06E6604D6815F0805F9C
:1037280049D09E08394F183657F8265003F0030C35
:103738004FEACC0C4FF00F0E0EFA0CFE25EA0E0ED7
:10374800334D05EA902505FA0CF545EA0E0547F8CC
:1037580026503E686FEA020C26EA02074D6815F407
:10376800801F01D042EA0607284E376076680CEAC7
:1037780006074D6815F4001F01D042EA0607234EDC
:103788007760D6F884600CEA06074D6815F4003FA8
:1037980001D042EA06071D4EC6F88470D6F880604C
:1037A8000CEA06054F6817F4803F01D042EA060587
:1037B800164AC2F8805001330A6832FA03F521D05C
:1037C8004FF0010C0CFA03FC1CEA0202F3D0114D75
:1037D800A8423FF417AF4D68022D3FF445AF122DB4
:1037E8003FF442AF26684FEA430C032707FA0CF769
:1037F80026EA070605F0030505FA0CF535432560AA
:103808001D4653E7F0BD00BF2CF10008002002461A
:103818007F7F2F0000000246F0B50446002234E006
:103828003A4B53F8324003EBC2035D68384F3B68AC
:103838000126AE4023EA06033B6026686F00032397
:10384800BB401E4326604FEAD50C0CF1080C54F817
:103858002C6005F00707BF004FF00F0E0EFA07FEA9
:1038680026EA0E0644F82C60A66826EA0306A66037
:1038780066684FF0010C0CFA05F526EA0505656047
:10388800E56825EA0303E360013231FA02F33BD02D
:10389800012393400B40F7D01D4DA842C0D04FEAFA
:1038A800920E0EF118061B4D55F8265002F003062D
:1038B800F6000F27B74007EA050C174D05EA9025D3
:1038C800B540654501D01546B7E7124DD5F880607B
:1038D80026EA0306C5F88060D5F8846026EA030660
:1038E800C5F884602E6826EA03062E606E6826EA0C
:1038F80003036B600EF1180E55F82E3023EA070308
:1039080045F82E30154698E7F0BD00BF2CF10008A9
:1039180000000246002002467F7F2F000AB1816125
:1039280070478162704770477047000010B50446C1
:10393800094BDB68034204D1074B1B691C4205D1C4
:1039480010BD054BD860FFF7EEFFF5E7024B1C6191
:103958002046FFF7E9FFF3E700200246034A136811
:1039680043F0010313600020704700BF00040340C8
:103978002DE9F04383B0D0F8008001EBC10300EBE0
:1039880083031A6DDB6C9A4254D807460C469B1A7F
:1039980001EBC10200EB8202526C9A4200D31A4634
:1039A80002F103094FEA990915E006F103094FEA04
:1039B800990904EBC40507EB8505A96C3B7B0093CB
:1039C800B3B2E2B2404604F0ABFFAB6C3344AB6435
:1039D8002B6D33442B6508EB441303F510639B6987
:1039E8009BB24B4512D304EBC40307EB83031A6D58
:1039F800DB6C9A420AD24BB19B1A04EBC40207EB68
:103A08008202566C9E42D0D31E46CEE704EBC40316
:103A180007EB8307FA6C3B6D9A420FD804F00F044A
:103A28000122A240D8F8343823EA0203C8F834380F
:103A3800002000E0012003B0BDE8F0830020FAE791
:103A480070B58AB0002800F09080054690F8BD3423
:103A58000BB3032385F8BD34286804F0C9FD2C4650
:103A680054F8106BEC460FCCACE80F000FCCACE868
:103A78000F0094E803008CE803002B1D0ECB3046A2
:103A880004F022FD044658B1022385F8BD34012410
:103A980020460AB070BD80F8BC34FEF771FED8E746
:103AA8000021286804F0B7FF234616E003EBC302A1
:103AB80005EB8202012182F83D1082F83C30A2F821
:103AC8005630002182F840105164916403EBC30220
:103AD80005EB8202D1640133DBB269688B42E5D31E
:103AE80016E004EBC40305EB8303002283F87D2270
:103AF80083F87C4283F88022C3F88422C3F88822A2
:103B080004EBC40305EB8303C3F88C220134E4B24D
:103B1800A142E6D82C4654F8106BEC460FCCACE822
:103B28000F000FCCACE80F0094E803008CE803000A
:103B38002B1D0ECB304604F0B7FD044660B90023B8
:103B480085F83830012385F8BD346B6A012B08D01D
:103B5800286804F01FFF9BE7022385F8BD34012481
:103B680096E7284600F0D6FBF2E7012490E7704775
:103B780070B504460D460068066C00EB411303F56A
:103B880030639A68E168012911D038498E4256D0CD
:103B98003DB905EBC50304EB8303D3F88C32002B46
:103BA8005ED0E9B22046FFF7E2FF002070BD12F0B8
:103BB800080F09D02E498E42F7D912F4004FF4D0DD
:103BC8004FF400429A60F0E712F0200F02D0202252
:103BD8009A60EAE712F0280FE7D125498E4206D904
:103BE80012F4004F03D04FF400429A60DDE705EB72
:103BF800C50204EB8202D2F89C121B69C3F31203BC
:103C0800CB1AC2F890327DB905EBC50204EB8202EB
:103C1800D2F88C226AB105EBC50204EB8202D2F815
:103C280088121944C2F88812E9B22046FFF79FFFAC
:103C3800BBE704F2C442012104F02EFFF4E712F4BA
:103C4800004F03D04FF400429A60AEE712F0200F05
:103C580001D020229A60E9B22046FFF788FFA4E746
:103C680004F2C442002104F017FF9AE70A31544FC6
:103C78000A30544F7047704738B5044603681D6CC6
:103C880003EB4113D3F8081B0E4A954207D903F5F5
:103C9800306311F4004F02D04FF400429A6020467E
:103CA800FFF7E9FF074B9D4202D9E368012B01D0DA
:103CB800002038BD04F2C4420121206804F0ECFE63
:103CC800F6E700BF0A30544F704770477047704797
:103CD800704770477047704708B511F0800F0CD1D6
:103CE80001F00F0101EBC101890001F51E710144CA
:103CF8000431006804F0B5FD08BD01F00F0101EBC7
:103D0800C1018900383101440431F2E72DE9F04F4F
:103D180083B004460568284604F079FE10B103B064
:103D2800BDE8F08F0646206804F042FE0028F6D071
:103D380005F50067BB68C3F30D23C4F8FC3420689D
:103D480004F036FE10F0020F04D02268536903F025
:103D580002035361206804F02BFE10F0100F14D0FA
:103D68002268936923F010039361D5F8208008F046
:103D78000F09C8F34343022B69D0062B00F08D804E
:103D88002268936943F010039361206804F010FEE1
:103D980010F4002F40F09380206804F009FE10F41E
:103DA800802F40F0FC80206804F002FE0028C0F25A
:103DB8007F81206804F0FCFD10F4006F09D0BB6817
:103DC80013F0010F40F08C812268536903F40063FB
:103DD8005361206804F0ECFD10F0006F15D02268E4
:103DE800536903F00063536194F8F434002B40F0F6
:103DF8007B81012184F8F41423685B6DC3F383038A
:103E0800C4F8F834204600F098FA206804F0D0FD91
:103E180010F4805F40F06C81206804F0C9FD10F454
:103E2800005F40F0B981206804F0C2FD10F0080F6F
:103E380040F0CA81206804F0BBFD10F0800F00F04C
:103E4800DD81AB6923F08003AB610126C6E147F64B
:103E5800F07318EA030F93D04FEA181A4FEAC90310
:103E6800019309EBC90B04EB8B0BC8F30A12DBF8BF
:103E78008812284604F06BFDDBF88832CAF30A0A78
:103E88005344CBF88832DBF89032019A4A4404EB69
:103E980082025344C2F8903272E7082204F2C44105
:103EA800284604F054FD09EBC90304EB8303D3F857
:103EB8009022C8F30A184244C3F8902260E72068A9
:103EC80004F07AFD8046B14635E005EB491301223E
:103ED800C3F8082B49462046FFF74AFE3CE005EBAD
:103EE80049130822C3F8082B49462046FFF7C4FEA9
:103EF80035E009EBC90304EB830393F87F32012B08
:103F080041D005EB49130222C3F8082B1AF0200F01
:103F180004D005EB49132022C3F8082B1AF4005FDC
:103F280005D005EB49134FF40052C3F8082B09F1EB
:103F380001094FEA5808B8F1000F3FF42DAF18F007
:103F4800010FF4D05FFA89FB5946206804F044FD5C
:103F5800824610F0010FB8D11AF0080FBFD11AF03D
:103F6800100F04D005EB49131022C3F8082B1AF0E0
:103F7800020FCBD06B6913F0800FBAD07B6843F483
:103F880080637B60B5E709EBC90304EB8303002278
:103F980083F87F2259462046FFF79AFEB1E720684A
:103FA80004F012FD8046B14625E059462046FFF749
:103FB80061FE1AF0080F04D005EB49130822C3F874
:103FC80008291AF0100F04D005EB49131022C3F882
:103FD80008291AF0400F04D005EB49134022C3F812
:103FE80008291AF0020F40D11AF0800F5BD109F1AD
:103FF80001094FEA5808B8F1000F3FF4D4AE18F0A1
:10400800010FF4D05FFA89FB5946206804F0EDFCF3
:10401800824610F0010FCCD009F00F02012101FAFD
:1040280002F27B6B23EA02037B6305EB4913C3F8B7
:104038000819E3688B42B8D109EBC90304EB830381
:104048009A6C596C0A449A64B9F1000FADD109EB26
:10405800C90304EB8303DB6C002BA6D104F2C44232
:104068000121206804F018FD9FE74946284604F01E
:10407800C5FA09EBC90304EB830393F83F30012B1E
:1040880005D005EB49130222C3F80829ACE709EB70
:10409800C90304EB8303002283F83F2059462046D6
:1040A800FFF717FEEDE749462046FFF761FC9EE75C
:1040B8007B6823F001037B6094F8F434012B08D06B
:1040C8002046FFF704FE2268536903F0004353615A
:1040D8006FE6002184F8F414204600F02EF9F2E788
:1040E8002046FFF7F3FD6FE62046FFF7EFFD8CE66D
:1040F8007B6823F001037B601021206804F07EFABE
:104108001AE005EB46134FF67F31C3F80819D3F8C8
:10411800002922F40012C3F80029C3F8081BD3F8B9
:10412800002B22F40012C3F8002BD3F8002B42F026
:104138000062C3F8002B01366368B342E1D8FB691B
:1041480043F00113FB61236BDBB1D7F8843043F0F4
:104158000B03C7F884307B6C43F00B037B64D5F802
:10416800003823F4FE63C5F8003804F2C442217B0A
:10417800206804F091FC2268536903F4805353616A
:104188004AE67B6943F4005343F02B037B613B69A8
:1041980043F00B033B61E2E7206804F06DFC206804
:1041A80004F04EFB2061266800F028FC0146227CC2
:1041B800304604F0ABF92046FFF787FD22685369C3
:1041C80003F4005353612EE62046FFF77DFD226875
:1041D800536903F0080353612CE601366368B34260
:1041E8000CD906EBC60304EB830393F87F32012B4B
:1041F800F3D1F1B22046FFF76FFDEEE7206804F037
:10420800D7FB10F4801F27D1206804F0D1FB10F4ED
:10421800001F5BD0012328E001366368B3421DD933
:1042280005EB4613D3F8002906EBC60304EB83031A
:1042380093F84030012BEFD1002AEDDA06EBC603E4
:1042480004EB8303012283F83F2066F07F01C9B2A3
:104258002046FFF741FDDFE70126DEE722685369C4
:1042680003F480135361CFE7013362689A4228D977
:1042780005EB4312D2F8001B03EBC30204EB8202E6
:1042880092F88022012AEFD10029EDDA01F4803179
:10429800D4F8FC2402F001029142E5D103EBC302F9
:1042A80004EB8202012182F87F12AA6942F080029F
:1042B800AA616A6912F0800FD6D17B6843F4007353
:1042C8007B602268536903F400135361206804F08B
:1042D8006FFB10F0804F10D1206804F069FB10F0DC
:1042E800040F3FF41CAD23685D6815F0040F0DD171
:1042F800226853682B43536011E52046FFF7EAFC18
:104308002268536903F080435361E5E72046FFF7CD
:10431800E2FCEDE7034602680121C0F80015002021
:1043280083F8F404936943F000639361536D43F099
:10433800805343F00303536570477047244BDB6B8E
:1043480003F44033834219D0B0F5803F20D9204A86
:10435800D36823F4E023034343F48023D3601D4B45
:104368001B681D4AA2FB03139B09322101FB03F3BF
:10437800A2FB03239B0901331A4611E0B0F5803FE5
:1043880004D9134AD36843F48023D36000207047CC
:104398000F4AD36823F4E0230343D360DFE7013AED
:1043A8000B49C96811F4004F01D1002AF7D112B99D
:1043B80003207047013B064AD26B12F4004F01D12B
:1043C800002BF7D10BB1002070470320704700BFC6
:1043D8000008024604000020D34D6210024BD86B3F
:1043E80000F44030704700BF00080246174B1B68B6
:1043F800174AA2FB03139B09322101FB03F3A2FB1B
:1044080003239B09013380B912498A6822F002020A
:104418008A6000E0013B0F4AD26B12F0020F01D014
:10442800002BF7D183B1002070470A498A6842F00F
:1044380002028A6000E0013B064AD26B12F0020FCA
:10444800F0D1002BF7D1EDE70320704704000020DE
:10445800D34D621000080246024A136943F08053A4
:104468001361704700080246024A136943F000537B
:10447800136170470008024608B5FFF7AFFFB0F5B3
:10448800403F02D0B0F5003F06D1044AD36843F458
:10449800C013D360002008BD0120FCE700080246D5
:1044A800024AD36A43F00103D36270470008024608
:1044B80030B583B004462D4BD3F8943013F0040F75
:1044C8000FD0FFF78BFFB0F5403F20D0B0F5003F8D
:1044D8001DD0B4F1805F2CD2B0F5803F40D00120D0
:1044E80025E0224DD5F8943043F00403C5F8943004
:1044F800D5F8943003F004030193019BFFF76EFF96
:10450800D5F8943023F00403C5F89430DBE7B4F110
:10451800805F23D20120164A136823F00F03034358
:104528001360136803F00F0383421DD1002003B00A
:1045380030BDB4F1005F05D9A0B9B4F1405FEAD845
:104548000120E8E7B4F1805F01D00120E3E7B0F58E
:10455800803F01D00220DEE70120DCE70020DAE717
:104568000320D8E70020D6E70120E0E7000C024648
:104578000020024010B4594AD369926A13F00C0320
:1045880010D002F003020C2B0AD0544AD26902F070
:104598000C02042A20D0082B21D00020044610E069
:1045A800012AF2D14D4A926812F4000F0ED14B4AFB
:1045B800D2F8F420C2F30332494951F822404BB1F2
:1045C80000200C2B0ED05DF8044B7047434A9268CC
:1045D800120FF1E72046F4E742480024F1E741488A
:1045E8000024EEE73D48816A01F00301836AC3F3C2
:1045F8000323013307EE103A836AC3F3001C836B6D
:10460800C3F3CC030CFB03F307EE903AF8EE677A9A
:1046180002291ED0032946D006EE904AF8EE666AB3
:10462800B8EE477A86EE876A2C4B5B6BC3F30803B8
:1046380007EE103AB8EE477ADFED2B6A67EEA67AF6
:1046480077EE277AB7EE007A77EE877A66EE276AF2
:1046580019E0B8EE477A9FED256AC6EE076A1F4B48
:104668005B6BC3F3080307EE103AB8EE477A9FED89
:104678001E6A67EE867A77EE277AB7EE007A77EECB
:10468800877A66EEA76A154B5B6BC3F30663013343
:1046980007EE903AB8EE677AC6EE877AFCEEE77ACC
:1046A80017EE900A8FE7B8EE477A9FED106AC6EECC
:1046B800076A0A4B5B6BC3F3080307EE103AB8EEC0
:1046C800477A9FED096A67EE867A77EE277AB7EE22
:1046D800007A77EE877A66EEA76AD4E7000C02467E
:1046E800D4F000080024F400000000390024744BC2
:1046F800002800F07181F0B583B00D4604467F4B69
:104708001B6803F00F038B420BD27C4A136823F01B
:104718000F030B431360136803F00F038B4240F041
:104728005D81236813F0100F0CD06269744B5B6ACB
:1047380003F070039A4205D971494B6A23F070035C
:104748001A434A62236813F0080F0ED022696C4B93
:104758001B6A1B0903F070039A4206D968490B6A61
:1047680023F4E06343EA02130B62236813F0040F97
:104778000CD0E268624B1B6A03F070039A4205D9B9
:104788005F490B6A23F070031A430A62236813F027
:10479800020F0CD0A2685A4B1B6A03F00F039A420F
:1047A80005D957490B6A23F00F031A430A62236895
:1047B80013F0010F00F0A8806368032B0AD0022BC6
:1047C80061D0002B66D14E4B1B6813F0040F26D125
:1047D8000120FFE04A4BD3F8943013F0040F0ED1B8
:1047E800474BD3F8942042F00402C3F89420D3F83E
:1047F800943003F004030193019B012700E0002794
:10480800FEF72AF906463F4BDB6813F4802F26D1C2
:104818008FBB3B4B1B6813F0007F00F0E180384AE8
:10482800D36923F0030361680B43D361FEF714F9DE
:1048380006466368032B34D0022B41D0002B4ED0A0
:104848002F4BDB6903F00C03042B5DD0FEF704F952
:10485800801B41F288339842F2D90320BAE0294BF1
:10486800DB6813F4804FD3D1FEF7F6F8801B0228DB
:10487800F5D90320AEE0224AD2F8943023F004039D
:10488800C2F89430C5E71E4B1B6813F4003FC6D12D
:1048980001209FE01A4B1B6813F4806FBFD10120E1
:1048A80098E0174BDB6903F00C030C2B2CD0FEF7B8
:1048B800D3F8831B41F288329342F2D9032089E06E
:1048C8000F4BDB6903F00C03082B1DD0FEF7C4F86F
:1048D800801B41F288339842F2D903207AE0084BD2
:1048E800DB6913F00C0F0FD0FEF7B6F8801B41F20E
:1048F80088339842F3D903206CE000BF00200240BF
:10490800000C024600080246236813F0020F0CD080
:10491800A268354B1B6A03F00F039A4205D232494D
:104928000B6A23F00F031A430A62304B1B6803F02B
:104938000F03AB420AD92D4A136823F00F032B4308
:104948001360136803F00F03AB424BD1236813F0D5
:10495800040F0CD0E268244B1B6A03F070039A42E0
:1049680005D221490B6A23F070031A430A622368AF
:1049780013F0080F0ED022691B4B1B6A1B0903F0AA
:1049880070039A4206D218490B6A23F4E06343EA9B
:1049980002130B62236813F0100F0CD06269124BDC
:1049A8005B6A03F070039A4205D20F494B6A23F001
:1049B80070031A434A62FFF7DDFD0B4B1B6A03F0D5
:1049C8000F030B4AD35CD8400A4B18600A4B18688F
:1049D800FDF7E6FF03B0F0BD012070470120F9E7BD
:1049E8000120F7E70120F5E7000C0246002002400D
:1049F8001CF10008040000200C00002008B5FFF797
:104A0800B9FD054B1B6A03F00F03044AD35CD84079
:104A1800034B186008BD00BF000C02461CF10008DB
:104A280004000020002800F02985F0B585B0044670
:104A38009C4BDD6905F00C059E6A06F003060368C9
:104A480013F0100F00F09480EDB10C2D19D0E3692C
:104A5800002B00F01181934A136843F0010313609F
:104A6800FDF7FAFF07468F4B1B6813F0040F40F061
:104A7800CD80FDF7F1FFC01B0228F4D9032000F018
:104A880000BD012EE3D1E369002B00F0F984606AD0
:104A9800844B9B6813F4000F1CD0824B9B6803F077
:104AA8007043984244D9E5B17E4A936843F40003C1
:104AB8009360936823F07043616A0B439360636A61
:104AC800B3F1404F14D3D36823F01F03216A0B437B
:104AD800D36044E0734BD3F8F4301B0403F0704305
:104AE800DFE7FFF7E5FC0028DED0012000F0C9BCB5
:104AF800002B0BDBB3F1804F11D36A4AD36823F440
:104B0800F843216A43EA8123D36028E0654AD368E1
:104B180023F47873216A43EA4113D3601FE0614AA2
:104B2800D36823F47823216A43EAC133D36016E0BB
:104B38005C4A936843F400039360936823F07043DE
:104B4800616A0B439360636AB3F1404F36D3D3680D
:104B580023F01F03216A0B43D360002D4ED0FFF7CB
:104B68004DFF514B1868FDF71BFF002840F0898462
:104B7800236813F0010F00F0A080082D00F0998041
:104B88000C2D00F093806368B3F5803F00F0B68089
:104B9800B3F5A02F00F0C880B3F5A81F00F0D280AD
:104BA800404B1A6822F480321A601A6822F4802274
:104BB8001A601A6822F480121A60A4E0002B0BDB3A
:104BC800B3F1804F11D3374AD36823F4F843216AED
:104BD80043EA8123D360C0E7324AD36823F4787369
:104BE800216A43EA4113D360B7E72E4AD36823F416
:104BF8007823216A43EAC133D360AEE7606AFFF7DE
:104C080057FC0028ABD0012000F03BBC254A936834
:104C180043F400039360936823F07043616A0B4385
:104C28009360636AB3F1404F06D3D36823F01F0340
:104C3800216A0B43D3609BE7002B0BDBB3F1804F5A
:104C480011D3184AD36823F4F843216A43EA81232D
:104C5800D3608DE7134AD36823F47873216A43EA53
:104C68004113D36084E70F4AD36823F47823216A79
:104C780043EAC133D3607BE70A4A136823F0010390
:104C88001360FDF7E9FE0746064B1B6813F0040F97
:104C98003FF46EAFFDF7E0FEC01B0228F4D90320F5
:104CA800EFE300BF000C02460C000020032E7FF447
:104CB8006AAF6368002B00F0E683236813F0020FE5
:104CC8006BD0042D5DD00C2D59D0E368002B00F07B
:104CD800BF80AA4A136843F480731360FDF7BCFED3
:104CE8000546A64B1B6813F4806F40F0A880FDF7BB
:104CF800B3FE401B0228F4D90320C2E39F4A13687D
:104D080043F480331360636853B3FDF7A5FE074689
:104D18009A4B1B6813F4003FCFD1FDF79DFEC01BD3
:104D28006428F5D90320ACE3944B1A6842F4802236
:104D38001A601A6822F480121A601A6842F48032E3
:104D48001A60E0E78D4B1A6842F480221A601A68EC
:104D580042F480121A601A6842F480321A60D2E76C
:104D6800FDF77AFE0746854B1B6813F4003FA4D075
:104D7800FDF772FEC01B6428F5D9032081E3022EDB
:104D8800A3D1E368002B00F080837C4A136923F4E5
:104D9800F813216943EA01431361236813F0080FEC
:104DA80000F0AF80754BD3F8943013F0040F63D143
:104DB800724BD3F8942042F00402C3F89420D3F83D
:104DC800943003F004030193019B01256C4B9B6A0B
:104DD80013F0010F52D06369002B7AD0674BD3F8D8
:104DE800F030A16903F08052914211D003F0406283
:104DF800B2F1006F00F04B8313F0806F52D15F4A1D
:104E0800D2F8F03023F08053A1690B43C2F8F03098
:104E18005A4AD2F8F03043F08063C2F8F030FDF718
:104E28001BFE0646554BD3F8F03013F0006F67D1E0
:104E3800FDF712FE801B0528F4D9032021E34F4A11
:104E4800136923F4F813216943EA01431361A4E7C2
:104E58004A4A136823F480731360FDF7FDFD054685
:104E6800464B1B6813F4806F97D0FDF7F5FD401B88
:104E78000228F5D9032004E30025A7E7404A936AEE
:104E880043F001039362FDF7E7FD06463C4B9B6A3E
:104E980013F0010F9FD1FDF7DFFD801B0228F5D924
:104EA8000320EEE2354AD2F8F03023F0A053C2F8DE
:104EB800F030FDF7D1FD0646304BD3F8F03013F053
:104EC800006F9CD0FDF7C8FD801B0528F4D903208E
:104ED800D7E22A4AD2F8F03023F0A053C2F8F030D3
:104EE800FDF7BAFD0646254BD3F8F03013F0006FF6
:104EF80006D0FDF7B1FD801B0528F4D90320C0E2D8
:104F080095BB236813F0040F00F0D9801B4BD3F82E
:104F1800943013F0040F2FD1184BD3F8942042F09B
:104F28000402C3F89420D3F8943003F004030293E6
:104F3800029B0125124B9B6A13F0010F22D0A36834
:104F480013F0010F3AD013F0040F2FD00B4BD3F806
:104F5800F02042F00402C3F8F020D3F8F02042F029
:104F68000102C3F8F02036E0044AD2F8943023F066
:104F78000403C2F89430C4E70025DBE7000C0246BE
:104F880000080246A84A936A43F001039362FDF7BA
:104F980063FD0646A44B9B6A13F0010FCFD1FDF7C2
:104FA8005BFD801B0228F5D903206AE29F4AD2F8EC
:104FB800F03043F00103C2F8F0300CE09B4BD3F81B
:104FC800F02022F00102C3F8F020D3F8F02022F0FC
:104FD8000402C3F8F020A368002B41D0FDF73CFD84
:104FE8000646924BD3F8F03013F0020F08D1FDF7C4
:104FF80033FD801B41F288339842F2D9032040E206
:10500800A36813F0800F15D0884AD2F8F03043F027
:105018008003C2F8F030854BD3F8F03013F4006FFA
:105028004CD1FDF719FD801B41F288339842F2D923
:10503800032026E27D4AD2F8F03023F08003C2F83C
:10504800F0307A4BD3F8F03013F4006F36D0FDF718
:1050580003FD801B41F288339842F2D9032010E205
:10506800FDF7FAFC0646714BD3F8F03013F0020F47
:1050780008D0FDF7F1FC801B41F288339842F2D941
:105088000320FEE1694BD3F8F03013F0800F15D000
:10509800664AD2F8F03023F08003C2F8F030634B50
:1050A800D3F8F03013F4006F08D0FDF7D5FC801B5F
:1050B80041F288339842F2D90320E2E1CDB923685E
:1050C80013F0200F31D0E36ADBB1584A136843F478
:1050D80080531360FDF7C0FC0546544B1B6813F45E
:1050E800005F22D1FDF7B8FC401B0228F5D9032048
:1050F800C7E14E4AD2F8943023F00403C2F8943042
:10510800DDE74A4A136823F480531360FDF7A4FCD3
:105118000546464B1B6813F4005F06D0FDF79CFC60
:10512800401B0228F5D90320ABE1236813F0800F58
:1051380029D0236B9BB13D4A136843F48043136025
:10514800FDF78AFC0546394B1B6813F4004F1AD14A
:10515800FDF782FC401B0228F5D9032091E1334A70
:10516800136823F480431360FDF776FC05462F4B44
:105178001B6813F4004F06D0FDF76EFC401B022895
:10518800F5D903207DE1236813F0400F64D0636BE9
:10519800002B4DD0254A936843F40003936093682D
:1051A80023F07063A16A0B439360636AB3F1404FC5
:1051B80019D3D36823F01F03216A0B43D3601B4A1A
:1051C800136843F010031360FDF746FC0546174BC0
:1051D8001B6813F0200F3FD1FDF73EFC401B02284F
:1051E800F5D903204DE1002B0BDBB3F1804F11D330
:1051F8000E4AD36823F4F843216A43EA8123D36033
:10520800DDE70A4AD36823F47873216A43EA411335
:10521800D360D4E7054AD36823F47823216A43EAA4
:10522800C133D360CBE700BF00080246000C02463A
:10523800A14A136823F010031360FDF70DFC05461F
:105248009D4B1B6813F0200F06D0FDF705FC401B93
:105258000228F5D9032014E1A36B002B00F0198173
:10526800954AD26902F00C020C2A00F0BB80022B8E
:1052780014D0914A136823F080731360FDF7ECFB98
:1052880004468D4B1B6813F0007F00F0A280FDF7E9
:10529800E3FB001B0228F4D90320F2E0864A1368D6
:1052A80023F080731360FDF7D7FB0546824B1B681C
:1052B80013F0007F06D0FDF7CFFB401B0228F5D97D
:1052C8000320DEE07C4BD3F8943013F0040F6CD14C
:1052D800794BD3F8942042F00402C3F89420D3F811
:1052E800943003F004030393039B0125734BDB689D
:1052F80013F4802F5BD10026704AD36823F48023EF
:10530800D3606D4B9A6A22F47F4222F00302E16B6C
:10531800206C013841EA0021606C01430A439A621B
:105328005A6B67481040A26C013AC2F30802E16C5C
:105338000139490289B20A43216D0139090401F48E
:10534800FE010A43616D0139090601F0FE410A4375
:10535800104358639A6A22F010029A62E26DD200F2
:105368009A639A6A42F010029A629A6A22F00C02D0
:10537800A16D0A439A62E6B90DBB4F4B9A6A42F493
:1053880080229A621A6842F080721A60FDF764FB04
:105398000446494B1B6813F0007F18D1FDF75CFBEE
:1053A800001B0228F5D903206BE000259EE70126A3
:1053B800A2E7424AD36843F48023D360DCE73E4A3D
:1053C800D2F8943023F00403C2F89430D5E70020D3
:1053D80057E0394A936A23F4E02323F003039362E6
:1053E80000204EE0344A916A506B012B53D001F0F3
:1053F8000303E26B934250D1C1F30322236C013BB8
:105408009A424CD101F47041636C994249D1C0F37E
:105418000802A36C013B9A4245D1C0F34622E36CD3
:10542800013B9A4241D1C0F30642236D013B9A42A7
:105438003DD1C0F30660636D013B984239D11E4BE4
:105448009B6BC3F3CC03E26D934201D1002018E0BB
:10545800194A936A23F010039362FDF7FDFA054693
:10546800FDF7FAFAA842FBD0E26DD200124B9A631C
:105478009A6A42F010029A62002002E00120704706
:10548800012005B0F0BD0120FBE70120F9E701206C
:10549800F7E70020F5E70120F3E70120F1E7012015
:1054A800EFE70120EDE70120EBE70120E9E7012024
:1054B800E7E70120E5E700BF000C024600080246C6
:1054C8000000808008B5FFF799FA044B1B6AC3F304
:1054D8000213034AD35CD84008BD00BF000C024643
:1054E80014F1000808B5FFF789FA044B1B6AC3F3E7
:1054F8000223034AD35CD84008BD00BF000C024613
:1055080014F1000808B5FFF779FA044B5B6AC3F396
:105518000213034AD35CD84008BD00BF000C024602
:1055280014F1000838B50546354A136823F080534E
:105538001360FDF791FA0446314B1B6813F0005FC6
:1055480006D0FDF789FA001B0228F5D9032038BDDB
:105558002B4B1A6B22F4706222F0030229686868E8
:10556800013841EA00210A431A635A6C2548104061
:10557800AA68013AC2F30802E9680139490289B206
:105588000A4329690139090401F4FE010A436969DA
:105598000139090601F0FE410A43104358641A6BA9
:1055A80022F00C02A9690A431A631A6B296A0A4392
:1055B8001A631A6B22F010021A639A6C22F47F4263
:1055C80022F0F802E96942EAC1029A641A6B42F0D1
:1055D80010021A631A6842F080521A60FDF73CFA0A
:1055E8000446074B1B6813F0005F06D1FDF734FA39
:1055F800001B0228F5D90320A9E70020A7E700BF70
:10560800000C02460000808038B50546354A13680C
:1056180023F080631360FDF71FFA0446314B1B68C3
:1056280013F0006F06D0FDF717FA001B0228F5D912
:10563800032038BD2B4BDA6A22F4706222F0030291
:1056480029686868013841EA00210A43DA62DA6B9E
:1056580025481040AA68013AC2F30802E9680139EE
:10566800490289B20A4329690139090401F4FE0192
:105678000A4369690139090601F0FE410A431043EA
:10568800D863DA6A22F00C02A9690A43DA62DA6A94
:10569800296A0A43DA62DA6A22F01002DA621A6CBC
:1056A80022F47F4222F0F802E96942EAC1021A6450
:1056B800DA6A42F01002DA621A6842F080621A600E
:1056C800FDF7CAF90446074B1B6813F0006F06D1B3
:1056D800FDF7C2F9001B0228F5D90320A9E700202D
:1056E800A7E700BF000C0246000080802DE9F041CA
:1056F80082B00446036813F0010F08D0B04AD2F80C
:10570800E03023F00303016D0B43C2F8E030236857
:1057180013F0020F08D0AA4AD2F8E03023F00C03A5
:10572800616D0B43C2F8E030236813F0040F08D012
:10573800A34AD2F8E03023F03003A16D0B43C2F83E
:10574800E030236813F0080F08D09D4AD2F8E03003
:1057580023F0C003E16D0B43C2F8E030236813F077
:10576800100F08D0964AD2F8E03023F44073216E27
:105778000B43C2F8E030236813F0005F08D0904A6A
:10578800D2F8E43023F44033616E0B43C2F8E430BE
:10579800236813F0200F08D0894AD2F8E83023F0A4
:1057A8000703A16E0B43C2F8E830236813F0400FDB
:1057B80008D0834AD2F8E03023F44063E16E0B430B
:1057C800C2F8E030236813F0800F08D07C4AD2F882
:1057D800E03023F44053216F0B43C2F8E0302368D4
:1057E80013F4807F08D0764AD2F8E83023F0C0035B
:1057F800616F0B43C2F8E830236813F4800F08D0B8
:105808006F4AD2F8E03023F44043A16F0B43C2F84B
:10581800E030236813F0804F08D0694AD2F8E430AA
:1058280023F04073E16F0B43C2F8E4302368002B88
:1058380009DA634AD2F8E43023F04063D4F88010E0
:105848000B43C2F8E430236813F4007F09D05C4AA4
:10585800D2F8E83023F44063D4F884100B43C2F83C
:10586800E830236813F4806F09D0554AD2F8E03045
:1058780023F44023D4F888100B43C2F8E03023689F
:1058880013F4006F09D04E4AD2F8E83023F440737D
:10589800D4F88C100B43C2F8E830236813F4005F87
:1058A80036D0D4F89C30402B20D00BD82BB3202BEB
:1058B80005D104F12C00FFF735FE054622E001264C
:1058C800354627E0602B21D0802B0CD100253C4A9F
:1058D800D2F8E43023F0E003D4F89C100B43C2F86C
:1058E800E430002616E00126354613E0344A936A70
:1058F80043F4803393620025E9E704F10800FFF7D9
:1059080083FE0546002DE2D02E4603E00025DEE7A3
:1059180000263546236813F4804F25D0D4F8A030EC
:10592800B3F5007F45D00DD8002B4BD0B3F5807F61
:1059380005D104F12C00FFF7F5FD054608E0012626
:10594800354611E0B3F5407F02D0B3F5806F2DD115
:10595800002D3DD11A4AD2F8E43023F4E063D4F89C
:10596800A0100B43C2F8E430236813F4004F10D0A2
:10597800D4F8B430B3F5005F33D02BD9B3F5804FEA
:1059880034D0B3F5A04F31D0B3F5405F2ED0012607
:105998003546236813F4803F46D0D4F89430042B5E
:1059A8005DD8DFE803F03631563636000126354635
:1059B800DAE7034A936A43F480339362C8E700BF87
:1059C800000C024604F10800FFF71EFE0546BFE77B
:1059D8002E46C9E753B1B3F5805F07D00126354697
:1059E800D7E704F10800FFF70FFE054655B9804ACE
:1059F800D2F8E83023F4E043D4F8B4100B43C2F8EB
:105A0800E830C6E72E46C4E7794A936A43F4803300
:105A180093623DBB764AD2F8E43023F00703D4F80A
:105A280094100B43C2F8E430236813F4003F30D0DD
:105A3800D4F89830B3F5003F00F0898017D8E3B167
:105A4800B3F5803F10D16A4A936A43F48033936276
:105A580013E004F12C00FFF765FD0546D9E70126A0
:105A68003546E1E72E46DFE70126354611E0B3F576
:105A7800403F02D0B3F5802F66D1002D6DD15C4A2E
:105A8800D2F8E83023F4E023D4F898100B43C2F896
:105A9800E830236813F4802F7AD0554BD3F894302C
:105AA80013F0040F5BD1524BD3F8942042F0040258
:105AB800C3F89420D3F8943003F004030193019BB6
:105AC8004FF001084B4A936A43F001039362FCF7D5
